{
  "contractName": "DecoProjectsStub",
  "abi": [
    {
      "constant": true,
      "inputs": [],
      "name": "arbiterShareFee",
      "outputs": [
        {
          "name": "",
          "type": "uint8"
        }
      ],
      "payable": false,
      "stateMutability": "view",
      "type": "function"
    },
    {
      "constant": true,
      "inputs": [],
      "name": "feedbackWindow",
      "outputs": [
        {
          "name": "",
          "type": "uint8"
        }
      ],
      "payable": false,
      "stateMutability": "view",
      "type": "function"
    },
    {
      "constant": true,
      "inputs": [],
      "name": "client",
      "outputs": [
        {
          "name": "",
          "type": "address"
        }
      ],
      "payable": false,
      "stateMutability": "view",
      "type": "function"
    },
    {
      "constant": false,
      "inputs": [
        {
          "name": "_newAddress",
          "type": "address"
        }
      ],
      "name": "setRelayContractAddress",
      "outputs": [],
      "payable": false,
      "stateMutability": "nonpayable",
      "type": "function"
    },
    {
      "constant": true,
      "inputs": [],
      "name": "projectMilestonesCountConfig",
      "outputs": [
        {
          "name": "",
          "type": "uint8"
        }
      ],
      "payable": false,
      "stateMutability": "view",
      "type": "function"
    },
    {
      "constant": true,
      "inputs": [
        {
          "name": "",
          "type": "address"
        },
        {
          "name": "",
          "type": "uint256"
        }
      ],
      "name": "clientProjects",
      "outputs": [
        {
          "name": "",
          "type": "bytes32"
        }
      ],
      "payable": false,
      "stateMutability": "view",
      "type": "function"
    },
    {
      "constant": true,
      "inputs": [],
      "name": "projectStartDateConfig",
      "outputs": [
        {
          "name": "",
          "type": "uint256"
        }
      ],
      "payable": false,
      "stateMutability": "view",
      "type": "function"
    },
    {
      "constant": true,
      "inputs": [],
      "name": "maker",
      "outputs": [
        {
          "name": "",
          "type": "address"
        }
      ],
      "payable": false,
      "stateMutability": "view",
      "type": "function"
    },
    {
      "constant": true,
      "inputs": [
        {
          "name": "_maker",
          "type": "address"
        }
      ],
      "name": "getMakerProjects",
      "outputs": [
        {
          "name": "",
          "type": "bytes32[]"
        }
      ],
      "payable": false,
      "stateMutability": "view",
      "type": "function"
    },
    {
      "constant": true,
      "inputs": [],
      "name": "projectEndDateConfig",
      "outputs": [
        {
          "name": "",
          "type": "uint256"
        }
      ],
      "payable": false,
      "stateMutability": "view",
      "type": "function"
    },
    {
      "constant": true,
      "inputs": [
        {
          "name": "",
          "type": "address"
        },
        {
          "name": "",
          "type": "uint256"
        }
      ],
      "name": "makerProjects",
      "outputs": [
        {
          "name": "",
          "type": "bytes32"
        }
      ],
      "payable": false,
      "stateMutability": "view",
      "type": "function"
    },
    {
      "constant": false,
      "inputs": [],
      "name": "renounceOwnership",
      "outputs": [],
      "payable": false,
      "stateMutability": "nonpayable",
      "type": "function"
    },
    {
      "constant": true,
      "inputs": [],
      "name": "arbiterFixedFee",
      "outputs": [
        {
          "name": "",
          "type": "uint256"
        }
      ],
      "payable": false,
      "stateMutability": "view",
      "type": "function"
    },
    {
      "constant": true,
      "inputs": [],
      "name": "owner",
      "outputs": [
        {
          "name": "",
          "type": "address"
        }
      ],
      "payable": false,
      "stateMutability": "view",
      "type": "function"
    },
    {
      "constant": true,
      "inputs": [],
      "name": "isOwner",
      "outputs": [
        {
          "name": "",
          "type": "bool"
        }
      ],
      "payable": false,
      "stateMutability": "view",
      "type": "function"
    },
    {
      "constant": true,
      "inputs": [
        {
          "name": "_client",
          "type": "address"
        }
      ],
      "name": "getClientProjects",
      "outputs": [
        {
          "name": "",
          "type": "bytes32[]"
        }
      ],
      "payable": false,
      "stateMutability": "view",
      "type": "function"
    },
    {
      "constant": true,
      "inputs": [
        {
          "name": "_client",
          "type": "address"
        }
      ],
      "name": "clientsAverageRating",
      "outputs": [
        {
          "name": "",
          "type": "uint256"
        },
        {
          "name": "",
          "type": "uint256"
        }
      ],
      "payable": false,
      "stateMutability": "view",
      "type": "function"
    },
    {
      "constant": true,
      "inputs": [
        {
          "name": "",
          "type": "bytes32"
        }
      ],
      "name": "projects",
      "outputs": [
        {
          "name": "agreementId",
          "type": "string"
        },
        {
          "name": "client",
          "type": "address"
        },
        {
          "name": "maker",
          "type": "address"
        },
        {
          "name": "arbiter",
          "type": "address"
        },
        {
          "name": "escrowContractAddress",
          "type": "address"
        },
        {
          "name": "startDate",
          "type": "uint256"
        },
        {
          "name": "endDate",
          "type": "uint256"
        },
        {
          "name": "milestoneStartWindow",
          "type": "uint8"
        },
        {
          "name": "feedbackWindow",
          "type": "uint8"
        },
        {
          "name": "milestonesCount",
          "type": "uint8"
        },
        {
          "name": "customerSatisfaction",
          "type": "uint8"
        },
        {
          "name": "makerSatisfaction",
          "type": "uint8"
        },
        {
          "name": "agreementsEncrypted",
          "type": "bool"
        }
      ],
      "payable": false,
      "stateMutability": "view",
      "type": "function"
    },
    {
      "constant": true,
      "inputs": [
        {
          "name": "",
          "type": "bytes32"
        }
      ],
      "name": "projectArbiterShareFee",
      "outputs": [
        {
          "name": "",
          "type": "uint8"
        }
      ],
      "payable": false,
      "stateMutability": "view",
      "type": "function"
    },
    {
      "constant": true,
      "inputs": [],
      "name": "checkIfProjectExistsConfig",
      "outputs": [
        {
          "name": "",
          "type": "bool"
        }
      ],
      "payable": false,
      "stateMutability": "view",
      "type": "function"
    },
    {
      "constant": true,
      "inputs": [],
      "name": "projectCompleted",
      "outputs": [
        {
          "name": "",
          "type": "bool"
        }
      ],
      "payable": false,
      "stateMutability": "view",
      "type": "function"
    },
    {
      "constant": true,
      "inputs": [
        {
          "name": "",
          "type": "bytes32"
        }
      ],
      "name": "projectArbiterFixedFee",
      "outputs": [
        {
          "name": "",
          "type": "uint256"
        }
      ],
      "payable": false,
      "stateMutability": "view",
      "type": "function"
    },
    {
      "constant": true,
      "inputs": [
        {
          "name": "_maker",
          "type": "address"
        }
      ],
      "name": "makersAverageRating",
      "outputs": [
        {
          "name": "",
          "type": "uint256"
        },
        {
          "name": "",
          "type": "uint256"
        }
      ],
      "payable": false,
      "stateMutability": "view",
      "type": "function"
    },
    {
      "constant": true,
      "inputs": [],
      "name": "escrowContractStub",
      "outputs": [
        {
          "name": "",
          "type": "address"
        }
      ],
      "payable": false,
      "stateMutability": "view",
      "type": "function"
    },
    {
      "constant": true,
      "inputs": [],
      "name": "milestoneStartWindow",
      "outputs": [
        {
          "name": "",
          "type": "uint8"
        }
      ],
      "payable": false,
      "stateMutability": "view",
      "type": "function"
    },
    {
      "constant": false,
      "inputs": [
        {
          "name": "_agreementHash",
          "type": "bytes32"
        },
        {
          "name": "_rating",
          "type": "uint8"
        }
      ],
      "name": "rateProjectSecondParty",
      "outputs": [],
      "payable": false,
      "stateMutability": "nonpayable",
      "type": "function"
    },
    {
      "constant": false,
      "inputs": [
        {
          "name": "_tokenAddress",
          "type": "address"
        },
        {
          "name": "_tokens",
          "type": "uint256"
        }
      ],
      "name": "transferAnyERC20Token",
      "outputs": [
        {
          "name": "success",
          "type": "bool"
        }
      ],
      "payable": false,
      "stateMutability": "nonpayable",
      "type": "function"
    },
    {
      "constant": true,
      "inputs": [],
      "name": "relayContractAddress",
      "outputs": [
        {
          "name": "",
          "type": "address"
        }
      ],
      "payable": false,
      "stateMutability": "view",
      "type": "function"
    },
    {
      "constant": false,
      "inputs": [
        {
          "name": "_agreementId",
          "type": "string"
        },
        {
          "name": "_client",
          "type": "address"
        },
        {
          "name": "_arbiter",
          "type": "address"
        },
        {
          "name": "_maker",
          "type": "address"
        },
        {
          "name": "_makersSignature",
          "type": "bytes"
        },
        {
          "name": "_milestonesCount",
          "type": "uint8"
        },
        {
          "name": "_milestoneStartWindow",
          "type": "uint8"
        },
        {
          "name": "_feedbackWindow",
          "type": "uint8"
        },
        {
          "name": "_agreementEncrypted",
          "type": "bool"
        }
      ],
      "name": "startProject",
      "outputs": [],
      "payable": false,
      "stateMutability": "nonpayable",
      "type": "function"
    },
    {
      "constant": false,
      "inputs": [
        {
          "name": "newOwner",
          "type": "address"
        }
      ],
      "name": "transferOwnership",
      "outputs": [],
      "payable": false,
      "stateMutability": "nonpayable",
      "type": "function"
    },
    {
      "constant": true,
      "inputs": [],
      "name": "arbiter",
      "outputs": [
        {
          "name": "",
          "type": "address"
        }
      ],
      "payable": false,
      "stateMutability": "view",
      "type": "function"
    },
    {
      "inputs": [
        {
          "name": "_chainId",
          "type": "uint256"
        }
      ],
      "payable": false,
      "stateMutability": "nonpayable",
      "type": "constructor"
    },
    {
      "payable": true,
      "stateMutability": "payable",
      "type": "fallback"
    },
    {
      "anonymous": false,
      "inputs": [
        {
          "indexed": true,
          "name": "agreementHash",
          "type": "bytes32"
        },
        {
          "indexed": false,
          "name": "updatedBy",
          "type": "address"
        },
        {
          "indexed": false,
          "name": "timestamp",
          "type": "uint256"
        },
        {
          "indexed": false,
          "name": "state",
          "type": "uint8"
        }
      ],
      "name": "LogProjectStateUpdate",
      "type": "event"
    },
    {
      "anonymous": false,
      "inputs": [
        {
          "indexed": true,
          "name": "agreementHash",
          "type": "bytes32"
        },
        {
          "indexed": true,
          "name": "ratedBy",
          "type": "address"
        },
        {
          "indexed": true,
          "name": "ratingTarget",
          "type": "address"
        },
        {
          "indexed": false,
          "name": "rating",
          "type": "uint8"
        },
        {
          "indexed": false,
          "name": "timestamp",
          "type": "uint256"
        }
      ],
      "name": "LogProjectRated",
      "type": "event"
    },
    {
      "anonymous": false,
      "inputs": [
        {
          "indexed": true,
          "name": "previousOwner",
          "type": "address"
        },
        {
          "indexed": true,
          "name": "newOwner",
          "type": "address"
        }
      ],
      "name": "OwnershipTransferred",
      "type": "event"
    },
    {
      "constant": false,
      "inputs": [
        {
          "name": "",
          "type": "bytes32"
        }
      ],
      "name": "completeProject",
      "outputs": [],
      "payable": false,
      "stateMutability": "nonpayable",
      "type": "function"
    },
    {
      "constant": false,
      "inputs": [
        {
          "name": "_agreementHash",
          "type": "bytes32"
        }
      ],
      "name": "terminateProject",
      "outputs": [],
      "payable": false,
      "stateMutability": "nonpayable",
      "type": "function"
    },
    {
      "constant": false,
      "inputs": [
        {
          "name": "value",
          "type": "bool"
        }
      ],
      "name": "setProjectCompleted",
      "outputs": [],
      "payable": false,
      "stateMutability": "nonpayable",
      "type": "function"
    },
    {
      "constant": false,
      "inputs": [
        {
          "name": "config",
          "type": "bool"
        }
      ],
      "name": "setIsProjectExistingConfig",
      "outputs": [],
      "payable": false,
      "stateMutability": "nonpayable",
      "type": "function"
    },
    {
      "constant": false,
      "inputs": [
        {
          "name": "config",
          "type": "uint8"
        }
      ],
      "name": "setProjectMilestonesCountConfig",
      "outputs": [],
      "payable": false,
      "stateMutability": "nonpayable",
      "type": "function"
    },
    {
      "constant": false,
      "inputs": [
        {
          "name": "config",
          "type": "uint256"
        }
      ],
      "name": "setProjectEndDateConfig",
      "outputs": [],
      "payable": false,
      "stateMutability": "nonpayable",
      "type": "function"
    },
    {
      "constant": false,
      "inputs": [
        {
          "name": "config",
          "type": "uint256"
        }
      ],
      "name": "setProjectStartDateConfig",
      "outputs": [],
      "payable": false,
      "stateMutability": "nonpayable",
      "type": "function"
    },
    {
      "constant": false,
      "inputs": [
        {
          "name": "newAddress",
          "type": "address"
        }
      ],
      "name": "setEscrowContractStubAddress",
      "outputs": [],
      "payable": false,
      "stateMutability": "nonpayable",
      "type": "function"
    },
    {
      "constant": false,
      "inputs": [
        {
          "name": "newAddress",
          "type": "address"
        }
      ],
      "name": "setProjectClient",
      "outputs": [],
      "payable": false,
      "stateMutability": "nonpayable",
      "type": "function"
    },
    {
      "constant": false,
      "inputs": [
        {
          "name": "newAddress",
          "type": "address"
        }
      ],
      "name": "setProjectMaker",
      "outputs": [],
      "payable": false,
      "stateMutability": "nonpayable",
      "type": "function"
    },
    {
      "constant": false,
      "inputs": [
        {
          "name": "newAddress",
          "type": "address"
        }
      ],
      "name": "setProjectArbiter",
      "outputs": [],
      "payable": false,
      "stateMutability": "nonpayable",
      "type": "function"
    },
    {
      "constant": false,
      "inputs": [
        {
          "name": "_window",
          "type": "uint8"
        }
      ],
      "name": "setProjectFeedbackWindow",
      "outputs": [],
      "payable": false,
      "stateMutability": "nonpayable",
      "type": "function"
    },
    {
      "constant": false,
      "inputs": [
        {
          "name": "_window",
          "type": "uint8"
        }
      ],
      "name": "setProjectMilestoneStartWindow",
      "outputs": [],
      "payable": false,
      "stateMutability": "nonpayable",
      "type": "function"
    },
    {
      "constant": false,
      "inputs": [
        {
          "name": "fixedFee",
          "type": "uint256"
        },
        {
          "name": "shareFee",
          "type": "uint8"
        }
      ],
      "name": "setArbiterFees",
      "outputs": [],
      "payable": false,
      "stateMutability": "nonpayable",
      "type": "function"
    },
    {
      "constant": true,
      "inputs": [
        {
          "name": "",
          "type": "bytes32"
        }
      ],
      "name": "checkIfProjectExists",
      "outputs": [
        {
          "name": "",
          "type": "bool"
        }
      ],
      "payable": false,
      "stateMutability": "view",
      "type": "function"
    },
    {
      "constant": true,
      "inputs": [
        {
          "name": "",
          "type": "bytes32"
        }
      ],
      "name": "getProjectEndDate",
      "outputs": [
        {
          "name": "",
          "type": "uint256"
        }
      ],
      "payable": false,
      "stateMutability": "view",
      "type": "function"
    },
    {
      "constant": true,
      "inputs": [
        {
          "name": "",
          "type": "bytes32"
        }
      ],
      "name": "getProjectStartDate",
      "outputs": [
        {
          "name": "",
          "type": "uint256"
        }
      ],
      "payable": false,
      "stateMutability": "view",
      "type": "function"
    },
    {
      "constant": true,
      "inputs": [
        {
          "name": "",
          "type": "bytes32"
        }
      ],
      "name": "getProjectMilestonesCount",
      "outputs": [
        {
          "name": "",
          "type": "uint8"
        }
      ],
      "payable": false,
      "stateMutability": "view",
      "type": "function"
    },
    {
      "constant": true,
      "inputs": [
        {
          "name": "",
          "type": "bytes32"
        }
      ],
      "name": "getProjectEscrowAddress",
      "outputs": [
        {
          "name": "",
          "type": "address"
        }
      ],
      "payable": false,
      "stateMutability": "view",
      "type": "function"
    },
    {
      "constant": true,
      "inputs": [
        {
          "name": "",
          "type": "bytes32"
        }
      ],
      "name": "getProjectClient",
      "outputs": [
        {
          "name": "",
          "type": "address"
        }
      ],
      "payable": false,
      "stateMutability": "view",
      "type": "function"
    },
    {
      "constant": true,
      "inputs": [
        {
          "name": "",
          "type": "bytes32"
        }
      ],
      "name": "getProjectMaker",
      "outputs": [
        {
          "name": "",
          "type": "address"
        }
      ],
      "payable": false,
      "stateMutability": "view",
      "type": "function"
    },
    {
      "constant": true,
      "inputs": [
        {
          "name": "",
          "type": "bytes32"
        }
      ],
      "name": "getProjectArbiter",
      "outputs": [
        {
          "name": "",
          "type": "address"
        }
      ],
      "payable": false,
      "stateMutability": "view",
      "type": "function"
    },
    {
      "constant": true,
      "inputs": [
        {
          "name": "",
          "type": "bytes32"
        }
      ],
      "name": "getProjectFeedbackWindow",
      "outputs": [
        {
          "name": "",
          "type": "uint8"
        }
      ],
      "payable": false,
      "stateMutability": "view",
      "type": "function"
    },
    {
      "constant": true,
      "inputs": [
        {
          "name": "",
          "type": "bytes32"
        }
      ],
      "name": "getProjectMilestoneStartWindow",
      "outputs": [
        {
          "name": "",
          "type": "uint8"
        }
      ],
      "payable": false,
      "stateMutability": "view",
      "type": "function"
    },
    {
      "constant": true,
      "inputs": [
        {
          "name": "",
          "type": "bytes32"
        }
      ],
      "name": "getProjectArbitrationFees",
      "outputs": [
        {
          "name": "",
          "type": "uint256"
        },
        {
          "name": "",
          "type": "uint8"
        }
      ],
      "payable": false,
      "stateMutability": "view",
      "type": "function"
    },
    {
      "constant": true,
      "inputs": [
        {
          "name": "",
          "type": "bytes32"
        },
        {
          "name": "_respondent",
          "type": "address"
        },
        {
          "name": "_initiator",
          "type": "address"
        },
        {
          "name": "_arbiter",
          "type": "address"
        }
      ],
      "name": "getInfoForDisputeAndValidate",
      "outputs": [
        {
          "name": "",
          "type": "uint256"
        },
        {
          "name": "",
          "type": "uint8"
        },
        {
          "name": "",
          "type": "address"
        }
      ],
      "payable": false,
      "stateMutability": "view",
      "type": "function"
    }
  ],
  "bytecode": "0x60806040526001600860006101000a81548160ff021916908315150217905550600a600860016101000a81548160ff021916908360ff16021790555060006009556000600a556000600b60006101000a81548160ff0219169083151502179055506000600e60146101000a81548160ff021916908360ff1602179055506000600e60156101000a81548160ff021916908360ff160217905550348015620000a557600080fd5b5060405160208062004bdb8339810180604052810190808051906020019092919050505080336000806101000a81548173ffffffffffffffffffffffffffffffffffffffff021916908373ffffffffffffffffffffffffffffffffffffffff1602179055506000809054906101000a900473ffffffffffffffffffffffffffffffffffffffff1673ffffffffffffffffffffffffffffffffffffffff16600073ffffffffffffffffffffffffffffffffffffffff167f8be0079c531659141344cd1fd0a4f28419497f9722a3daafe3b4186f6b6457e060405160405180910390a36000811415151562000226576040517f08c379a00000000000000000000000000000000000000000000000000000000081526004018080602001828103825260228152602001807f596f75206d75737420737065636966792061206e6f6e7a65726f20636861696e81526020017f496400000000000000000000000000000000000000000000000000000000000081525060400191505060405180910390fd5b620002e16080604051908101604052806040805190810160405280600c81526020017f4465636f2e4e6574776f726b000000000000000000000000000000000000000081525081526020016040805190810160405280600181526020017f310000000000000000000000000000000000000000000000000000000000000081525081526020018381526020013073ffffffffffffffffffffffffffffffffffffffff16815250620002f3640100000000026401000000009004565b6002816000191690555050506200053d565b600060405180807f454950373132446f6d61696e28737472696e67206e616d652c737472696e672081526020017f76657273696f6e2c75696e7432353620636861696e49642c616464726573732081526020017f766572696679696e67436f6e74726163742900000000000000000000000000008152506052019050604051809103902082600001516040518082805190602001908083835b602083101515620003b357805182526020820191506020810190506020830392506200038c565b6001836020036101000a038019825116818451168082178552505050505050905001915050604051809103902083602001516040518082805190602001908083835b6020831015156200041c5780518252602082019150602081019050602083039250620003f5565b6001836020036101000a038019825116818451168082178552505050505050905001915050604051809103902084604001518560600151604051602001808660001916600019168152602001856000191660001916815260200184600019166000191681526020018381526020018273ffffffffffffffffffffffffffffffffffffffff1673ffffffffffffffffffffffffffffffffffffffff168152602001955050505050506040516020818303038152906040526040518082805190602001908083835b602083101515620005095780518252602082019150602081019050602083039250620004e2565b6001836020036101000a03801982511681845116808217855250505050505090500191505060405180910390209050919050565b61468e806200054d6000396000f3006080604052600436106102a8576000357c0100000000000000000000000000000000000000000000000000000000900463ffffffff16806276d6de146103225780630c02985814610353578063109e94cf146103845780631604fa4d146103db5780632d2bcd37146104245780632dbba4221461046757806334aa982a14610498578063427583a21461057d57806346bf71a0146105e65780634a80dcab1461061157806350655d8c1461065c578063542fd556146106b3578063553653201461074b578063570f65c4146107765780635f6dd297146107c857806362074c311461080d5780636967e9ee1461087e5780636fb0889c146108e7578063715018a6146109145780637d850b031461092b5780638432f6691461096e5780638658d46e146109a85780638da5cb5b146109d35780638f32d59b14610a2a5780639100dc8214610a5957806393097d8614610a9c5780639827a99614610acb5780639a8b3d8f14610afc578063a3e2b1de14610b94578063a5e20eaa14610c05578063ab065d6c14610c4a578063ac76a49914610cbb578063b88467c214610d19578063b96ea12d14610d8a578063bb43cdc514610f5a578063c45b1b4d14610f89578063c614820d14610fd4578063c622187814611003578063c8706db414611032578063c8ede71214611077578063c99b66cf146110d5578063d20ecde51461112c578063d6fc2e621461115d578063d90b49581461119b578063d9f3b124146111cc578063dbd2d5981461120f578063dc39d06d1461123f578063dd4bd4b7146112a4578063dfa93d64146112ef578063e4cfbc5114611346578063e591fa2614611389578063e82007f2146113d4578063ea23361c14611401578063ed4c87ac14611431578063f2fde38b14611517578063f3a492281461155a578063fe25e00a1461158a575b600034141515610320576040517f08c379a000000000000000000000000000000000000000000000000000000000815260040180806020018281038252601a8152602001807f426c6f636b696e6720616e7920696e636f6d696e67204554482e00000000000081525060200191505060405180910390fd5b005b34801561032e57600080fd5b506103376115e1565b604051808260ff1660ff16815260200191505060405180910390f35b34801561035f57600080fd5b506103686115f4565b604051808260ff1660ff16815260200191505060405180910390f35b34801561039057600080fd5b50610399611607565b604051808273ffffffffffffffffffffffffffffffffffffffff1673ffffffffffffffffffffffffffffffffffffffff16815260200191505060405180910390f35b3480156103e757600080fd5b5061040a600480360381019080803560001916906020019092919050505061162d565b604051808215151515815260200191505060405180910390f35b34801561043057600080fd5b50610465600480360381019080803573ffffffffffffffffffffffffffffffffffffffff169060200190929190505050611646565b005b34801561047357600080fd5b5061047c611742565b604051808260ff1660ff16815260200191505060405180910390f35b3480156104a457600080fd5b506105276004803603810190808035600019169060200190929190803573ffffffffffffffffffffffffffffffffffffffff169060200190929190803573ffffffffffffffffffffffffffffffffffffffff169060200190929190803573ffffffffffffffffffffffffffffffffffffffff169060200190929190505050611755565b604051808481526020018360ff1660ff1681526020018273ffffffffffffffffffffffffffffffffffffffff1673ffffffffffffffffffffffffffffffffffffffff168152602001935050505060405180910390f35b34801561058957600080fd5b506105c8600480360381019080803573ffffffffffffffffffffffffffffffffffffffff16906020019092919080359060200190929190505050611aa6565b60405180826000191660001916815260200191505060405180910390f35b3480156105f257600080fd5b506105fb611ad6565b6040518082815260200191505060405180910390f35b34801561061d57600080fd5b506106406004803603810190808035600019169060200190929190505050611adc565b604051808260ff1660ff16815260200191505060405180910390f35b34801561066857600080fd5b50610671611af5565b604051808273ffffffffffffffffffffffffffffffffffffffff1673ffffffffffffffffffffffffffffffffffffffff16815260200191505060405180910390f35b3480156106bf57600080fd5b506106f4600480360381019080803573ffffffffffffffffffffffffffffffffffffffff169060200190929190505050611b1b565b6040518080602001828103825283818151815260200191508051906020019060200280838360005b8381101561073757808201518184015260208101905061071c565b505050509050019250505060405180910390f35b34801561075757600080fd5b50610760611bb6565b6040518082815260200191505060405180910390f35b34801561078257600080fd5b506107a56004803603810190808035600019169060200190929190505050611bbc565b604051808381526020018260ff1660ff1681526020019250505060405180910390f35b3480156107d457600080fd5b506107f76004803603810190808035600019169060200190929190505050611bdb565b6040518082815260200191505060405180910390f35b34801561081957600080fd5b5061083c6004803603810190808035600019169060200190929190505050611be7565b604051808273ffffffffffffffffffffffffffffffffffffffff1673ffffffffffffffffffffffffffffffffffffffff16815260200191505060405180910390f35b34801561088a57600080fd5b506108c9600480360381019080803573ffffffffffffffffffffffffffffffffffffffff16906020019092919080359060200190929190505050611c13565b60405180826000191660001916815260200191505060405180910390f35b3480156108f357600080fd5b5061091260048036038101908080359060200190929190505050611c43565b005b34801561092057600080fd5b50610929611c4d565b005b34801561093757600080fd5b5061096c600480360381019080803573ffffffffffffffffffffffffffffffffffffffff169060200190929190505050611d1f565b005b34801561097a57600080fd5b506109a660048036038101908080359060200190929190803560ff169060200190929190505050611d63565b005b3480156109b457600080fd5b506109bd611d89565b6040518082815260200191505060405180910390f35b3480156109df57600080fd5b506109e8611d8f565b604051808273ffffffffffffffffffffffffffffffffffffffff1673ffffffffffffffffffffffffffffffffffffffff16815260200191505060405180910390f35b348015610a3657600080fd5b50610a3f611db8565b604051808215151515815260200191505060405180910390f35b348015610a6557600080fd5b50610a9a600480360381019080803573ffffffffffffffffffffffffffffffffffffffff169060200190929190505050611e0f565b005b348015610aa857600080fd5b50610ac9600480360381019080803515159060200190929190505050611e53565b005b348015610ad757600080fd5b50610afa6004803603810190808035600019169060200190929190505050611e70565b005b348015610b0857600080fd5b50610b3d600480360381019080803573ffffffffffffffffffffffffffffffffffffffff1690602001909291905050506120e1565b6040518080602001828103825283818151815260200191508051906020019060200280838360005b83811015610b80578082015181840152602081019050610b65565b505050509050019250505060405180910390f35b348015610ba057600080fd5b50610bc3600480360381019080803560001916906020019092919050505061217c565b604051808273ffffffffffffffffffffffffffffffffffffffff1673ffffffffffffffffffffffffffffffffffffffff16815260200191505060405180910390f35b348015610c1157600080fd5b50610c3460048036038101908080356000191690602001909291905050506121a8565b6040518082815260200191505060405180910390f35b348015610c5657600080fd5b50610c7960048036038101908080356000191690602001909291905050506121b4565b604051808273ffffffffffffffffffffffffffffffffffffffff1673ffffffffffffffffffffffffffffffffffffffff16815260200191505060405180910390f35b348015610cc757600080fd5b50610cfc600480360381019080803573ffffffffffffffffffffffffffffffffffffffff1690602001909291905050506121e0565b604051808381526020018281526020019250505060405180910390f35b348015610d2557600080fd5b50610d4860048036038101908080356000191690602001909291905050506121f7565b604051808273ffffffffffffffffffffffffffffffffffffffff1673ffffffffffffffffffffffffffffffffffffffff16815260200191505060405180910390f35b348015610d9657600080fd5b50610db96004803603810190808035600019169060200190929190505050612223565b60405180806020018e73ffffffffffffffffffffffffffffffffffffffff1673ffffffffffffffffffffffffffffffffffffffff1681526020018d73ffffffffffffffffffffffffffffffffffffffff1673ffffffffffffffffffffffffffffffffffffffff1681526020018c73ffffffffffffffffffffffffffffffffffffffff1673ffffffffffffffffffffffffffffffffffffffff1681526020018b73ffffffffffffffffffffffffffffffffffffffff1673ffffffffffffffffffffffffffffffffffffffff1681526020018a81526020018981526020018860ff1660ff1681526020018760ff1660ff1681526020018660ff1660ff1681526020018560ff1660ff1681526020018460ff1660ff1681526020018315151515815260200182810382528f818151815260200191508051906020019080838360005b83811015610f13578082015181840152602081019050610ef8565b50505050905090810190601f168015610f405780820380516001836020036101000a031916815260200191505b509e50505050505050505050505050505060405180910390f35b348015610f6657600080fd5b50610f876004803603810190808035151590602001909291905050506123ef565b005b348015610f9557600080fd5b50610fb8600480360381019080803560001916906020019092919050505061240c565b604051808260ff1660ff16815260200191505060405180910390f35b348015610fe057600080fd5b50610fe961242c565b604051808215151515815260200191505060405180910390f35b34801561100f57600080fd5b5061101861243f565b604051808215151515815260200191505060405180910390f35b34801561103e57600080fd5b506110616004803603810190808035600019169060200190929190505050612452565b6040518082815260200191505060405180910390f35b34801561108357600080fd5b506110b8600480360381019080803573ffffffffffffffffffffffffffffffffffffffff16906020019092919050505061246a565b604051808381526020018281526020019250505060405180910390f35b3480156110e157600080fd5b506110ea612481565b604051808273ffffffffffffffffffffffffffffffffffffffff1673ffffffffffffffffffffffffffffffffffffffff16815260200191505060405180910390f35b34801561113857600080fd5b506111416124a7565b604051808260ff1660ff16815260200191505060405180910390f35b34801561116957600080fd5b506111996004803603810190808035600019169060200190929190803560ff1690602001909291905050506124ba565b005b3480156111a757600080fd5b506111ca6004803603810190808035600019169060200190929190505050612ced565b005b3480156111d857600080fd5b5061120d600480360381019080803573ffffffffffffffffffffffffffffffffffffffff169060200190929190505050612d12565b005b34801561121b57600080fd5b5061123d600480360381019080803560ff169060200190929190505050612d56565b005b34801561124b57600080fd5b5061128a600480360381019080803573ffffffffffffffffffffffffffffffffffffffff16906020019092919080359060200190929190505050612d74565b604051808215151515815260200191505060405180910390f35b3480156112b057600080fd5b506112d36004803603810190808035600019169060200190929190505050612e7b565b604051808260ff1660ff16815260200191505060405180910390f35b3480156112fb57600080fd5b50611304612e94565b604051808273ffffffffffffffffffffffffffffffffffffffff1673ffffffffffffffffffffffffffffffffffffffff16815260200191505060405180910390f35b34801561135257600080fd5b50611387600480360381019080803573ffffffffffffffffffffffffffffffffffffffff169060200190929190505050612eba565b005b34801561139557600080fd5b506113b86004803603810190808035600019169060200190929190505050612efe565b604051808260ff1660ff16815260200191505060405180910390f35b3480156113e057600080fd5b506113ff60048036038101908080359060200190929190505050612f17565b005b34801561140d57600080fd5b5061142f600480360381019080803560ff169060200190929190505050612f21565b005b34801561143d57600080fd5b50611515600480360381019080803590602001908201803590602001919091929391929390803573ffffffffffffffffffffffffffffffffffffffff169060200190929190803573ffffffffffffffffffffffffffffffffffffffff169060200190929190803573ffffffffffffffffffffffffffffffffffffffff169060200190929190803590602001908201803590602001919091929391929390803560ff169060200190929190803560ff169060200190929190803560ff169060200190929190803515159060200190929190505050612f3f565b005b34801561152357600080fd5b50611558600480360381019080803573ffffffffffffffffffffffffffffffffffffffff169060200190929190505050613949565b005b34801561156657600080fd5b50611588600480360381019080803560ff169060200190929190505050613968565b005b34801561159657600080fd5b5061159f613986565b604051808273ffffffffffffffffffffffffffffffffffffffff1673ffffffffffffffffffffffffffffffffffffffff16815260200191505060405180910390f35b601060009054906101000a900460ff1681565b600e60149054906101000a900460ff1681565b600c60009054906101000a900473ffffffffffffffffffffffffffffffffffffffff1681565b6000600860009054906101000a900460ff169050919050565b61164e611db8565b151561165957600080fd5b600073ffffffffffffffffffffffffffffffffffffffff168173ffffffffffffffffffffffffffffffffffffffff16141515156116fe576040517f08c379a000000000000000000000000000000000000000000000000000000000815260040180806020018281038252601e8152602001807f52656c61792061646472657373206d757374206e6f74206265203078302e000081525060200191505060405180910390fd5b80600160006101000a81548173ffffffffffffffffffffffffffffffffffffffff021916908373ffffffffffffffffffffffffffffffffffffffff16021790555050565b600860019054906101000a900460ff1681565b60008060008373ffffffffffffffffffffffffffffffffffffffff16600e60009054906101000a900473ffffffffffffffffffffffffffffffffffffffff1673ffffffffffffffffffffffffffffffffffffffff16141515611845576040517f08c379a000000000000000000000000000000000000000000000000000000000815260040180806020018281038252602b8152602001807f417262697465722073686f756c642062652073616d652061732073617665642081526020017f696e2070726f6a6563742e00000000000000000000000000000000000000000081525060400191505060405180910390fd5b600c60009054906101000a900473ffffffffffffffffffffffffffffffffffffffff1673ffffffffffffffffffffffffffffffffffffffff168573ffffffffffffffffffffffffffffffffffffffff161480156118ef5750600d60009054906101000a900473ffffffffffffffffffffffffffffffffffffffff1673ffffffffffffffffffffffffffffffffffffffff168673ffffffffffffffffffffffffffffffffffffffff16145b806119a05750600d60009054906101000a900473ffffffffffffffffffffffffffffffffffffffff1673ffffffffffffffffffffffffffffffffffffffff168573ffffffffffffffffffffffffffffffffffffffff1614801561199f5750600c60009054906101000a900473ffffffffffffffffffffffffffffffffffffffff1673ffffffffffffffffffffffffffffffffffffffff168673ffffffffffffffffffffffffffffffffffffffff16145b5b1515611a60576040517f08c379a000000000000000000000000000000000000000000000000000000000815260040180806020018281038252604f8152602001807f496e69746961746f7220616e6420726573706f6e64656e74206d75737420626581526020017f20646966666572656e7420616e6420657175616c20746f206d616b65722f636c81526020017f69656e74206164647265737365732e000000000000000000000000000000000081525060600191505060405180910390fd5b600f54601060009054906101000a900460ff16600b60019054906101000a900473ffffffffffffffffffffffffffffffffffffffff169250925092509450945094915050565b600560205281600052604060002081815481101515611ac157fe5b90600052602060002001600091509150505481565b600a5481565b6000600860019054906101000a900460ff169050919050565b600d60009054906101000a900473ffffffffffffffffffffffffffffffffffffffff1681565b6060600460008373ffffffffffffffffffffffffffffffffffffffff1673ffffffffffffffffffffffffffffffffffffffff168152602001908152602001600020805480602002602001604051908101604052809291908181526020018280548015611baa57602002820191906000526020600020905b81546000191681526020019060010190808311611b92575b50505050509050919050565b60095481565b600080600f54601060009054906101000a900460ff1691509150915091565b60006009549050919050565b6000600d60009054906101000a900473ffffffffffffffffffffffffffffffffffffffff169050919050565b600460205281600052604060002081815481101515611c2e57fe5b90600052602060002001600091509150505481565b80600a8190555050565b611c55611db8565b1515611c6057600080fd5b600073ffffffffffffffffffffffffffffffffffffffff166000809054906101000a900473ffffffffffffffffffffffffffffffffffffffff1673ffffffffffffffffffffffffffffffffffffffff167f8be0079c531659141344cd1fd0a4f28419497f9722a3daafe3b4186f6b6457e060405160405180910390a360008060006101000a81548173ffffffffffffffffffffffffffffffffffffffff021916908373ffffffffffffffffffffffffffffffffffffffff160217905550565b80600b60016101000a81548173ffffffffffffffffffffffffffffffffffffffff021916908373ffffffffffffffffffffffffffffffffffffffff16021790555050565b81600f8190555080601060006101000a81548160ff021916908360ff1602179055505050565b600f5481565b60008060009054906101000a900473ffffffffffffffffffffffffffffffffffffffff16905090565b60008060009054906101000a900473ffffffffffffffffffffffffffffffffffffffff1673ffffffffffffffffffffffffffffffffffffffff163373ffffffffffffffffffffffffffffffffffffffff1614905090565b80600e60006101000a81548173ffffffffffffffffffffffffffffffffffffffff021916908373ffffffffffffffffffffffffffffffffffffffff16021790555050565b80600b60006101000a81548160ff02191690831515021790555050565b600080600160009054906101000a900473ffffffffffffffffffffffffffffffffffffffff1691508173ffffffffffffffffffffffffffffffffffffffff16635359cf976040518163ffffffff167c0100000000000000000000000000000000000000000000000000000000028152600401602060405180830381600087803b158015611efc57600080fd5b505af1158015611f10573d6000803e3d6000fd5b505050506040513d6020811015611f2657600080fd5b810190808051906020019092919050505090508173ffffffffffffffffffffffffffffffffffffffff16635359cf976040518163ffffffff167c0100000000000000000000000000000000000000000000000000000000028152600401602060405180830381600087803b158015611f9d57600080fd5b505af1158015611fb1573d6000803e3d6000fd5b505050506040513d6020811015611fc757600080fd5b810190808051906020019092919050505073ffffffffffffffffffffffffffffffffffffffff163373ffffffffffffffffffffffffffffffffffffffff161415156120d4578073ffffffffffffffffffffffffffffffffffffffff16636d48931484336040518363ffffffff167c01000000000000000000000000000000000000000000000000000000000281526004018083600019166000191681526020018273ffffffffffffffffffffffffffffffffffffffff1673ffffffffffffffffffffffffffffffffffffffff16815260200192505050600060405180830381600087803b1580156120b757600080fd5b505af11580156120cb573d6000803e3d6000fd5b505050506120dc565b426009819055505b505050565b6060600560008373ffffffffffffffffffffffffffffffffffffffff1673ffffffffffffffffffffffffffffffffffffffff16815260200190815260200160002080548060200260200160405190810160405280929190818152602001828054801561217057602002820191906000526020600020905b81546000191681526020019060010190808311612158575b50505050509050919050565b6000600e60009054906101000a900473ffffffffffffffffffffffffffffffffffffffff169050919050565b6000600a549050919050565b6000600c60009054906101000a900473ffffffffffffffffffffffffffffffffffffffff169050919050565b6000806121ee8360016139ac565b91509150915091565b6000600b60019054906101000a900473ffffffffffffffffffffffffffffffffffffffff169050919050565b6003602052806000526040600020600091509050806000018054600181600116156101000203166002900480601f0160208091040260200160405190810160405280929190818152602001828054600181600116156101000203166002900480156122cf5780601f106122a4576101008083540402835291602001916122cf565b820191906000526020600020905b8154815290600101906020018083116122b257829003601f168201915b5050505050908060010160009054906101000a900473ffffffffffffffffffffffffffffffffffffffff16908060020160009054906101000a900473ffffffffffffffffffffffffffffffffffffffff16908060030160009054906101000a900473ffffffffffffffffffffffffffffffffffffffff16908060040160009054906101000a900473ffffffffffffffffffffffffffffffffffffffff16908060050154908060060154908060070160009054906101000a900460ff16908060070160019054906101000a900460ff16908060070160029054906101000a900460ff16908060070160039054906101000a900460ff16908060070160049054906101000a900460ff16908060070160059054906101000a900460ff1690508d565b80600860006101000a81548160ff02191690831515021790555050565b60076020528060005260406000206000915054906101000a900460ff1681565b600860009054906101000a900460ff1681565b600b60009054906101000a900460ff1681565b60066020528060005260406000206000915090505481565b6000806124788360006139ac565b91509150915091565b600b60019054906101000a900473ffffffffffffffffffffffffffffffffffffffff1681565b600e60159054906101000a900460ff1681565b600080836124c66144eb565b6003600083600019166000191681526020019081526020016000206101a06040519081016040529081600082018054600181600116156101000203166002900480601f0160208091040260200160405190810160405280929190818152602001828054600181600116156101000203166002900480156125875780601f1061255c57610100808354040283529160200191612587565b820191906000526020600020905b81548152906001019060200180831161256a57829003601f168201915b505050505081526020016001820160009054906101000a900473ffffffffffffffffffffffffffffffffffffffff1673ffffffffffffffffffffffffffffffffffffffff1673ffffffffffffffffffffffffffffffffffffffff1681526020016002820160009054906101000a900473ffffffffffffffffffffffffffffffffffffffff1673ffffffffffffffffffffffffffffffffffffffff1673ffffffffffffffffffffffffffffffffffffffff1681526020016003820160009054906101000a900473ffffffffffffffffffffffffffffffffffffffff1673ffffffffffffffffffffffffffffffffffffffff1673ffffffffffffffffffffffffffffffffffffffff1681526020016004820160009054906101000a900473ffffffffffffffffffffffffffffffffffffffff1673ffffffffffffffffffffffffffffffffffffffff1673ffffffffffffffffffffffffffffffffffffffff16815260200160058201548152602001600682015481526020016007820160009054906101000a900460ff1660ff1660ff1681526020016007820160019054906101000a900460ff1660ff1660ff1681526020016007820160029054906101000a900460ff1660ff1660ff1681526020016007820160039054906101000a900460ff1660ff1660ff1681526020016007820160049054906101000a900460ff1660ff1660ff1681526020016007820160059054906101000a900460ff16151515158152505090503373ffffffffffffffffffffffffffffffffffffffff16816020015173ffffffffffffffffffffffffffffffffffffffff16148061281757503373ffffffffffffffffffffffffffffffffffffffff16816040015173ffffffffffffffffffffffffffffffffffffffff16145b15156128b1576040517f08c379a00000000000000000000000000000000000000000000000000000000081526004018080602001828103825260378152602001807f4f6e6c792070726f6a656374206f776e6572206f72206d616b65722063616e2081526020017f706572666f726d2074686973206f7065726174696f6e2e00000000000000000081525060400191505060405180910390fd5b60018560ff16101580156128c95750600a8560ff1611155b1515612963576040517f08c379a000000000000000000000000000000000000000000000000000000000815260040180806020018281038252602b8152602001807f50726f6a65637420726174696e672073686f756c6420626520696e207468652081526020017f72616e676520312d31302e00000000000000000000000000000000000000000081525060400191505060405180910390fd5b60036000876000191660001916815260200190815260200160002093506000846006015414151515612a23576040517f08c379a00000000000000000000000000000000000000000000000000000000081526004018080602001828103825260218152602001807f4f6e6c7920616c6c6f77656420666f72206163746976652070726f6a6563747381526020017f2e0000000000000000000000000000000000000000000000000000000000000081525060400191505060405180910390fd5b8360010160009054906101000a900473ffffffffffffffffffffffffffffffffffffffff1673ffffffffffffffffffffffffffffffffffffffff163373ffffffffffffffffffffffffffffffffffffffff161415612b765760008460070160039054906101000a900460ff1660ff16141515612b2d576040517f08c379a00000000000000000000000000000000000000000000000000000000081526004018080602001828103825260258152602001807f4353415420697320616c6c6f77656420746f2070726f76696465206f6e6c792081526020017f6f6e63652e00000000000000000000000000000000000000000000000000000081525060400191505060405180910390fd5b848460070160036101000a81548160ff021916908360ff1602179055508360020160009054906101000a900473ffffffffffffffffffffffffffffffffffffffff169250612c6d565b60008460070160049054906101000a900460ff1660ff16141515612c28576040517f08c379a00000000000000000000000000000000000000000000000000000000081526004018080602001828103825260258152602001807f4d53415420697320616c6c6f77656420746f2070726f76696465206f6e6c792081526020017f6f6e63652e00000000000000000000000000000000000000000000000000000081525060400191505060405180910390fd5b848460070160046101000a81548160ff021916908360ff1602179055508360010160009054906101000a900473ffffffffffffffffffffffffffffffffffffffff1692505b8273ffffffffffffffffffffffffffffffffffffffff163373ffffffffffffffffffffffffffffffffffffffff1687600019167f3d3dab442c501e3ad2cb35ea97ebb5513cccec8ddb02a0f31bec75af12d778958842604051808360ff1660ff1681526020018281526020019250505060405180910390a4505050505050565b6001600b60006101000a81548160ff0219169083151502179055504260098190555050565b80600d60006101000a81548173ffffffffffffffffffffffffffffffffffffffff021916908373ffffffffffffffffffffffffffffffffffffffff16021790555050565b80600e60146101000a81548160ff021916908360ff16021790555050565b600080612d7f611db8565b1515612d8a57600080fd5b8390508073ffffffffffffffffffffffffffffffffffffffff1663a9059cbb612db1611d8f565b856040518363ffffffff167c0100000000000000000000000000000000000000000000000000000000028152600401808373ffffffffffffffffffffffffffffffffffffffff1673ffffffffffffffffffffffffffffffffffffffff16815260200182815260200192505050602060405180830381600087803b158015612e3757600080fd5b505af1158015612e4b573d6000803e3d6000fd5b505050506040513d6020811015612e6157600080fd5b810190808051906020019092919050505091505092915050565b6000600e60159054906101000a900460ff169050919050565b600160009054906101000a900473ffffffffffffffffffffffffffffffffffffffff1681565b80600c60006101000a81548173ffffffffffffffffffffffffffffffffffffffff021916908373ffffffffffffffffffffffffffffffffffffffff16021790555050565b6000600e60149054906101000a900460ff169050919050565b8060098190555050565b80600e60156101000a81548160ff021916908360ff16021790555050565b6000808a73ffffffffffffffffffffffffffffffffffffffff163373ffffffffffffffffffffffffffffffffffffffff1614151561300b576040517f08c379a00000000000000000000000000000000000000000000000000000000081526004018080602001828103825260298152602001807f4f6e6c792074686520636c69656e742063616e206b69636b206f66662074686581526020017f2070726f6a6563742e000000000000000000000000000000000000000000000081525060400191505060405180910390fd5b8873ffffffffffffffffffffffffffffffffffffffff168b73ffffffffffffffffffffffffffffffffffffffff16141515156130d5576040517f08c379a000000000000000000000000000000000000000000000000000000000815260040180806020018281038252602b8152602001807f436c69656e742063616e60742062652061206d616b6572206f6e20686572206f81526020017f776e2070726f6a6563742e00000000000000000000000000000000000000000081525060400191505060405180910390fd5b8873ffffffffffffffffffffffffffffffffffffffff168a73ffffffffffffffffffffffffffffffffffffffff161415801561313d57508a73ffffffffffffffffffffffffffffffffffffffff168a73ffffffffffffffffffffffffffffffffffffffff1614155b15156131d7576040517f08c379a00000000000000000000000000000000000000000000000000000000081526004018080602001828103825260298152602001807f41726269746572206d757374206e6f74206265206120636c69656e74206e6f7281526020017f2061206d616b65722e000000000000000000000000000000000000000000000081525060400191505060405180910390fd5b6132478989898080601f0160208091040260200160405190810160405280939291908181526020018383808284378201915050505050508f8f8080601f0160208091040260200160405190810160405280939291908181526020018383808284378201915050505050508d613a7f565b15156132e1576040517f08c379a00000000000000000000000000000000000000000000000000000000081526004018080602001828103825260368152602001807f4d616b65722073686f756c64207369676e207468652068617368206f6620696d81526020017f6d757461626c652061677265656d656e7420646f632e0000000000000000000081525060400191505060405180910390fd5b60018660ff16101580156132f9575060188660ff1611155b1515613393576040517f08c379a00000000000000000000000000000000000000000000000000000000081526004018080602001828103825260328152602001807f4d696c6573746f6e657320636f756e74206973206e6f7420696e20746865206181526020017f6c6c6f77656420312d32342072616e67652e000000000000000000000000000081525060400191505060405180910390fd5b8c8c6040518083838082843782019150509250505060405180910390209150600073ffffffffffffffffffffffffffffffffffffffff1660036000846000191660001916815260200190815260200160002060010160009054906101000a900473ffffffffffffffffffffffffffffffffffffffff1673ffffffffffffffffffffffffffffffffffffffff16141515613494576040517f08c379a000000000000000000000000000000000000000000000000000000000815260040180806020018281038252601c8152602001807f50726f6a6563742073686f756c646e2774206578697374207965742e0000000081525060200191505060405180910390fd5b61349e8a83613bd0565b6134a733613ce3565b90506101a0604051908101604052808e8e8080601f01602080910402602001604051908101604052809392919081815260200183838082843782019150505050505081526020013373ffffffffffffffffffffffffffffffffffffffff1681526020018a73ffffffffffffffffffffffffffffffffffffffff1681526020018b73ffffffffffffffffffffffffffffffffffffffff1681526020018273ffffffffffffffffffffffffffffffffffffffff168152602001428152602001600081526020018660ff1681526020018560ff1681526020018760ff168152602001600060ff168152602001600060ff16815260200184151581525060036000846000191660001916815260200190815260200160002060008201518160000190805190602001906135d79291906145bd565b5060208201518160010160006101000a81548173ffffffffffffffffffffffffffffffffffffffff021916908373ffffffffffffffffffffffffffffffffffffffff16021790555060408201518160020160006101000a81548173ffffffffffffffffffffffffffffffffffffffff021916908373ffffffffffffffffffffffffffffffffffffffff16021790555060608201518160030160006101000a81548173ffffffffffffffffffffffffffffffffffffffff021916908373ffffffffffffffffffffffffffffffffffffffff16021790555060808201518160040160006101000a81548173ffffffffffffffffffffffffffffffffffffffff021916908373ffffffffffffffffffffffffffffffffffffffff16021790555060a0820151816005015560c0820151816006015560e08201518160070160006101000a81548160ff021916908360ff1602179055506101008201518160070160016101000a81548160ff021916908360ff1602179055506101208201518160070160026101000a81548160ff021916908360ff1602179055506101408201518160070160036101000a81548160ff021916908360ff1602179055506101608201518160070160046101000a81548160ff021916908360ff1602179055506101808201518160070160056101000a81548160ff021916908315150217905550905050600460008a73ffffffffffffffffffffffffffffffffffffffff1673ffffffffffffffffffffffffffffffffffffffff168152602001908152602001600020829080600181540180825580915050906001820390600052602060002001600090919290919091509060001916905550600560008c73ffffffffffffffffffffffffffffffffffffffff1673ffffffffffffffffffffffffffffffffffffffff16815260200190815260200160002082908060018154018082558091505090600182039060005260206000200160009091929091909150906000191690555081600019167f08c67a54b70772e59b41b8b9828d23c13759d0763d9f78e5f79b7033afa2938233426000604051808473ffffffffffffffffffffffffffffffffffffffff1673ffffffffffffffffffffffffffffffffffffffff16815260200183815260200182600281111561392557fe5b60ff168152602001935050505060405180910390a250505050505050505050505050565b613951611db8565b151561395c57600080fd5b61396581613f5f565b50565b80600860016101000a81548160ff021916908360ff16021790555050565b600e60009054906101000a900473ffffffffffffffffffffffffffffffffffffffff1681565b600080606060008060008060006139c38a8a614059565b95506000945060009350600092505b8551831015613a6c5785838151811015156139e957fe5b9060200190602002015191506000600360008460001916600019168152602001908152602001600020600601541415613a2157613a5f565b613a2b828a6141ae565b905060008160ff161415613a3e57613a5f565b8380600101945050613a5c8160ff168661423690919063ffffffff16565b94505b82806001019350506139d2565b8484975097505050505050509250929050565b6000806000600254613aba60408051908101604052808881526020018773ffffffffffffffffffffffffffffffffffffffff16815250614257565b60405160200180807f190100000000000000000000000000000000000000000000000000000000000081525060020183600019166000191681526020018260001916600019168152602001925050506040516020818303038152906040526040518082805190602001908083835b602083101515613b4d5780518252602082019150602081019050602083039250613b28565b6001836020036101000a03801982511681845116808217855250505050505090500191505060405180910390209150613b938683600019166143f390919063ffffffff16565b90508673ffffffffffffffffffffffffffffffffffffffff168173ffffffffffffffffffffffffffffffffffffffff161492505050949350505050565b60008060008492508273ffffffffffffffffffffffffffffffffffffffff16636117b80c6040518163ffffffff167c01000000000000000000000000000000000000000000000000000000000281526004016040805180830381600087803b158015613c3b57600080fd5b505af1158015613c4f573d6000803e3d6000fd5b505050506040513d6040811015613c6557600080fd5b810190808051906020019092919080519060200190929190505050809250819350505081600660008660001916600019168152602001908152602001600020819055508060076000866000191660001916815260200190815260200160002060006101000a81548160ff021916908360ff1602179055505050505050565b6000806000600160009054906101000a900473ffffffffffffffffffffffffffffffffffffffff1691508173ffffffffffffffffffffffffffffffffffffffff16639e0a6bc96040518163ffffffff167c0100000000000000000000000000000000000000000000000000000000028152600401602060405180830381600087803b158015613d7157600080fd5b505af1158015613d85573d6000803e3d6000fd5b505050506040513d6020811015613d9b57600080fd5b810190808051906020019092919050505090508073ffffffffffffffffffffffffffffffffffffffff1663834cc6fc858473ffffffffffffffffffffffffffffffffffffffff16635359cf976040518163ffffffff167c0100000000000000000000000000000000000000000000000000000000028152600401602060405180830381600087803b158015613e2f57600080fd5b505af1158015613e43573d6000803e3d6000fd5b505050506040513d6020811015613e5957600080fd5b81019080805190602001909291905050506040518363ffffffff167c0100000000000000000000000000000000000000000000000000000000028152600401808373ffffffffffffffffffffffffffffffffffffffff1673ffffffffffffffffffffffffffffffffffffffff1681526020018273ffffffffffffffffffffffffffffffffffffffff1673ffffffffffffffffffffffffffffffffffffffff16815260200192505050602060405180830381600087803b158015613f1b57600080fd5b505af1158015613f2f573d6000803e3d6000fd5b505050506040513d6020811015613f4557600080fd5b810190808051906020019092919050505092505050919050565b600073ffffffffffffffffffffffffffffffffffffffff168173ffffffffffffffffffffffffffffffffffffffff1614151515613f9b57600080fd5b8073ffffffffffffffffffffffffffffffffffffffff166000809054906101000a900473ffffffffffffffffffffffffffffffffffffffff1673ffffffffffffffffffffffffffffffffffffffff167f8be0079c531659141344cd1fd0a4f28419497f9722a3daafe3b4186f6b6457e060405160405180910390a3806000806101000a81548173ffffffffffffffffffffffffffffffffffffffff021916908373ffffffffffffffffffffffffffffffffffffffff16021790555050565b60606000600181111561406857fe5b82600181111561407457fe5b141561411357600460008473ffffffffffffffffffffffffffffffffffffffff1673ffffffffffffffffffffffffffffffffffffffff16815260200190815260200160002080548060200260200160405190810160405280929190818152602001828054801561410757602002820191906000526020600020905b815460001916815260200190600101908083116140ef575b505050505090506141a8565b600560008473ffffffffffffffffffffffffffffffffffffffff1673ffffffffffffffffffffffffffffffffffffffff1681526020019081526020016000208054806020026020016040519081016040528092919081815260200182805480156141a057602002820191906000526020600020905b81546000191681526020019060010190808311614188575b505050505090505b92915050565b60008060018111156141bc57fe5b8260018111156141c857fe5b14156142015760036000846000191660001916815260200190815260200160002060070160039054906101000a900460ff169050614230565b60036000846000191660001916815260200190815260200160002060070160049054906101000a900460ff1690505b92915050565b600080828401905083811015151561424d57600080fd5b8091505092915050565b600060405180807f50726f706f73616c28737472696e672061677265656d656e7449642c6164647281526020017f6573732061726269746572290000000000000000000000000000000000000000815250602c019050604051809103902082600001516040518082805190602001908083835b6020831015156142ef57805182526020820191506020810190506020830392506142ca565b6001836020036101000a0380198251168184511680821785525050505050509050019150506040518091039020836020015160405160200180846000191660001916815260200183600019166000191681526020018273ffffffffffffffffffffffffffffffffffffffff1673ffffffffffffffffffffffffffffffffffffffff16815260200193505050506040516020818303038152906040526040518082805190602001908083835b6020831015156143bf578051825260208201915060208101905060208303925061439a565b6001836020036101000a03801982511681845116808217855250505050505090500191505060405180910390209050919050565b6000806000806041855114151561440d57600093506144e2565b6020850151925060408501519150606085015160001a9050601b8160ff16101561443857601b810190505b601b8160ff16141580156144505750601c8160ff1614155b1561445e57600093506144e2565b600186828585604051600081526020016040526040518085600019166000191681526020018460ff1660ff1681526020018360001916600019168152602001826000191660001916815260200194505050505060206040516020810390808403906000865af11580156144d5573d6000803e3d6000fd5b5050506020604051035193505b50505092915050565b6101a06040519081016040528060608152602001600073ffffffffffffffffffffffffffffffffffffffff168152602001600073ffffffffffffffffffffffffffffffffffffffff168152602001600073ffffffffffffffffffffffffffffffffffffffff168152602001600073ffffffffffffffffffffffffffffffffffffffff1681526020016000815260200160008152602001600060ff168152602001600060ff168152602001600060ff168152602001600060ff168152602001600060ff1681526020016000151581525090565b828054600181600116156101000203166002900490600052602060002090601f016020900481019282601f106145fe57805160ff191683800117855561462c565b8280016001018555821561462c579182015b8281111561462b578251825591602001919060010190614610565b5b509050614639919061463d565b5090565b61465f91905b8082111561465b576000816000905550600101614643565b5090565b905600a165627a7a723058205a270fb3cde451f751e7a4a899118635aa5c6c5af76b5d14e95f7e3155ba8caf0029",
  "source": "pragma solidity 0.4.25;\n\nimport \"../DecoProjects.sol\";\nimport \"../DecoRelay.sol\";\nimport \"../DecoMilestones.sol\";\n\n\ncontract DecoProjectsStub is DecoProjects {\n    bool public checkIfProjectExistsConfig = true;\n    uint8 public projectMilestonesCountConfig = 10;\n    uint public projectEndDateConfig = 0;\n    uint public projectStartDateConfig = 0;\n\n    bool public projectCompleted = false;\n\n    address public escrowContractStub;\n    address public client;\n    address public maker;\n    address public arbiter;\n\n    uint8 public feedbackWindow = 0;\n    uint8 public milestoneStartWindow = 0;\n\n    uint public arbiterFixedFee;\n    uint8 public arbiterShareFee;\n\n    constructor(uint256 _chainId) DecoProjects(_chainId) public { }\n\n    function completeProject(bytes32) external {\n        projectCompleted = true;\n        projectEndDateConfig = now;\n    }\n\n    function terminateProject(bytes32 _agreementHash) external {\n        DecoRelay relayContract = DecoRelay(relayContractAddress);\n        DecoMilestones milestonesContract = DecoMilestones(relayContract.milestonesContractAddress());\n        if (msg.sender != relayContract.milestonesContractAddress()) {\n            milestonesContract.terminateLastMilestone(_agreementHash, msg.sender);\n        } else {\n            projectEndDateConfig = now;\n        }\n    }\n\n    function setProjectCompleted(bool value) public {\n        projectCompleted = value;\n    }\n\n    function setIsProjectExistingConfig(bool config) public {\n        checkIfProjectExistsConfig = config;\n    }\n\n    function setProjectMilestonesCountConfig(uint8 config) public {\n        projectMilestonesCountConfig = config;\n    }\n\n    function setProjectEndDateConfig(uint config) public {\n        projectEndDateConfig = config;\n    }\n\n    function setProjectStartDateConfig(uint config) public {\n        projectStartDateConfig = config;\n    }\n\n    function setEscrowContractStubAddress(address newAddress) public {\n        escrowContractStub = newAddress;\n    }\n\n    function setProjectClient(address newAddress) public {\n        client = newAddress;\n    }\n\n    function setProjectMaker(address newAddress) public {\n        maker = newAddress;\n    }\n\n    function setProjectArbiter(address newAddress) public {\n        arbiter = newAddress;\n    }\n\n    function setProjectFeedbackWindow(uint8 _window) public {\n        feedbackWindow = _window;\n    }\n\n    function setProjectMilestoneStartWindow(uint8 _window) public {\n        milestoneStartWindow = _window;\n    }\n\n    function setArbiterFees(uint fixedFee, uint8 shareFee) public {\n        arbiterFixedFee = fixedFee;\n        arbiterShareFee = shareFee;\n    }\n\n    function checkIfProjectExists(bytes32) public view returns(bool) {\n        return checkIfProjectExistsConfig;\n    }\n\n    function getProjectEndDate(bytes32) public view returns(uint) {\n        return projectEndDateConfig;\n    }\n\n    function getProjectStartDate(bytes32) public view returns(uint) {\n        return projectStartDateConfig;\n    }\n\n    function getProjectMilestonesCount(bytes32) public view returns(uint8) {\n        return projectMilestonesCountConfig;\n    }\n\n    function getProjectEscrowAddress(bytes32) public view returns(address) {\n        return escrowContractStub;\n    }\n\n    function getProjectClient(bytes32) public view returns(address) {\n        return client;\n    }\n\n    function getProjectMaker(bytes32) public view returns(address) {\n        return maker;\n    }\n\n    function getProjectArbiter(bytes32) public view returns(address) {\n        return arbiter;\n    }\n\n    function getProjectFeedbackWindow(bytes32) public view returns(uint8) {\n        return feedbackWindow;\n    }\n\n    function getProjectMilestoneStartWindow(bytes32) public view returns(uint8) {\n        return milestoneStartWindow;\n    }\n\n    function getProjectArbitrationFees(bytes32) public view returns(uint, uint8) {\n        return (\n            arbiterFixedFee,\n            arbiterShareFee\n        );\n    }\n\n    function getInfoForDisputeAndValidate(\n        bytes32,\n        address _respondent,\n        address _initiator,\n        address _arbiter\n    )\n        public\n        view\n        returns(uint, uint8, address)\n    {\n        require(arbiter == _arbiter, \"Arbiter should be same as saved in project.\");\n        require(\n            (_initiator == client && _respondent == maker) ||\n            (_initiator == maker && _respondent == client),\n            \"Initiator and respondent must be different and equal to maker/client addresses.\"\n        );\n        return (arbiterFixedFee, arbiterShareFee, escrowContractStub);\n    }\n}\n",
  "sourcePath": "/Users/chris/Documents/WorkStuff/Deconet/Blockchain/DeconetProjectsMarketContracts/contracts/mocks/DecoProjectsStub.sol",
  "compiler": {
    "name": "solc",
    "version": "0.4.25+commit.59dbf8f1.Emscripten.clang"
  },
  "schemaVersion": "3.0.0-beta.2",
  "updatedAt": "2019-02-13T02:21:50.567Z",
  "devdoc": {
    "methods": {
      "clientsAverageRating(address)": {
        "details": "Calculates sum and number of MSAT scores of ended & rated projects for the given client`s address.",
        "params": {
          "_client": "An `address` of the client to look up."
        },
        "return": "An `uint` sum of all scores and an `uint` number of projects counted in sum."
      },
      "getClientProjects(address)": {
        "details": "Returns hashes of all client`s projects",
        "params": {
          "_client": "An `address` to look up."
        },
        "return": "`bytes32[]` of projects hashes."
      },
      "getMakerProjects(address)": {
        "details": "Returns hashes of all maker`s projects",
        "params": {
          "_maker": "An `address` to look up."
        },
        "return": "`bytes32[]` of projects hashes."
      },
      "isOwner()": {
        "return": "true if `msg.sender` is the owner of the contract."
      },
      "makersAverageRating(address)": {
        "details": "Calculates sum and number of CSAT scores of ended & rated projects for the given maker`s address.",
        "params": {
          "_maker": "An `address` of the maker to look up."
        },
        "return": "An `uint` sum of all scores and an `uint` number of projects counted in sum."
      },
      "owner()": {
        "return": "the address of the owner."
      },
      "rateProjectSecondParty(bytes32,uint8)": {
        "details": "Rate the second party on the project.",
        "params": {
          "_agreementHash": "A `bytes32` hash of the project`s agreement id.",
          "_rating": "An `uint8` satisfaction score of either client or maker. Min value is 1, max is 10."
        }
      },
      "renounceOwnership()": {
        "details": "Allows the current owner to relinquish control of the contract."
      },
      "setRelayContractAddress(address)": {
        "details": "Set the new address of the `DecoRelay` contract.",
        "params": {
          "_newAddress": "An address of the new contract."
        }
      },
      "startProject(string,address,address,address,bytes,uint8,uint8,uint8,bool)": {
        "details": "Creates a new milestone-based project with pre-selected maker and owner. All parameters are required.",
        "params": {
          "_agreementEncrypted": "A `bool` flag indicating whether or not the agreement is encrypted.",
          "_agreementId": "A `string` unique id of the agreement document for that project.",
          "_arbiter": "An `address` of the referee to settle all escalated disputes between parties.",
          "_client": "An `address` of the project owner.",
          "_feedbackWindow": "An `uint8` time in days project`s owner has to provide feedback for the last milestone.                       If that time is exceeded then maker can terminate the project and get paid for awaited                       milestone.",
          "_maker": "An `address` of the project`s maker.",
          "_makersSignature": "A `bytes` digital signature of the maker to proof the agreement acceptance.",
          "_milestoneStartWindow": "An `uint8` count of days project`s owner has to start the next milestone.       If this time is exceeded then the maker can terminate the project.",
          "_milestonesCount": "An `uint8` count of planned milestones for the project."
        }
      },
      "transferAnyERC20Token(address,uint256)": {
        "details": "Allows to trasnfer any ERC20 tokens from the contract balance to owner's address.",
        "params": {
          "_tokenAddress": "An `address` of an ERC20 token.",
          "_tokens": "An `uint` tokens amount."
        },
        "return": "A `bool` operation result state."
      },
      "transferOwnership(address)": {
        "details": "Allows the current owner to transfer control of the contract to a newOwner.",
        "params": {
          "newOwner": "The address to transfer ownership to."
        }
      }
    }
  },
  "userdoc": {
    "methods": {
      "renounceOwnership()": {
        "notice": "Renouncing to ownership will leave the contract without an owner. It will not be possible to call the functions with the `onlyOwner` modifier anymore."
      }
    }
  }
}