{
  "contractName": "DecoProxy",
  "abi": [
    {
      "constant": true,
      "inputs": [],
      "name": "owner",
      "outputs": [
        {
          "name": "",
          "type": "address"
        }
      ],
      "payable": false,
      "stateMutability": "view",
      "type": "function",
      "signature": "0x8da5cb5b"
    },
    {
      "constant": true,
      "inputs": [],
      "name": "nonce",
      "outputs": [
        {
          "name": "",
          "type": "uint256"
        }
      ],
      "payable": false,
      "stateMutability": "view",
      "type": "function",
      "signature": "0xaffed0e0"
    },
    {
      "payable": true,
      "stateMutability": "payable",
      "type": "fallback"
    },
    {
      "anonymous": false,
      "inputs": [
        {
          "indexed": true,
          "name": "sender",
          "type": "address"
        },
        {
          "indexed": false,
          "name": "value",
          "type": "uint256"
        }
      ],
      "name": "Received",
      "type": "event",
      "signature": "0x88a5966d370b9919b20f3e2c13ff65706f196a4e32cc2c12bf57088f88525874"
    },
    {
      "anonymous": false,
      "inputs": [
        {
          "indexed": false,
          "name": "signature",
          "type": "bytes"
        },
        {
          "indexed": true,
          "name": "signer",
          "type": "address"
        },
        {
          "indexed": true,
          "name": "destination",
          "type": "address"
        },
        {
          "indexed": false,
          "name": "value",
          "type": "uint256"
        },
        {
          "indexed": false,
          "name": "data",
          "type": "bytes"
        },
        {
          "indexed": false,
          "name": "_hash",
          "type": "bytes32"
        }
      ],
      "name": "Forwarded",
      "type": "event",
      "signature": "0xa44809876be7b0e3c1599dc7b3a9ef62dd9c43c0a951789d181c29e34a3575ce"
    },
    {
      "anonymous": false,
      "inputs": [
        {
          "indexed": true,
          "name": "newOwner",
          "type": "address"
        }
      ],
      "name": "OwnerChanged",
      "type": "event",
      "signature": "0xa2ea9883a321a3e97b8266c2b078bfeec6d50c711ed71f874a90d500ae2eaf36"
    },
    {
      "constant": false,
      "inputs": [
        {
          "name": "_owner",
          "type": "address"
        }
      ],
      "name": "initialize",
      "outputs": [],
      "payable": false,
      "stateMutability": "nonpayable",
      "type": "function",
      "signature": "0xc4d66de8"
    },
    {
      "constant": false,
      "inputs": [
        {
          "name": "_newOwner",
          "type": "address"
        }
      ],
      "name": "changeOwner",
      "outputs": [],
      "payable": false,
      "stateMutability": "nonpayable",
      "type": "function",
      "signature": "0xa6f9dae1"
    },
    {
      "constant": false,
      "inputs": [
        {
          "name": "_destination",
          "type": "address"
        },
        {
          "name": "_value",
          "type": "uint256"
        },
        {
          "name": "_data",
          "type": "bytes"
        }
      ],
      "name": "forwardFromOwner",
      "outputs": [],
      "payable": false,
      "stateMutability": "nonpayable",
      "type": "function",
      "signature": "0xa0dcb092"
    },
    {
      "constant": true,
      "inputs": [
        {
          "name": "_signer",
          "type": "address"
        },
        {
          "name": "_destination",
          "type": "address"
        },
        {
          "name": "_value",
          "type": "uint256"
        },
        {
          "name": "_data",
          "type": "bytes"
        }
      ],
      "name": "getHash",
      "outputs": [
        {
          "name": "",
          "type": "bytes32"
        }
      ],
      "payable": false,
      "stateMutability": "view",
      "type": "function",
      "signature": "0x7f9ec70b"
    },
    {
      "constant": false,
      "inputs": [
        {
          "name": "_signature",
          "type": "bytes"
        },
        {
          "name": "_signer",
          "type": "address"
        },
        {
          "name": "_destination",
          "type": "address"
        },
        {
          "name": "_value",
          "type": "uint256"
        },
        {
          "name": "_data",
          "type": "bytes"
        }
      ],
      "name": "forward",
      "outputs": [],
      "payable": false,
      "stateMutability": "nonpayable",
      "type": "function",
      "signature": "0x76e4b67a"
    },
    {
      "constant": false,
      "inputs": [
        {
          "name": "_to",
          "type": "address"
        },
        {
          "name": "_value",
          "type": "uint256"
        }
      ],
      "name": "withdraw",
      "outputs": [],
      "payable": false,
      "stateMutability": "nonpayable",
      "type": "function",
      "signature": "0xf3fef3a3"
    },
    {
      "constant": false,
      "inputs": [
        {
          "name": "_tokenAddress",
          "type": "address"
        },
        {
          "name": "_to",
          "type": "address"
        },
        {
          "name": "_tokens",
          "type": "uint256"
        }
      ],
      "name": "withdrawERC20Token",
      "outputs": [],
      "payable": false,
      "stateMutability": "nonpayable",
      "type": "function",
      "signature": "0x57d1b31b"
    }
  ],
  "bytecode": "0x608060405234801561001057600080fd5b5061148a806100206000396000f300608060405260043610610099576000357c0100000000000000000000000000000000000000000000000000000000900463ffffffff16806357d1b31b146100e957806376e4b67a146101565780637f9ec70b1461024f5780638da5cb5b1461031e578063a0dcb09214610375578063a6f9dae114610408578063affed0e01461044b578063c4d66de814610476578063f3fef3a3146104b9575b3373ffffffffffffffffffffffffffffffffffffffff167f88a5966d370b9919b20f3e2c13ff65706f196a4e32cc2c12bf57088f88525874346040518082815260200191505060405180910390a2005b3480156100f557600080fd5b50610154600480360381019080803573ffffffffffffffffffffffffffffffffffffffff169060200190929190803573ffffffffffffffffffffffffffffffffffffffff16906020019092919080359060200190929190505050610506565b005b34801561016257600080fd5b5061024d600480360381019080803590602001908201803590602001908080601f0160208091040260200160405190810160405280939291908181526020018383808284378201915050505050509192919290803573ffffffffffffffffffffffffffffffffffffffff169060200190929190803573ffffffffffffffffffffffffffffffffffffffff16906020019092919080359060200190929190803590602001908201803590602001908080601f0160208091040260200160405190810160405280939291908181526020018383808284378201915050505050509192919290505050610784565b005b34801561025b57600080fd5b50610300600480360381019080803573ffffffffffffffffffffffffffffffffffffffff169060200190929190803573ffffffffffffffffffffffffffffffffffffffff16906020019092919080359060200190929190803590602001908201803590602001908080601f0160208091040260200160405190810160405280939291908181526020018383808284378201915050505050509192919290505050610a63565b60405180826000191660001916815260200191505060405180910390f35b34801561032a57600080fd5b50610333610c19565b604051808273ffffffffffffffffffffffffffffffffffffffff1673ffffffffffffffffffffffffffffffffffffffff16815260200191505060405180910390f35b34801561038157600080fd5b50610406600480360381019080803573ffffffffffffffffffffffffffffffffffffffff16906020019092919080359060200190929190803590602001908201803590602001908080601f0160208091040260200160405190810160405280939291908181526020018383808284378201915050505050509192919290505050610c3f565b005b34801561041457600080fd5b50610449600480360381019080803573ffffffffffffffffffffffffffffffffffffffff169060200190929190505050610eb9565b005b34801561045757600080fd5b5061046061103b565b6040518082815260200191505060405180910390f35b34801561048257600080fd5b506104b7600480360381019080803573ffffffffffffffffffffffffffffffffffffffff169060200190929190505050611041565b005b3480156104c557600080fd5b50610504600480360381019080803573ffffffffffffffffffffffffffffffffffffffff16906020019092919080359060200190929190505050611149565b005b60003373ffffffffffffffffffffffffffffffffffffffff16600260009054906101000a900473ffffffffffffffffffffffffffffffffffffffff1673ffffffffffffffffffffffffffffffffffffffff16148061058f57503373ffffffffffffffffffffffffffffffffffffffff163073ffffffffffffffffffffffffffffffffffffffff16145b1515610603576040517f08c379a00000000000000000000000000000000000000000000000000000000081526004018080602001828103825260178152602001807f4f6e6c79206f776e65722063616e20776974686472617700000000000000000081525060200191505060405180910390fd5b8390508073ffffffffffffffffffffffffffffffffffffffff1663a9059cbb84846040518363ffffffff167c0100000000000000000000000000000000000000000000000000000000028152600401808373ffffffffffffffffffffffffffffffffffffffff1673ffffffffffffffffffffffffffffffffffffffff16815260200182815260200192505050602060405180830381600087803b1580156106a957600080fd5b505af11580156106bd573d6000803e3d6000fd5b505050506040513d60208110156106d357600080fd5b8101908080519060200190929190505050151561077e576040517f08c379a000000000000000000000000000000000000000000000000000000000815260040180806020018281038252602b8152602001807f546f6b656e73207472616e73666572206d75737420636f6d706c65746520737581526020017f636365737366756c6c792e00000000000000000000000000000000000000000081525060400191505060405180910390fd5b50505050565b600061079285858585610a63565b90506001600081548092919060010191905055506107c9866107b7836000191661128f565b6000191661134a90919063ffffffff16565b73ffffffffffffffffffffffffffffffffffffffff16600260009054906101000a900473ffffffffffffffffffffffffffffffffffffffff1673ffffffffffffffffffffffffffffffffffffffff1614151561088d576040517f08c379a00000000000000000000000000000000000000000000000000000000081526004018080602001828103825260158152602001807f5369676e6572206d757374206265206f776e65722e000000000000000000000081525060200191505060405180910390fd5b610898848484611442565b151561090c576040517f08c379a00000000000000000000000000000000000000000000000000000000081526004018080602001828103825260198152602001807f43616c6c206d757374206265207375636365737366756c6c2e0000000000000081525060200191505060405180910390fd5b8373ffffffffffffffffffffffffffffffffffffffff168573ffffffffffffffffffffffffffffffffffffffff167fa44809876be7b0e3c1599dc7b3a9ef62dd9c43c0a951789d181c29e34a3575ce888686866040518080602001858152602001806020018460001916600019168152602001838103835287818151815260200191508051906020019080838360005b838110156109b757808201518184015260208101905061099c565b50505050905090810190601f1680156109e45780820380516001836020036101000a031916815260200191505b50838103825285818151815260200191508051906020019080838360005b83811015610a1d578082015181840152602081019050610a02565b50505050905090810190601f168015610a4a5780820380516001836020036101000a031916815260200191505b50965050505050505060405180910390a3505050505050565b60003085858585600154604051602001808773ffffffffffffffffffffffffffffffffffffffff1673ffffffffffffffffffffffffffffffffffffffff166c010000000000000000000000000281526014018673ffffffffffffffffffffffffffffffffffffffff1673ffffffffffffffffffffffffffffffffffffffff166c010000000000000000000000000281526014018573ffffffffffffffffffffffffffffffffffffffff1673ffffffffffffffffffffffffffffffffffffffff166c0100000000000000000000000002815260140184815260200183805190602001908083835b602083101515610b6e5780518252602082019150602081019050602083039250610b49565b6001836020036101000a03801982511681845116808217855250505050505090500182815260200196505050505050506040516020818303038152906040526040518082805190602001908083835b602083101515610be25780518252602082019150602081019050602083039250610bbd565b6001836020036101000a03801982511681845116808217855250505050505090500191505060405180910390209050949350505050565b600260009054906101000a900473ffffffffffffffffffffffffffffffffffffffff1681565b3373ffffffffffffffffffffffffffffffffffffffff16600260009054906101000a900473ffffffffffffffffffffffffffffffffffffffff1673ffffffffffffffffffffffffffffffffffffffff16141515610d2a576040517f08c379a000000000000000000000000000000000000000000000000000000000815260040180806020018281038252602a8152602001807f4f6e6c79206f776e65722063616e2075736520666f727761726446726f6d4f7781526020017f6e6572206d6574686f640000000000000000000000000000000000000000000081525060400191505060405180910390fd5b610d35838383611442565b1515610da9576040517f08c379a00000000000000000000000000000000000000000000000000000000081526004018080602001828103825260198152602001807f43616c6c206d757374206265207375636365737366756c6c2e0000000000000081525060200191505060405180910390fd5b8273ffffffffffffffffffffffffffffffffffffffff16600260009054906101000a900473ffffffffffffffffffffffffffffffffffffffff1673ffffffffffffffffffffffffffffffffffffffff167fa44809876be7b0e3c1599dc7b3a9ef62dd9c43c0a951789d181c29e34a3575ce8484604051808060200184815260200180602001602001838103835260008152602001602001838103825284818151815260200191508051906020019080838360005b83811015610e78578082015181840152602081019050610e5d565b50505050905090810190601f168015610ea55780820380516001836020036101000a031916815260200191505b5094505050505060405180910390a3505050565b3373ffffffffffffffffffffffffffffffffffffffff16600260009054906101000a900473ffffffffffffffffffffffffffffffffffffffff1673ffffffffffffffffffffffffffffffffffffffff161480610f4057503373ffffffffffffffffffffffffffffffffffffffff163073ffffffffffffffffffffffffffffffffffffffff16145b1515610fb4576040517f08c379a000000000000000000000000000000000000000000000000000000000815260040180806020018281038252601b8152602001807f4f6e6c79206f776e65722063616e206368616e6765206f776e6572000000000081525060200191505060405180910390fd5b80600260006101000a81548173ffffffffffffffffffffffffffffffffffffffff021916908373ffffffffffffffffffffffffffffffffffffffff1602179055508073ffffffffffffffffffffffffffffffffffffffff167fa2ea9883a321a3e97b8266c2b078bfeec6d50c711ed71f874a90d500ae2eaf3660405160405180910390a250565b60015481565b6000809054906101000a900460ff161515156110eb576040517f08c379a00000000000000000000000000000000000000000000000000000000081526004018080602001828103825260248152602001807f436c6f6e65206d75737420626520696e697469616c697a6564206f6e6c79206f81526020017f6e63652e0000000000000000000000000000000000000000000000000000000081525060400191505060405180910390fd5b60016000806101000a81548160ff02191690831515021790555080600260006101000a81548173ffffffffffffffffffffffffffffffffffffffff021916908373ffffffffffffffffffffffffffffffffffffffff16021790555050565b3373ffffffffffffffffffffffffffffffffffffffff16600260009054906101000a900473ffffffffffffffffffffffffffffffffffffffff1673ffffffffffffffffffffffffffffffffffffffff1614806111d057503373ffffffffffffffffffffffffffffffffffffffff163073ffffffffffffffffffffffffffffffffffffffff16145b1515611244576040517f08c379a00000000000000000000000000000000000000000000000000000000081526004018080602001828103825260178152602001807f4f6e6c79206f776e65722063616e20776974686472617700000000000000000081525060200191505060405180910390fd5b8173ffffffffffffffffffffffffffffffffffffffff166108fc829081150290604051600060405180830381858888f1935050505015801561128a573d6000803e3d6000fd5b505050565b60008160405160200180807f19457468657265756d205369676e6564204d6573736167653a0a333200000000815250601c0182600019166000191681526020019150506040516020818303038152906040526040518082805190602001908083835b60208310151561131657805182526020820191506020810190506020830392506112f1565b6001836020036101000a03801982511681845116808217855250505050505090500191505060405180910390209050919050565b600080600080604185511415156113645760009350611439565b6020850151925060408501519150606085015160001a9050601b8160ff16101561138f57601b810190505b601b8160ff16141580156113a75750601c8160ff1614155b156113b55760009350611439565b600186828585604051600081526020016040526040518085600019166000191681526020018460ff1660ff1681526020018360001916600019168152602001826000191660001916815260200194505050505060206040516020810390808403906000865af115801561142c573d6000803e3d6000fd5b5050506020604051035193505b50505092915050565b600060405160008084516020860187895af191505093925050505600a165627a7a723058200bda45d63d3af4a5db68ba2c00850449780b306f41a10b2f92b91740e9942bfe0029",
  "source": "pragma solidity ^0.4.25;\n\nimport \"../node_modules/openzeppelin-solidity/contracts/cryptography/ECDSA.sol\";\nimport \"../node_modules/openzeppelin-solidity/contracts/token/ERC20/IERC20.sol\";\n\ncontract DecoProxy {\n    using ECDSA for bytes32;\n\n    /// Emitted when incoming ETH funds land into account.\n    event Received (address indexed sender, uint value);\n\n    /// Emitted when transaction forwarded to the next destination.\n    event Forwarded (\n        bytes signature,\n        address indexed signer,\n        address indexed destination,\n        uint value,\n        bytes data,\n        bytes32 _hash\n    );\n\n    /// Emitted when owner is changed\n    event OwnerChanged (\n        address indexed newOwner\n    );\n\n    bool internal isInitialized;\n\n    // Keep track to avoid replay attack.\n    uint public nonce;\n\n    /// Proxy owner.\n    address public owner;\n\n\n    /**\n     * @dev Initialize the Proxy clone with default values.\n     * @param _owner An address that orders forwarding of transactions.\n     */\n    function initialize(address _owner) public {\n        require(!isInitialized, \"Clone must be initialized only once.\");\n        isInitialized = true;\n        owner = _owner;\n    }\n\n    /**\n     * @dev Payable fallback to accept incoming payments.\n     */\n    function () external payable {\n        emit Received(msg.sender, msg.value);\n    }\n\n    /**\n     * @dev Change the owner of this proxy.  Used when the user forgets their key, and we can recover it via SSSS split key.  This will be the final txn of the forgotten key as it transfers ownership of the proxy to the new replacement key.  Note that this is also callable by the contract itself, which would be used in the case that a user is changing their owner address via a metatxn\n     * @param _newOwner An `address` of the new proxy owner.\n     */\n    function changeOwner(address _newOwner) public {\n        require(owner == msg.sender || address(this) == msg.sender, \"Only owner can change owner\");\n        owner = _newOwner;\n        emit OwnerChanged(_newOwner);\n    }\n\n    /**\n     * @dev Forward a regular (non meta) transaction to the destination address.\n     * @param _destination An `address` where txn should be forwarded to.\n     * @param _value An `uint` of Wei value to be sent out.\n     * @param _data A `bytes` data array of the given transaction.\n     */\n    function forwardFromOwner(address _destination, uint _value, bytes memory _data) public {\n        require(owner == msg.sender, \"Only owner can use forwardFromOwner method\");\n        require(executeCall(_destination, _value, _data), \"Call must be successfull.\");\n        emit Forwarded(\"\", owner, _destination, _value, _data, \"\");\n    }\n\n    /**\n     * @dev Returns hash for the given transaction.\n     * @param _signer An `address` of transaction signer.\n     * @param _destination An `address` where txn should be forwarded to.\n     * @param _value An `uint` of Wei value to be sent out.\n     * @param _data A `bytes` data array of the given transaction.\n     * @return A `bytes32` hash calculated for all incoming parameters.\n     */\n    function getHash(\n        address _signer,\n        address _destination,\n        uint _value,\n        bytes memory _data\n    )\n        public\n        view\n        returns(bytes32)\n    {\n        return keccak256(abi.encodePacked(address(this), _signer, _destination, _value, _data, nonce));\n    }\n\n    /**\n     * @dev Forward a meta transaction to the destination address.\n     * @param _signature A `bytes` array cotaining signature generated by owner.\n     * @param _signer An `address` of transaction signer.\n     * @param _destination An `address` where txn should be forwarded to.\n     * @param _value An `uint` of Wei value to be sent out.\n     * @param _data A `bytes` data array of the given transaction.\n     */\n    function forward(bytes memory _signature, address _signer, address _destination, uint _value, bytes memory _data) public {\n        bytes32 hash = getHash(_signer, _destination, _value, _data);\n        nonce++;\n        require(owner == hash.toEthSignedMessageHash().recover(_signature), \"Signer must be owner.\");\n        require(executeCall(_destination, _value, _data), \"Call must be successfull.\");\n        emit Forwarded(_signature, _signer, _destination, _value, _data, hash);\n    }\n\n    /**\n     * @dev Withdraw given amount of wei to the specified address.\n     * @param _to An `address` of where to send the wei.\n     * @param _value An `uint` amount to withdraw from the contract balance.\n     */\n    function withdraw(address _to, uint _value) public {\n        require(owner == msg.sender || address(this) == msg.sender, \"Only owner can withdraw\");\n        _to.transfer(_value);\n    }\n\n    /**\n     * @dev Withdraw any ERC20 tokens from the contract balance to owner's address.\n     * @param _tokenAddress An `address` of an ERC20 token.\n     * @param _to An `address` of where to send the tokens.\n     * @param _tokens An `uint` tokens amount.\n     */\n    function withdrawERC20Token(address _tokenAddress, address _to, uint _tokens) public {\n        require(owner == msg.sender || address(this) == msg.sender, \"Only owner can withdraw\");\n        IERC20 token = IERC20(_tokenAddress);\n        require(token.transfer(_to, _tokens), \"Tokens transfer must complete successfully.\");\n    }\n\n    /**\n     * @dev Forward txn by executing a call.\n     * @param _to Destination `address`.\n     * @param _value An `uint256` Wei value to be sent out.\n     * @param _data A `bytes` array with txn data.\n     * @return A `bool` completion status.\n     */\n    function executeCall(address _to, uint256 _value, bytes memory _data) internal returns (bool success) {\n        assembly {\n            let x := mload(0x40)\n            success := call(gas, _to, _value, add(_data, 0x20), mload(_data), 0, 0)\n        }\n    }\n}",
  "sourcePath": "/Users/pavel/Developer/Deco/marketplace_smart_contracts/contracts/DecoProxy.sol",
  "compiler": {
    "name": "solc",
    "version": "0.4.25+commit.59dbf8f1.Emscripten.clang"
  },
  "schemaVersion": "3.0.0",
  "updatedAt": "2019-02-25T20:25:45.141Z",
  "devdoc": {
    "methods": {
      "changeOwner(address)": {
        "details": "Change the owner of this proxy.  Used when the user forgets their key, and we can recover it via SSSS split key.  This will be the final txn of the forgotten key as it transfers ownership of the proxy to the new replacement key.  Note that this is also callable by the contract itself, which would be used in the case that a user is changing their owner address via a metatxn",
        "params": {
          "_newOwner": "An `address` of the new proxy owner."
        }
      },
      "forward(bytes,address,address,uint256,bytes)": {
        "details": "Forward a meta transaction to the destination address.",
        "params": {
          "_data": "A `bytes` data array of the given transaction.",
          "_destination": "An `address` where txn should be forwarded to.",
          "_signature": "A `bytes` array cotaining signature generated by owner.",
          "_signer": "An `address` of transaction signer.",
          "_value": "An `uint` of Wei value to be sent out."
        }
      },
      "forwardFromOwner(address,uint256,bytes)": {
        "details": "Forward a regular (non meta) transaction to the destination address.",
        "params": {
          "_data": "A `bytes` data array of the given transaction.",
          "_destination": "An `address` where txn should be forwarded to.",
          "_value": "An `uint` of Wei value to be sent out."
        }
      },
      "getHash(address,address,uint256,bytes)": {
        "details": "Returns hash for the given transaction.",
        "params": {
          "_data": "A `bytes` data array of the given transaction.",
          "_destination": "An `address` where txn should be forwarded to.",
          "_signer": "An `address` of transaction signer.",
          "_value": "An `uint` of Wei value to be sent out."
        },
        "return": "A `bytes32` hash calculated for all incoming parameters."
      },
      "initialize(address)": {
        "details": "Initialize the Proxy clone with default values.",
        "params": {
          "_owner": "An address that orders forwarding of transactions."
        }
      },
      "withdraw(address,uint256)": {
        "details": "Withdraw given amount of wei to the specified address.",
        "params": {
          "_to": "An `address` of where to send the wei.",
          "_value": "An `uint` amount to withdraw from the contract balance."
        }
      },
      "withdrawERC20Token(address,address,uint256)": {
        "details": "Withdraw any ERC20 tokens from the contract balance to owner's address.",
        "params": {
          "_to": "An `address` of where to send the tokens.",
          "_tokenAddress": "An `address` of an ERC20 token.",
          "_tokens": "An `uint` tokens amount."
        }
      }
    }
  },
  "userdoc": {
    "methods": {}
  }
}