{
  "contractName": "DecoArbitrationTargetStub",
  "abi": [
    {
      "constant": true,
      "inputs": [
        {
          "name": "",
          "type": "address"
        }
      ],
      "name": "isEligibleForDoingAnythingWithDispute",
      "outputs": [
        {
          "name": "",
          "type": "bool"
        }
      ],
      "payable": false,
      "stateMutability": "view",
      "type": "function"
    },
    {
      "constant": true,
      "inputs": [],
      "name": "disputeEnded",
      "outputs": [
        {
          "name": "",
          "type": "bool"
        }
      ],
      "payable": false,
      "stateMutability": "view",
      "type": "function"
    },
    {
      "constant": true,
      "inputs": [
        {
          "name": "",
          "type": "bytes32"
        }
      ],
      "name": "endedInternaly",
      "outputs": [
        {
          "name": "",
          "type": "bool"
        }
      ],
      "payable": false,
      "stateMutability": "view",
      "type": "function"
    },
    {
      "constant": true,
      "inputs": [],
      "name": "disputeStarted",
      "outputs": [
        {
          "name": "",
          "type": "bool"
        }
      ],
      "payable": false,
      "stateMutability": "view",
      "type": "function"
    },
    {
      "constant": false,
      "inputs": [
        {
          "name": "",
          "type": "bytes32"
        }
      ],
      "name": "disputeStartedFreeze",
      "outputs": [],
      "payable": false,
      "stateMutability": "nonpayable",
      "type": "function"
    },
    {
      "constant": false,
      "inputs": [
        {
          "name": "idHash",
          "type": "bytes32"
        },
        {
          "name": "",
          "type": "address"
        },
        {
          "name": "",
          "type": "uint8"
        },
        {
          "name": "",
          "type": "address"
        },
        {
          "name": "",
          "type": "uint8"
        },
        {
          "name": "isInternal",
          "type": "bool"
        },
        {
          "name": "",
          "type": "address"
        }
      ],
      "name": "disputeSettledTerminate",
      "outputs": [],
      "payable": false,
      "stateMutability": "nonpayable",
      "type": "function"
    },
    {
      "constant": true,
      "inputs": [
        {
          "name": "",
          "type": "bytes32"
        },
        {
          "name": "addressToCheck",
          "type": "address"
        }
      ],
      "name": "checkEligibility",
      "outputs": [
        {
          "name": "",
          "type": "bool"
        }
      ],
      "payable": false,
      "stateMutability": "view",
      "type": "function"
    },
    {
      "constant": true,
      "inputs": [
        {
          "name": "",
          "type": "bytes32"
        }
      ],
      "name": "canStartDispute",
      "outputs": [
        {
          "name": "",
          "type": "bool"
        }
      ],
      "payable": false,
      "stateMutability": "view",
      "type": "function"
    },
    {
      "constant": true,
      "inputs": [],
      "name": "canStartDispute",
      "outputs": [
        {
          "name": "",
          "type": "bool"
        }
      ],
      "payable": false,
      "stateMutability": "view",
      "type": "function"
    },
    {
      "constant": false,
      "inputs": [
        {
          "name": "eligibility",
          "type": "bool"
        },
        {
          "name": "target",
          "type": "address"
        }
      ],
      "name": "setEligibility",
      "outputs": [],
      "payable": false,
      "stateMutability": "nonpayable",
      "type": "function"
    },
    {
      "constant": false,
      "inputs": [
        {
          "name": "canStart",
          "type": "bool"
        }
      ],
      "name": "setIfCanStartDispute",
      "outputs": [],
      "payable": false,
      "stateMutability": "nonpayable",
      "type": "function"
    },
    {
      "constant": false,
      "inputs": [],
      "name": "resetState",
      "outputs": [],
      "payable": false,
      "stateMutability": "nonpayable",
      "type": "function"
    }
  ],
  "bytecode": "0x608060405234801561001057600080fd5b50610654806100206000396000f3006080604052600436106100ba576000357c0100000000000000000000000000000000000000000000000000000000900463ffffffff168063029c1337146100bf5780630c5a3f261461011a57806318469dfe14610149578063444c9833146101925780634a68e118146101db5780638e22e6431461020a578063969633c714610273578063b4cbff23146102a2578063c62d8397146102d3578063d727d64b14610322578063e902c32e146103d9578063f9e19fa514610408575b600080fd5b3480156100cb57600080fd5b50610100600480360381019080803573ffffffffffffffffffffffffffffffffffffffff16906020019092919050505061041f565b604051808215151515815260200191505060405180910390f35b34801561012657600080fd5b5061012f61043f565b604051808215151515815260200191505060405180910390f35b34801561015557600080fd5b506101786004803603810190808035600019169060200190929190505050610452565b604051808215151515815260200191505060405180910390f35b34801561019e57600080fd5b506101c1600480360381019080803560001916906020019092919050505061046a565b604051808215151515815260200191505060405180910390f35b3480156101e757600080fd5b5061020860048036038101908080351515906020019092919050505061048a565b005b34801561021657600080fd5b506102596004803603810190808035600019169060200190929190803573ffffffffffffffffffffffffffffffffffffffff1690602001909291905050506104a6565b604051808215151515815260200191505060405180910390f35b34801561027f57600080fd5b506102886104fd565b604051808215151515815260200191505060405180910390f35b3480156102ae57600080fd5b506102d1600480360381019080803560001916906020019092919050505061050f565b005b3480156102df57600080fd5b50610320600480360381019080803515159060200190929190803573ffffffffffffffffffffffffffffffffffffffff16906020019092919050505061052d565b005b34801561032e57600080fd5b506103d76004803603810190808035600019169060200190929190803573ffffffffffffffffffffffffffffffffffffffff169060200190929190803560ff169060200190929190803573ffffffffffffffffffffffffffffffffffffffff169060200190929190803560ff169060200190929190803515159060200190929190803573ffffffffffffffffffffffffffffffffffffffff169060200190929190505050610588565b005b3480156103e557600080fd5b506103ee6105df565b604051808215151515815260200191505060405180910390f35b34801561041457600080fd5b5061041d6105f2565b005b60026020528060005260406000206000915054906101000a900460ff1681565b600060029054906101000a900460ff1681565b60008060009054906101000a900460ff169050919050565b60016020528060005260406000206000915054906101000a900460ff1681565b806000806101000a81548160ff02191690831515021790555050565b6000600260008373ffffffffffffffffffffffffffffffffffffffff1673ffffffffffffffffffffffffffffffffffffffff16815260200190815260200160002060009054906101000a900460ff16905092915050565b6000809054906101000a900460ff1681565b6001600060016101000a81548160ff02191690831515021790555050565b81600260008373ffffffffffffffffffffffffffffffffffffffff1673ffffffffffffffffffffffffffffffffffffffff16815260200190815260200160002060006101000a81548160ff0219169083151502179055505050565b6001600060026101000a81548160ff0219169083151502179055508160016000896000191660001916815260200190815260200160002060006101000a81548160ff02191690831515021790555050505050505050565b600060019054906101000a900460ff1681565b60008060016101000a81548160ff02191690831515021790555060008060026101000a81548160ff0219169083151502179055505600a165627a7a7230582066006ddf6dc1ef6795e7f35f5cecdb76d9d83980ccbc45ce4b1b91a4fdc74ba10029",
  "source": "pragma solidity 0.4.25;\n\nimport \"../IDecoArbitrationTarget.sol\";\n\n\ncontract DecoArbitrationTargetStub is IDecoArbitrationTarget {\n\n    bool public canStartDispute;\n\n    bool public disputeStarted;\n\n    bool public disputeEnded;\n\n    mapping(bytes32 => bool) public endedInternaly;\n\n    mapping(address => bool) public isEligibleForDoingAnythingWithDispute;\n\n    function disputeStartedFreeze(bytes32) public {\n        disputeStarted = true;\n    }\n\n    function disputeSettledTerminate(\n        bytes32 idHash,\n        address,\n        uint8,\n        address,\n        uint8,\n        bool isInternal,\n        address\n    )\n        public\n    {\n        disputeEnded = true;\n        endedInternaly[idHash] = isInternal;\n    }\n\n    function checkEligibility(bytes32, address addressToCheck) public view returns(bool) {\n        return isEligibleForDoingAnythingWithDispute[addressToCheck];\n    }\n\n    function canStartDispute(bytes32) public view returns(bool) {\n        return canStartDispute;\n    }\n\n    function setEligibility(bool eligibility, address target) public {\n        isEligibleForDoingAnythingWithDispute[target] = eligibility;\n    }\n\n    function setIfCanStartDispute(bool canStart) public {\n        canStartDispute = canStart;\n    }\n\n    function resetState() public {\n        disputeStarted = false;\n        disputeEnded = false;\n    }\n}\n",
  "sourcePath": "/Users/chris/Documents/WorkStuff/Deconet/Blockchain/DeconetProjectsMarketContracts/contracts/mocks/DecoArbitrationTargetStub.sol",
  "compiler": {
    "name": "solc",
    "version": "0.4.25+commit.59dbf8f1.Emscripten.clang"
  },
  "schemaVersion": "3.0.0",
  "updatedAt": "2019-02-27T21:10:54.549Z",
  "devdoc": {
    "methods": {}
  },
  "userdoc": {
    "methods": {}
  }
}