{
  "contractName": "DecoProjectsMock",
  "abi": [
    {
      "constant": true,
      "inputs": [
        {
          "name": "_agreementHash",
          "type": "bytes32"
        }
      ],
      "name": "checkIfProjectExists",
      "outputs": [
        {
          "name": "",
          "type": "bool"
        }
      ],
      "payable": false,
      "stateMutability": "view",
      "type": "function"
    },
    {
      "constant": false,
      "inputs": [
        {
          "name": "_newAddress",
          "type": "address"
        }
      ],
      "name": "setRelayContractAddress",
      "outputs": [],
      "payable": false,
      "stateMutability": "nonpayable",
      "type": "function"
    },
    {
      "constant": true,
      "inputs": [
        {
          "name": "_agreementHash",
          "type": "bytes32"
        },
        {
          "name": "_respondent",
          "type": "address"
        },
        {
          "name": "_initiator",
          "type": "address"
        },
        {
          "name": "_arbiter",
          "type": "address"
        }
      ],
      "name": "getInfoForDisputeAndValidate",
      "outputs": [
        {
          "name": "",
          "type": "uint256"
        },
        {
          "name": "",
          "type": "uint8"
        },
        {
          "name": "",
          "type": "address"
        }
      ],
      "payable": false,
      "stateMutability": "view",
      "type": "function"
    },
    {
      "constant": true,
      "inputs": [
        {
          "name": "",
          "type": "address"
        },
        {
          "name": "",
          "type": "uint256"
        }
      ],
      "name": "clientProjects",
      "outputs": [
        {
          "name": "",
          "type": "bytes32"
        }
      ],
      "payable": false,
      "stateMutability": "view",
      "type": "function"
    },
    {
      "constant": true,
      "inputs": [
        {
          "name": "_agreementHash",
          "type": "bytes32"
        }
      ],
      "name": "getProjectMilestonesCount",
      "outputs": [
        {
          "name": "",
          "type": "uint8"
        }
      ],
      "payable": false,
      "stateMutability": "view",
      "type": "function"
    },
    {
      "constant": true,
      "inputs": [
        {
          "name": "_maker",
          "type": "address"
        }
      ],
      "name": "getMakerProjects",
      "outputs": [
        {
          "name": "",
          "type": "bytes32[]"
        }
      ],
      "payable": false,
      "stateMutability": "view",
      "type": "function"
    },
    {
      "constant": true,
      "inputs": [
        {
          "name": "_agreementHash",
          "type": "bytes32"
        }
      ],
      "name": "getProjectArbitrationFees",
      "outputs": [
        {
          "name": "",
          "type": "uint256"
        },
        {
          "name": "",
          "type": "uint8"
        }
      ],
      "payable": false,
      "stateMutability": "view",
      "type": "function"
    },
    {
      "constant": true,
      "inputs": [
        {
          "name": "_agreementHash",
          "type": "bytes32"
        }
      ],
      "name": "getProjectEndDate",
      "outputs": [
        {
          "name": "",
          "type": "uint256"
        }
      ],
      "payable": false,
      "stateMutability": "view",
      "type": "function"
    },
    {
      "constant": true,
      "inputs": [
        {
          "name": "_agreementHash",
          "type": "bytes32"
        }
      ],
      "name": "getProjectMaker",
      "outputs": [
        {
          "name": "",
          "type": "address"
        }
      ],
      "payable": false,
      "stateMutability": "view",
      "type": "function"
    },
    {
      "constant": true,
      "inputs": [
        {
          "name": "",
          "type": "address"
        },
        {
          "name": "",
          "type": "uint256"
        }
      ],
      "name": "makerProjects",
      "outputs": [
        {
          "name": "",
          "type": "bytes32"
        }
      ],
      "payable": false,
      "stateMutability": "view",
      "type": "function"
    },
    {
      "constant": false,
      "inputs": [],
      "name": "renounceOwnership",
      "outputs": [],
      "payable": false,
      "stateMutability": "nonpayable",
      "type": "function"
    },
    {
      "constant": true,
      "inputs": [],
      "name": "owner",
      "outputs": [
        {
          "name": "",
          "type": "address"
        }
      ],
      "payable": false,
      "stateMutability": "view",
      "type": "function"
    },
    {
      "constant": true,
      "inputs": [],
      "name": "isOwner",
      "outputs": [
        {
          "name": "",
          "type": "bool"
        }
      ],
      "payable": false,
      "stateMutability": "view",
      "type": "function"
    },
    {
      "constant": false,
      "inputs": [
        {
          "name": "_agreementHash",
          "type": "bytes32"
        }
      ],
      "name": "terminateProject",
      "outputs": [],
      "payable": false,
      "stateMutability": "nonpayable",
      "type": "function"
    },
    {
      "constant": true,
      "inputs": [
        {
          "name": "_client",
          "type": "address"
        }
      ],
      "name": "getClientProjects",
      "outputs": [
        {
          "name": "",
          "type": "bytes32[]"
        }
      ],
      "payable": false,
      "stateMutability": "view",
      "type": "function"
    },
    {
      "constant": true,
      "inputs": [
        {
          "name": "_agreementHash",
          "type": "bytes32"
        }
      ],
      "name": "getProjectArbiter",
      "outputs": [
        {
          "name": "",
          "type": "address"
        }
      ],
      "payable": false,
      "stateMutability": "view",
      "type": "function"
    },
    {
      "constant": true,
      "inputs": [
        {
          "name": "_agreementHash",
          "type": "bytes32"
        }
      ],
      "name": "getProjectStartDate",
      "outputs": [
        {
          "name": "",
          "type": "uint256"
        }
      ],
      "payable": false,
      "stateMutability": "view",
      "type": "function"
    },
    {
      "constant": true,
      "inputs": [
        {
          "name": "_agreementHash",
          "type": "bytes32"
        }
      ],
      "name": "getProjectClient",
      "outputs": [
        {
          "name": "",
          "type": "address"
        }
      ],
      "payable": false,
      "stateMutability": "view",
      "type": "function"
    },
    {
      "constant": true,
      "inputs": [
        {
          "name": "_client",
          "type": "address"
        }
      ],
      "name": "clientsAverageRating",
      "outputs": [
        {
          "name": "",
          "type": "uint256"
        },
        {
          "name": "",
          "type": "uint256"
        }
      ],
      "payable": false,
      "stateMutability": "view",
      "type": "function"
    },
    {
      "constant": true,
      "inputs": [
        {
          "name": "_agreementHash",
          "type": "bytes32"
        }
      ],
      "name": "getProjectEscrowAddress",
      "outputs": [
        {
          "name": "",
          "type": "address"
        }
      ],
      "payable": false,
      "stateMutability": "view",
      "type": "function"
    },
    {
      "constant": true,
      "inputs": [
        {
          "name": "",
          "type": "bytes32"
        }
      ],
      "name": "projects",
      "outputs": [
        {
          "name": "agreementId",
          "type": "string"
        },
        {
          "name": "client",
          "type": "address"
        },
        {
          "name": "maker",
          "type": "address"
        },
        {
          "name": "arbiter",
          "type": "address"
        },
        {
          "name": "escrowContractAddress",
          "type": "address"
        },
        {
          "name": "startDate",
          "type": "uint256"
        },
        {
          "name": "endDate",
          "type": "uint256"
        },
        {
          "name": "milestoneStartWindow",
          "type": "uint8"
        },
        {
          "name": "feedbackWindow",
          "type": "uint8"
        },
        {
          "name": "milestonesCount",
          "type": "uint8"
        },
        {
          "name": "customerSatisfaction",
          "type": "uint8"
        },
        {
          "name": "makerSatisfaction",
          "type": "uint8"
        },
        {
          "name": "agreementsEncrypted",
          "type": "bool"
        }
      ],
      "payable": false,
      "stateMutability": "view",
      "type": "function"
    },
    {
      "constant": true,
      "inputs": [
        {
          "name": "",
          "type": "bytes32"
        }
      ],
      "name": "projectArbiterShareFee",
      "outputs": [
        {
          "name": "",
          "type": "uint8"
        }
      ],
      "payable": false,
      "stateMutability": "view",
      "type": "function"
    },
    {
      "constant": true,
      "inputs": [
        {
          "name": "",
          "type": "bytes32"
        }
      ],
      "name": "projectArbiterFixedFee",
      "outputs": [
        {
          "name": "",
          "type": "uint256"
        }
      ],
      "payable": false,
      "stateMutability": "view",
      "type": "function"
    },
    {
      "constant": true,
      "inputs": [
        {
          "name": "_maker",
          "type": "address"
        }
      ],
      "name": "makersAverageRating",
      "outputs": [
        {
          "name": "",
          "type": "uint256"
        },
        {
          "name": "",
          "type": "uint256"
        }
      ],
      "payable": false,
      "stateMutability": "view",
      "type": "function"
    },
    {
      "constant": false,
      "inputs": [
        {
          "name": "_agreementHash",
          "type": "bytes32"
        },
        {
          "name": "_rating",
          "type": "uint8"
        }
      ],
      "name": "rateProjectSecondParty",
      "outputs": [],
      "payable": false,
      "stateMutability": "nonpayable",
      "type": "function"
    },
    {
      "constant": false,
      "inputs": [
        {
          "name": "_agreementHash",
          "type": "bytes32"
        }
      ],
      "name": "completeProject",
      "outputs": [],
      "payable": false,
      "stateMutability": "nonpayable",
      "type": "function"
    },
    {
      "constant": false,
      "inputs": [
        {
          "name": "_tokenAddress",
          "type": "address"
        },
        {
          "name": "_tokens",
          "type": "uint256"
        }
      ],
      "name": "transferAnyERC20Token",
      "outputs": [
        {
          "name": "success",
          "type": "bool"
        }
      ],
      "payable": false,
      "stateMutability": "nonpayable",
      "type": "function"
    },
    {
      "constant": true,
      "inputs": [
        {
          "name": "_agreementHash",
          "type": "bytes32"
        }
      ],
      "name": "getProjectMilestoneStartWindow",
      "outputs": [
        {
          "name": "",
          "type": "uint8"
        }
      ],
      "payable": false,
      "stateMutability": "view",
      "type": "function"
    },
    {
      "constant": true,
      "inputs": [],
      "name": "relayContractAddress",
      "outputs": [
        {
          "name": "",
          "type": "address"
        }
      ],
      "payable": false,
      "stateMutability": "view",
      "type": "function"
    },
    {
      "constant": true,
      "inputs": [
        {
          "name": "_agreementHash",
          "type": "bytes32"
        }
      ],
      "name": "getProjectFeedbackWindow",
      "outputs": [
        {
          "name": "",
          "type": "uint8"
        }
      ],
      "payable": false,
      "stateMutability": "view",
      "type": "function"
    },
    {
      "constant": false,
      "inputs": [
        {
          "name": "_agreementId",
          "type": "string"
        },
        {
          "name": "_client",
          "type": "address"
        },
        {
          "name": "_arbiter",
          "type": "address"
        },
        {
          "name": "_maker",
          "type": "address"
        },
        {
          "name": "_makersSignature",
          "type": "bytes"
        },
        {
          "name": "_milestonesCount",
          "type": "uint8"
        },
        {
          "name": "_milestoneStartWindow",
          "type": "uint8"
        },
        {
          "name": "_feedbackWindow",
          "type": "uint8"
        },
        {
          "name": "_agreementEncrypted",
          "type": "bool"
        }
      ],
      "name": "startProject",
      "outputs": [],
      "payable": false,
      "stateMutability": "nonpayable",
      "type": "function"
    },
    {
      "constant": false,
      "inputs": [
        {
          "name": "newOwner",
          "type": "address"
        }
      ],
      "name": "transferOwnership",
      "outputs": [],
      "payable": false,
      "stateMutability": "nonpayable",
      "type": "function"
    },
    {
      "inputs": [
        {
          "name": "_chainId",
          "type": "uint256"
        }
      ],
      "payable": false,
      "stateMutability": "nonpayable",
      "type": "constructor"
    },
    {
      "payable": true,
      "stateMutability": "payable",
      "type": "fallback"
    },
    {
      "anonymous": false,
      "inputs": [
        {
          "indexed": false,
          "name": "newCloneAddress",
          "type": "address"
        }
      ],
      "name": "MockCloningTestEvent",
      "type": "event"
    },
    {
      "anonymous": false,
      "inputs": [
        {
          "indexed": true,
          "name": "agreementHash",
          "type": "bytes32"
        },
        {
          "indexed": false,
          "name": "updatedBy",
          "type": "address"
        },
        {
          "indexed": false,
          "name": "timestamp",
          "type": "uint256"
        },
        {
          "indexed": false,
          "name": "state",
          "type": "uint8"
        }
      ],
      "name": "LogProjectStateUpdate",
      "type": "event"
    },
    {
      "anonymous": false,
      "inputs": [
        {
          "indexed": true,
          "name": "agreementHash",
          "type": "bytes32"
        },
        {
          "indexed": true,
          "name": "ratedBy",
          "type": "address"
        },
        {
          "indexed": true,
          "name": "ratingTarget",
          "type": "address"
        },
        {
          "indexed": false,
          "name": "rating",
          "type": "uint8"
        },
        {
          "indexed": false,
          "name": "timestamp",
          "type": "uint256"
        }
      ],
      "name": "LogProjectRated",
      "type": "event"
    },
    {
      "anonymous": false,
      "inputs": [
        {
          "indexed": true,
          "name": "previousOwner",
          "type": "address"
        },
        {
          "indexed": true,
          "name": "newOwner",
          "type": "address"
        }
      ],
      "name": "OwnershipTransferred",
      "type": "event"
    },
    {
      "constant": false,
      "inputs": [
        {
          "name": "_newOwner",
          "type": "address"
        }
      ],
      "name": "testDeployEscrowClone",
      "outputs": [],
      "payable": false,
      "stateMutability": "nonpayable",
      "type": "function"
    },
    {
      "constant": true,
      "inputs": [
        {
          "name": "_maker",
          "type": "address"
        },
        {
          "name": "_signature",
          "type": "bytes"
        },
        {
          "name": "_agreementId",
          "type": "string"
        },
        {
          "name": "_arbiter",
          "type": "address"
        }
      ],
      "name": "testIsMakersSignatureValid",
      "outputs": [
        {
          "name": "",
          "type": "bool"
        }
      ],
      "payable": false,
      "stateMutability": "view",
      "type": "function"
    }
  ],
  "bytecode": "0x60806040523480156200001157600080fd5b50604051602080620058168339810180604052810190808051906020019092919050505080336000806101000a81548173ffffffffffffffffffffffffffffffffffffffff021916908373ffffffffffffffffffffffffffffffffffffffff1602179055506000809054906101000a900473ffffffffffffffffffffffffffffffffffffffff1673ffffffffffffffffffffffffffffffffffffffff16600073ffffffffffffffffffffffffffffffffffffffff167f8be0079c531659141344cd1fd0a4f28419497f9722a3daafe3b4186f6b6457e060405160405180910390a36000811415151562000192576040517f08c379a00000000000000000000000000000000000000000000000000000000081526004018080602001828103825260228152602001807f596f75206d75737420737065636966792061206e6f6e7a65726f20636861696e81526020017f496400000000000000000000000000000000000000000000000000000000000081525060400191505060405180910390fd5b6200024d6080604051908101604052806040805190810160405280600c81526020017f4465636f2e4e6574776f726b000000000000000000000000000000000000000081525081526020016040805190810160405280600181526020017f310000000000000000000000000000000000000000000000000000000000000081525081526020018381526020013073ffffffffffffffffffffffffffffffffffffffff168152506200025f640100000000026401000000009004565b600281600019169055505050620004a9565b600060405180807f454950373132446f6d61696e28737472696e67206e616d652c737472696e672081526020017f76657273696f6e2c75696e7432353620636861696e49642c616464726573732081526020017f766572696679696e67436f6e74726163742900000000000000000000000000008152506052019050604051809103902082600001516040518082805190602001908083835b6020831015156200031f5780518252602082019150602081019050602083039250620002f8565b6001836020036101000a038019825116818451168082178552505050505050905001915050604051809103902083602001516040518082805190602001908083835b60208310151562000388578051825260208201915060208101905060208303925062000361565b6001836020036101000a038019825116818451168082178552505050505050905001915050604051809103902084604001518560600151604051602001808660001916600019168152602001856000191660001916815260200184600019166000191681526020018381526020018273ffffffffffffffffffffffffffffffffffffffff1673ffffffffffffffffffffffffffffffffffffffff168152602001955050505050506040516020818303038152906040526040518082805190602001908083835b6020831015156200047557805182526020820191506020810190506020830392506200044e565b6001836020036101000a03801982511681845116808217855250505050505090500191505060405180910390209050919050565b61535d80620004b96000396000f3006080604052600436106101ac576000357c0100000000000000000000000000000000000000000000000000000000900463ffffffff1680630bf1e939146102265780631604fa4d1461032d5780632d2bcd371461037657806334aa982a146103b9578063427583a21461049e5780634a80dcab14610507578063542fd55614610552578063570f65c4146105ea5780635f6dd2971461063c57806362074c31146106815780636967e9ee146106f2578063715018a61461075b5780638da5cb5b146107725780638f32d59b146107c95780639827a996146107f85780639a8b3d8f14610829578063a3e2b1de146108c1578063a5e20eaa14610932578063ab065d6c14610977578063ac76a499146109e8578063b67a5de714610a46578063b88467c214610a89578063b96ea12d14610afa578063c45b1b4d14610cca578063c8706db414610d15578063c8ede71214610d5a578063d6fc2e6214610db8578063d90b495814610df6578063dc39d06d14610e27578063dd4bd4b714610e8c578063dfa93d6414610ed7578063e591fa2614610f2e578063ed4c87ac14610f79578063f2fde38b1461105f575b600034141515610224576040517f08c379a000000000000000000000000000000000000000000000000000000000815260040180806020018281038252601a8152602001807f426c6f636b696e6720616e7920696e636f6d696e67204554482e00000000000081525060200191505060405180910390fd5b005b34801561023257600080fd5b50610313600480360381019080803573ffffffffffffffffffffffffffffffffffffffff169060200190929190803590602001908201803590602001908080601f0160208091040260200160405190810160405280939291908181526020018383808284378201915050505050509192919290803590602001908201803590602001908080601f0160208091040260200160405190810160405280939291908181526020018383808284378201915050505050509192919290803573ffffffffffffffffffffffffffffffffffffffff1690602001909291905050506110a2565b604051808215151515815260200191505060405180910390f35b34801561033957600080fd5b5061035c60048036038101908080356000191690602001909291905050506110ba565b604051808215151515815260200191505060405180910390f35b34801561038257600080fd5b506103b7600480360381019080803573ffffffffffffffffffffffffffffffffffffffff169060200190929190505050611131565b005b3480156103c557600080fd5b506104486004803603810190808035600019169060200190929190803573ffffffffffffffffffffffffffffffffffffffff169060200190929190803573ffffffffffffffffffffffffffffffffffffffff169060200190929190803573ffffffffffffffffffffffffffffffffffffffff16906020019092919050505061122d565b604051808481526020018360ff1660ff1681526020018273ffffffffffffffffffffffffffffffffffffffff1673ffffffffffffffffffffffffffffffffffffffff168152602001935050505060405180910390f35b3480156104aa57600080fd5b506104e9600480360381019080803573ffffffffffffffffffffffffffffffffffffffff16906020019092919080359060200190929190505050611838565b60405180826000191660001916815260200191505060405180910390f35b34801561051357600080fd5b506105366004803603810190808035600019169060200190929190505050611868565b604051808260ff1660ff16815260200191505060405180910390f35b34801561055e57600080fd5b50610593600480360381019080803573ffffffffffffffffffffffffffffffffffffffff16906020019092919050505061189d565b6040518080602001828103825283818151815260200191508051906020019060200280838360005b838110156105d65780820151818401526020810190506105bb565b505050509050019250505060405180910390f35b3480156105f657600080fd5b506106196004803603810190808035600019169060200190929190505050611938565b604051808381526020018260ff1660ff1681526020019250505060405180910390f35b34801561064857600080fd5b5061066b6004803603810190808035600019169060200190929190505050611989565b6040518082815260200191505060405180910390f35b34801561068d57600080fd5b506106b060048036038101908080356000191690602001909291905050506119b1565b604051808273ffffffffffffffffffffffffffffffffffffffff1673ffffffffffffffffffffffffffffffffffffffff16815260200191505060405180910390f35b3480156106fe57600080fd5b5061073d600480360381019080803573ffffffffffffffffffffffffffffffffffffffff169060200190929190803590602001909291905050506119f9565b60405180826000191660001916815260200191505060405180910390f35b34801561076757600080fd5b50610770611a29565b005b34801561077e57600080fd5b50610787611afb565b604051808273ffffffffffffffffffffffffffffffffffffffff1673ffffffffffffffffffffffffffffffffffffffff16815260200191505060405180910390f35b3480156107d557600080fd5b506107de611b24565b604051808215151515815260200191505060405180910390f35b34801561080457600080fd5b506108276004803603810190808035600019169060200190929190505050611b7b565b005b34801561083557600080fd5b5061086a600480360381019080803573ffffffffffffffffffffffffffffffffffffffff169060200190929190505050612475565b6040518080602001828103825283818151815260200191508051906020019060200280838360005b838110156108ad578082015181840152602081019050610892565b505050509050019250505060405180910390f35b3480156108cd57600080fd5b506108f06004803603810190808035600019169060200190929190505050612510565b604051808273ffffffffffffffffffffffffffffffffffffffff1673ffffffffffffffffffffffffffffffffffffffff16815260200191505060405180910390f35b34801561093e57600080fd5b506109616004803603810190808035600019169060200190929190505050612558565b6040518082815260200191505060405180910390f35b34801561098357600080fd5b506109a66004803603810190808035600019169060200190929190505050612580565b604051808273ffffffffffffffffffffffffffffffffffffffff1673ffffffffffffffffffffffffffffffffffffffff16815260200191505060405180910390f35b3480156109f457600080fd5b50610a29600480360381019080803573ffffffffffffffffffffffffffffffffffffffff1690602001909291905050506125c8565b604051808381526020018281526020019250505060405180910390f35b348015610a5257600080fd5b50610a87600480360381019080803573ffffffffffffffffffffffffffffffffffffffff1690602001909291905050506125df565b005b348015610a9557600080fd5b50610ab86004803603810190808035600019169060200190929190505050612653565b604051808273ffffffffffffffffffffffffffffffffffffffff1673ffffffffffffffffffffffffffffffffffffffff16815260200191505060405180910390f35b348015610b0657600080fd5b50610b29600480360381019080803560001916906020019092919050505061269b565b60405180806020018e73ffffffffffffffffffffffffffffffffffffffff1673ffffffffffffffffffffffffffffffffffffffff1681526020018d73ffffffffffffffffffffffffffffffffffffffff1673ffffffffffffffffffffffffffffffffffffffff1681526020018c73ffffffffffffffffffffffffffffffffffffffff1673ffffffffffffffffffffffffffffffffffffffff1681526020018b73ffffffffffffffffffffffffffffffffffffffff1673ffffffffffffffffffffffffffffffffffffffff1681526020018a81526020018981526020018860ff1660ff1681526020018760ff1660ff1681526020018660ff1660ff1681526020018560ff1660ff1681526020018460ff1660ff1681526020018315151515815260200182810382528f818151815260200191508051906020019080838360005b83811015610c83578082015181840152602081019050610c68565b50505050905090810190601f168015610cb05780820380516001836020036101000a031916815260200191505b509e50505050505050505050505050505060405180910390f35b348015610cd657600080fd5b50610cf96004803603810190808035600019169060200190929190505050612867565b604051808260ff1660ff16815260200191505060405180910390f35b348015610d2157600080fd5b50610d446004803603810190808035600019169060200190929190505050612887565b6040518082815260200191505060405180910390f35b348015610d6657600080fd5b50610d9b600480360381019080803573ffffffffffffffffffffffffffffffffffffffff16906020019092919050505061289f565b604051808381526020018281526020019250505060405180910390f35b348015610dc457600080fd5b50610df46004803603810190808035600019169060200190929190803560ff1690602001909291905050506128b6565b005b348015610e0257600080fd5b50610e2560048036038101908080356000191690602001909291905050506130e9565b005b348015610e3357600080fd5b50610e72600480360381019080803573ffffffffffffffffffffffffffffffffffffffff16906020019092919080359060200190929190505050613abb565b604051808215151515815260200191505060405180910390f35b348015610e9857600080fd5b50610ebb6004803603810190808035600019169060200190929190505050613bc2565b604051808260ff1660ff16815260200191505060405180910390f35b348015610ee357600080fd5b50610eec613bf7565b604051808273ffffffffffffffffffffffffffffffffffffffff1673ffffffffffffffffffffffffffffffffffffffff16815260200191505060405180910390f35b348015610f3a57600080fd5b50610f5d6004803603810190808035600019169060200190929190505050613c1d565b604051808260ff1660ff16815260200191505060405180910390f35b348015610f8557600080fd5b5061105d600480360381019080803590602001908201803590602001919091929391929390803573ffffffffffffffffffffffffffffffffffffffff169060200190929190803573ffffffffffffffffffffffffffffffffffffffff169060200190929190803573ffffffffffffffffffffffffffffffffffffffff169060200190929190803590602001908201803590602001919091929391929390803560ff169060200190929190803560ff169060200190929190803560ff169060200190929190803515159060200190929190505050613c52565b005b34801561106b57600080fd5b506110a0600480360381019080803573ffffffffffffffffffffffffffffffffffffffff16906020019092919050505061465c565b005b60006110b08585858561467b565b9050949350505050565b60008073ffffffffffffffffffffffffffffffffffffffff1660036000846000191660001916815260200190815260200160002060010160009054906101000a900473ffffffffffffffffffffffffffffffffffffffff1673ffffffffffffffffffffffffffffffffffffffff1614159050919050565b611139611b24565b151561114457600080fd5b600073ffffffffffffffffffffffffffffffffffffffff168173ffffffffffffffffffffffffffffffffffffffff16141515156111e9576040517f08c379a000000000000000000000000000000000000000000000000000000000815260040180806020018281038252601e8152602001807f52656c61792061646472657373206d757374206e6f74206265203078302e000081525060200191505060405180910390fd5b80600160006101000a81548173ffffffffffffffffffffffffffffffffffffffff021916908373ffffffffffffffffffffffffffffffffffffffff16021790555050565b600080600061123a6151ba565b6000806000806112498c6110ba565b15156112bd576040517f08c379a00000000000000000000000000000000000000000000000000000000081526004018080602001828103825260138152602001807f50726f6a656374206d7573742065786973742e0000000000000000000000000081525060200191505060405180910390fd5b600360008d600019166000191681526020019081526020016000206101a06040519081016040529081600082018054600181600116156101000203166002900480601f01602080910402602001604051908101604052809291908181526020018280546001816001161561010002031660029004801561137e5780601f106113535761010080835404028352916020019161137e565b820191906000526020600020905b81548152906001019060200180831161136157829003601f168201915b505050505081526020016001820160009054906101000a900473ffffffffffffffffffffffffffffffffffffffff1673ffffffffffffffffffffffffffffffffffffffff1673ffffffffffffffffffffffffffffffffffffffff1681526020016002820160009054906101000a900473ffffffffffffffffffffffffffffffffffffffff1673ffffffffffffffffffffffffffffffffffffffff1673ffffffffffffffffffffffffffffffffffffffff1681526020016003820160009054906101000a900473ffffffffffffffffffffffffffffffffffffffff1673ffffffffffffffffffffffffffffffffffffffff1673ffffffffffffffffffffffffffffffffffffffff1681526020016004820160009054906101000a900473ffffffffffffffffffffffffffffffffffffffff1673ffffffffffffffffffffffffffffffffffffffff1673ffffffffffffffffffffffffffffffffffffffff16815260200160058201548152602001600682015481526020016007820160009054906101000a900460ff1660ff1660ff1681526020016007820160019054906101000a900460ff1660ff1660ff1681526020016007820160029054906101000a900460ff1660ff1660ff1681526020016007820160039054906101000a900460ff1660ff1660ff1681526020016007820160049054906101000a900460ff1660ff1660ff1681526020016007820160059054906101000a900460ff161515151581525050945084602001519350846040015192508873ffffffffffffffffffffffffffffffffffffffff16856060015173ffffffffffffffffffffffffffffffffffffffff1614151561167c576040517f08c379a000000000000000000000000000000000000000000000000000000000815260040180806020018281038252602b8152602001807f417262697465722073686f756c642062652073616d652061732073617665642081526020017f696e2070726f6a6563742e00000000000000000000000000000000000000000081525060400191505060405180910390fd5b8373ffffffffffffffffffffffffffffffffffffffff168a73ffffffffffffffffffffffffffffffffffffffff161480156116e257508273ffffffffffffffffffffffffffffffffffffffff168b73ffffffffffffffffffffffffffffffffffffffff16145b8061174f57508273ffffffffffffffffffffffffffffffffffffffff168a73ffffffffffffffffffffffffffffffffffffffff1614801561174e57508373ffffffffffffffffffffffffffffffffffffffff168b73ffffffffffffffffffffffffffffffffffffffff16145b5b151561180f576040517f08c379a000000000000000000000000000000000000000000000000000000000815260040180806020018281038252604f8152602001807f496e69746961746f7220616e6420726573706f6e64656e74206d75737420626581526020017f20646966666572656e7420616e6420657175616c20746f206d616b65722f636c81526020017f69656e74206164647265737365732e000000000000000000000000000000000081525060600191505060405180910390fd5b6118188c611938565b915091508181866080015197509750975050505050509450945094915050565b60056020528160005260406000208181548110151561185357fe5b90600052602060002001600091509150505481565b600060036000836000191660001916815260200190815260200160002060070160029054906101000a900460ff169050919050565b6060600460008373ffffffffffffffffffffffffffffffffffffffff1673ffffffffffffffffffffffffffffffffffffffff16815260200190815260200160002080548060200260200160405190810160405280929190818152602001828054801561192c57602002820191906000526020600020905b81546000191681526020019060010190808311611914575b50505050509050919050565b6000806006600084600019166000191681526020019081526020016000205460076000856000191660001916815260200190815260200160002060009054906101000a900460ff1691509150915091565b6000600360008360001916600019168152602001908152602001600020600601549050919050565b600060036000836000191660001916815260200190815260200160002060020160009054906101000a900473ffffffffffffffffffffffffffffffffffffffff169050919050565b600460205281600052604060002081815481101515611a1457fe5b90600052602060002001600091509150505481565b611a31611b24565b1515611a3c57600080fd5b600073ffffffffffffffffffffffffffffffffffffffff166000809054906101000a900473ffffffffffffffffffffffffffffffffffffffff1673ffffffffffffffffffffffffffffffffffffffff167f8be0079c531659141344cd1fd0a4f28419497f9722a3daafe3b4186f6b6457e060405160405180910390a360008060006101000a81548173ffffffffffffffffffffffffffffffffffffffff021916908373ffffffffffffffffffffffffffffffffffffffff160217905550565b60008060009054906101000a900473ffffffffffffffffffffffffffffffffffffffff16905090565b60008060009054906101000a900473ffffffffffffffffffffffffffffffffffffffff1673ffffffffffffffffffffffffffffffffffffffff163373ffffffffffffffffffffffffffffffffffffffff1614905090565b600080600083611b896151ba565b60006003600084600019166000191681526020019081526020016000206101a06040519081016040529081600082018054600181600116156101000203166002900480601f016020809104026020016040519081016040528092919081815260200182805460018160011615610100020316600290048015611c4c5780601f10611c2157610100808354040283529160200191611c4c565b820191906000526020600020905b815481529060010190602001808311611c2f57829003601f168201915b505050505081526020016001820160009054906101000a900473ffffffffffffffffffffffffffffffffffffffff1673ffffffffffffffffffffffffffffffffffffffff1673ffffffffffffffffffffffffffffffffffffffff1681526020016002820160009054906101000a900473ffffffffffffffffffffffffffffffffffffffff1673ffffffffffffffffffffffffffffffffffffffff1673ffffffffffffffffffffffffffffffffffffffff1681526020016003820160009054906101000a900473ffffffffffffffffffffffffffffffffffffffff1673ffffffffffffffffffffffffffffffffffffffff1673ffffffffffffffffffffffffffffffffffffffff1681526020016004820160009054906101000a900473ffffffffffffffffffffffffffffffffffffffff1673ffffffffffffffffffffffffffffffffffffffff1673ffffffffffffffffffffffffffffffffffffffff16815260200160058201548152602001600682015481526020016007820160009054906101000a900460ff1660ff1660ff1681526020016007820160019054906101000a900460ff1660ff1660ff1681526020016007820160029054906101000a900460ff1660ff1660ff1681526020016007820160039054906101000a900460ff1660ff1660ff1681526020016007820160049054906101000a900460ff1660ff1660ff1681526020016007820160059054906101000a900460ff1615151515815250509150600160009054906101000a900473ffffffffffffffffffffffffffffffffffffffff1690503373ffffffffffffffffffffffffffffffffffffffff16826020015173ffffffffffffffffffffffffffffffffffffffff161480611f0157503373ffffffffffffffffffffffffffffffffffffffff16826040015173ffffffffffffffffffffffffffffffffffffffff16145b80611fd557503373ffffffffffffffffffffffffffffffffffffffff168173ffffffffffffffffffffffffffffffffffffffff16635359cf976040518163ffffffff167c0100000000000000000000000000000000000000000000000000000000028152600401602060405180830381600087803b158015611f8257600080fd5b505af1158015611f96573d6000803e3d6000fd5b505050506040513d6020811015611fac57600080fd5b810190808051906020019092919050505073ffffffffffffffffffffffffffffffffffffffff16145b151561206f576040517f08c379a00000000000000000000000000000000000000000000000000000000081526004018080602001828103825260378152602001807f4f6e6c792070726f6a656374206f776e6572206f72206d616b65722063616e2081526020017f706572666f726d2074686973206f7065726174696f6e2e00000000000000000081525060400191505060405180910390fd5b6003600088600019166000191681526020019081526020016000209550600073ffffffffffffffffffffffffffffffffffffffff168660010160009054906101000a900473ffffffffffffffffffffffffffffffffffffffff1673ffffffffffffffffffffffffffffffffffffffff161415151561217b576040517f08c379a00000000000000000000000000000000000000000000000000000000081526004018080602001828103825260238152602001807f4f6e6c7920616c6c6f77656420666f72206578697374696e672070726f6a656381526020017f74732e000000000000000000000000000000000000000000000000000000000081525060400191505060405180910390fd5b6000866006015414151561221d576040517f08c379a00000000000000000000000000000000000000000000000000000000081526004018080602001828103825260218152602001807f4f6e6c7920616c6c6f77656420666f72206163746976652070726f6a6563747381526020017f2e0000000000000000000000000000000000000000000000000000000000000081525060400191505060405180910390fd5b600160009054906101000a900473ffffffffffffffffffffffffffffffffffffffff1673ffffffffffffffffffffffffffffffffffffffff16635359cf976040518163ffffffff167c0100000000000000000000000000000000000000000000000000000000028152600401602060405180830381600087803b1580156122a357600080fd5b505af11580156122b7573d6000803e3d6000fd5b505050506040513d60208110156122cd57600080fd5b810190808051906020019092919050505094508473ffffffffffffffffffffffffffffffffffffffff163373ffffffffffffffffffffffffffffffffffffffff161415156123dc578493508373ffffffffffffffffffffffffffffffffffffffff16636d48931488336040518363ffffffff167c01000000000000000000000000000000000000000000000000000000000281526004018083600019166000191681526020018273ffffffffffffffffffffffffffffffffffffffff1673ffffffffffffffffffffffffffffffffffffffff16815260200192505050600060405180830381600087803b1580156123c357600080fd5b505af11580156123d7573d6000803e3d6000fd5b505050505b42866006018190555086600019167f08c67a54b70772e59b41b8b9828d23c13759d0763d9f78e5f79b7033afa2938233426002604051808473ffffffffffffffffffffffffffffffffffffffff1673ffffffffffffffffffffffffffffffffffffffff16815260200183815260200182600281111561245757fe5b60ff168152602001935050505060405180910390a250505050505050565b6060600560008373ffffffffffffffffffffffffffffffffffffffff1673ffffffffffffffffffffffffffffffffffffffff16815260200190815260200160002080548060200260200160405190810160405280929190818152602001828054801561250457602002820191906000526020600020905b815460001916815260200190600101908083116124ec575b50505050509050919050565b600060036000836000191660001916815260200190815260200160002060030160009054906101000a900473ffffffffffffffffffffffffffffffffffffffff169050919050565b6000600360008360001916600019168152602001908152602001600020600501549050919050565b600060036000836000191660001916815260200190815260200160002060010160009054906101000a900473ffffffffffffffffffffffffffffffffffffffff169050919050565b6000806125d68360016147cc565b91509150915091565b60006125ea8261489f565b90507fedddb701ca9f435a91802cfe8b875299b3020e68822671089156c52eb4fff8ed81604051808273ffffffffffffffffffffffffffffffffffffffff1673ffffffffffffffffffffffffffffffffffffffff16815260200191505060405180910390a15050565b600060036000836000191660001916815260200190815260200160002060040160009054906101000a900473ffffffffffffffffffffffffffffffffffffffff169050919050565b6003602052806000526040600020600091509050806000018054600181600116156101000203166002900480601f0160208091040260200160405190810160405280929190818152602001828054600181600116156101000203166002900480156127475780601f1061271c57610100808354040283529160200191612747565b820191906000526020600020905b81548152906001019060200180831161272a57829003601f168201915b5050505050908060010160009054906101000a900473ffffffffffffffffffffffffffffffffffffffff16908060020160009054906101000a900473ffffffffffffffffffffffffffffffffffffffff16908060030160009054906101000a900473ffffffffffffffffffffffffffffffffffffffff16908060040160009054906101000a900473ffffffffffffffffffffffffffffffffffffffff16908060050154908060060154908060070160009054906101000a900460ff16908060070160019054906101000a900460ff16908060070160029054906101000a900460ff16908060070160039054906101000a900460ff16908060070160049054906101000a900460ff16908060070160059054906101000a900460ff1690508d565b60076020528060005260406000206000915054906101000a900460ff1681565b60066020528060005260406000206000915090505481565b6000806128ad8360006147cc565b91509150915091565b600080836128c26151ba565b6003600083600019166000191681526020019081526020016000206101a06040519081016040529081600082018054600181600116156101000203166002900480601f0160208091040260200160405190810160405280929190818152602001828054600181600116156101000203166002900480156129835780601f1061295857610100808354040283529160200191612983565b820191906000526020600020905b81548152906001019060200180831161296657829003601f168201915b505050505081526020016001820160009054906101000a900473ffffffffffffffffffffffffffffffffffffffff1673ffffffffffffffffffffffffffffffffffffffff1673ffffffffffffffffffffffffffffffffffffffff1681526020016002820160009054906101000a900473ffffffffffffffffffffffffffffffffffffffff1673ffffffffffffffffffffffffffffffffffffffff1673ffffffffffffffffffffffffffffffffffffffff1681526020016003820160009054906101000a900473ffffffffffffffffffffffffffffffffffffffff1673ffffffffffffffffffffffffffffffffffffffff1673ffffffffffffffffffffffffffffffffffffffff1681526020016004820160009054906101000a900473ffffffffffffffffffffffffffffffffffffffff1673ffffffffffffffffffffffffffffffffffffffff1673ffffffffffffffffffffffffffffffffffffffff16815260200160058201548152602001600682015481526020016007820160009054906101000a900460ff1660ff1660ff1681526020016007820160019054906101000a900460ff1660ff1660ff1681526020016007820160029054906101000a900460ff1660ff1660ff1681526020016007820160039054906101000a900460ff1660ff1660ff1681526020016007820160049054906101000a900460ff1660ff1660ff1681526020016007820160059054906101000a900460ff16151515158152505090503373ffffffffffffffffffffffffffffffffffffffff16816020015173ffffffffffffffffffffffffffffffffffffffff161480612c1357503373ffffffffffffffffffffffffffffffffffffffff16816040015173ffffffffffffffffffffffffffffffffffffffff16145b1515612cad576040517f08c379a00000000000000000000000000000000000000000000000000000000081526004018080602001828103825260378152602001807f4f6e6c792070726f6a656374206f776e6572206f72206d616b65722063616e2081526020017f706572666f726d2074686973206f7065726174696f6e2e00000000000000000081525060400191505060405180910390fd5b60018560ff1610158015612cc55750600a8560ff1611155b1515612d5f576040517f08c379a000000000000000000000000000000000000000000000000000000000815260040180806020018281038252602b8152602001807f50726f6a65637420726174696e672073686f756c6420626520696e207468652081526020017f72616e676520312d31302e00000000000000000000000000000000000000000081525060400191505060405180910390fd5b60036000876000191660001916815260200190815260200160002093506000846006015414151515612e1f576040517f08c379a00000000000000000000000000000000000000000000000000000000081526004018080602001828103825260218152602001807f4f6e6c7920616c6c6f77656420666f72206163746976652070726f6a6563747381526020017f2e0000000000000000000000000000000000000000000000000000000000000081525060400191505060405180910390fd5b8360010160009054906101000a900473ffffffffffffffffffffffffffffffffffffffff1673ffffffffffffffffffffffffffffffffffffffff163373ffffffffffffffffffffffffffffffffffffffff161415612f725760008460070160039054906101000a900460ff1660ff16141515612f29576040517f08c379a00000000000000000000000000000000000000000000000000000000081526004018080602001828103825260258152602001807f4353415420697320616c6c6f77656420746f2070726f76696465206f6e6c792081526020017f6f6e63652e00000000000000000000000000000000000000000000000000000081525060400191505060405180910390fd5b848460070160036101000a81548160ff021916908360ff1602179055508360020160009054906101000a900473ffffffffffffffffffffffffffffffffffffffff169250613069565b60008460070160049054906101000a900460ff1660ff16141515613024576040517f08c379a00000000000000000000000000000000000000000000000000000000081526004018080602001828103825260258152602001807f4d53415420697320616c6c6f77656420746f2070726f76696465206f6e6c792081526020017f6f6e63652e00000000000000000000000000000000000000000000000000000081525060400191505060405180910390fd5b848460070160046101000a81548160ff021916908360ff1602179055508360010160009054906101000a900473ffffffffffffffffffffffffffffffffffffffff1692505b8273ffffffffffffffffffffffffffffffffffffffff163373ffffffffffffffffffffffffffffffffffffffff1687600019167f3d3dab442c501e3ad2cb35ea97ebb5513cccec8ddb02a0f31bec75af12d778958842604051808360ff1660ff1681526020018281526020019250505060405180910390a4505050505050565b6000806000808460006130fa6151ba565b600160009054906101000a900473ffffffffffffffffffffffffffffffffffffffff1691508173ffffffffffffffffffffffffffffffffffffffff16635359cf976040518163ffffffff167c0100000000000000000000000000000000000000000000000000000000028152600401602060405180830381600087803b15801561318357600080fd5b505af1158015613197573d6000803e3d6000fd5b505050506040513d60208110156131ad57600080fd5b810190808051906020019092919050505073ffffffffffffffffffffffffffffffffffffffff163373ffffffffffffffffffffffffffffffffffffffff16141515613286576040517f08c379a00000000000000000000000000000000000000000000000000000000081526004018080602001828103825260348152602001807f4f6e6c79206d696c6573746f6e657320636f6e74726163742063616e2070657281526020017f666f726d2074686973206f7065726174696f6e2e00000000000000000000000081525060400191505060405180910390fd5b6003600084600019166000191681526020019081526020016000206101a06040519081016040529081600082018054600181600116156101000203166002900480601f0160208091040260200160405190810160405280929190818152602001828054600181600116156101000203166002900480156133475780601f1061331c57610100808354040283529160200191613347565b820191906000526020600020905b81548152906001019060200180831161332a57829003601f168201915b505050505081526020016001820160009054906101000a900473ffffffffffffffffffffffffffffffffffffffff1673ffffffffffffffffffffffffffffffffffffffff1673ffffffffffffffffffffffffffffffffffffffff1681526020016002820160009054906101000a900473ffffffffffffffffffffffffffffffffffffffff1673ffffffffffffffffffffffffffffffffffffffff1673ffffffffffffffffffffffffffffffffffffffff1681526020016003820160009054906101000a900473ffffffffffffffffffffffffffffffffffffffff1673ffffffffffffffffffffffffffffffffffffffff1673ffffffffffffffffffffffffffffffffffffffff1681526020016004820160009054906101000a900473ffffffffffffffffffffffffffffffffffffffff1673ffffffffffffffffffffffffffffffffffffffff1673ffffffffffffffffffffffffffffffffffffffff16815260200160058201548152602001600682015481526020016007820160009054906101000a900460ff1660ff1660ff1681526020016007820160019054906101000a900460ff1660ff1660ff1681526020016007820160029054906101000a900460ff1660ff1660ff1681526020016007820160039054906101000a900460ff1660ff1660ff1681526020016007820160049054906101000a900460ff1660ff1660ff1681526020016007820160059054906101000a900460ff16151515158152505090506003600089600019166000191681526020019081526020016000209650600073ffffffffffffffffffffffffffffffffffffffff168760010160009054906101000a900473ffffffffffffffffffffffffffffffffffffffff1673ffffffffffffffffffffffffffffffffffffffff1614151515613676576040517f08c379a00000000000000000000000000000000000000000000000000000000081526004018080602001828103825260238152602001807f4f6e6c7920616c6c6f77656420666f72206578697374696e672070726f6a656381526020017f74732e000000000000000000000000000000000000000000000000000000000081525060400191505060405180910390fd5b60008760060154141515613718576040517f08c379a00000000000000000000000000000000000000000000000000000000081526004018080602001828103825260218152602001807f4f6e6c7920616c6c6f77656420666f72206163746976652070726f6a6563747381526020017f2e0000000000000000000000000000000000000000000000000000000000000081525060400191505060405180910390fd5b42600360008a6000191660001916815260200190815260200160002060060181905550600160009054906101000a900473ffffffffffffffffffffffffffffffffffffffff1673ffffffffffffffffffffffffffffffffffffffff16635359cf976040518163ffffffff167c0100000000000000000000000000000000000000000000000000000000028152600401602060405180830381600087803b1580156137c157600080fd5b505af11580156137d5573d6000803e3d6000fd5b505050506040513d60208110156137eb57600080fd5b810190808051906020019092919050505095508573ffffffffffffffffffffffffffffffffffffffff16639eaa4812896040518263ffffffff167c01000000000000000000000000000000000000000000000000000000000281526004018082600019166000191681526020019150506040805180830381600087803b15801561387457600080fd5b505af1158015613888573d6000803e3d6000fd5b505050506040513d604081101561389e57600080fd5b810190808051906020019092919080519060200190929190505050809550819650505060036000896000191660001916815260200190815260200160002060070160029054906101000a900460ff1660ff168460ff1614151561398f576040517f08c379a00000000000000000000000000000000000000000000000000000000081526004018080602001828103825260378152602001807f546865206c617374206d696c6573746f6e652073686f756c642062652074686581526020017f206c61737420666f7220746861742070726f6a6563742e00000000000000000081525060400191505060405180910390fd5b841515613a2a576040517f08c379a000000000000000000000000000000000000000000000000000000000815260040180806020018281038252602f8152602001807f4f6e6c7920616c6c6f776564207768656e20616c6c206d696c6573746f6e657381526020017f2061726520636f6d706c657465642e000000000000000000000000000000000081525060400191505060405180910390fd5b87600019167f08c67a54b70772e59b41b8b9828d23c13759d0763d9f78e5f79b7033afa2938233426001604051808473ffffffffffffffffffffffffffffffffffffffff1673ffffffffffffffffffffffffffffffffffffffff168152602001838152602001826002811115613a9c57fe5b60ff168152602001935050505060405180910390a25050505050505050565b600080613ac6611b24565b1515613ad157600080fd5b8390508073ffffffffffffffffffffffffffffffffffffffff1663a9059cbb613af8611afb565b856040518363ffffffff167c0100000000000000000000000000000000000000000000000000000000028152600401808373ffffffffffffffffffffffffffffffffffffffff1673ffffffffffffffffffffffffffffffffffffffff16815260200182815260200192505050602060405180830381600087803b158015613b7e57600080fd5b505af1158015613b92573d6000803e3d6000fd5b505050506040513d6020811015613ba857600080fd5b810190808051906020019092919050505091505092915050565b600060036000836000191660001916815260200190815260200160002060070160009054906101000a900460ff169050919050565b600160009054906101000a900473ffffffffffffffffffffffffffffffffffffffff1681565b600060036000836000191660001916815260200190815260200160002060070160019054906101000a900460ff169050919050565b6000808a73ffffffffffffffffffffffffffffffffffffffff163373ffffffffffffffffffffffffffffffffffffffff16141515613d1e576040517f08c379a00000000000000000000000000000000000000000000000000000000081526004018080602001828103825260298152602001807f4f6e6c792074686520636c69656e742063616e206b69636b206f66662074686581526020017f2070726f6a6563742e000000000000000000000000000000000000000000000081525060400191505060405180910390fd5b8873ffffffffffffffffffffffffffffffffffffffff168b73ffffffffffffffffffffffffffffffffffffffff1614151515613de8576040517f08c379a000000000000000000000000000000000000000000000000000000000815260040180806020018281038252602b8152602001807f436c69656e742063616e60742062652061206d616b6572206f6e20686572206f81526020017f776e2070726f6a6563742e00000000000000000000000000000000000000000081525060400191505060405180910390fd5b8873ffffffffffffffffffffffffffffffffffffffff168a73ffffffffffffffffffffffffffffffffffffffff1614158015613e5057508a73ffffffffffffffffffffffffffffffffffffffff168a73ffffffffffffffffffffffffffffffffffffffff1614155b1515613eea576040517f08c379a00000000000000000000000000000000000000000000000000000000081526004018080602001828103825260298152602001807f41726269746572206d757374206e6f74206265206120636c69656e74206e6f7281526020017f2061206d616b65722e000000000000000000000000000000000000000000000081525060400191505060405180910390fd5b613f5a8989898080601f0160208091040260200160405190810160405280939291908181526020018383808284378201915050505050508f8f8080601f0160208091040260200160405190810160405280939291908181526020018383808284378201915050505050508d61467b565b1515613ff4576040517f08c379a00000000000000000000000000000000000000000000000000000000081526004018080602001828103825260368152602001807f4d616b65722073686f756c64207369676e207468652068617368206f6620696d81526020017f6d757461626c652061677265656d656e7420646f632e0000000000000000000081525060400191505060405180910390fd5b60018660ff161015801561400c575060188660ff1611155b15156140a6576040517f08c379a00000000000000000000000000000000000000000000000000000000081526004018080602001828103825260328152602001807f4d696c6573746f6e657320636f756e74206973206e6f7420696e20746865206181526020017f6c6c6f77656420312d32342072616e67652e000000000000000000000000000081525060400191505060405180910390fd5b8c8c6040518083838082843782019150509250505060405180910390209150600073ffffffffffffffffffffffffffffffffffffffff1660036000846000191660001916815260200190815260200160002060010160009054906101000a900473ffffffffffffffffffffffffffffffffffffffff1673ffffffffffffffffffffffffffffffffffffffff161415156141a7576040517f08c379a000000000000000000000000000000000000000000000000000000000815260040180806020018281038252601c8152602001807f50726f6a6563742073686f756c646e2774206578697374207965742e0000000081525060200191505060405180910390fd5b6141b18a83614b1b565b6141ba3361489f565b90506101a0604051908101604052808e8e8080601f01602080910402602001604051908101604052809392919081815260200183838082843782019150505050505081526020013373ffffffffffffffffffffffffffffffffffffffff1681526020018a73ffffffffffffffffffffffffffffffffffffffff1681526020018b73ffffffffffffffffffffffffffffffffffffffff1681526020018273ffffffffffffffffffffffffffffffffffffffff168152602001428152602001600081526020018660ff1681526020018560ff1681526020018760ff168152602001600060ff168152602001600060ff16815260200184151581525060036000846000191660001916815260200190815260200160002060008201518160000190805190602001906142ea92919061528c565b5060208201518160010160006101000a81548173ffffffffffffffffffffffffffffffffffffffff021916908373ffffffffffffffffffffffffffffffffffffffff16021790555060408201518160020160006101000a81548173ffffffffffffffffffffffffffffffffffffffff021916908373ffffffffffffffffffffffffffffffffffffffff16021790555060608201518160030160006101000a81548173ffffffffffffffffffffffffffffffffffffffff021916908373ffffffffffffffffffffffffffffffffffffffff16021790555060808201518160040160006101000a81548173ffffffffffffffffffffffffffffffffffffffff021916908373ffffffffffffffffffffffffffffffffffffffff16021790555060a0820151816005015560c0820151816006015560e08201518160070160006101000a81548160ff021916908360ff1602179055506101008201518160070160016101000a81548160ff021916908360ff1602179055506101208201518160070160026101000a81548160ff021916908360ff1602179055506101408201518160070160036101000a81548160ff021916908360ff1602179055506101608201518160070160046101000a81548160ff021916908360ff1602179055506101808201518160070160056101000a81548160ff021916908315150217905550905050600460008a73ffffffffffffffffffffffffffffffffffffffff1673ffffffffffffffffffffffffffffffffffffffff168152602001908152602001600020829080600181540180825580915050906001820390600052602060002001600090919290919091509060001916905550600560008c73ffffffffffffffffffffffffffffffffffffffff1673ffffffffffffffffffffffffffffffffffffffff16815260200190815260200160002082908060018154018082558091505090600182039060005260206000200160009091929091909150906000191690555081600019167f08c67a54b70772e59b41b8b9828d23c13759d0763d9f78e5f79b7033afa2938233426000604051808473ffffffffffffffffffffffffffffffffffffffff1673ffffffffffffffffffffffffffffffffffffffff16815260200183815260200182600281111561463857fe5b60ff168152602001935050505060405180910390a250505050505050505050505050565b614664611b24565b151561466f57600080fd5b61467881614c2e565b50565b60008060006002546146b660408051908101604052808881526020018773ffffffffffffffffffffffffffffffffffffffff16815250614d28565b60405160200180807f190100000000000000000000000000000000000000000000000000000000000081525060020183600019166000191681526020018260001916600019168152602001925050506040516020818303038152906040526040518082805190602001908083835b6020831015156147495780518252602082019150602081019050602083039250614724565b6001836020036101000a0380198251168184511680821785525050505050509050019150506040518091039020915061478f868360001916614ec490919063ffffffff16565b90508673ffffffffffffffffffffffffffffffffffffffff168173ffffffffffffffffffffffffffffffffffffffff161492505050949350505050565b600080606060008060008060006147e38a8a614fbc565b95506000945060009350600092505b855183101561488c57858381518110151561480957fe5b90602001906020020151915060006003600084600019166000191681526020019081526020016000206006015414156148415761487f565b61484b828a615111565b905060008160ff16141561485e5761487f565b838060010194505061487c8160ff168661519990919063ffffffff16565b94505b82806001019350506147f2565b8484975097505050505050509250929050565b6000806000600160009054906101000a900473ffffffffffffffffffffffffffffffffffffffff1691508173ffffffffffffffffffffffffffffffffffffffff16639e0a6bc96040518163ffffffff167c0100000000000000000000000000000000000000000000000000000000028152600401602060405180830381600087803b15801561492d57600080fd5b505af1158015614941573d6000803e3d6000fd5b505050506040513d602081101561495757600080fd5b810190808051906020019092919050505090508073ffffffffffffffffffffffffffffffffffffffff1663834cc6fc858473ffffffffffffffffffffffffffffffffffffffff16635359cf976040518163ffffffff167c0100000000000000000000000000000000000000000000000000000000028152600401602060405180830381600087803b1580156149eb57600080fd5b505af11580156149ff573d6000803e3d6000fd5b505050506040513d6020811015614a1557600080fd5b81019080805190602001909291905050506040518363ffffffff167c0100000000000000000000000000000000000000000000000000000000028152600401808373ffffffffffffffffffffffffffffffffffffffff1673ffffffffffffffffffffffffffffffffffffffff1681526020018273ffffffffffffffffffffffffffffffffffffffff1673ffffffffffffffffffffffffffffffffffffffff16815260200192505050602060405180830381600087803b158015614ad757600080fd5b505af1158015614aeb573d6000803e3d6000fd5b505050506040513d6020811015614b0157600080fd5b810190808051906020019092919050505092505050919050565b60008060008492508273ffffffffffffffffffffffffffffffffffffffff16636117b80c6040518163ffffffff167c01000000000000000000000000000000000000000000000000000000000281526004016040805180830381600087803b158015614b8657600080fd5b505af1158015614b9a573d6000803e3d6000fd5b505050506040513d6040811015614bb057600080fd5b810190808051906020019092919080519060200190929190505050809250819350505081600660008660001916600019168152602001908152602001600020819055508060076000866000191660001916815260200190815260200160002060006101000a81548160ff021916908360ff1602179055505050505050565b600073ffffffffffffffffffffffffffffffffffffffff168173ffffffffffffffffffffffffffffffffffffffff1614151515614c6a57600080fd5b8073ffffffffffffffffffffffffffffffffffffffff166000809054906101000a900473ffffffffffffffffffffffffffffffffffffffff1673ffffffffffffffffffffffffffffffffffffffff167f8be0079c531659141344cd1fd0a4f28419497f9722a3daafe3b4186f6b6457e060405160405180910390a3806000806101000a81548173ffffffffffffffffffffffffffffffffffffffff021916908373ffffffffffffffffffffffffffffffffffffffff16021790555050565b600060405180807f50726f706f73616c28737472696e672061677265656d656e7449642c6164647281526020017f6573732061726269746572290000000000000000000000000000000000000000815250602c019050604051809103902082600001516040518082805190602001908083835b602083101515614dc05780518252602082019150602081019050602083039250614d9b565b6001836020036101000a0380198251168184511680821785525050505050509050019150506040518091039020836020015160405160200180846000191660001916815260200183600019166000191681526020018273ffffffffffffffffffffffffffffffffffffffff1673ffffffffffffffffffffffffffffffffffffffff16815260200193505050506040516020818303038152906040526040518082805190602001908083835b602083101515614e905780518252602082019150602081019050602083039250614e6b565b6001836020036101000a03801982511681845116808217855250505050505090500191505060405180910390209050919050565b60008060008060418551141515614ede5760009350614fb3565b6020850151925060408501519150606085015160001a9050601b8160ff161015614f0957601b810190505b601b8160ff1614158015614f215750601c8160ff1614155b15614f2f5760009350614fb3565b600186828585604051600081526020016040526040518085600019166000191681526020018460ff1660ff1681526020018360001916600019168152602001826000191660001916815260200194505050505060206040516020810390808403906000865af1158015614fa6573d6000803e3d6000fd5b5050506020604051035193505b50505092915050565b606060006001811115614fcb57fe5b826001811115614fd757fe5b141561507657600460008473ffffffffffffffffffffffffffffffffffffffff1673ffffffffffffffffffffffffffffffffffffffff16815260200190815260200160002080548060200260200160405190810160405280929190818152602001828054801561506a57602002820191906000526020600020905b81546000191681526020019060010190808311615052575b5050505050905061510b565b600560008473ffffffffffffffffffffffffffffffffffffffff1673ffffffffffffffffffffffffffffffffffffffff16815260200190815260200160002080548060200260200160405190810160405280929190818152602001828054801561510357602002820191906000526020600020905b815460001916815260200190600101908083116150eb575b505050505090505b92915050565b600080600181111561511f57fe5b82600181111561512b57fe5b14156151645760036000846000191660001916815260200190815260200160002060070160039054906101000a900460ff169050615193565b60036000846000191660001916815260200190815260200160002060070160049054906101000a900460ff1690505b92915050565b60008082840190508381101515156151b057600080fd5b8091505092915050565b6101a06040519081016040528060608152602001600073ffffffffffffffffffffffffffffffffffffffff168152602001600073ffffffffffffffffffffffffffffffffffffffff168152602001600073ffffffffffffffffffffffffffffffffffffffff168152602001600073ffffffffffffffffffffffffffffffffffffffff1681526020016000815260200160008152602001600060ff168152602001600060ff168152602001600060ff168152602001600060ff168152602001600060ff1681526020016000151581525090565b828054600181600116156101000203166002900490600052602060002090601f016020900481019282601f106152cd57805160ff19168380011785556152fb565b828001600101855582156152fb579182015b828111156152fa5782518255916020019190600101906152df565b5b509050615308919061530c565b5090565b61532e91905b8082111561532a576000816000905550600101615312565b5090565b905600a165627a7a72305820c3434640f8c2f9ad3c7d8a49c6a4877588f74846c525a4400e894b158641f3390029",
  "source": "pragma solidity 0.4.25;\n\nimport \"../DecoProjects.sol\";\n\n\ncontract DecoProjectsMock is DecoProjects {\n\n    event MockCloningTestEvent(address newCloneAddress);\n\n    constructor(uint256 _chainId) DecoProjects(_chainId) public { }\n\n    function testDeployEscrowClone(address _newOwner) public {\n        address cloneAddress = deployEscrowClone(_newOwner);\n        emit MockCloningTestEvent(cloneAddress);\n    }\n\n    function testIsMakersSignatureValid(\n        address _maker,\n        bytes _signature,\n        string _agreementId,\n        address _arbiter\n    )\n        public\n        view\n        returns(bool)\n    {\n        return isMakersSignatureValid(_maker, _signature, _agreementId, _arbiter);\n    }\n}\n",
  "sourcePath": "/Users/chris/Documents/WorkStuff/Deconet/Blockchain/DeconetProjectsMarketContracts/contracts/mocks/DecoProjectsMock.sol",
  "compiler": {
    "name": "solc",
    "version": "0.4.25+commit.59dbf8f1.Emscripten.clang"
  },
  "schemaVersion": "3.0.0-beta.2",
  "updatedAt": "2019-02-13T02:21:50.527Z",
  "devdoc": {
    "methods": {
      "checkIfProjectExists(bytes32)": {
        "details": "Checks if a project with the given hash exists.",
        "params": {
          "_agreementHash": "A `bytes32` hash of the project`s agreement id."
        },
        "return": "A `bool` stating for the project`s existence."
      },
      "clientsAverageRating(address)": {
        "details": "Calculates sum and number of MSAT scores of ended & rated projects for the given client`s address.",
        "params": {
          "_client": "An `address` of the client to look up."
        },
        "return": "An `uint` sum of all scores and an `uint` number of projects counted in sum."
      },
      "completeProject(bytes32)": {
        "details": "Complete the project.",
        "params": {
          "_agreementHash": "A `bytes32` hash of the project`s agreement id."
        }
      },
      "getClientProjects(address)": {
        "details": "Returns hashes of all client`s projects",
        "params": {
          "_client": "An `address` to look up."
        },
        "return": "`bytes32[]` of projects hashes."
      },
      "getMakerProjects(address)": {
        "details": "Returns hashes of all maker`s projects",
        "params": {
          "_maker": "An `address` to look up."
        },
        "return": "`bytes32[]` of projects hashes."
      },
      "getProjectArbiter(bytes32)": {
        "details": "Query for getting the address of an arbiter for the given project.",
        "params": {
          "_agreementHash": "A `bytes32` hash of the project`s agreement id."
        },
        "return": "An `address` of an arbiter."
      },
      "getProjectArbitrationFees(bytes32)": {
        "details": "Returns configured for the given project arbiter fees.",
        "params": {
          "_agreementHash": "A `bytes32` hash of the project`s agreement id."
        },
        "return": "An `uint` fixed fee and an `uint8` share fee of the project's arbiter."
      },
      "getProjectClient(bytes32)": {
        "details": "Query for getting the address of a client for the given project.",
        "params": {
          "_agreementHash": "A `bytes32` hash of the project`s agreement id."
        },
        "return": "An `address` of a client."
      },
      "getProjectEndDate(bytes32)": {
        "details": "Query for getting end date of the given project.",
        "params": {
          "_agreementHash": "A `bytes32` hash of the project`s agreement id."
        },
        "return": "An `uint` end time of the project"
      },
      "getProjectEscrowAddress(bytes32)": {
        "details": "Query for getting the address of Escrow contract clone deployed for the given project.",
        "params": {
          "_agreementHash": "A `bytes32` hash of the project`s agreement id."
        },
        "return": "An `address` of a clone."
      },
      "getProjectFeedbackWindow(bytes32)": {
        "details": "Query for getting the feedback window for a client for the given project.",
        "params": {
          "_agreementHash": "A `bytes32` hash of the project`s agreement id."
        },
        "return": "An `uint8` feedback window in days."
      },
      "getProjectMaker(bytes32)": {
        "details": "Query for getting the address of a maker for the given project.",
        "params": {
          "_agreementHash": "A `bytes32` hash of the project`s agreement id."
        },
        "return": "An `address` of a maker."
      },
      "getProjectMilestoneStartWindow(bytes32)": {
        "details": "Query for getting the milestone start window for a client for the given project.",
        "params": {
          "_agreementHash": "A `bytes32` hash of the project`s agreement id."
        },
        "return": "An `uint8` milestone start window in days."
      },
      "getProjectMilestonesCount(bytes32)": {
        "details": "Returns preconfigured count of milestones for a project with the given hash.",
        "params": {
          "_agreementHash": "A `bytes32` hash of the project`s agreement id."
        },
        "return": "An `uint8` count of milestones set upon the project creation."
      },
      "getProjectStartDate(bytes32)": {
        "details": "Query for getting the start date for the given project.",
        "params": {
          "_agreementHash": "A `bytes32` hash of the project`s agreement id."
        },
        "return": "An `uint` start date."
      },
      "isOwner()": {
        "return": "true if `msg.sender` is the owner of the contract."
      },
      "makersAverageRating(address)": {
        "details": "Calculates sum and number of CSAT scores of ended & rated projects for the given maker`s address.",
        "params": {
          "_maker": "An `address` of the maker to look up."
        },
        "return": "An `uint` sum of all scores and an `uint` number of projects counted in sum."
      },
      "owner()": {
        "return": "the address of the owner."
      },
      "rateProjectSecondParty(bytes32,uint8)": {
        "details": "Rate the second party on the project.",
        "params": {
          "_agreementHash": "A `bytes32` hash of the project`s agreement id.",
          "_rating": "An `uint8` satisfaction score of either client or maker. Min value is 1, max is 10."
        }
      },
      "renounceOwnership()": {
        "details": "Allows the current owner to relinquish control of the contract."
      },
      "setRelayContractAddress(address)": {
        "details": "Set the new address of the `DecoRelay` contract.",
        "params": {
          "_newAddress": "An address of the new contract."
        }
      },
      "startProject(string,address,address,address,bytes,uint8,uint8,uint8,bool)": {
        "details": "Creates a new milestone-based project with pre-selected maker and owner. All parameters are required.",
        "params": {
          "_agreementEncrypted": "A `bool` flag indicating whether or not the agreement is encrypted.",
          "_agreementId": "A `string` unique id of the agreement document for that project.",
          "_arbiter": "An `address` of the referee to settle all escalated disputes between parties.",
          "_client": "An `address` of the project owner.",
          "_feedbackWindow": "An `uint8` time in days project`s owner has to provide feedback for the last milestone.                       If that time is exceeded then maker can terminate the project and get paid for awaited                       milestone.",
          "_maker": "An `address` of the project`s maker.",
          "_makersSignature": "A `bytes` digital signature of the maker to proof the agreement acceptance.",
          "_milestoneStartWindow": "An `uint8` count of days project`s owner has to start the next milestone.       If this time is exceeded then the maker can terminate the project.",
          "_milestonesCount": "An `uint8` count of planned milestones for the project."
        }
      },
      "terminateProject(bytes32)": {
        "details": "Terminate the project.",
        "params": {
          "_agreementHash": "A `bytes32` hash of the project`s agreement id."
        }
      },
      "transferAnyERC20Token(address,uint256)": {
        "details": "Allows to trasnfer any ERC20 tokens from the contract balance to owner's address.",
        "params": {
          "_tokenAddress": "An `address` of an ERC20 token.",
          "_tokens": "An `uint` tokens amount."
        },
        "return": "A `bool` operation result state."
      },
      "transferOwnership(address)": {
        "details": "Allows the current owner to transfer control of the contract to a newOwner.",
        "params": {
          "newOwner": "The address to transfer ownership to."
        }
      }
    }
  },
  "userdoc": {
    "methods": {
      "renounceOwnership()": {
        "notice": "Renouncing to ownership will leave the contract without an owner. It will not be possible to call the functions with the `onlyOwner` modifier anymore."
      }
    }
  }
}