{
  "contractName": "DecoMilestones",
  "abi": [
    {
      "constant": true,
      "inputs": [],
      "name": "ETH_TOKEN_ADDRESS",
      "outputs": [
        {
          "name": "",
          "type": "address"
        }
      ],
      "payable": false,
      "stateMutability": "view",
      "type": "function"
    },
    {
      "constant": false,
      "inputs": [
        {
          "name": "_newAddress",
          "type": "address"
        }
      ],
      "name": "setRelayContractAddress",
      "outputs": [],
      "payable": false,
      "stateMutability": "nonpayable",
      "type": "function"
    },
    {
      "constant": false,
      "inputs": [],
      "name": "renounceOwnership",
      "outputs": [],
      "payable": false,
      "stateMutability": "nonpayable",
      "type": "function"
    },
    {
      "constant": true,
      "inputs": [],
      "name": "owner",
      "outputs": [
        {
          "name": "",
          "type": "address"
        }
      ],
      "payable": false,
      "stateMutability": "view",
      "type": "function"
    },
    {
      "constant": true,
      "inputs": [],
      "name": "isOwner",
      "outputs": [
        {
          "name": "",
          "type": "bool"
        }
      ],
      "payable": false,
      "stateMutability": "view",
      "type": "function"
    },
    {
      "constant": true,
      "inputs": [
        {
          "name": "",
          "type": "bytes32"
        },
        {
          "name": "",
          "type": "uint256"
        }
      ],
      "name": "projectMilestones",
      "outputs": [
        {
          "name": "milestoneNumber",
          "type": "uint8"
        },
        {
          "name": "duration",
          "type": "uint32"
        },
        {
          "name": "adjustedDuration",
          "type": "uint32"
        },
        {
          "name": "depositAmount",
          "type": "uint256"
        },
        {
          "name": "tokenAddress",
          "type": "address"
        },
        {
          "name": "startedTime",
          "type": "uint256"
        },
        {
          "name": "deliveredTime",
          "type": "uint256"
        },
        {
          "name": "acceptedTime",
          "type": "uint256"
        },
        {
          "name": "isOnHold",
          "type": "bool"
        }
      ],
      "payable": false,
      "stateMutability": "view",
      "type": "function"
    },
    {
      "constant": false,
      "inputs": [
        {
          "name": "_tokenAddress",
          "type": "address"
        },
        {
          "name": "_tokens",
          "type": "uint256"
        }
      ],
      "name": "transferAnyERC20Token",
      "outputs": [
        {
          "name": "success",
          "type": "bool"
        }
      ],
      "payable": false,
      "stateMutability": "nonpayable",
      "type": "function"
    },
    {
      "constant": true,
      "inputs": [],
      "name": "relayContractAddress",
      "outputs": [
        {
          "name": "",
          "type": "address"
        }
      ],
      "payable": false,
      "stateMutability": "view",
      "type": "function"
    },
    {
      "constant": false,
      "inputs": [
        {
          "name": "newOwner",
          "type": "address"
        }
      ],
      "name": "transferOwnership",
      "outputs": [],
      "payable": false,
      "stateMutability": "nonpayable",
      "type": "function"
    },
    {
      "payable": true,
      "stateMutability": "payable",
      "type": "fallback"
    },
    {
      "anonymous": false,
      "inputs": [
        {
          "indexed": true,
          "name": "agreementHash",
          "type": "bytes32"
        },
        {
          "indexed": true,
          "name": "sender",
          "type": "address"
        },
        {
          "indexed": false,
          "name": "timestamp",
          "type": "uint256"
        },
        {
          "indexed": false,
          "name": "milestoneNumber",
          "type": "uint8"
        },
        {
          "indexed": true,
          "name": "state",
          "type": "uint8"
        }
      ],
      "name": "LogMilestoneStateUpdated",
      "type": "event"
    },
    {
      "anonymous": false,
      "inputs": [
        {
          "indexed": true,
          "name": "agreementHash",
          "type": "bytes32"
        },
        {
          "indexed": true,
          "name": "sender",
          "type": "address"
        },
        {
          "indexed": false,
          "name": "amountAdded",
          "type": "uint32"
        },
        {
          "indexed": false,
          "name": "milestoneNumber",
          "type": "uint8"
        }
      ],
      "name": "LogMilestoneDurationAdjusted",
      "type": "event"
    },
    {
      "anonymous": false,
      "inputs": [
        {
          "indexed": true,
          "name": "previousOwner",
          "type": "address"
        },
        {
          "indexed": true,
          "name": "newOwner",
          "type": "address"
        }
      ],
      "name": "OwnershipTransferred",
      "type": "event"
    },
    {
      "constant": false,
      "inputs": [
        {
          "name": "_agreementHash",
          "type": "bytes32"
        },
        {
          "name": "_depositAmount",
          "type": "uint256"
        },
        {
          "name": "_tokenAddress",
          "type": "address"
        },
        {
          "name": "_duration",
          "type": "uint32"
        }
      ],
      "name": "startMilestone",
      "outputs": [],
      "payable": false,
      "stateMutability": "nonpayable",
      "type": "function"
    },
    {
      "constant": false,
      "inputs": [
        {
          "name": "_agreementHash",
          "type": "bytes32"
        }
      ],
      "name": "deliverLastMilestone",
      "outputs": [],
      "payable": false,
      "stateMutability": "nonpayable",
      "type": "function"
    },
    {
      "constant": false,
      "inputs": [
        {
          "name": "_agreementHash",
          "type": "bytes32"
        }
      ],
      "name": "acceptLastMilestone",
      "outputs": [],
      "payable": false,
      "stateMutability": "nonpayable",
      "type": "function"
    },
    {
      "constant": false,
      "inputs": [
        {
          "name": "_agreementHash",
          "type": "bytes32"
        }
      ],
      "name": "rejectLastDeliverable",
      "outputs": [],
      "payable": false,
      "stateMutability": "nonpayable",
      "type": "function"
    },
    {
      "constant": false,
      "inputs": [
        {
          "name": "_idHash",
          "type": "bytes32"
        }
      ],
      "name": "disputeStartedFreeze",
      "outputs": [],
      "payable": false,
      "stateMutability": "nonpayable",
      "type": "function"
    },
    {
      "constant": false,
      "inputs": [
        {
          "name": "_idHash",
          "type": "bytes32"
        },
        {
          "name": "_respondent",
          "type": "address"
        },
        {
          "name": "_respondentShare",
          "type": "uint8"
        },
        {
          "name": "_initiator",
          "type": "address"
        },
        {
          "name": "_initiatorShare",
          "type": "uint8"
        },
        {
          "name": "_isInternal",
          "type": "bool"
        },
        {
          "name": "_arbiterWithdrawalAddress",
          "type": "address"
        }
      ],
      "name": "disputeSettledTerminate",
      "outputs": [],
      "payable": false,
      "stateMutability": "nonpayable",
      "type": "function"
    },
    {
      "constant": true,
      "inputs": [
        {
          "name": "_idHash",
          "type": "bytes32"
        },
        {
          "name": "_addressToCheck",
          "type": "address"
        }
      ],
      "name": "checkEligibility",
      "outputs": [
        {
          "name": "",
          "type": "bool"
        }
      ],
      "payable": false,
      "stateMutability": "view",
      "type": "function"
    },
    {
      "constant": true,
      "inputs": [
        {
          "name": "_idHash",
          "type": "bytes32"
        }
      ],
      "name": "canStartDispute",
      "outputs": [
        {
          "name": "",
          "type": "bool"
        }
      ],
      "payable": false,
      "stateMutability": "view",
      "type": "function"
    },
    {
      "constant": false,
      "inputs": [
        {
          "name": "_agreementHash",
          "type": "bytes32"
        },
        {
          "name": "_initiator",
          "type": "address"
        }
      ],
      "name": "terminateLastMilestone",
      "outputs": [],
      "payable": false,
      "stateMutability": "nonpayable",
      "type": "function"
    },
    {
      "constant": true,
      "inputs": [
        {
          "name": "_agreementHash",
          "type": "bytes32"
        }
      ],
      "name": "isLastMilestoneAccepted",
      "outputs": [
        {
          "name": "isAccepted",
          "type": "bool"
        },
        {
          "name": "milestoneNumber",
          "type": "uint8"
        }
      ],
      "payable": false,
      "stateMutability": "view",
      "type": "function"
    },
    {
      "constant": true,
      "inputs": [
        {
          "name": "_agreementHash",
          "type": "bytes32"
        }
      ],
      "name": "canClientTerminate",
      "outputs": [
        {
          "name": "",
          "type": "bool"
        }
      ],
      "payable": false,
      "stateMutability": "view",
      "type": "function"
    },
    {
      "constant": true,
      "inputs": [
        {
          "name": "_agreementHash",
          "type": "bytes32"
        }
      ],
      "name": "canMakerTerminate",
      "outputs": [
        {
          "name": "",
          "type": "bool"
        }
      ],
      "payable": false,
      "stateMutability": "view",
      "type": "function"
    }
  ],
  "bytecode": "0x6080604052336000806101000a81548173ffffffffffffffffffffffffffffffffffffffff021916908373ffffffffffffffffffffffffffffffffffffffff1602179055506000809054906101000a900473ffffffffffffffffffffffffffffffffffffffff1673ffffffffffffffffffffffffffffffffffffffff16600073ffffffffffffffffffffffffffffffffffffffff167f8be0079c531659141344cd1fd0a4f28419497f9722a3daafe3b4186f6b6457e060405160405180910390a3615abb806100cf6000396000f30060806040526004361061011d576000357c0100000000000000000000000000000000000000000000000000000000900463ffffffff1680630c46fc921461019757806318469dfe146101c85780631878d1f1146102115780632d2bcd37146102685780636d489314146102ab578063715018a6146102fc5780638da5cb5b146103135780638e22e6431461036a5780638f32d59b146103d35780639eaa481214610402578063a704f00114610458578063adc23f031461052d578063b4cbff2314610576578063ccfcbdbe146105a7578063d727d64b146105f0578063dc39d06d146106a7578063dfa93d641461070c578063e10bcc2a14610763578063e32aa56a146107ce578063f2fde38b146107ff578063f62eec0914610842575b600034141515610195576040517f08c379a000000000000000000000000000000000000000000000000000000000815260040180806020018281038252601a8152602001807f426c6f636b696e6720616e7920696e636f6d696e67204554482e00000000000081525060200191505060405180910390fd5b005b3480156101a357600080fd5b506101c66004803603810190808035600019169060200190929190505050610873565b005b3480156101d457600080fd5b506101f76004803603810190808035600019169060200190929190505050610fa9565b604051808215151515815260200191505060405180910390f35b34801561021d57600080fd5b5061022661137b565b604051808273ffffffffffffffffffffffffffffffffffffffff1673ffffffffffffffffffffffffffffffffffffffff16815260200191505060405180910390f35b34801561027457600080fd5b506102a9600480360381019080803573ffffffffffffffffffffffffffffffffffffffff169060200190929190505050611380565b005b3480156102b757600080fd5b506102fa6004803603810190808035600019169060200190929190803573ffffffffffffffffffffffffffffffffffffffff16906020019092919050505061147c565b005b34801561030857600080fd5b50610311611d26565b005b34801561031f57600080fd5b50610328611df8565b604051808273ffffffffffffffffffffffffffffffffffffffff1673ffffffffffffffffffffffffffffffffffffffff16815260200191505060405180910390f35b34801561037657600080fd5b506103b96004803603810190808035600019169060200190929190803573ffffffffffffffffffffffffffffffffffffffff169060200190929190505050611e21565b604051808215151515815260200191505060405180910390f35b3480156103df57600080fd5b506103e86120bd565b604051808215151515815260200191505060405180910390f35b34801561040e57600080fd5b506104316004803603810190808035600019169060200190929190505050612114565b60405180831515151581526020018260ff1660ff1681526020019250505060405180910390f35b34801561046457600080fd5b50610491600480360381019080803560001916906020019092919080359060200190929190505050612198565b604051808a60ff1660ff1681526020018963ffffffff1663ffffffff1681526020018863ffffffff1663ffffffff1681526020018781526020018673ffffffffffffffffffffffffffffffffffffffff1673ffffffffffffffffffffffffffffffffffffffff16815260200185815260200184815260200183815260200182151515158152602001995050505050505050505060405180910390f35b34801561053957600080fd5b5061055c600480360381019080803560001916906020019092919050505061225c565b604051808215151515815260200191505060405180910390f35b34801561058257600080fd5b506105a56004803603810190808035600019169060200190929190505050612430565b005b3480156105b357600080fd5b506105d660048036038101908080356000191690602001909291905050506127db565b604051808215151515815260200191505060405180910390f35b3480156105fc57600080fd5b506106a56004803603810190808035600019169060200190929190803573ffffffffffffffffffffffffffffffffffffffff169060200190929190803560ff169060200190929190803573ffffffffffffffffffffffffffffffffffffffff169060200190929190803560ff169060200190929190803515159060200190929190803573ffffffffffffffffffffffffffffffffffffffff169060200190929190505050612d33565b005b3480156106b357600080fd5b506106f2600480360381019080803573ffffffffffffffffffffffffffffffffffffffff169060200190929190803590602001909291905050506133a7565b604051808215151515815260200191505060405180910390f35b34801561071857600080fd5b506107216134ae565b604051808273ffffffffffffffffffffffffffffffffffffffff1673ffffffffffffffffffffffffffffffffffffffff16815260200191505060405180910390f35b34801561076f57600080fd5b506107cc600480360381019080803560001916906020019092919080359060200190929190803573ffffffffffffffffffffffffffffffffffffffff169060200190929190803563ffffffff1690602001909291905050506134d4565b005b3480156107da57600080fd5b506107fd6004803603810190808035600019169060200190929190505050613ff4565b005b34801561080b57600080fd5b50610840600480360381019080803573ffffffffffffffffffffffffffffffffffffffff1690602001909291905050506149cf565b005b34801561084e57600080fd5b5061087160048036038101908080356000191690602001909291905050506149ee565b005b600080600080600160009054906101000a900473ffffffffffffffffffffffffffffffffffffffff1673ffffffffffffffffffffffffffffffffffffffff16636f23d8da6040518163ffffffff167c0100000000000000000000000000000000000000000000000000000000028152600401602060405180830381600087803b1580156108ff57600080fd5b505af1158015610913573d6000803e3d6000fd5b505050506040513d602081101561092957600080fd5b810190808051906020019092919050505093508373ffffffffffffffffffffffffffffffffffffffff16631604fa4d866040518263ffffffff167c0100000000000000000000000000000000000000000000000000000000028152600401808260001916600019168152602001915050602060405180830381600087803b1580156109b357600080fd5b505af11580156109c7573d6000803e3d6000fd5b505050506040513d60208110156109dd57600080fd5b81019080805190602001909291905050501515610a62576040517f08c379a00000000000000000000000000000000000000000000000000000000081526004018080602001828103825260138152602001807f50726f6a656374206d7573742065786973742e0000000000000000000000000081525060200191505060405180910390fd5b60008473ffffffffffffffffffffffffffffffffffffffff16635f6dd297876040518263ffffffff167c0100000000000000000000000000000000000000000000000000000000028152600401808260001916600019168152602001915050602060405180830381600087803b158015610adb57600080fd5b505af1158015610aef573d6000803e3d6000fd5b505050506040513d6020811015610b0557600080fd5b8101908080519060200190929190505050141515610b8b576040517f08c379a00000000000000000000000000000000000000000000000000000000081526004018080602001828103825260198152602001807f50726f6a6563742073686f756c64206265206163746976652e0000000000000081525060200191505060405180910390fd5b3373ffffffffffffffffffffffffffffffffffffffff168473ffffffffffffffffffffffffffffffffffffffff166362074c31876040518263ffffffff167c0100000000000000000000000000000000000000000000000000000000028152600401808260001916600019168152602001915050602060405180830381600087803b158015610c1957600080fd5b505af1158015610c2d573d6000803e3d6000fd5b505050506040513d6020811015610c4357600080fd5b810190808051906020019092919050505073ffffffffffffffffffffffffffffffffffffffff16141515610cdf576040517f08c379a00000000000000000000000000000000000000000000000000000000081526004018080602001828103825260178152602001807f53656e646572206d7573742062652061206d616b65722e00000000000000000081525060200191505060405180910390fd5b42925060026000866000191660001916815260200190815260200160002080549050915060008260ff16111515610da4576040517f08c379a000000000000000000000000000000000000000000000000000000000815260040180806020018281038252602c8152602001807f5468657265206d757374206265206d696c6573746f6e657320746f206d616b6581526020017f20612064656c69766572792e000000000000000000000000000000000000000081525060400191505060405180910390fd5b6002600086600019166000191681526020019081526020016000206001830360ff16815481101515610dd257fe5b9060005260206000209060070201905060008160030154118015610dfa575060008160040154145b8015610e0a575060008160050154145b1515610ea4576040517f08c379a00000000000000000000000000000000000000000000000000000000081526004018080602001828103825260398152602001807f4d696c6573746f6e65206d757374206265206163746976652c206e6f7420646581526020017f6c69766572656420616e64206e6f742061636365707465642e0000000000000081525060400191505060405180910390fd5b8060060160009054906101000a900460ff16151515610f2b576040517f08c379a000000000000000000000000000000000000000000000000000000000815260040180806020018281038252601d8152602001807f4d696c6573746f6e65206d757374206e6f74206265207061757365642e00000081525060200191505060405180910390fd5b82816004018190555060016005811115610f4157fe5b3373ffffffffffffffffffffffffffffffffffffffff1686600019167f939f959dd457cf9b72f63161a86a222a89995ac1846647d3f3c174518a8ba0968686604051808381526020018260ff1660ff1681526020019250505060405180910390a45050505050565b600080610fb4615a1b565b6000806000806000600260008a600019166000191681526020019081526020016000208054905096506000871415610fef576000975061136f565b600260008a600019166000191681526020019081526020016000206001880381548110151561101a57fe5b906000526020600020906007020161012060405190810160405290816000820160009054906101000a900460ff1660ff1660ff1681526020016000820160019054906101000a900463ffffffff1663ffffffff1663ffffffff1681526020016000820160059054906101000a900463ffffffff1663ffffffff1663ffffffff168152602001600182015481526020016002820160009054906101000a900473ffffffffffffffffffffffffffffffffffffffff1673ffffffffffffffffffffffffffffffffffffffff1673ffffffffffffffffffffffffffffffffffffffff1681526020016003820154815260200160048201548152602001600582015481526020016006820160009054906101000a900460ff16151515158152505095508561010001518061114e575060008660e00151115b1561115c576000975061136f565b600160009054906101000a900473ffffffffffffffffffffffffffffffffffffffff1673ffffffffffffffffffffffffffffffffffffffff16636f23d8da6040518163ffffffff167c0100000000000000000000000000000000000000000000000000000000028152600401602060405180830381600087803b1580156111e257600080fd5b505af11580156111f6573d6000803e3d6000fd5b505050506040513d602081101561120c57600080fd5b810190808051906020019092919050505094508493506112ec620151808573ffffffffffffffffffffffffffffffffffffffff1663e591fa268c6040518263ffffffff167c0100000000000000000000000000000000000000000000000000000000028152600401808260001916600019168152602001915050602060405180830381600087803b1580156112a057600080fd5b505af11580156112b4573d6000803e3d6000fd5b505050506040513d60208110156112ca57600080fd5b810190808051906020019092919050505060ff166151e390919063ffffffff16565b9250429150611312866040015163ffffffff168760a0015161522190919063ffffffff16565b90508560c0015181108061132557508181105b15611333576000975061136f565b60008660c0015111801561135c57508161135a848860c0015161522190919063ffffffff16565b105b1561136a576000975061136f565b600197505b50505050505050919050565b600081565b6113886120bd565b151561139357600080fd5b600073ffffffffffffffffffffffffffffffffffffffff168173ffffffffffffffffffffffffffffffffffffffff1614151515611438576040517f08c379a000000000000000000000000000000000000000000000000000000000815260040180806020018281038252601e8152602001807f52656c61792061646472657373206d757374206e6f74206265203078302e000081525060200191505060405180910390fd5b80600160006101000a81548173ffffffffffffffffffffffffffffffffffffffff021916908373ffffffffffffffffffffffffffffffffffffffff16021790555050565b600080600080600061148c615a1b565b6000600160009054906101000a900473ffffffffffffffffffffffffffffffffffffffff1673ffffffffffffffffffffffffffffffffffffffff16636f23d8da6040518163ffffffff167c0100000000000000000000000000000000000000000000000000000000028152600401602060405180830381600087803b15801561151457600080fd5b505af1158015611528573d6000803e3d6000fd5b505050506040513d602081101561153e57600080fd5b810190808051906020019092919050505096508673ffffffffffffffffffffffffffffffffffffffff163373ffffffffffffffffffffffffffffffffffffffff1614151561161a576040517f08c379a000000000000000000000000000000000000000000000000000000000815260040180806020018281038252602c8152602001807f4d6574686f642073686f756c642062652063616c6c65642062792050726f6a6581526020017f637420636f6e74726163742e000000000000000000000000000000000000000081525060400191505060405180910390fd5b8695508573ffffffffffffffffffffffffffffffffffffffff16631604fa4d8a6040518263ffffffff167c0100000000000000000000000000000000000000000000000000000000028152600401808260001916600019168152602001915050602060405180830381600087803b15801561169457600080fd5b505af11580156116a8573d6000803e3d6000fd5b505050506040513d60208110156116be57600080fd5b81019080805190602001909291905050501515611743576040517f08c379a00000000000000000000000000000000000000000000000000000000081526004018080602001828103825260138152602001807f50726f6a656374206d7573742065786973742e0000000000000000000000000081525060200191505060405180910390fd5b8573ffffffffffffffffffffffffffffffffffffffff1663ab065d6c8a6040518263ffffffff167c0100000000000000000000000000000000000000000000000000000000028152600401808260001916600019168152602001915050602060405180830381600087803b1580156117ba57600080fd5b505af11580156117ce573d6000803e3d6000fd5b505050506040513d60208110156117e457600080fd5b810190808051906020019092919050505094508573ffffffffffffffffffffffffffffffffffffffff166362074c318a6040518263ffffffff167c0100000000000000000000000000000000000000000000000000000000028152600401808260001916600019168152602001915050602060405180830381600087803b15801561186e57600080fd5b505af1158015611882573d6000803e3d6000fd5b505050506040513d602081101561189857600080fd5b810190808051906020019092919050505093508473ffffffffffffffffffffffffffffffffffffffff168873ffffffffffffffffffffffffffffffffffffffff16148061191057508373ffffffffffffffffffffffffffffffffffffffff168873ffffffffffffffffffffffffffffffffffffffff16145b15156119aa576040517f08c379a00000000000000000000000000000000000000000000000000000000081526004018080602001828103825260338152602001807f496e69746961746f722073686f756c6420626520656974686572206d616b657281526020017f206f7220636c69656e7420616464726573732e0000000000000000000000000081525060400191505060405180910390fd5b8473ffffffffffffffffffffffffffffffffffffffff168873ffffffffffffffffffffffffffffffffffffffff1614156119f7576119e78961225c565b15156119f257600080fd5b611a0c565b611a00896127db565b1515611a0b57600080fd5b5b600260008a600019166000191681526020019081526020016000208054905092506000831415611a3b57611d1b565b600260008a6000191660001916815260200190815260200160002060018403815481101515611a6657fe5b906000526020600020906007020161012060405190810160405290816000820160009054906101000a900460ff1660ff1660ff1681526020016000820160019054906101000a900463ffffffff1663ffffffff1663ffffffff1681526020016000820160059054906101000a900463ffffffff1663ffffffff1663ffffffff168152602001600182015481526020016002820160009054906101000a900473ffffffffffffffffffffffffffffffffffffffff1673ffffffffffffffffffffffffffffffffffffffff1673ffffffffffffffffffffffffffffffffffffffff1681526020016003820154815260200160048201548152602001600582015481526020016006820160009054906101000a900460ff161515151581525050915060008260e001511115611b9757611d1b565b8573ffffffffffffffffffffffffffffffffffffffff1663b88467c28a6040518263ffffffff167c0100000000000000000000000000000000000000000000000000000000028152600401808260001916600019168152602001915050602060405180830381600087803b158015611c0e57600080fd5b505af1158015611c22573d6000803e3d6000fd5b505050506040513d6020811015611c3857600080fd5b810190808051906020019092919050505090508473ffffffffffffffffffffffffffffffffffffffff168873ffffffffffffffffffffffffffffffffffffffff161415611c9757611c928183606001518460800151615242565b611cac565b611cab8189846060015185608001516153d8565b5b60046005811115611cb957fe5b3373ffffffffffffffffffffffffffffffffffffffff168a600019167f939f959dd457cf9b72f63161a86a222a89995ac1846647d3f3c174518a8ba0964287604051808381526020018260ff1660ff1681526020019250505060405180910390a45b505050505050505050565b611d2e6120bd565b1515611d3957600080fd5b600073ffffffffffffffffffffffffffffffffffffffff166000809054906101000a900473ffffffffffffffffffffffffffffffffffffffff1673ffffffffffffffffffffffffffffffffffffffff167f8be0079c531659141344cd1fd0a4f28419497f9722a3daafe3b4186f6b6457e060405160405180910390a360008060006101000a81548173ffffffffffffffffffffffffffffffffffffffff021916908373ffffffffffffffffffffffffffffffffffffffff160217905550565b60008060009054906101000a900473ffffffffffffffffffffffffffffffffffffffff16905090565b6000806000600160009054906101000a900473ffffffffffffffffffffffffffffffffffffffff1673ffffffffffffffffffffffffffffffffffffffff16636f23d8da6040518163ffffffff167c0100000000000000000000000000000000000000000000000000000000028152600401602060405180830381600087803b158015611eac57600080fd5b505af1158015611ec0573d6000803e3d6000fd5b505050506040513d6020811015611ed657600080fd5b810190808051906020019092919050505091508190508073ffffffffffffffffffffffffffffffffffffffff1663ab065d6c866040518263ffffffff167c0100000000000000000000000000000000000000000000000000000000028152600401808260001916600019168152602001915050602060405180830381600087803b158015611f6357600080fd5b505af1158015611f77573d6000803e3d6000fd5b505050506040513d6020811015611f8d57600080fd5b810190808051906020019092919050505073ffffffffffffffffffffffffffffffffffffffff168473ffffffffffffffffffffffffffffffffffffffff1614806120b357508073ffffffffffffffffffffffffffffffffffffffff166362074c31866040518263ffffffff167c0100000000000000000000000000000000000000000000000000000000028152600401808260001916600019168152602001915050602060405180830381600087803b15801561204957600080fd5b505af115801561205d573d6000803e3d6000fd5b505050506040513d602081101561207357600080fd5b810190808051906020019092919050505073ffffffffffffffffffffffffffffffffffffffff168473ffffffffffffffffffffffffffffffffffffffff16145b9250505092915050565b60008060009054906101000a900473ffffffffffffffffffffffffffffffffffffffff1673ffffffffffffffffffffffffffffffffffffffff163373ffffffffffffffffffffffffffffffffffffffff1614905090565b60008060026000846000191660001916815260200190815260200160002080549050905060008160ff16111561218e5760006002600085600019166000191681526020019081526020016000206001830360ff1681548110151561217457fe5b906000526020600020906007020160050154119150612193565b600091505b915091565b6002602052816000526040600020818154811015156121b357fe5b9060005260206000209060070201600091509150508060000160009054906101000a900460ff16908060000160019054906101000a900463ffffffff16908060000160059054906101000a900463ffffffff16908060010154908060020160009054906101000a900473ffffffffffffffffffffffffffffffffffffffff16908060030154908060040154908060050154908060060160009054906101000a900460ff16905089565b600080612267615a1b565b600260008560001916600019168152602001908152602001600020805490509150600082141561229a5760009250612429565b600260008560001916600019168152602001908152602001600020600183038154811015156122c557fe5b906000526020600020906007020161012060405190810160405290816000820160009054906101000a900460ff1660ff1660ff1681526020016000820160019054906101000a900463ffffffff1663ffffffff1663ffffffff1681526020016000820160059054906101000a900463ffffffff1663ffffffff1663ffffffff168152602001600182015481526020016002820160009054906101000a900473ffffffffffffffffffffffffffffffffffffffff1673ffffffffffffffffffffffffffffffffffffffff1673ffffffffffffffffffffffffffffffffffffffff1681526020016003820154815260200160048201548152602001600582015481526020016006820160009054906101000a900460ff161515151581525050905060008160e001511480156123fb5750806101000151155b8015612426575042612424826040015163ffffffff168360a0015161522190919063ffffffff16565b105b92505b5050919050565b600080600080600160009054906101000a900473ffffffffffffffffffffffffffffffffffffffff1673ffffffffffffffffffffffffffffffffffffffff16636f23d8da6040518163ffffffff167c0100000000000000000000000000000000000000000000000000000000028152600401602060405180830381600087803b1580156124bc57600080fd5b505af11580156124d0573d6000803e3d6000fd5b505050506040513d60208110156124e657600080fd5b810190808051906020019092919050505093508392503373ffffffffffffffffffffffffffffffffffffffff168373ffffffffffffffffffffffffffffffffffffffff1663a3e2b1de876040518263ffffffff167c0100000000000000000000000000000000000000000000000000000000028152600401808260001916600019168152602001915050602060405180830381600087803b15801561258a57600080fd5b505af115801561259e573d6000803e3d6000fd5b505050506040513d60208110156125b457600080fd5b810190808051906020019092919050505073ffffffffffffffffffffffffffffffffffffffff16141515612676576040517f08c379a00000000000000000000000000000000000000000000000000000000081526004018080602001828103825260388152602001807f467265657a696e672075706f6e20646973707574652073746172742063616e2081526020017f62652073656e74206f6e6c7920627920617262697465722e000000000000000081525060400191505060405180910390fd5b60026000866000191660001916815260200190815260200160002080549050915060008211151561270f576040517f08c379a000000000000000000000000000000000000000000000000000000000815260040180806020018281038252601f8152602001807f5468657265206d75737420626520616374697665206d696c6573746f6e652e0081525060200191505060405180910390fd5b6002600086600019166000191681526020019081526020016000206001830381548110151561273a57fe5b9060005260206000209060070201905060018160060160006101000a81548160ff02191690831515021790555060058081111561277357fe5b3373ffffffffffffffffffffffffffffffffffffffff1686600019167f939f959dd457cf9b72f63161a86a222a89995ac1846647d3f3c174518a8ba0964286604051808381526020018260ff1660ff1681526020019250505060405180910390a45050505050565b60008060008060008060006127ee615a1b565b6000600160009054906101000a900473ffffffffffffffffffffffffffffffffffffffff1673ffffffffffffffffffffffffffffffffffffffff16636f23d8da6040518163ffffffff167c0100000000000000000000000000000000000000000000000000000000028152600401602060405180830381600087803b15801561287657600080fd5b505af115801561288a573d6000803e3d6000fd5b505050506040513d60208110156128a057600080fd5b81019080805190602001909291905050509750879650612980620151808873ffffffffffffffffffffffffffffffffffffffff1663e591fa268d6040518263ffffffff167c0100000000000000000000000000000000000000000000000000000000028152600401808260001916600019168152602001915050602060405180830381600087803b15801561293457600080fd5b505af1158015612948573d6000803e3d6000fd5b505050506040513d602081101561295e57600080fd5b810190808051906020019092919050505060ff166151e390919063ffffffff16565b9550612a4c620151808873ffffffffffffffffffffffffffffffffffffffff1663dd4bd4b78d6040518263ffffffff167c0100000000000000000000000000000000000000000000000000000000028152600401808260001916600019168152602001915050602060405180830381600087803b158015612a0057600080fd5b505af1158015612a14573d6000803e3d6000fd5b505050506040513d6020811015612a2a57600080fd5b810190808051906020019092919050505060ff166151e390919063ffffffff16565b94508673ffffffffffffffffffffffffffffffffffffffff1663a5e20eaa8b6040518263ffffffff167c0100000000000000000000000000000000000000000000000000000000028152600401808260001916600019168152602001915050602060405180830381600087803b158015612ac557600080fd5b505af1158015612ad9573d6000803e3d6000fd5b505050506040513d6020811015612aef57600080fd5b81019080805190602001909291905050509350600260008b600019166000191681526020019081526020016000208054905092506000831415612b485784612b4085426155d790919063ffffffff16565b119850612d26565b600260008b6000191660001916815260200190815260200160002060018403815481101515612b7357fe5b906000526020600020906007020161012060405190810160405290816000820160009054906101000a900460ff1660ff1660ff1681526020016000820160019054906101000a900463ffffffff1663ffffffff1663ffffffff1681526020016000820160059054906101000a900463ffffffff1663ffffffff1663ffffffff168152602001600182015481526020016002820160009054906101000a900473ffffffffffffffffffffffffffffffffffffffff1673ffffffffffffffffffffffffffffffffffffffff1673ffffffffffffffffffffffffffffffffffffffff1681526020016003820154815260200160048201548152602001600582015481526020016006820160009054906101000a900460ff1615151515815250509150429050816101000151158015612cac575060008260e00151115b8015612ccd575084612ccb8360e00151836155d790919063ffffffff16565b115b15612cdb5760019850612d26565b816101000151158015612cf2575060008260e00151145b8015612d02575060008260c00151115b8015612d2357508160c00151612d2187836155d790919063ffffffff16565b115b98505b5050505050505050919050565b6000612d3d615a1b565b600080600080600260008e60001916600019168152602001908152602001600020805490509550600086111515612e02576040517f08c379a00000000000000000000000000000000000000000000000000000000081526004018080602001828103825260258152602001807f5468657265206d757374206265206174206c65617374206f6e65206d696c657381526020017f746f6e652e00000000000000000000000000000000000000000000000000000081525060400191505060405180910390fd5b600260008e6000191660001916815260200190815260200160002060018703815481101515612e2d57fe5b906000526020600020906007020161012060405190810160405290816000820160009054906101000a900460ff1660ff1660ff1681526020016000820160019054906101000a900463ffffffff1663ffffffff1663ffffffff1681526020016000820160059054906101000a900463ffffffff1663ffffffff1663ffffffff168152602001600182015481526020016002820160009054906101000a900473ffffffffffffffffffffffffffffffffffffffff1673ffffffffffffffffffffffffffffffffffffffff1673ffffffffffffffffffffffffffffffffffffffff1681526020016003820154815260200160048201548152602001600582015481526020016006820160009054906101000a900460ff16151515158152505094508461010001511515612fc6576040517f08c379a000000000000000000000000000000000000000000000000000000000815260040180806020018281038252601f8152602001807f4c617374206d696c6573746f6e65206d757374206265206f6e20686f6c642e0081525060200191505060405180910390fd5b6064612fe18a60ff168d60ff1661522190919063ffffffff16565b141515613056576040517f08c379a000000000000000000000000000000000000000000000000000000000815260040180806020018281038252601b8152602001807f536861726573206d757374206265203130302520696e2073756d2e000000000081525060200191505060405180910390fd5b600160009054906101000a900473ffffffffffffffffffffffffffffffffffffffff1673ffffffffffffffffffffffffffffffffffffffff16636f23d8da6040518163ffffffff167c0100000000000000000000000000000000000000000000000000000000028152600401602060405180830381600087803b1580156130dc57600080fd5b505af11580156130f0573d6000803e3d6000fd5b505050506040513d602081101561310657600080fd5b810190808051906020019092919050505093508373ffffffffffffffffffffffffffffffffffffffff166334aa982a8e8e8d336040518563ffffffff167c01000000000000000000000000000000000000000000000000000000000281526004018085600019166000191681526020018473ffffffffffffffffffffffffffffffffffffffff1673ffffffffffffffffffffffffffffffffffffffff1681526020018373ffffffffffffffffffffffffffffffffffffffff1673ffffffffffffffffffffffffffffffffffffffff1681526020018273ffffffffffffffffffffffffffffffffffffffff1673ffffffffffffffffffffffffffffffffffffffff168152602001945050505050606060405180830381600087803b15801561322c57600080fd5b505af1158015613240573d6000803e3d6000fd5b505050506040513d606081101561325657600080fd5b8101908080519060200190929190805190602001909291908051906020019092919050505092509250925061329b8186608001518e8d8d8d8d8c606001518b8b6155f8565b8373ffffffffffffffffffffffffffffffffffffffff16639827a9968e6040518263ffffffff167c0100000000000000000000000000000000000000000000000000000000028152600401808260001916600019168152602001915050600060405180830381600087803b15801561331257600080fd5b505af1158015613326573d6000803e3d6000fd5b505050506004600581111561333757fe5b3373ffffffffffffffffffffffffffffffffffffffff168e600019167f939f959dd457cf9b72f63161a86a222a89995ac1846647d3f3c174518a8ba096428a604051808381526020018260ff1660ff1681526020019250505060405180910390a450505050505050505050505050565b6000806133b26120bd565b15156133bd57600080fd5b8390508073ffffffffffffffffffffffffffffffffffffffff1663a9059cbb6133e4611df8565b856040518363ffffffff167c0100000000000000000000000000000000000000000000000000000000028152600401808373ffffffffffffffffffffffffffffffffffffffff1673ffffffffffffffffffffffffffffffffffffffff16815260200182815260200192505050602060405180830381600087803b15801561346a57600080fd5b505af115801561347e573d6000803e3d6000fd5b505050506040513d602081101561349457600080fd5b810190808051906020019092919050505091505092915050565b600160009054906101000a900473ffffffffffffffffffffffffffffffffffffffff1681565b60006134de615a1b565b60008060026000896000191660001916815260200190815260200160002080549050935060008460ff1611156136fe576002600089600019166000191681526020019081526020016000206001850360ff1681548110151561353c57fe5b906000526020600020906007020161012060405190810160405290816000820160009054906101000a900460ff1660ff1660ff1681526020016000820160019054906101000a900463ffffffff1663ffffffff1663ffffffff1681526020016000820160059054906101000a900463ffffffff1663ffffffff1663ffffffff168152602001600182015481526020016002820160009054906101000a900473ffffffffffffffffffffffffffffffffffffffff1673ffffffffffffffffffffffffffffffffffffffff1673ffffffffffffffffffffffffffffffffffffffff1681526020016003820154815260200160048201548152602001600582015481526020016006820160009054906101000a900460ff161515151581525050925060008360e001511115156136fd576040517f08c379a00000000000000000000000000000000000000000000000000000000081526004018080602001828103825260398152602001807f416c6c206d696c6573746f6e6573206d7573742062652061636365707465642081526020017f7072696f72207374617274696e672061206e6577206f6e652e0000000000000081525060400191505060405180910390fd5b5b600160009054906101000a900473ffffffffffffffffffffffffffffffffffffffff1673ffffffffffffffffffffffffffffffffffffffff16636f23d8da6040518163ffffffff167c0100000000000000000000000000000000000000000000000000000000028152600401602060405180830381600087803b15801561378457600080fd5b505af1158015613798573d6000803e3d6000fd5b505050506040513d60208110156137ae57600080fd5b810190808051906020019092919050505091508173ffffffffffffffffffffffffffffffffffffffff16631604fa4d896040518263ffffffff167c0100000000000000000000000000000000000000000000000000000000028152600401808260001916600019168152602001915050602060405180830381600087803b15801561383857600080fd5b505af115801561384c573d6000803e3d6000fd5b505050506040513d602081101561386257600080fd5b810190808051906020019092919050505015156138e7576040517f08c379a00000000000000000000000000000000000000000000000000000000081526004018080602001828103825260138152602001807f50726f6a656374206d7573742065786973742e0000000000000000000000000081525060200191505060405180910390fd5b3373ffffffffffffffffffffffffffffffffffffffff168273ffffffffffffffffffffffffffffffffffffffff1663ab065d6c8a6040518263ffffffff167c0100000000000000000000000000000000000000000000000000000000028152600401808260001916600019168152602001915050602060405180830381600087803b15801561397557600080fd5b505af1158015613989573d6000803e3d6000fd5b505050506040513d602081101561399f57600080fd5b810190808051906020019092919050505073ffffffffffffffffffffffffffffffffffffffff16141515613a61576040517f08c379a00000000000000000000000000000000000000000000000000000000081526004018080602001828103825260278152602001807f4f6e6c792070726f6a656374277320636c69656e74207374617274732061206d81526020017f696573746f6e650000000000000000000000000000000000000000000000000081525060400191505060405180910390fd5b8360ff168273ffffffffffffffffffffffffffffffffffffffff16634a80dcab8a6040518263ffffffff167c0100000000000000000000000000000000000000000000000000000000028152600401808260001916600019168152602001915050602060405180830381600087803b158015613adc57600080fd5b505af1158015613af0573d6000803e3d6000fd5b505050506040513d6020811015613b0657600080fd5b810190808051906020019092919050505060ff16111515613bdb576040517f08c379a00000000000000000000000000000000000000000000000000000000081526004018080602001828103825260488152602001807f4d696c6573746f6e657320636f756e742073686f756c64206e6f74206578636581526020017f656420746865206e756d62657220636f6e6669677572656420696e207468652081526020017f70726f6a6563742e00000000000000000000000000000000000000000000000081525060600191505060405180910390fd5b60008273ffffffffffffffffffffffffffffffffffffffff16635f6dd2978a6040518263ffffffff167c0100000000000000000000000000000000000000000000000000000000028152600401808260001916600019168152602001915050602060405180830381600087803b158015613c5457600080fd5b505af1158015613c68573d6000803e3d6000fd5b505050506040513d6020811015613c7e57600080fd5b8101908080519060200190929190505050141515613d04576040517f08c379a00000000000000000000000000000000000000000000000000000000081526004018080602001828103825260198152602001807f50726f6a6563742073686f756c64206265206163746976652e0000000000000081525060200191505060405180910390fd5b613dc08273ffffffffffffffffffffffffffffffffffffffff1663b88467c28a6040518263ffffffff167c0100000000000000000000000000000000000000000000000000000000028152600401808260001916600019168152602001915050602060405180830381600087803b158015613d7e57600080fd5b505af1158015613d92573d6000803e3d6000fd5b505050506040513d6020811015613da857600080fd5b810190808051906020019092919050505088886156ce565b429050600260008960001916600019168152602001908152602001600020610120604051908101604052806001870160ff1681526020018763ffffffff1681526020018763ffffffff1681526020018981526020018873ffffffffffffffffffffffffffffffffffffffff1681526020018381526020016000815260200160008152602001600015158152509080600181540180825580915050906001820390600052602060002090600702016000909192909190915060008201518160000160006101000a81548160ff021916908360ff16021790555060208201518160000160016101000a81548163ffffffff021916908363ffffffff16021790555060408201518160000160056101000a81548163ffffffff021916908363ffffffff1602179055506060820151816001015560808201518160020160006101000a81548173ffffffffffffffffffffffffffffffffffffffff021916908373ffffffffffffffffffffffffffffffffffffffff16021790555060a0820151816003015560c0820151816004015560e082015181600501556101008201518160060160006101000a81548160ff02191690831515021790555050505060006005811115613f8657fe5b3373ffffffffffffffffffffffffffffffffffffffff1689600019167f939f959dd457cf9b72f63161a86a222a89995ac1846647d3f3c174518a8ba0968460018901604051808381526020018260ff1660ff1681526020019250505060405180910390a45050505050505050565b600080600080600160009054906101000a900473ffffffffffffffffffffffffffffffffffffffff1673ffffffffffffffffffffffffffffffffffffffff16636f23d8da6040518163ffffffff167c0100000000000000000000000000000000000000000000000000000000028152600401602060405180830381600087803b15801561408057600080fd5b505af1158015614094573d6000803e3d6000fd5b505050506040513d60208110156140aa57600080fd5b810190808051906020019092919050505093508373ffffffffffffffffffffffffffffffffffffffff16631604fa4d866040518263ffffffff167c0100000000000000000000000000000000000000000000000000000000028152600401808260001916600019168152602001915050602060405180830381600087803b15801561413457600080fd5b505af1158015614148573d6000803e3d6000fd5b505050506040513d602081101561415e57600080fd5b810190808051906020019092919050505015156141e3576040517f08c379a00000000000000000000000000000000000000000000000000000000081526004018080602001828103825260138152602001807f50726f6a656374206d7573742065786973742e0000000000000000000000000081525060200191505060405180910390fd5b60008473ffffffffffffffffffffffffffffffffffffffff16635f6dd297876040518263ffffffff167c0100000000000000000000000000000000000000000000000000000000028152600401808260001916600019168152602001915050602060405180830381600087803b15801561425c57600080fd5b505af1158015614270573d6000803e3d6000fd5b505050506040513d602081101561428657600080fd5b810190808051906020019092919050505014151561430c576040517f08c379a00000000000000000000000000000000000000000000000000000000081526004018080602001828103825260198152602001807f50726f6a6563742073686f756c64206265206163746976652e0000000000000081525060200191505060405180910390fd5b3373ffffffffffffffffffffffffffffffffffffffff168473ffffffffffffffffffffffffffffffffffffffff1663ab065d6c876040518263ffffffff167c0100000000000000000000000000000000000000000000000000000000028152600401808260001916600019168152602001915050602060405180830381600087803b15801561439a57600080fd5b505af11580156143ae573d6000803e3d6000fd5b505050506040513d60208110156143c457600080fd5b810190808051906020019092919050505073ffffffffffffffffffffffffffffffffffffffff16141515614460576040517f08c379a00000000000000000000000000000000000000000000000000000000081526004018080602001828103825260188152602001807f53656e646572206d757374206265206120636c69656e742e000000000000000081525060200191505060405180910390fd5b60026000866000191660001916815260200190815260200160002080549050925060008360ff16111515614522576040517f08c379a000000000000000000000000000000000000000000000000000000000815260040180806020018281038252602e8152602001807f5468657265206d757374206265206d696c6573746f6e657320746f206163636581526020017f707420612064656c69766572792e00000000000000000000000000000000000081525060400191505060405180910390fd5b6002600086600019166000191681526020019081526020016000206001840360ff1681548110151561455057fe5b9060005260206000209060070201915060008260030154118015614578575060008260050154145b8015614588575060008260040154115b80156145a95750600015158260060160009054906101000a900460ff161515145b1515614669576040517f08c379a00000000000000000000000000000000000000000000000000000000081526004018080602001828103825260608152602001807f4d696c6573746f6e652073686f756c642062652061637469766520616e64206481526020017f656c6976657265642c20627574206e6f742072656a65637465642c206f72206181526020017f6c72656164792061636365707465642c206f7220707574206f6e20686f6c642e81525060600191505060405180910390fd5b4290508082600501819055508260ff168473ffffffffffffffffffffffffffffffffffffffff16634a80dcab876040518263ffffffff167c0100000000000000000000000000000000000000000000000000000000028152600401808260001916600019168152602001915050602060405180830381600087803b1580156146f057600080fd5b505af1158015614704573d6000803e3d6000fd5b505050506040513d602081101561471a57600080fd5b810190808051906020019092919050505060ff1614156147c4578373ffffffffffffffffffffffffffffffffffffffff1663d90b4958866040518263ffffffff167c0100000000000000000000000000000000000000000000000000000000028152600401808260001916600019168152602001915050600060405180830381600087803b1580156147ab57600080fd5b505af11580156147bf573d6000803e3d6000fd5b505050505b61495a8473ffffffffffffffffffffffffffffffffffffffff1663b88467c2876040518263ffffffff167c0100000000000000000000000000000000000000000000000000000000028152600401808260001916600019168152602001915050602060405180830381600087803b15801561483e57600080fd5b505af1158015614852573d6000803e3d6000fd5b505050506040513d602081101561486857600080fd5b81019080805190602001909291905050508573ffffffffffffffffffffffffffffffffffffffff166362074c31886040518263ffffffff167c0100000000000000000000000000000000000000000000000000000000028152600401808260001916600019168152602001915050602060405180830381600087803b1580156148f057600080fd5b505af1158015614904573d6000803e3d6000fd5b505050506040513d602081101561491a57600080fd5b810190808051906020019092919050505084600101548560020160009054906101000a900473ffffffffffffffffffffffffffffffffffffffff166153d8565b6002600581111561496757fe5b3373ffffffffffffffffffffffffffffffffffffffff1686600019167f939f959dd457cf9b72f63161a86a222a89995ac1846647d3f3c174518a8ba0968487604051808381526020018260ff1660ff1681526020019250505060405180910390a45050505050565b6149d76120bd565b15156149e257600080fd5b6149eb81615864565b50565b6000806000806000600160009054906101000a900473ffffffffffffffffffffffffffffffffffffffff1673ffffffffffffffffffffffffffffffffffffffff16636f23d8da6040518163ffffffff167c0100000000000000000000000000000000000000000000000000000000028152600401602060405180830381600087803b158015614a7c57600080fd5b505af1158015614a90573d6000803e3d6000fd5b505050506040513d6020811015614aa657600080fd5b810190808051906020019092919050505094508473ffffffffffffffffffffffffffffffffffffffff16631604fa4d876040518263ffffffff167c0100000000000000000000000000000000000000000000000000000000028152600401808260001916600019168152602001915050602060405180830381600087803b158015614b3057600080fd5b505af1158015614b44573d6000803e3d6000fd5b505050506040513d6020811015614b5a57600080fd5b81019080805190602001909291905050501515614bdf576040517f08c379a00000000000000000000000000000000000000000000000000000000081526004018080602001828103825260138152602001807f50726f6a656374206d7573742065786973742e0000000000000000000000000081525060200191505060405180910390fd5b60008573ffffffffffffffffffffffffffffffffffffffff16635f6dd297886040518263ffffffff167c0100000000000000000000000000000000000000000000000000000000028152600401808260001916600019168152602001915050602060405180830381600087803b158015614c5857600080fd5b505af1158015614c6c573d6000803e3d6000fd5b505050506040513d6020811015614c8257600080fd5b8101908080519060200190929190505050141515614d08576040517f08c379a00000000000000000000000000000000000000000000000000000000081526004018080602001828103825260198152602001807f50726f6a6563742073686f756c64206265206163746976652e0000000000000081525060200191505060405180910390fd5b3373ffffffffffffffffffffffffffffffffffffffff168573ffffffffffffffffffffffffffffffffffffffff1663ab065d6c886040518263ffffffff167c0100000000000000000000000000000000000000000000000000000000028152600401808260001916600019168152602001915050602060405180830381600087803b158015614d9657600080fd5b505af1158015614daa573d6000803e3d6000fd5b505050506040513d6020811015614dc057600080fd5b810190808051906020019092919050505073ffffffffffffffffffffffffffffffffffffffff16141515614e5c576040517f08c379a00000000000000000000000000000000000000000000000000000000081526004018080602001828103825260188152602001807f53656e646572206d757374206265206120636c69656e742e000000000000000081525060200191505060405180910390fd5b60026000876000191660001916815260200190815260200160002080549050935060008460ff16111515614f1e576040517f08c379a000000000000000000000000000000000000000000000000000000000815260040180806020018281038252602e8152602001807f5468657265206d757374206265206d696c6573746f6e657320746f2072656a6581526020017f637420612064656c69766572792e00000000000000000000000000000000000081525060400191505060405180910390fd5b6002600087600019166000191681526020019081526020016000206001850360ff16815481101515614f4c57fe5b9060005260206000209060070201925060008360030154118015614f74575060008360050154145b8015614f84575060008360040154115b8015614fa55750600015158360060160009054906101000a900460ff161515145b1515615065576040517f08c379a000000000000000000000000000000000000000000000000000000000815260040180806020018281038252605c8152602001807f4d696c6573746f6e652073686f756c642062652061637469766520616e64206481526020017f656c6976657265642c20627574206e6f742072656a65637465642c206f72206181526020017f6c72656164792061636365707465642c206f72206f6e20686f6c642e0000000081525060600191505060405180910390fd5b429150826004015461509e8460000160059054906101000a900463ffffffff1663ffffffff16856003015461522190919063ffffffff16565b1115615163576150bb8360040154836155d790919063ffffffff16565b9050808360000160058282829054906101000a900463ffffffff160192506101000a81548163ffffffff021916908363ffffffff1602179055503373ffffffffffffffffffffffffffffffffffffffff1686600019167f1af4f84a46e218a1bb22d388f3f0addf855840b41794dbbb8a5b5f1f594c4e858387604051808363ffffffff1663ffffffff1681526020018260ff1660ff1681526020019250505060405180910390a35b600083600401819055506003600581111561517a57fe5b3373ffffffffffffffffffffffffffffffffffffffff1687600019167f939f959dd457cf9b72f63161a86a222a89995ac1846647d3f3c174518a8ba0968588604051808381526020018260ff1660ff1681526020019250505060405180910390a4505050505050565b60008060008414156151f8576000915061521a565b828402905082848281151561520957fe5b0414151561521657600080fd5b8091505b5092915050565b600080828401905083811015151561523857600080fd5b8091505092915050565b600080831415615251576153d2565b839050600073ffffffffffffffffffffffffffffffffffffffff168273ffffffffffffffffffffffffffffffffffffffff161415615315578073ffffffffffffffffffffffffffffffffffffffff166369b71e06846040518263ffffffff167c010000000000000000000000000000000000000000000000000000000002815260040180828152602001915050600060405180830381600087803b1580156152f857600080fd5b505af115801561530c573d6000803e3d6000fd5b505050506153d1565b8073ffffffffffffffffffffffffffffffffffffffff16631a05371383856040518363ffffffff167c0100000000000000000000000000000000000000000000000000000000028152600401808373ffffffffffffffffffffffffffffffffffffffff1673ffffffffffffffffffffffffffffffffffffffff16815260200182815260200192505050600060405180830381600087803b1580156153b857600080fd5b505af11580156153cc573d6000803e3d6000fd5b505050505b5b50505050565b6000808314156153e7576155d0565b849050600073ffffffffffffffffffffffffffffffffffffffff168273ffffffffffffffffffffffffffffffffffffffff1614156154df578073ffffffffffffffffffffffffffffffffffffffff1663071e9a7685856040518363ffffffff167c0100000000000000000000000000000000000000000000000000000000028152600401808373ffffffffffffffffffffffffffffffffffffffff1673ffffffffffffffffffffffffffffffffffffffff16815260200182815260200192505050600060405180830381600087803b1580156154c257600080fd5b505af11580156154d6573d6000803e3d6000fd5b505050506155cf565b8073ffffffffffffffffffffffffffffffffffffffff1663f58126878584866040518463ffffffff167c0100000000000000000000000000000000000000000000000000000000028152600401808473ffffffffffffffffffffffffffffffffffffffff1673ffffffffffffffffffffffffffffffffffffffff1681526020018373ffffffffffffffffffffffffffffffffffffffff1673ffffffffffffffffffffffffffffffffffffffff1681526020018281526020019350505050600060405180830381600087803b1580156155b657600080fd5b505af11580156155ca573d6000803e3d6000fd5b505050505b5b5050505050565b6000808383111515156155e957600080fd5b82840390508091505092915050565b600080861580156156365750600073ffffffffffffffffffffffffffffffffffffffff168673ffffffffffffffffffffffffffffffffffffffff1614155b1561566b576156478484878e61595e565b91506156558c87848e6153d8565b61566882866155d790919063ffffffff16565b94505b61569460646156868a60ff16886151e390919063ffffffff16565b6159f190919063ffffffff16565b90506156a28c8a838e6153d8565b6156c08c8b6156ba84896155d790919063ffffffff16565b8e6153d8565b505050505050505050505050565b6000808314156156dd5761585e565b839050600073ffffffffffffffffffffffffffffffffffffffff168273ffffffffffffffffffffffffffffffffffffffff1614156157a1578073ffffffffffffffffffffffffffffffffffffffff166362c24067846040518263ffffffff167c010000000000000000000000000000000000000000000000000000000002815260040180828152602001915050600060405180830381600087803b15801561578457600080fd5b505af1158015615798573d6000803e3d6000fd5b5050505061585d565b8073ffffffffffffffffffffffffffffffffffffffff166322122cb383856040518363ffffffff167c0100000000000000000000000000000000000000000000000000000000028152600401808373ffffffffffffffffffffffffffffffffffffffff1673ffffffffffffffffffffffffffffffffffffffff16815260200182815260200192505050600060405180830381600087803b15801561584457600080fd5b505af1158015615858573d6000803e3d6000fd5b505050505b5b50505050565b600073ffffffffffffffffffffffffffffffffffffffff168173ffffffffffffffffffffffffffffffffffffffff16141515156158a057600080fd5b8073ffffffffffffffffffffffffffffffffffffffff166000809054906101000a900473ffffffffffffffffffffffffffffffffffffffff1673ffffffffffffffffffffffffffffffffffffffff167f8be0079c531659141344cd1fd0a4f28419497f9722a3daafe3b4186f6b6457e060405160405180910390a3806000806101000a81548173ffffffffffffffffffffffffffffffffffffffff021916908373ffffffffffffffffffffffffffffffffffffffff16021790555050565b60008073ffffffffffffffffffffffffffffffffffffffff168273ffffffffffffffffffffffffffffffffffffffff1614151561599a57600094505b6159e7856159d960646159cb8860ff166159bd8b8a6155d790919063ffffffff16565b6151e390919063ffffffff16565b6159f190919063ffffffff16565b61522190919063ffffffff16565b9050949350505050565b600080600083111515615a0357600080fd5b8284811515615a0e57fe5b0490508091505092915050565b61012060405190810160405280600060ff168152602001600063ffffffff168152602001600063ffffffff16815260200160008152602001600073ffffffffffffffffffffffffffffffffffffffff16815260200160008152602001600081526020016000815260200160001515815250905600a165627a7a72305820426fbf52e14f0f26a2b448e0b35067f649165b2faaf4d7b46174c00974f6275a0029",
  "source": "pragma solidity 0.4.25;\n\n\nimport \"./DecoBaseProjectsMarketplace.sol\";\nimport \"./DecoRelay.sol\";\nimport \"./DecoEscrow.sol\";\nimport \"./DecoProjects.sol\";\nimport \"./IDecoArbitrationTarget.sol\";\n\n\n/// @title Contract for Milesotone events and actions handling.\ncontract DecoMilestones is IDecoArbitrationTarget, DecoBaseProjectsMarketplace {\n\n    address public constant ETH_TOKEN_ADDRESS = address(0x0);\n\n    // struct to describe Milestone\n    struct Milestone {\n        uint8 milestoneNumber;\n\n        // original duration of a milestone.\n        uint32 duration;\n\n        // track all adjustments caused by state changes Active <-> Delivered <-> Rejected\n        // `adjustedDuration` time gets increased by the time that is spent by client\n        // to provide a feedback when agreed milestone time is not exceeded yet.\n        // Initial value is the same as duration.\n        uint32 adjustedDuration;\n\n        uint depositAmount;\n        address tokenAddress;\n\n        uint startedTime;\n        uint deliveredTime;\n        uint acceptedTime;\n\n        // indicates that a milestone progress was paused.\n        bool isOnHold;\n    }\n\n    // enumeration to describe possible milestone states. \n    enum MilestoneState { Active, Delivered, Accepted, Rejected, Terminated, Paused }\n\n    // map agreement id hash to milestones list.\n    mapping (bytes32 => Milestone[]) public projectMilestones;\n\n    // Logged when milestone state changes.\n    event LogMilestoneStateUpdated (\n        bytes32 indexed agreementHash,\n        address indexed sender,\n        uint timestamp,\n        uint8 milestoneNumber,\n        MilestoneState indexed state\n    );\n\n    event LogMilestoneDurationAdjusted (\n        bytes32 indexed agreementHash,\n        address indexed sender,\n        uint32 amountAdded,\n        uint8 milestoneNumber\n    );\n\n    /**\n     * @dev Starts a new milestone for the project and deposit ETH in smart contract`s escrow.\n     * @param _agreementHash A `bytes32` hash of the agreement id.\n     * @param _depositAmount An `uint` of wei that are going to be deposited for a new milestone.\n     * @param _duration An `uint` seconds of a milestone duration.\n     */\n    function startMilestone(\n        bytes32 _agreementHash,\n        uint _depositAmount,\n        address _tokenAddress,\n        uint32 _duration\n    )\n        external\n    {\n        uint8 completedMilestonesCount = uint8(projectMilestones[_agreementHash].length);\n        if (completedMilestonesCount > 0) {\n            Milestone memory lastMilestone = projectMilestones[_agreementHash][completedMilestonesCount - 1];\n            require(lastMilestone.acceptedTime > 0, \"All milestones must be accepted prior starting a new one.\");\n        }\n        DecoProjects projectsContract = DecoProjects(\n            DecoRelay(relayContractAddress).projectsContractAddress()\n        );\n        require(projectsContract.checkIfProjectExists(_agreementHash), \"Project must exist.\");\n        require(\n            projectsContract.getProjectClient(_agreementHash) == msg.sender,\n            \"Only project's client starts a miestone\"\n        );\n        require(\n            projectsContract.getProjectMilestonesCount(_agreementHash) > completedMilestonesCount,\n            \"Milestones count should not exceed the number configured in the project.\"\n        );\n        require(\n            projectsContract.getProjectEndDate(_agreementHash) == 0,\n            \"Project should be active.\"\n        );\n        blockFundsInEscrow(\n            projectsContract.getProjectEscrowAddress(_agreementHash),\n            _depositAmount,\n            _tokenAddress\n        );\n        uint nowTimestamp = now;\n        projectMilestones[_agreementHash].push(\n            Milestone(\n                completedMilestonesCount + 1,\n                _duration,\n                _duration,\n                _depositAmount,\n                _tokenAddress,\n                nowTimestamp,\n                0,\n                0,\n                false\n            )\n        );\n        emit LogMilestoneStateUpdated(\n            _agreementHash,\n            msg.sender,\n            nowTimestamp,\n            completedMilestonesCount + 1,\n            MilestoneState.Active\n        );\n    }\n\n    /**\n     * @dev Maker delivers the current active milestone.\n     * @param _agreementHash Project`s unique hash.\n     */\n    function deliverLastMilestone(bytes32 _agreementHash) external {\n        DecoProjects projectsContract = DecoProjects(\n            DecoRelay(relayContractAddress).projectsContractAddress()\n        );\n        require(projectsContract.checkIfProjectExists(_agreementHash), \"Project must exist.\");\n        require(projectsContract.getProjectEndDate(_agreementHash) == 0, \"Project should be active.\");\n        require(projectsContract.getProjectMaker(_agreementHash) == msg.sender, \"Sender must be a maker.\");\n        uint nowTimestamp = now;\n        uint8 milestonesCount = uint8(projectMilestones[_agreementHash].length);\n        require(milestonesCount > 0, \"There must be milestones to make a delivery.\");\n        Milestone storage milestone = projectMilestones[_agreementHash][milestonesCount - 1];\n        require(\n            milestone.startedTime > 0 && milestone.deliveredTime == 0 && milestone.acceptedTime == 0,\n            \"Milestone must be active, not delivered and not accepted.\"\n        );\n        require(!milestone.isOnHold, \"Milestone must not be paused.\");\n        milestone.deliveredTime = nowTimestamp;\n        emit LogMilestoneStateUpdated(\n            _agreementHash,\n            msg.sender,\n            nowTimestamp,\n            milestonesCount,\n            MilestoneState.Delivered\n        );\n    }\n\n    /**\n     * @dev Project owner accepts the current delivered milestone.\n     * @param _agreementHash Project`s unique hash.\n     */\n    function acceptLastMilestone(bytes32 _agreementHash) external {\n        DecoProjects projectsContract = DecoProjects(\n            DecoRelay(relayContractAddress).projectsContractAddress()\n        );\n        require(projectsContract.checkIfProjectExists(_agreementHash), \"Project must exist.\");\n        require(projectsContract.getProjectEndDate(_agreementHash) == 0, \"Project should be active.\");\n        require(projectsContract.getProjectClient(_agreementHash) == msg.sender, \"Sender must be a client.\");\n        uint8 milestonesCount = uint8(projectMilestones[_agreementHash].length);\n        require(milestonesCount > 0, \"There must be milestones to accept a delivery.\");\n        Milestone storage milestone = projectMilestones[_agreementHash][milestonesCount - 1];\n        require(\n            milestone.startedTime > 0 &&\n            milestone.acceptedTime == 0 &&\n            milestone.deliveredTime > 0 &&\n            milestone.isOnHold == false,\n            \"Milestone should be active and delivered, but not rejected, or already accepted, or put on hold.\"\n        );\n        uint nowTimestamp = now;\n        milestone.acceptedTime = nowTimestamp;\n        if (projectsContract.getProjectMilestonesCount(_agreementHash) == milestonesCount) {\n            projectsContract.completeProject(_agreementHash);\n        }\n        distributeFundsInEscrow(\n            projectsContract.getProjectEscrowAddress(_agreementHash),\n            projectsContract.getProjectMaker(_agreementHash),\n            milestone.depositAmount,\n            milestone.tokenAddress\n        );\n        emit LogMilestoneStateUpdated(\n            _agreementHash,\n            msg.sender,\n            nowTimestamp,\n            milestonesCount,\n            MilestoneState.Accepted\n        );\n    }\n\n    /**\n     * @dev Project owner rejects the current active milestone.\n     * @param _agreementHash Project`s unique hash.\n     */\n    function rejectLastDeliverable(bytes32 _agreementHash) external {\n        DecoProjects projectsContract = DecoProjects(\n            DecoRelay(relayContractAddress).projectsContractAddress()\n        );\n        require(projectsContract.checkIfProjectExists(_agreementHash), \"Project must exist.\");\n        require(projectsContract.getProjectEndDate(_agreementHash) == 0, \"Project should be active.\");\n        require(projectsContract.getProjectClient(_agreementHash) == msg.sender, \"Sender must be a client.\");\n        uint8 milestonesCount = uint8(projectMilestones[_agreementHash].length);\n        require(milestonesCount > 0, \"There must be milestones to reject a delivery.\");\n        Milestone storage milestone = projectMilestones[_agreementHash][milestonesCount - 1];\n        require(\n            milestone.startedTime > 0 &&\n            milestone.acceptedTime == 0 &&\n            milestone.deliveredTime > 0 &&\n            milestone.isOnHold == false,\n            \"Milestone should be active and delivered, but not rejected, or already accepted, or on hold.\"\n        );\n        uint nowTimestamp = now;\n        if (milestone.startedTime.add(milestone.adjustedDuration) > milestone.deliveredTime) {\n            uint32 timeToAdd = uint32(nowTimestamp.sub(milestone.deliveredTime));\n            milestone.adjustedDuration += timeToAdd;\n            emit LogMilestoneDurationAdjusted (\n                _agreementHash,\n                msg.sender,\n                timeToAdd,\n                milestonesCount\n            );\n        }\n        milestone.deliveredTime = 0;\n        emit LogMilestoneStateUpdated(\n            _agreementHash,\n            msg.sender,\n            nowTimestamp,\n            milestonesCount,\n            MilestoneState.Rejected\n        );\n    }\n\n    /**\n     * @dev Prepare arbitration target for a started dispute.\n     * @param _idHash A `bytes32` hash of id.\n     */\n    function disputeStartedFreeze(bytes32 _idHash) public {\n        address projectsContractAddress = DecoRelay(relayContractAddress).projectsContractAddress();\n        DecoProjects projectsContract = DecoProjects(projectsContractAddress);\n        require(\n            projectsContract.getProjectArbiter(_idHash) == msg.sender,\n            \"Freezing upon dispute start can be sent only by arbiter.\"\n        );\n        uint milestonesCount = projectMilestones[_idHash].length;\n        require(milestonesCount > 0, \"There must be active milestone.\");\n        Milestone storage lastMilestone = projectMilestones[_idHash][milestonesCount - 1];\n        lastMilestone.isOnHold = true;\n        emit LogMilestoneStateUpdated(\n            _idHash,\n            msg.sender,\n            now,\n            uint8(milestonesCount),\n            MilestoneState.Paused\n        );\n    }\n\n    /**\n     * @dev React to an active dispute settlement with given parameters.\n     * @param _idHash A `bytes32` hash of id.\n     * @param _respondent An `address` of a respondent.\n     * @param _respondentShare An `uint8` share for the respondent.\n     * @param _initiator An `address` of a dispute initiator.\n     * @param _initiatorShare An `uint8` share for the initiator.\n     * @param _isInternal A `bool` indicating if dispute was settled by participants without an arbiter.\n     * @param _arbiterWithdrawalAddress An `address` for sending out arbiter compensation.\n     */\n    function disputeSettledTerminate(\n        bytes32 _idHash,\n        address _respondent,\n        uint8 _respondentShare,\n        address _initiator,\n        uint8 _initiatorShare,\n        bool _isInternal,\n        address _arbiterWithdrawalAddress\n    )\n        public\n    {\n        uint milestonesCount = projectMilestones[_idHash].length;\n        require(milestonesCount > 0, \"There must be at least one milestone.\");\n        Milestone memory lastMilestone = projectMilestones[_idHash][milestonesCount - 1];\n        require(lastMilestone.isOnHold, \"Last milestone must be on hold.\");\n        require(uint(_respondentShare).add(uint(_initiatorShare)) == 100, \"Shares must be 100% in sum.\");\n        DecoProjects projectsContract = DecoProjects(\n            DecoRelay(relayContractAddress).projectsContractAddress()\n        );\n        (\n            uint fixedFee,\n            uint8 shareFee,\n            address escrowAddress\n        ) = projectsContract.getInfoForDisputeAndValidate (\n            _idHash,\n            _respondent,\n            _initiator,\n            msg.sender\n        );\n        distributeDisputeFunds(\n            escrowAddress, \n            lastMilestone.tokenAddress,\n            _respondent,\n            _initiator,\n            _initiatorShare,\n            _isInternal,\n            _arbiterWithdrawalAddress,\n            lastMilestone.depositAmount,\n            fixedFee,\n            shareFee\n        );\n        projectsContract.terminateProject(_idHash);\n        emit LogMilestoneStateUpdated(\n            _idHash,\n            msg.sender,\n            now,\n            uint8(milestonesCount),\n            MilestoneState.Terminated\n        );\n    }\n\n    /**\n     * @dev Check eligibility of a given address to perform operations,\n     *      basically the address should be either client or maker.\n     * @param _idHash A `bytes32` hash of id.\n     * @param _addressToCheck An `address` to check.\n     * @return A `bool` check status.\n     */\n    function checkEligibility(bytes32 _idHash, address _addressToCheck) public view returns(bool) {\n        address projectsContractAddress = DecoRelay(relayContractAddress).projectsContractAddress();\n        DecoProjects projectsContract = DecoProjects(projectsContractAddress);\n        return _addressToCheck == projectsContract.getProjectClient(_idHash) ||\n            _addressToCheck == projectsContract.getProjectMaker(_idHash);\n    }\n\n    /**\n     * @dev Check if target is ready for a dispute.\n     * @param _idHash A `bytes32` hash of id.\n     * @return A `bool` check status.\n     */\n    function canStartDispute(bytes32 _idHash) public view returns(bool) {\n        uint milestonesCount = projectMilestones[_idHash].length;\n        if (milestonesCount == 0)\n            return false;\n        Milestone memory lastMilestone = projectMilestones[_idHash][milestonesCount - 1];\n        if (lastMilestone.isOnHold || lastMilestone.acceptedTime > 0)\n            return false;\n        address projectsContractAddress = DecoRelay(relayContractAddress).projectsContractAddress();\n        DecoProjects projectsContract = DecoProjects(projectsContractAddress);\n        uint feedbackWindow = uint(projectsContract.getProjectFeedbackWindow(_idHash)).mul(24 hours);\n        uint nowTimestamp = now;\n        uint plannedDeliveryTime = lastMilestone.startedTime.add(uint(lastMilestone.adjustedDuration));\n        if (plannedDeliveryTime < lastMilestone.deliveredTime || plannedDeliveryTime < nowTimestamp) {\n            return false;\n        }\n        if (lastMilestone.deliveredTime > 0 &&\n            lastMilestone.deliveredTime.add(feedbackWindow) < nowTimestamp)\n            return false;\n        return true;\n    }\n\n    /**\n     * @dev Either project owner or maker can terminate the project in certain cases \n     *      and the current active milestone must be marked as terminated for records-keeping.\n     *      All blocked funds should be distributed in favor of eligible project party.\n     *      The termination with this method initiated only by project contract.\n     * @param _agreementHash Project`s unique hash.\n     * @param _initiator An `address` of the termination initiator.\n     */\n    function terminateLastMilestone(bytes32 _agreementHash, address _initiator) public {\n        address projectsContractAddress = DecoRelay(relayContractAddress).projectsContractAddress();\n        require(msg.sender == projectsContractAddress, \"Method should be called by Project contract.\");\n        DecoProjects projectsContract = DecoProjects(projectsContractAddress);\n        require(projectsContract.checkIfProjectExists(_agreementHash), \"Project must exist.\");\n        address projectClient = projectsContract.getProjectClient(_agreementHash);\n        address projectMaker = projectsContract.getProjectMaker(_agreementHash);\n        require(\n            _initiator == projectClient ||\n            _initiator == projectMaker,\n            \"Initiator should be either maker or client address.\"\n        );\n        if (_initiator == projectClient) {\n            require(canClientTerminate(_agreementHash));\n        } else {\n            require(canMakerTerminate(_agreementHash));\n        }\n        uint milestonesCount = projectMilestones[_agreementHash].length;\n        if (milestonesCount == 0) return;\n        Milestone memory lastMilestone = projectMilestones[_agreementHash][milestonesCount - 1];\n        if (lastMilestone.acceptedTime > 0) return;\n        address projectEscrowContractAddress = projectsContract.getProjectEscrowAddress(_agreementHash);\n        if (_initiator == projectClient) {\n            unblockFundsInEscrow(\n                projectEscrowContractAddress,\n                lastMilestone.depositAmount,\n                lastMilestone.tokenAddress\n            );\n        } else {\n            distributeFundsInEscrow(\n                projectEscrowContractAddress,\n                _initiator,\n                lastMilestone.depositAmount,\n                lastMilestone.tokenAddress\n            );\n        }\n        emit LogMilestoneStateUpdated(\n            _agreementHash,\n            msg.sender,\n            now,\n            uint8(milestonesCount),\n            MilestoneState.Terminated\n        );\n    }\n\n    /**\n     * @dev Returns the last project milestone completion status and number.\n     * @param _agreementHash Project's unique hash.\n     * @return isAccepted A boolean flag for acceptance state, and milestoneNumber for the last milestone.\n     */\n    function isLastMilestoneAccepted(\n        bytes32 _agreementHash\n    )\n        public\n        view\n        returns(bool isAccepted, uint8 milestoneNumber)\n    {\n        milestoneNumber = uint8(projectMilestones[_agreementHash].length);\n        if (milestoneNumber > 0) {\n            isAccepted = projectMilestones[_agreementHash][milestoneNumber - 1].acceptedTime > 0;\n        } else {\n            isAccepted = false;\n        }\n    }\n\n    /**\n     * @dev Client can terminate milestone if the last milestone delivery is overdue and\n     *      milestone is not on hold. By default termination is not available.\n     * @param _agreementHash Project`s unique hash.\n     * @return `true` if the last project's milestone could be terminated by client.\n     */\n    function canClientTerminate(bytes32 _agreementHash) public view returns(bool) {\n        uint milestonesCount = projectMilestones[_agreementHash].length;\n        if (milestonesCount == 0) return false;\n        Milestone memory lastMilestone = projectMilestones[_agreementHash][milestonesCount - 1];\n        return lastMilestone.acceptedTime == 0 &&\n            !lastMilestone.isOnHold &&\n            lastMilestone.startedTime.add(uint(lastMilestone.adjustedDuration)) < now;\n    }\n\n    /**\n     * @dev Maker can terminate milestone if delivery review is taking longer than project feedback window and\n     *      milestone is not on hold, or if client doesn't start the next milestone for a period longer than\n     *      project's milestone start window. By default termination is not available.\n     * @param _agreementHash Project`s unique hash.\n     * @return `true` if the last project's milestone could be terminated by maker.\n     */\n    function canMakerTerminate(bytes32 _agreementHash) public view returns(bool) {\n        address projectsContractAddress = DecoRelay(relayContractAddress).projectsContractAddress();\n        DecoProjects projectsContract = DecoProjects(projectsContractAddress);\n        uint feedbackWindow = uint(projectsContract.getProjectFeedbackWindow(_agreementHash)).mul(24 hours);\n        uint milestoneStartWindow = uint(projectsContract.getProjectMilestoneStartWindow(\n            _agreementHash\n        )).mul(24 hours);\n        uint projectStartDate = projectsContract.getProjectStartDate(_agreementHash);\n        uint milestonesCount = projectMilestones[_agreementHash].length;\n        if (milestonesCount == 0) return now.sub(projectStartDate) > milestoneStartWindow;\n        Milestone memory lastMilestone = projectMilestones[_agreementHash][milestonesCount - 1];\n        uint nowTimestamp = now;\n        if (!lastMilestone.isOnHold &&\n            lastMilestone.acceptedTime > 0 &&\n            nowTimestamp.sub(lastMilestone.acceptedTime) > milestoneStartWindow)\n            return true;\n        return !lastMilestone.isOnHold &&\n            lastMilestone.acceptedTime == 0 &&\n            lastMilestone.deliveredTime > 0 &&\n            nowTimestamp.sub(feedbackWindow) > lastMilestone.deliveredTime;\n    }\n\n    /*\n     * @dev Block funds in escrow from balance to the blocked balance.\n     * @param _projectEscrowContractAddress An `address` of project`s escrow.\n     * @param _amount An `uint` amount to distribute.\n     * @param _tokenAddress An `address` of a token.\n     */\n    function blockFundsInEscrow(\n        address _projectEscrowContractAddress,\n        uint _amount,\n        address _tokenAddress\n    )\n        internal\n    {\n        if (_amount == 0) return;\n        DecoEscrow escrow = DecoEscrow(_projectEscrowContractAddress);\n        if (_tokenAddress == ETH_TOKEN_ADDRESS) {\n            escrow.blockFunds(_amount);\n        } else {\n            escrow.blockTokenFunds(_tokenAddress, _amount);\n        }\n    }\n\n    /*\n     * @dev Unblock funds in escrow from blocked balance to the balance.\n     * @param _projectEscrowContractAddress An `address` of project`s escrow.\n     * @param _amount An `uint` amount to distribute.\n     * @param _tokenAddress An `address` of a token.\n     */\n    function unblockFundsInEscrow(\n        address _projectEscrowContractAddress,\n        uint _amount,\n        address _tokenAddress\n    )\n        internal\n    {\n        if (_amount == 0) return;\n        DecoEscrow escrow = DecoEscrow(_projectEscrowContractAddress);\n        if (_tokenAddress == ETH_TOKEN_ADDRESS) {\n            escrow.unblockFunds(_amount);\n        } else {\n            escrow.unblockTokenFunds(_tokenAddress, _amount);\n        }\n    }\n\n    /**\n     * @dev Distribute funds in escrow from blocked balance to the target address.\n     * @param _projectEscrowContractAddress An `address` of project`s escrow.\n     * @param _distributionTargetAddress Target `address`.\n     * @param _amount An `uint` amount to distribute.\n     * @param _tokenAddress An `address` of a token.\n     */\n    function distributeFundsInEscrow(\n        address _projectEscrowContractAddress,\n        address _distributionTargetAddress,\n        uint _amount,\n        address _tokenAddress\n    )\n        internal\n    {\n        if (_amount == 0) return;\n        DecoEscrow escrow = DecoEscrow(_projectEscrowContractAddress);\n        if (_tokenAddress == ETH_TOKEN_ADDRESS) {\n            escrow.distributeFunds(_distributionTargetAddress, _amount);\n        } else {\n            escrow.distributeTokenFunds(_distributionTargetAddress, _tokenAddress, _amount);\n        }\n    }\n\n    /**\n     * @dev Distribute project funds between arbiter and project parties.\n     * @param _projectEscrowContractAddress An `address` of project`s escrow.\n     * @param _tokenAddress An `address` of a token.\n     * @param _respondent An `address` of a respondent.\n     * @param _initiator An `address` of an initiator.\n     * @param _initiatorShare An `uint8` iniator`s share.\n     * @param _isInternal A `bool` indicating if dispute was settled solely by project parties.\n     * @param _arbiterWithdrawalAddress A withdrawal `address` of an arbiter.\n     * @param _amount An `uint` amount for distributing between project parties and arbiter.\n     * @param _fixedFee An `uint` fixed fee of an arbiter.\n     * @param _shareFee An `uint8` share fee of an arbiter.\n     */\n    function distributeDisputeFunds(\n        address _projectEscrowContractAddress,\n        address _tokenAddress,\n        address _respondent,\n        address _initiator,\n        uint8 _initiatorShare,\n        bool _isInternal,\n        address _arbiterWithdrawalAddress,\n        uint _amount,\n        uint _fixedFee,\n        uint8 _shareFee\n    )\n        internal\n    {\n        if (!_isInternal && _arbiterWithdrawalAddress != address(0x0)) {\n            uint arbiterFee = getArbiterFeeAmount(_fixedFee, _shareFee, _amount, _tokenAddress);\n            distributeFundsInEscrow(\n                _projectEscrowContractAddress,\n                _arbiterWithdrawalAddress,\n                arbiterFee,\n                _tokenAddress\n            );\n            _amount = _amount.sub(arbiterFee);\n        }\n        uint initiatorAmount = _amount.mul(_initiatorShare).div(100);\n        distributeFundsInEscrow(\n            _projectEscrowContractAddress,\n            _initiator,\n            initiatorAmount,\n            _tokenAddress\n        );\n        distributeFundsInEscrow(\n            _projectEscrowContractAddress,\n            _respondent,\n            _amount.sub(initiatorAmount),\n            _tokenAddress\n        );\n    }\n\n    /**\n     * @dev Calculates arbiter`s fee.\n     * @param _fixedFee An `uint` fixed fee of an arbiter.\n     * @param _shareFee An `uint8` share fee of an arbiter.\n     * @param _amount An `uint` amount for distributing between project parties and arbiter.\n     * @param _tokenAddress An `address` of a token.\n     * @return An `uint` amount allotted to the arbiter.\n     */\n    function getArbiterFeeAmount(uint _fixedFee, uint8 _shareFee, uint _amount, address _tokenAddress) \n        internal\n        pure\n        returns(uint)\n    {\n        if (_tokenAddress != ETH_TOKEN_ADDRESS) {\n            _fixedFee = 0;\n        }\n        return _amount.sub(_fixedFee).mul(uint(_shareFee)).div(100).add(_fixedFee);\n    }\n}\n",
  "sourcePath": "/Users/chris/Documents/WorkStuff/Deconet/Blockchain/DeconetProjectsMarketContracts/contracts/DecoMilestones.sol",
  "compiler": {
    "name": "solc",
    "version": "0.4.25+commit.59dbf8f1.Emscripten.clang"
  },
  "schemaVersion": "3.0.0",
  "updatedAt": "2019-02-27T21:10:54.731Z",
  "devdoc": {
    "methods": {
      "acceptLastMilestone(bytes32)": {
        "details": "Project owner accepts the current delivered milestone.",
        "params": {
          "_agreementHash": "Project`s unique hash."
        }
      },
      "canClientTerminate(bytes32)": {
        "details": "Client can terminate milestone if the last milestone delivery is overdue and     milestone is not on hold. By default termination is not available.",
        "params": {
          "_agreementHash": "Project`s unique hash."
        },
        "return": "`true` if the last project's milestone could be terminated by client."
      },
      "canMakerTerminate(bytes32)": {
        "details": "Maker can terminate milestone if delivery review is taking longer than project feedback window and     milestone is not on hold, or if client doesn't start the next milestone for a period longer than     project's milestone start window. By default termination is not available.",
        "params": {
          "_agreementHash": "Project`s unique hash."
        },
        "return": "`true` if the last project's milestone could be terminated by maker."
      },
      "canStartDispute(bytes32)": {
        "details": "Check if target is ready for a dispute.",
        "params": {
          "_idHash": "A `bytes32` hash of id."
        },
        "return": "A `bool` check status."
      },
      "checkEligibility(bytes32,address)": {
        "details": "Check eligibility of a given address to perform operations,     basically the address should be either client or maker.",
        "params": {
          "_addressToCheck": "An `address` to check.",
          "_idHash": "A `bytes32` hash of id."
        },
        "return": "A `bool` check status."
      },
      "deliverLastMilestone(bytes32)": {
        "details": "Maker delivers the current active milestone.",
        "params": {
          "_agreementHash": "Project`s unique hash."
        }
      },
      "disputeSettledTerminate(bytes32,address,uint8,address,uint8,bool,address)": {
        "details": "React to an active dispute settlement with given parameters.",
        "params": {
          "_arbiterWithdrawalAddress": "An `address` for sending out arbiter compensation.",
          "_idHash": "A `bytes32` hash of id.",
          "_initiator": "An `address` of a dispute initiator.",
          "_initiatorShare": "An `uint8` share for the initiator.",
          "_isInternal": "A `bool` indicating if dispute was settled by participants without an arbiter.",
          "_respondent": "An `address` of a respondent.",
          "_respondentShare": "An `uint8` share for the respondent."
        }
      },
      "disputeStartedFreeze(bytes32)": {
        "details": "Prepare arbitration target for a started dispute.",
        "params": {
          "_idHash": "A `bytes32` hash of id."
        }
      },
      "isLastMilestoneAccepted(bytes32)": {
        "details": "Returns the last project milestone completion status and number.",
        "params": {
          "_agreementHash": "Project's unique hash."
        },
        "return": "isAccepted A boolean flag for acceptance state, and milestoneNumber for the last milestone."
      },
      "isOwner()": {
        "return": "true if `msg.sender` is the owner of the contract."
      },
      "owner()": {
        "return": "the address of the owner."
      },
      "rejectLastDeliverable(bytes32)": {
        "details": "Project owner rejects the current active milestone.",
        "params": {
          "_agreementHash": "Project`s unique hash."
        }
      },
      "renounceOwnership()": {
        "details": "Allows the current owner to relinquish control of the contract."
      },
      "setRelayContractAddress(address)": {
        "details": "Set the new address of the `DecoRelay` contract.",
        "params": {
          "_newAddress": "An address of the new contract."
        }
      },
      "startMilestone(bytes32,uint256,address,uint32)": {
        "details": "Starts a new milestone for the project and deposit ETH in smart contract`s escrow.",
        "params": {
          "_agreementHash": "A `bytes32` hash of the agreement id.",
          "_depositAmount": "An `uint` of wei that are going to be deposited for a new milestone.",
          "_duration": "An `uint` seconds of a milestone duration."
        }
      },
      "terminateLastMilestone(bytes32,address)": {
        "details": "Either project owner or maker can terminate the project in certain cases      and the current active milestone must be marked as terminated for records-keeping.     All blocked funds should be distributed in favor of eligible project party.     The termination with this method initiated only by project contract.",
        "params": {
          "_agreementHash": "Project`s unique hash.",
          "_initiator": "An `address` of the termination initiator."
        }
      },
      "transferAnyERC20Token(address,uint256)": {
        "details": "Allows to trasnfer any ERC20 tokens from the contract balance to owner's address.",
        "params": {
          "_tokenAddress": "An `address` of an ERC20 token.",
          "_tokens": "An `uint` tokens amount."
        },
        "return": "A `bool` operation result state."
      },
      "transferOwnership(address)": {
        "details": "Allows the current owner to transfer control of the contract to a newOwner.",
        "params": {
          "newOwner": "The address to transfer ownership to."
        }
      }
    },
    "title": "Contract for Milesotone events and actions handling."
  },
  "userdoc": {
    "methods": {
      "renounceOwnership()": {
        "notice": "Renouncing to ownership will leave the contract without an owner. It will not be possible to call the functions with the `onlyOwner` modifier anymore."
      }
    }
  }
}