{
  "contractName": "DecoArbitration",
  "abi": [
    {
      "constant": true,
      "inputs": [
        {
          "name": "",
          "type": "bytes32"
        }
      ],
      "name": "disputes",
      "outputs": [
        {
          "name": "initiator",
          "type": "address"
        },
        {
          "name": "respondent",
          "type": "address"
        },
        {
          "name": "startedTime",
          "type": "uint256"
        },
        {
          "name": "settledTime",
          "type": "uint256"
        },
        {
          "name": "respondentShare",
          "type": "uint8"
        },
        {
          "name": "initiatorShare",
          "type": "uint8"
        }
      ],
      "payable": false,
      "stateMutability": "view",
      "type": "function"
    },
    {
      "constant": false,
      "inputs": [],
      "name": "renounceOwnership",
      "outputs": [],
      "payable": false,
      "stateMutability": "nonpayable",
      "type": "function"
    },
    {
      "constant": true,
      "inputs": [],
      "name": "owner",
      "outputs": [
        {
          "name": "",
          "type": "address"
        }
      ],
      "payable": false,
      "stateMutability": "view",
      "type": "function"
    },
    {
      "constant": true,
      "inputs": [],
      "name": "isOwner",
      "outputs": [
        {
          "name": "",
          "type": "bool"
        }
      ],
      "payable": false,
      "stateMutability": "view",
      "type": "function"
    },
    {
      "constant": true,
      "inputs": [],
      "name": "fixedFee",
      "outputs": [
        {
          "name": "",
          "type": "uint256"
        }
      ],
      "payable": false,
      "stateMutability": "view",
      "type": "function"
    },
    {
      "constant": true,
      "inputs": [],
      "name": "shareFee",
      "outputs": [
        {
          "name": "",
          "type": "uint8"
        }
      ],
      "payable": false,
      "stateMutability": "view",
      "type": "function"
    },
    {
      "constant": true,
      "inputs": [],
      "name": "timeLimitForReplyOnProposal",
      "outputs": [
        {
          "name": "",
          "type": "uint256"
        }
      ],
      "payable": false,
      "stateMutability": "view",
      "type": "function"
    },
    {
      "constant": false,
      "inputs": [
        {
          "name": "_tokenAddress",
          "type": "address"
        },
        {
          "name": "_tokens",
          "type": "uint256"
        }
      ],
      "name": "transferAnyERC20Token",
      "outputs": [
        {
          "name": "success",
          "type": "bool"
        }
      ],
      "payable": false,
      "stateMutability": "nonpayable",
      "type": "function"
    },
    {
      "constant": true,
      "inputs": [],
      "name": "relayContractAddress",
      "outputs": [
        {
          "name": "",
          "type": "address"
        }
      ],
      "payable": false,
      "stateMutability": "view",
      "type": "function"
    },
    {
      "constant": true,
      "inputs": [],
      "name": "withdrawalAddress",
      "outputs": [
        {
          "name": "",
          "type": "address"
        }
      ],
      "payable": false,
      "stateMutability": "view",
      "type": "function"
    },
    {
      "constant": false,
      "inputs": [
        {
          "name": "newOwner",
          "type": "address"
        }
      ],
      "name": "transferOwnership",
      "outputs": [],
      "payable": false,
      "stateMutability": "nonpayable",
      "type": "function"
    },
    {
      "payable": true,
      "stateMutability": "payable",
      "type": "fallback"
    },
    {
      "anonymous": false,
      "inputs": [
        {
          "indexed": true,
          "name": "previousOwner",
          "type": "address"
        },
        {
          "indexed": true,
          "name": "newOwner",
          "type": "address"
        }
      ],
      "name": "OwnershipTransferred",
      "type": "event"
    },
    {
      "anonymous": false,
      "inputs": [
        {
          "indexed": true,
          "name": "sender",
          "type": "address"
        },
        {
          "indexed": true,
          "name": "idHash",
          "type": "bytes32"
        },
        {
          "indexed": false,
          "name": "timestamp",
          "type": "uint256"
        },
        {
          "indexed": false,
          "name": "respondentShareProposal",
          "type": "int256"
        }
      ],
      "name": "LogStartedDispute",
      "type": "event"
    },
    {
      "anonymous": false,
      "inputs": [
        {
          "indexed": true,
          "name": "sender",
          "type": "address"
        },
        {
          "indexed": true,
          "name": "idHash",
          "type": "bytes32"
        },
        {
          "indexed": false,
          "name": "timestamp",
          "type": "uint256"
        },
        {
          "indexed": false,
          "name": "rejectedProposal",
          "type": "uint8"
        }
      ],
      "name": "LogRejectedProposal",
      "type": "event"
    },
    {
      "anonymous": false,
      "inputs": [
        {
          "indexed": true,
          "name": "sender",
          "type": "address"
        },
        {
          "indexed": true,
          "name": "idHash",
          "type": "bytes32"
        },
        {
          "indexed": false,
          "name": "timestamp",
          "type": "uint256"
        },
        {
          "indexed": false,
          "name": "respondentShare",
          "type": "uint8"
        },
        {
          "indexed": false,
          "name": "initiatorShare",
          "type": "uint8"
        }
      ],
      "name": "LogSettledDispute",
      "type": "event"
    },
    {
      "anonymous": false,
      "inputs": [
        {
          "indexed": false,
          "name": "timestamp",
          "type": "uint256"
        },
        {
          "indexed": false,
          "name": "fixedFee",
          "type": "uint256"
        },
        {
          "indexed": false,
          "name": "shareFee",
          "type": "uint8"
        }
      ],
      "name": "LogFeesUpdated",
      "type": "event"
    },
    {
      "anonymous": false,
      "inputs": [
        {
          "indexed": false,
          "name": "timestamp",
          "type": "uint256"
        },
        {
          "indexed": false,
          "name": "proposalActionTimeLimit",
          "type": "uint256"
        }
      ],
      "name": "LogProposalTimeLimitUpdated",
      "type": "event"
    },
    {
      "anonymous": false,
      "inputs": [
        {
          "indexed": false,
          "name": "timestamp",
          "type": "uint256"
        },
        {
          "indexed": false,
          "name": "newWithdrawalAddress",
          "type": "address"
        }
      ],
      "name": "LogWithdrawalAddressChanged",
      "type": "event"
    },
    {
      "constant": false,
      "inputs": [
        {
          "name": "_idHash",
          "type": "bytes32"
        },
        {
          "name": "_respondent",
          "type": "address"
        },
        {
          "name": "_respondentShareProposal",
          "type": "int256"
        }
      ],
      "name": "startDispute",
      "outputs": [],
      "payable": false,
      "stateMutability": "nonpayable",
      "type": "function"
    },
    {
      "constant": false,
      "inputs": [
        {
          "name": "_idHash",
          "type": "bytes32"
        }
      ],
      "name": "acceptProposal",
      "outputs": [],
      "payable": false,
      "stateMutability": "nonpayable",
      "type": "function"
    },
    {
      "constant": false,
      "inputs": [
        {
          "name": "_idHash",
          "type": "bytes32"
        }
      ],
      "name": "rejectProposal",
      "outputs": [],
      "payable": false,
      "stateMutability": "nonpayable",
      "type": "function"
    },
    {
      "constant": false,
      "inputs": [
        {
          "name": "_idHash",
          "type": "bytes32"
        },
        {
          "name": "_respondentShare",
          "type": "uint256"
        },
        {
          "name": "_initiatorShare",
          "type": "uint256"
        }
      ],
      "name": "settleDispute",
      "outputs": [],
      "payable": false,
      "stateMutability": "nonpayable",
      "type": "function"
    },
    {
      "constant": false,
      "inputs": [
        {
          "name": "_newAddress",
          "type": "address"
        }
      ],
      "name": "setWithdrawalAddress",
      "outputs": [],
      "payable": false,
      "stateMutability": "nonpayable",
      "type": "function"
    },
    {
      "constant": false,
      "inputs": [
        {
          "name": "_newAddress",
          "type": "address"
        }
      ],
      "name": "setRelayContractAddress",
      "outputs": [],
      "payable": false,
      "stateMutability": "nonpayable",
      "type": "function"
    },
    {
      "constant": false,
      "inputs": [
        {
          "name": "_newLimit",
          "type": "uint256"
        }
      ],
      "name": "setTimeLimitForReplyOnProposal",
      "outputs": [],
      "payable": false,
      "stateMutability": "nonpayable",
      "type": "function"
    },
    {
      "constant": false,
      "inputs": [
        {
          "name": "_fixedFee",
          "type": "uint256"
        },
        {
          "name": "_shareFee",
          "type": "uint256"
        }
      ],
      "name": "setFees",
      "outputs": [],
      "payable": false,
      "stateMutability": "nonpayable",
      "type": "function"
    },
    {
      "constant": true,
      "inputs": [],
      "name": "getTimeLimitForReplyOnProposal",
      "outputs": [
        {
          "name": "",
          "type": "uint256"
        }
      ],
      "payable": false,
      "stateMutability": "view",
      "type": "function"
    },
    {
      "constant": true,
      "inputs": [],
      "name": "getWithdrawalAddress",
      "outputs": [
        {
          "name": "",
          "type": "address"
        }
      ],
      "payable": false,
      "stateMutability": "view",
      "type": "function"
    },
    {
      "constant": true,
      "inputs": [],
      "name": "getFixedAndShareFees",
      "outputs": [
        {
          "name": "",
          "type": "uint256"
        },
        {
          "name": "",
          "type": "uint8"
        }
      ],
      "payable": false,
      "stateMutability": "view",
      "type": "function"
    },
    {
      "constant": true,
      "inputs": [
        {
          "name": "_idHash",
          "type": "bytes32"
        }
      ],
      "name": "getDisputeProposalShare",
      "outputs": [
        {
          "name": "",
          "type": "uint8"
        }
      ],
      "payable": false,
      "stateMutability": "view",
      "type": "function"
    },
    {
      "constant": true,
      "inputs": [
        {
          "name": "_idHash",
          "type": "bytes32"
        }
      ],
      "name": "getDisputeInitiatorShare",
      "outputs": [
        {
          "name": "",
          "type": "uint8"
        }
      ],
      "payable": false,
      "stateMutability": "view",
      "type": "function"
    },
    {
      "constant": true,
      "inputs": [
        {
          "name": "_idHash",
          "type": "bytes32"
        }
      ],
      "name": "getDisputeInitiator",
      "outputs": [
        {
          "name": "",
          "type": "address"
        }
      ],
      "payable": false,
      "stateMutability": "view",
      "type": "function"
    },
    {
      "constant": true,
      "inputs": [
        {
          "name": "_idHash",
          "type": "bytes32"
        }
      ],
      "name": "getDisputeRespondent",
      "outputs": [
        {
          "name": "",
          "type": "address"
        }
      ],
      "payable": false,
      "stateMutability": "view",
      "type": "function"
    },
    {
      "constant": true,
      "inputs": [
        {
          "name": "_idHash",
          "type": "bytes32"
        }
      ],
      "name": "getDisputeStartedStatus",
      "outputs": [
        {
          "name": "",
          "type": "bool"
        }
      ],
      "payable": false,
      "stateMutability": "view",
      "type": "function"
    },
    {
      "constant": true,
      "inputs": [
        {
          "name": "_idHash",
          "type": "bytes32"
        }
      ],
      "name": "getDisputeStartTime",
      "outputs": [
        {
          "name": "",
          "type": "uint256"
        }
      ],
      "payable": false,
      "stateMutability": "view",
      "type": "function"
    },
    {
      "constant": true,
      "inputs": [
        {
          "name": "_idHash",
          "type": "bytes32"
        }
      ],
      "name": "getDisputeSettledStatus",
      "outputs": [
        {
          "name": "",
          "type": "bool"
        }
      ],
      "payable": false,
      "stateMutability": "view",
      "type": "function"
    },
    {
      "constant": true,
      "inputs": [
        {
          "name": "_idHash",
          "type": "bytes32"
        }
      ],
      "name": "getDisputeSettlementTime",
      "outputs": [
        {
          "name": "",
          "type": "uint256"
        }
      ],
      "payable": false,
      "stateMutability": "view",
      "type": "function"
    }
  ],
  "bytecode": "0x6080604052336000806101000a81548173ffffffffffffffffffffffffffffffffffffffff021916908373ffffffffffffffffffffffffffffffffffffffff1602179055506000809054906101000a900473ffffffffffffffffffffffffffffffffffffffff1673ffffffffffffffffffffffffffffffffffffffff16600073ffffffffffffffffffffffffffffffffffffffff167f8be0079c531659141344cd1fd0a4f28419497f9722a3daafe3b4186f6b6457e060405160405180910390a3612f5d806100cf6000396000f300608060405260043610610180576000357c0100000000000000000000000000000000000000000000000000000000900463ffffffff1680630b78f9c0146101fa57806311ab31ed1461023157806311be19971461026257806321b8092e1461032e5780632d2bcd37146103715780633abbc647146103b45780633ad4e1fa146103f95780633feeabfc14610442578063410366c11461048b57806355ba1216146104d05780635c4397bd1461051b5780636117b80c1461058c578063715018a6146105c457806383c007f1146105db57806389af0d8d146106085780638da5cb5b1461064d5780638f32d59b146106a457806391792d5b146106d35780639d079b18146106fe578063a87ced351461072f578063afa2209c1461078a578063b069bbbb146107fb578063b2fa01d41461082c578063bce5bd3114610877578063dc39d06d146108a2578063dfa93d6414610907578063e86ba2621461095e578063ec8f3fa514610989578063f2bcd022146109e0578063f2fde38b14610a37575b6000341415156101f8576040517f08c379a000000000000000000000000000000000000000000000000000000000815260040180806020018281038252601a8152602001807f426c6f636b696e6720616e7920696e636f6d696e67204554482e00000000000081525060200191505060405180910390fd5b005b34801561020657600080fd5b5061022f6004803603810190808035906020019092919080359060200190929190505050610a7a565b005b34801561023d57600080fd5b506102606004803603810190808035600019169060200190929190505050610bb0565b005b34801561026e57600080fd5b506102916004803603810190808035600019169060200190929190505050610e54565b604051808773ffffffffffffffffffffffffffffffffffffffff1673ffffffffffffffffffffffffffffffffffffffff1681526020018673ffffffffffffffffffffffffffffffffffffffff1673ffffffffffffffffffffffffffffffffffffffff1681526020018581526020018481526020018360ff1660ff1681526020018260ff1660ff168152602001965050505050505060405180910390f35b34801561033a57600080fd5b5061036f600480360381019080803573ffffffffffffffffffffffffffffffffffffffff169060200190929190505050610eea565b005b34801561037d57600080fd5b506103b2600480360381019080803573ffffffffffffffffffffffffffffffffffffffff169060200190929190505050611051565b005b3480156103c057600080fd5b506103e3600480360381019080803560001916906020019092919050505061114d565b6040518082815260200191505060405180910390f35b34801561040557600080fd5b506104286004803603810190808035600019169060200190929190505050611175565b604051808215151515815260200191505060405180910390f35b34801561044e57600080fd5b5061047160048036038101908080356000191690602001909291905050506111a0565b604051808215151515815260200191505060405180910390f35b34801561049757600080fd5b506104ce600480360381019080803560001916906020019092919080359060200190929190803590602001909291905050506111cb565b005b3480156104dc57600080fd5b506104ff60048036038101908080356000191690602001909291905050506118e1565b604051808260ff1660ff16815260200191505060405180910390f35b34801561052757600080fd5b5061054a6004803603810190808035600019169060200190929190505050611916565b604051808273ffffffffffffffffffffffffffffffffffffffff1673ffffffffffffffffffffffffffffffffffffffff16815260200191505060405180910390f35b34801561059857600080fd5b506105a161195e565b604051808381526020018260ff1660ff1681526020019250505060405180910390f35b3480156105d057600080fd5b506105d961197c565b005b3480156105e757600080fd5b5061060660048036038101908080359060200190929190505050611a4e565b005b34801561061457600080fd5b506106376004803603810190808035600019169060200190929190505050611aac565b6040518082815260200191505060405180910390f35b34801561065957600080fd5b50610662611ad4565b604051808273ffffffffffffffffffffffffffffffffffffffff1673ffffffffffffffffffffffffffffffffffffffff16815260200191505060405180910390f35b3480156106b057600080fd5b506106b9611afd565b604051808215151515815260200191505060405180910390f35b3480156106df57600080fd5b506106e8611b54565b6040518082815260200191505060405180910390f35b34801561070a57600080fd5b5061072d6004803603810190808035600019169060200190929190505050611b5a565b005b34801561073b57600080fd5b506107886004803603810190808035600019169060200190929190803573ffffffffffffffffffffffffffffffffffffffff16906020019092919080359060200190929190505050611e51565b005b34801561079657600080fd5b506107b9600480360381019080803560001916906020019092919050505061276e565b604051808273ffffffffffffffffffffffffffffffffffffffff1673ffffffffffffffffffffffffffffffffffffffff16815260200191505060405180910390f35b34801561080757600080fd5b506108106127b6565b604051808260ff1660ff16815260200191505060405180910390f35b34801561083857600080fd5b5061085b60048036038101908080356000191690602001909291905050506127c9565b604051808260ff1660ff16815260200191505060405180910390f35b34801561088357600080fd5b5061088c6127fe565b6040518082815260200191505060405180910390f35b3480156108ae57600080fd5b506108ed600480360381019080803573ffffffffffffffffffffffffffffffffffffffff16906020019092919080359060200190929190505050612804565b604051808215151515815260200191505060405180910390f35b34801561091357600080fd5b5061091c61290b565b604051808273ffffffffffffffffffffffffffffffffffffffff1673ffffffffffffffffffffffffffffffffffffffff16815260200191505060405180910390f35b34801561096a57600080fd5b50610973612931565b6040518082815260200191505060405180910390f35b34801561099557600080fd5b5061099e61293b565b604051808273ffffffffffffffffffffffffffffffffffffffff1673ffffffffffffffffffffffffffffffffffffffff16815260200191505060405180910390f35b3480156109ec57600080fd5b506109f5612965565b604051808273ffffffffffffffffffffffffffffffffffffffff1673ffffffffffffffffffffffffffffffffffffffff16815260200191505060405180910390f35b348015610a4357600080fd5b50610a78600480360381019080803573ffffffffffffffffffffffffffffffffffffffff16906020019092919050505061298b565b005b610a82611afd565b1515610a8d57600080fd5b8160038190555060648111151515610b33576040517f08c379a00000000000000000000000000000000000000000000000000000000081526004018080602001828103825260248152602001807f5368617265206665652073686f756c6420626520696e20302d3130302520726181526020017f6e67652e0000000000000000000000000000000000000000000000000000000081525060400191505060405180910390fd5b80600460006101000a81548160ff021916908360ff1602179055507fdea29517eb8324feecfa3c890176a2b7f9f8223292f80244b108fa6a26e63f5e42600354600460009054906101000a900460ff16604051808481526020018381526020018260ff1660ff168152602001935050505060405180910390a15050565b600080600060066000856000191660001916815260200190815260200160002092508260010160009054906101000a900473ffffffffffffffffffffffffffffffffffffffff1673ffffffffffffffffffffffffffffffffffffffff163373ffffffffffffffffffffffffffffffffffffffff16141515610cbf576040517f08c379a000000000000000000000000000000000000000000000000000000000815260040180806020018281038252602e8152602001807f50726f706f73616c2063616e2062652072656a6563746564206f6e6c7920627981526020017f206120726573706f6e64656e742e00000000000000000000000000000000000081525060400191505060405180910390fd5b42915081610cdc60055485600201546129aa90919063ffffffff16565b111515610d9d576040517f08c379a000000000000000000000000000000000000000000000000000000000815260040180806020018281038252605c8152602001807f526573706f6e64656e742073686f756c642072656a6563742077697468696e2081526020017f61206c696d697465642074696d656672616d652061667465722074686520646981526020017f737075746520776974682070726f706f73616c20737461727465642e0000000081525060600191505060405180910390fd5b8260040160009054906101000a900460ff16905060008360040160006101000a81548160ff021916908360ff16021790555060008360040160016101000a81548160ff021916908360ff16021790555083600019163373ffffffffffffffffffffffffffffffffffffffff167f3301342223d33a41ec1d4a09e1c044c9bd4941c9aa5de525154e998bec7dce498484604051808381526020018260ff1660ff1681526020019250505060405180910390a350505050565b60066020528060005260406000206000915090508060000160009054906101000a900473ffffffffffffffffffffffffffffffffffffffff16908060010160009054906101000a900473ffffffffffffffffffffffffffffffffffffffff16908060020154908060030154908060040160009054906101000a900460ff16908060040160019054906101000a900460ff16905086565b610ef2611afd565b1515610efd57600080fd5b600073ffffffffffffffffffffffffffffffffffffffff168173ffffffffffffffffffffffffffffffffffffffff1614151515610fa2576040517f08c379a00000000000000000000000000000000000000000000000000000000081526004018080602001828103825260188152602001807f53686f756c64206265206e6f74203020616464726573732e000000000000000081525060200191505060405180910390fd5b80600260006101000a81548173ffffffffffffffffffffffffffffffffffffffff021916908373ffffffffffffffffffffffffffffffffffffffff1602179055507f4e8178117134ed7664c57b04a96175b1314dfc38ecc05dddbd8dc8ec130af5aa4282604051808381526020018273ffffffffffffffffffffffffffffffffffffffff1673ffffffffffffffffffffffffffffffffffffffff1681526020019250505060405180910390a150565b611059611afd565b151561106457600080fd5b600073ffffffffffffffffffffffffffffffffffffffff168173ffffffffffffffffffffffffffffffffffffffff1614151515611109576040517f08c379a00000000000000000000000000000000000000000000000000000000081526004018080602001828103825260188152602001807f53686f756c64206265206e6f74203020616464726573732e000000000000000081525060200191505060405180910390fd5b80600160006101000a81548173ffffffffffffffffffffffffffffffffffffffff021916908373ffffffffffffffffffffffffffffffffffffffff16021790555050565b6000600660008360001916600019168152602001908152602001600020600201549050919050565b6000806006600084600019166000191681526020019081526020016000206003015414159050919050565b6000806006600084600019166000191681526020019081526020016000206002015414159050919050565b60008060003073ffffffffffffffffffffffffffffffffffffffff163373ffffffffffffffffffffffffffffffffffffffff16148061120e575061120d611afd565b5b15156112ce576040517f08c379a000000000000000000000000000000000000000000000000000000000815260040180806020018281038252604c8152602001807f536574746c652064697370757465206d75737420626520706572666f6d65642081526020017f6279207468697320636f6e7472616374206f72206172626974657228636f6e7481526020017f72616374206f776e6572292e000000000000000000000000000000000000000081525060600191505060405180910390fd5b60066000876000191660001916815260200190815260200160002092506000836002015414151515611368576040517f08c379a00000000000000000000000000000000000000000000000000000000081526004018080602001828103825260138152602001807f44697370757465206d7573742065786973742e0000000000000000000000000081525060200191505060405180910390fd5b600083600301541415156113e4576040517f08c379a00000000000000000000000000000000000000000000000000000000081526004018080602001828103825260178152602001807f44697370757465206d757374206265206163746976652e00000000000000000081525060200191505060405180910390fd5b4291506113f0866129cb565b806114025750611401868686612b58565b5b15156114e8576040517f08c379a00000000000000000000000000000000000000000000000000000000081526004018080602001828103825260618152602001807f53686f756c642062652063616c6c6564206279207468697320636f6e7472616381526020017f7428616b612061636365707465642070726f706f73616c29206f6e2074696d6581526020017f2c206f722061726269746572206f7574736964652074696d65206c696d69747381526020017f2e0000000000000000000000000000000000000000000000000000000000000081525060800191505060405180910390fd5b60646114fd85876129aa90919063ffffffff16565b141515611572576040517f08c379a00000000000000000000000000000000000000000000000000000000081526004018080602001828103825260108152602001807f53756d206d75737420626520313030250000000000000000000000000000000081525060200191505060405180910390fd5b848360040160006101000a81548160ff021916908360ff160217905550838360040160016101000a81548160ff021916908360ff1602179055508183600301819055506115bd612d06565b90508073ffffffffffffffffffffffffffffffffffffffff1663d727d64b878560010160009054906101000a900473ffffffffffffffffffffffffffffffffffffffff168660040160009054906101000a900460ff168760000160009054906101000a900473ffffffffffffffffffffffffffffffffffffffff168860040160019054906101000a900460ff163073ffffffffffffffffffffffffffffffffffffffff163373ffffffffffffffffffffffffffffffffffffffff16143073ffffffffffffffffffffffffffffffffffffffff1663ec8f3fa56040518163ffffffff167c0100000000000000000000000000000000000000000000000000000000028152600401602060405180830381600087803b1580156116dd57600080fd5b505af11580156116f1573d6000803e3d6000fd5b505050506040513d602081101561170757600080fd5b81019080805190602001909291905050506040518863ffffffff167c01000000000000000000000000000000000000000000000000000000000281526004018088600019166000191681526020018773ffffffffffffffffffffffffffffffffffffffff1673ffffffffffffffffffffffffffffffffffffffff1681526020018660ff1660ff1681526020018573ffffffffffffffffffffffffffffffffffffffff1673ffffffffffffffffffffffffffffffffffffffff1681526020018460ff1660ff168152602001831515151581526020018273ffffffffffffffffffffffffffffffffffffffff1673ffffffffffffffffffffffffffffffffffffffff168152602001975050505050505050600060405180830381600087803b15801561183057600080fd5b505af1158015611844573d6000803e3d6000fd5b5050505085600019163373ffffffffffffffffffffffffffffffffffffffff167f7b186abf9c0d103f01aacda12c1f7a22e5b5199a8013934ff3eeb9b845591ce6848660040160009054906101000a900460ff168760040160019054906101000a900460ff16604051808481526020018360ff1660ff1681526020018260ff1660ff168152602001935050505060405180910390a3505050505050565b600060066000836000191660001916815260200190815260200160002060040160019054906101000a900460ff169050919050565b600060066000836000191660001916815260200190815260200160002060000160009054906101000a900473ffffffffffffffffffffffffffffffffffffffff169050919050565b600080600354600460009054906101000a900460ff16915091509091565b611984611afd565b151561198f57600080fd5b600073ffffffffffffffffffffffffffffffffffffffff166000809054906101000a900473ffffffffffffffffffffffffffffffffffffffff1673ffffffffffffffffffffffffffffffffffffffff167f8be0079c531659141344cd1fd0a4f28419497f9722a3daafe3b4186f6b6457e060405160405180910390a360008060006101000a81548173ffffffffffffffffffffffffffffffffffffffff021916908373ffffffffffffffffffffffffffffffffffffffff160217905550565b611a56611afd565b1515611a6157600080fd5b806005819055507f028ab5fadc0d7e3d6e7966e362c8660f613045f6f593717763e67a3ec6f7f88842600554604051808381526020018281526020019250505060405180910390a150565b6000600660008360001916600019168152602001908152602001600020600301549050919050565b60008060009054906101000a900473ffffffffffffffffffffffffffffffffffffffff16905090565b60008060009054906101000a900473ffffffffffffffffffffffffffffffffffffffff1673ffffffffffffffffffffffffffffffffffffffff163373ffffffffffffffffffffffffffffffffffffffff1614905090565b60035481565b611b62612ec8565b60066000836000191660001916815260200190815260200160002060c060405190810160405290816000820160009054906101000a900473ffffffffffffffffffffffffffffffffffffffff1673ffffffffffffffffffffffffffffffffffffffff1673ffffffffffffffffffffffffffffffffffffffff1681526020016001820160009054906101000a900473ffffffffffffffffffffffffffffffffffffffff1673ffffffffffffffffffffffffffffffffffffffff1673ffffffffffffffffffffffffffffffffffffffff16815260200160028201548152602001600382015481526020016004820160009054906101000a900460ff1660ff1660ff1681526020016004820160019054906101000a900460ff1660ff1660ff16815250509050806020015173ffffffffffffffffffffffffffffffffffffffff163373ffffffffffffffffffffffffffffffffffffffff16141515611d52576040517f08c379a000000000000000000000000000000000000000000000000000000000815260040180806020018281038252602e8152602001807f50726f706f73616c2063616e206265206163636570746564206f6e6c7920627981526020017f206120726573706f6e64656e742e00000000000000000000000000000000000081525060400191505060405180910390fd5b3073ffffffffffffffffffffffffffffffffffffffff1663410366c18360066000866000191660001916815260200190815260200160002060040160009054906101000a900460ff1660066000876000191660001916815260200190815260200160002060040160019054906101000a900460ff166040518463ffffffff167c01000000000000000000000000000000000000000000000000000000000281526004018084600019166000191681526020018360ff1681526020018260ff1681526020019350505050600060405180830381600087803b158015611e3557600080fd5b505af1158015611e49573d6000803e3d6000fd5b505050505050565b600080600080600060066000896000191660001916815260200190815260200160002060020154141515611f13576040517f08c379a00000000000000000000000000000000000000000000000000000000081526004018080602001828103825260218152602001807f446973707574652073686f756c646e277420626520737461727465642079657481526020017f2e0000000000000000000000000000000000000000000000000000000000000081525060400191505060405180910390fd5b8573ffffffffffffffffffffffffffffffffffffffff163373ffffffffffffffffffffffffffffffffffffffff1614151515611fdd576040517f08c379a000000000000000000000000000000000000000000000000000000000815260040180806020018281038252602b8152602001807f4469737075746520696e69746961746f72206d757374206e6f7420626520612081526020017f726573706f6e64656e742e00000000000000000000000000000000000000000081525060400191505060405180910390fd5b611fe5612d06565b93508373ffffffffffffffffffffffffffffffffffffffff166318469dfe886040518263ffffffff167c0100000000000000000000000000000000000000000000000000000000028152600401808260001916600019168152602001915050602060405180830381600087803b15801561205e57600080fd5b505af1158015612072573d6000803e3d6000fd5b505050506040513d602081101561208857600080fd5b81019080805190602001909291905050501515612133576040517f08c379a00000000000000000000000000000000000000000000000000000000081526004018080602001828103825260388152602001807f5461726765742073686f756c6420636f6e6669726d206974732073746174652081526020017f746f20626520726561647920666f7220646973707574652e000000000000000081525060400191505060405180910390fd5b8373ffffffffffffffffffffffffffffffffffffffff16638e22e64388336040518363ffffffff167c01000000000000000000000000000000000000000000000000000000000281526004018083600019166000191681526020018273ffffffffffffffffffffffffffffffffffffffff1673ffffffffffffffffffffffffffffffffffffffff16815260200192505050602060405180830381600087803b1580156121de57600080fd5b505af11580156121f2573d6000803e3d6000fd5b505050506040513d602081101561220857600080fd5b810190808051906020019092919050505015156122b3576040517f08c379a000000000000000000000000000000000000000000000000000000000815260040180806020018281038252602f8152602001807f436865636b2069662073656e64657220697320656c696769626c6520746f207081526020017f6572666f726d20616374696f6e732e000000000000000000000000000000000081525060400191505060405180910390fd5b8373ffffffffffffffffffffffffffffffffffffffff16638e22e64388886040518363ffffffff167c01000000000000000000000000000000000000000000000000000000000281526004018083600019166000191681526020018273ffffffffffffffffffffffffffffffffffffffff1673ffffffffffffffffffffffffffffffffffffffff16815260200192505050602060405180830381600087803b15801561235e57600080fd5b505af1158015612372573d6000803e3d6000fd5b505050506040513d602081101561238857600080fd5b81019080805190602001909291905050501515612433576040517f08c379a00000000000000000000000000000000000000000000000000000000081526004018080602001828103825260338152602001807f436865636b20696620726573706f6e64656e7420697320656c696769626c652081526020017f746f20706572666f726d20616374696f6e732e0000000000000000000000000081525060400191505060405180910390fd5b60008512806124425750606485135b1561245457600092506000915061245e565b8492508260640391505b42905060c0604051908101604052803373ffffffffffffffffffffffffffffffffffffffff1681526020018773ffffffffffffffffffffffffffffffffffffffff168152602001828152602001600081526020018460ff1681526020018360ff1681525060066000896000191660001916815260200190815260200160002060008201518160000160006101000a81548173ffffffffffffffffffffffffffffffffffffffff021916908373ffffffffffffffffffffffffffffffffffffffff16021790555060208201518160010160006101000a81548173ffffffffffffffffffffffffffffffffffffffff021916908373ffffffffffffffffffffffffffffffffffffffff160217905550604082015181600201556060820151816003015560808201518160040160006101000a81548160ff021916908360ff16021790555060a08201518160040160016101000a81548160ff021916908360ff16021790555090505086600019163373ffffffffffffffffffffffffffffffffffffffff167fd3c1f1dc18ed48a5c83b7027346b8ee18963869a020f9f80158b65e8b0f30e668388604051808381526020018281526020019250505060405180910390a360648360ff1614156126d5573073ffffffffffffffffffffffffffffffffffffffff1663410366c18885856040518463ffffffff167c01000000000000000000000000000000000000000000000000000000000281526004018084600019166000191681526020018360ff1681526020018260ff1681526020019350505050600060405180830381600087803b1580156126b857600080fd5b505af11580156126cc573d6000803e3d6000fd5b50505050612765565b8373ffffffffffffffffffffffffffffffffffffffff1663b4cbff23886040518263ffffffff167c0100000000000000000000000000000000000000000000000000000000028152600401808260001916600019168152602001915050600060405180830381600087803b15801561274c57600080fd5b505af1158015612760573d6000803e3d6000fd5b505050505b50505050505050565b600060066000836000191660001916815260200190815260200160002060010160009054906101000a900473ffffffffffffffffffffffffffffffffffffffff169050919050565b600460009054906101000a900460ff1681565b600060066000836000191660001916815260200190815260200160002060040160009054906101000a900460ff169050919050565b60055481565b60008061280f611afd565b151561281a57600080fd5b8390508073ffffffffffffffffffffffffffffffffffffffff1663a9059cbb612841611ad4565b856040518363ffffffff167c0100000000000000000000000000000000000000000000000000000000028152600401808373ffffffffffffffffffffffffffffffffffffffff1673ffffffffffffffffffffffffffffffffffffffff16815260200182815260200192505050602060405180830381600087803b1580156128c757600080fd5b505af11580156128db573d6000803e3d6000fd5b505050506040513d60208110156128f157600080fd5b810190808051906020019092919050505091505092915050565b600160009054906101000a900473ffffffffffffffffffffffffffffffffffffffff1681565b6000600554905090565b6000600260009054906101000a900473ffffffffffffffffffffffffffffffffffffffff16905090565b600260009054906101000a900473ffffffffffffffffffffffffffffffffffffffff1681565b612993611afd565b151561299e57600080fd5b6129a781612dce565b50565b60008082840190508381101515156129c157600080fd5b8091505092915050565b60006129d5612ec8565b600060066000856000191660001916815260200190815260200160002060c060405190810160405290816000820160009054906101000a900473ffffffffffffffffffffffffffffffffffffffff1673ffffffffffffffffffffffffffffffffffffffff1673ffffffffffffffffffffffffffffffffffffffff1681526020016001820160009054906101000a900473ffffffffffffffffffffffffffffffffffffffff1673ffffffffffffffffffffffffffffffffffffffff1673ffffffffffffffffffffffffffffffffffffffff16815260200160028201548152602001600382015481526020016004820160009054906101000a900460ff1660ff1660ff1681526020016004820160019054906101000a900460ff1660ff1660ff168152505091508160a001518260800151019050612b0f611afd565b8015612b4f575060008160ff161480612b4e575060648160ff16148015612b4d575042612b4b60055484604001516129aa90919063ffffffff16565b105b5b5b92505050919050565b6000612b62612ec8565b60066000866000191660001916815260200190815260200160002060c060405190810160405290816000820160009054906101000a900473ffffffffffffffffffffffffffffffffffffffff1673ffffffffffffffffffffffffffffffffffffffff1673ffffffffffffffffffffffffffffffffffffffff1681526020016001820160009054906101000a900473ffffffffffffffffffffffffffffffffffffffff1673ffffffffffffffffffffffffffffffffffffffff1673ffffffffffffffffffffffffffffffffffffffff16815260200160028201548152602001600382015481526020016004820160009054906101000a900460ff1660ff1660ff1681526020016004820160019054906101000a900460ff1660ff1660ff168152505090503073ffffffffffffffffffffffffffffffffffffffff163373ffffffffffffffffffffffffffffffffffffffff16148015612cd8575042612cd560055483604001516129aa90919063ffffffff16565b10155b8015612cea575083816080015160ff16145b8015612cfc5750828160a0015160ff16145b9150509392505050565b6000600160009054906101000a900473ffffffffffffffffffffffffffffffffffffffff1673ffffffffffffffffffffffffffffffffffffffff16635359cf976040518163ffffffff167c0100000000000000000000000000000000000000000000000000000000028152600401602060405180830381600087803b158015612d8e57600080fd5b505af1158015612da2573d6000803e3d6000fd5b505050506040513d6020811015612db857600080fd5b8101908080519060200190929190505050905090565b600073ffffffffffffffffffffffffffffffffffffffff168173ffffffffffffffffffffffffffffffffffffffff1614151515612e0a57600080fd5b8073ffffffffffffffffffffffffffffffffffffffff166000809054906101000a900473ffffffffffffffffffffffffffffffffffffffff1673ffffffffffffffffffffffffffffffffffffffff167f8be0079c531659141344cd1fd0a4f28419497f9722a3daafe3b4186f6b6457e060405160405180910390a3806000806101000a81548173ffffffffffffffffffffffffffffffffffffffff021916908373ffffffffffffffffffffffffffffffffffffffff16021790555050565b60c060405190810160405280600073ffffffffffffffffffffffffffffffffffffffff168152602001600073ffffffffffffffffffffffffffffffffffffffff1681526020016000815260200160008152602001600060ff168152602001600060ff16815250905600a165627a7a723058205f87f5564da138937e4aaeeeb51cb70db7b65c1941681056cd2e05945fca5ad20029",
  "source": "pragma solidity 0.4.25;\n\nimport \"./IDecoArbitration.sol\";\nimport \"./IDecoArbitrationTarget.sol\";\nimport \"./DecoBaseProjectsMarketplace.sol\";\nimport \"./DecoRelay.sol\";\nimport \"../node_modules/openzeppelin-solidity/contracts/ownership/Ownable.sol\";\nimport \"../node_modules/openzeppelin-solidity/contracts/math/SafeMath.sol\";\n\n\n/// @title Contract for Arbitration role and hanlding its events and actions.\ncontract DecoArbitration is IDecoArbitration, DecoBaseProjectsMarketplace {\n    using SafeMath for uint256;\n\n    // Struct for dispute.\n    struct Dispute {\n        address initiator;\n        address respondent;\n        uint startedTime;\n        uint settledTime;\n        uint8 respondentShare;\n        uint8 initiatorShare;\n    }\n\n    // Contract owner withdrawal address that might be different from contract owner address.\n    address public withdrawalAddress;\n\n    // Fixed fee that is deducted from target in favor of arbiter when she settles an external dispute.\n    uint public fixedFee;\n\n    // Share of funds fee that is deducted from target in favor of arbiter when she settles an external dispute.\n    uint8 public shareFee;\n\n    // Duration in seconds that a respondent has either to accept or reject a proposal.\n    uint public timeLimitForReplyOnProposal;\n\n    // Maps unique id to the Dispute instance.\n    mapping (bytes32 => Dispute) public disputes;\n\n    /**\n     * @dev Start dispute for the given project.\n     * @param _idHash A `bytes32` hash of a project id.\n     * @param _respondent An `address` of the second paty involved in the dispute.\n     * @param _respondentShareProposal An `int` value indicating percentage of disputed funds\n     *  proposed to the respondent. Valid values range is 0-100, different values are considered as 'No Proposal'.\n     *  When provided percentage is 100 then this dispute is processed automatically,\n     *  and all funds are distributed in favor of the respondent.\n     */\n    function startDispute(bytes32 _idHash, address _respondent, int _respondentShareProposal) external {\n        require(disputes[_idHash].startedTime == 0, \"Dispute shouldn't be started yet.\");\n        require(msg.sender != _respondent, \"Dispute initiator must not be a respondent.\");\n        IDecoArbitrationTarget target = IDecoArbitrationTarget(getTargetContractAddress());\n        require(target.canStartDispute(_idHash), \"Target should confirm its state to be ready for dispute.\");\n        require(target.checkEligibility(_idHash, msg.sender), \"Check if sender is eligible to perform actions.\");\n        require(target.checkEligibility(_idHash, _respondent), \"Check if respondent is eligible to perform actions.\");\n        uint8 uRespondentShareProposal;\n        uint8 uInitiatorShareProposal;\n        if (_respondentShareProposal < 0 || _respondentShareProposal > 100) {\n            uRespondentShareProposal = 0;\n            uInitiatorShareProposal = 0;\n        } else {\n            uRespondentShareProposal = uint8(_respondentShareProposal);\n            uInitiatorShareProposal = 100 - uRespondentShareProposal;\n        }\n        uint nowTimestamp = now;\n        disputes[_idHash] = Dispute(\n            msg.sender,\n            _respondent,\n            nowTimestamp,\n            0,\n            uRespondentShareProposal,\n            uInitiatorShareProposal\n        );\n\n        emit LogStartedDispute(msg.sender, _idHash, nowTimestamp, _respondentShareProposal);\n\n        if (uRespondentShareProposal == 100) {\n            this.settleDispute(_idHash, uRespondentShareProposal, uInitiatorShareProposal);\n        } else {\n            target.disputeStartedFreeze(_idHash);\n        }\n    }\n\n    /**\n     * @dev Accept proposal by respondent.\n     *      Dispute must exist and proposal must be active.\n     * @param _idHash A `bytes32` hash of id.\n     */\n    function acceptProposal(bytes32 _idHash) external {\n        Dispute memory dispute = disputes[_idHash];\n        require(msg.sender == dispute.respondent, \"Proposal can be accepted only by a respondent.\");\n        this.settleDispute(\n            _idHash,\n            disputes[_idHash].respondentShare,\n            disputes[_idHash].initiatorShare\n        );\n    }\n\n    /**\n     * @dev Reject proposal by respondent.\n     *      Dispute must exist and proposal must be active.\n     * @param _idHash A `bytes32` hash of id.\n     */\n    function rejectProposal(bytes32 _idHash) external {\n        Dispute storage dispute = disputes[_idHash];\n        require(msg.sender == dispute.respondent, \"Proposal can be rejected only by a respondent.\");\n        uint nowTime = now;\n        require(\n            dispute.startedTime.add(timeLimitForReplyOnProposal) > nowTime,\n            \"Respondent should reject within a limited timeframe after the dispute with proposal started.\"\n        );\n        uint8 respondentShare = dispute.respondentShare;\n        dispute.respondentShare = 0;\n        dispute.initiatorShare = 0;\n        emit LogRejectedProposal(msg.sender, _idHash, nowTime, respondentShare);\n    }\n\n    /**\n     * @dev Settle dispute without active proposal or with the best deal for respondent.\n     *      Settlement can be initiated from the contract methods or from the contract owner address.\n     *      A dispute should be started but not ended yet.\n     * @param _idHash A `bytes32` hash of id.\n     * @param _respondentShare An `uint8` share for a dispute respondent.\n     * @param _initiatorShare An `uint8` share for a dispute initiator.\n     */\n    function settleDispute(bytes32 _idHash, uint _respondentShare, uint _initiatorShare) external {\n        require(\n            msg.sender == address(this) || isOwner(),\n            \"Settle dispute must be perfomed by this contract or arbiter(contract owner).\"\n        );\n        Dispute storage dispute = disputes[_idHash];\n        require(dispute.startedTime != 0, \"Dispute must exist.\");\n        require(dispute.settledTime == 0, \"Dispute must be active.\");\n        uint nowTime = now;\n\n        require(\n            canBeSettledByArbiter(_idHash) ||\n            canBeSettledWithAcceptedProposal(_idHash, _respondentShare, _initiatorShare),\n            \"Should be called by this contract(aka accepted proposal) on time, or arbiter outside time limits.\"\n        );\n        require(_respondentShare.add(_initiatorShare) == 100, \"Sum must be 100%\");\n        dispute.respondentShare = uint8(_respondentShare);\n        dispute.initiatorShare = uint8(_initiatorShare);\n        dispute.settledTime = nowTime;\n        IDecoArbitrationTarget target = IDecoArbitrationTarget(getTargetContractAddress());\n        target.disputeSettledTerminate(\n            _idHash,\n            dispute.respondent,\n            dispute.respondentShare,\n            dispute.initiator,\n            dispute.initiatorShare,\n            msg.sender == address(this), // Indicating if internal or external\n            this.getWithdrawalAddress()\n        );\n        emit LogSettledDispute(msg.sender, _idHash, nowTime, dispute.respondentShare, dispute.initiatorShare);\n    }\n\n    /**\n     * @dev Update withdrawal address.\n     */\n    function setWithdrawalAddress(address _newAddress) external onlyOwner {\n        require(_newAddress != address(0x0), \"Should be not 0 address.\");\n        withdrawalAddress = _newAddress;\n        emit LogWithdrawalAddressChanged(now, _newAddress);\n    }\n\n    /**\n     * @dev Update relay contract address.\n     */\n    function setRelayContractAddress(address _newAddress) external onlyOwner {\n        require(_newAddress != address(0x0), \"Should be not 0 address.\");\n        relayContractAddress = _newAddress;\n    }\n\n    /**\n     * @dev Update time limit for respondent to accept or reject proposal.\n     */\n    function setTimeLimitForReplyOnProposal(uint _newLimit) external onlyOwner {\n        timeLimitForReplyOnProposal = _newLimit;\n        emit LogProposalTimeLimitUpdated(now, timeLimitForReplyOnProposal);\n    }\n\n    /**\n     * @dev Update fees.\n     * @param _fixedFee An `uint` fixed fee in Wei.\n     * @param _shareFee An `uint8` share fee.\n     */\n    function setFees(uint _fixedFee, uint _shareFee) external onlyOwner {\n        fixedFee = _fixedFee;\n        require(\n            _shareFee <= 100,\n            \"Share fee should be in 0-100% range.\"\n        );\n        shareFee = uint8(_shareFee);\n        emit LogFeesUpdated(now, fixedFee, shareFee);\n    }\n\n    /**\n     * @return Preconfigured time limit for respondent to accept/reject proposal.\n     */\n    function getTimeLimitForReplyOnProposal() external view returns(uint) {\n        return timeLimitForReplyOnProposal;\n    }\n\n    /**\n     * @return Withdrawal address of the current arbitration contract.\n     */\n    function getWithdrawalAddress() external view returns(address) {\n        return withdrawalAddress;\n    }\n\n    /**\n     * @return Preconfigured arbitration fees for the current contract.\n     */\n    function getFixedAndShareFees() external view returns(uint, uint8) {\n        return (fixedFee, shareFee);\n    }\n\n    /**\n     * @return Dispute respondent's share.\n     */\n    function getDisputeProposalShare(bytes32 _idHash) public view returns(uint8) {\n        return disputes[_idHash].respondentShare;\n    }\n\n    /**\n     * @return Dispute initiator's share.\n     */\n    function getDisputeInitiatorShare(bytes32 _idHash) public view returns(uint8) {\n        return disputes[_idHash].initiatorShare;\n    }\n\n    /**\n     * @return Dispute's initiator.\n     */\n    function getDisputeInitiator(bytes32 _idHash) public view returns(address) {\n        return disputes[_idHash].initiator;\n    }\n\n    /**\n     * @return Dispute's respondent.\n     */\n    function getDisputeRespondent(bytes32 _idHash) public view returns(address) {\n        return disputes[_idHash].respondent;\n    }\n\n    /**\n     * @return `True` if dispute is started.\n     */\n    function getDisputeStartedStatus(bytes32 _idHash) public view returns(bool) {\n        return disputes[_idHash].startedTime != 0;\n    }\n\n    /**\n     * @return Dispute's start time.\n     */\n    function getDisputeStartTime(bytes32 _idHash) public view returns(uint) {\n        return disputes[_idHash].startedTime;\n    }\n\n    /**\n     * @return `True` if dispute is settled.\n     */\n    function getDisputeSettledStatus(bytes32 _idHash) public view returns(bool) {\n        return disputes[_idHash].settledTime != 0;\n    }\n\n    /**\n     * @return Dispute's settlement time.\n     */\n    function getDisputeSettlementTime(bytes32 _idHash) public view returns(uint) {\n        return disputes[_idHash].settledTime;\n    }\n\n    /**\n     * @dev Utility internal function.\n     * @return Arbitration target address.\n     */\n    function getTargetContractAddress() internal view returns(address) {\n        return DecoRelay(relayContractAddress).milestonesContractAddress();\n    }\n\n    /**\n     * @dev Internal method to check if proposal is active\n     *      and can be settled by respondent, aka from the contract address.\n     * @param _idHash A `bytes32` hash of id.\n     * @param _respondentShare An `uint` share proposal for a respondent.\n     * @param _initiatorShare An `uint` share for an initiator.\n     * @return A `bool` status, `true` if respondent initialized this transaction\n     *         and shares are valid.\n     */\n    function canBeSettledWithAcceptedProposal(\n        bytes32 _idHash,\n        uint _respondentShare,\n        uint _initiatorShare\n    )\n        internal\n        view\n        returns(bool)\n    {\n        Dispute memory dispute = disputes[_idHash];\n        // Sender should be contract address for accepted proposal.\n        return msg.sender == address(this) &&\n            // Proposal can be accepted in a limited timeframe after initiated.\n            dispute.startedTime.add(timeLimitForReplyOnProposal) >= now &&\n            // Dispute stored shares must exact same as those passed in function parameters.\n            dispute.respondentShare == _respondentShare && dispute.initiatorShare == _initiatorShare;\n    }\n\n    /**\n     * @dev Internal method to check if proposal doesn't exist\n     *      or it is no longer active, and can be settled by arbiter.\n     * @param _idHash A `bytes32` hash of id.\n     * @return A `bool` status, `true` if arbiter initialized this transaction\n     *         and can settle dispute.\n     */\n    function canBeSettledByArbiter(bytes32 _idHash) internal view returns(bool) {\n        Dispute memory dispute = disputes[_idHash];\n        uint8 sum = dispute.respondentShare + dispute.initiatorShare;\n        // Transaction should be initiated by arbiter aka this contract owner.\n        return isOwner() &&\n            // Sum of stored shares should be either 0 - no proposal\n            (sum == 0 ||\n            // Or it should be 100 but the time when the proposal can be accepted has passed.\n            (sum == 100 && dispute.startedTime.add(timeLimitForReplyOnProposal) < now));\n    }\n}\n",
  "sourcePath": "/Users/chris/Documents/WorkStuff/Deconet/Blockchain/DeconetProjectsMarketContracts/contracts/DecoArbitration.sol",
  "compiler": {
    "name": "solc",
    "version": "0.4.25+commit.59dbf8f1.Emscripten.clang"
  },
  "schemaVersion": "3.0.0",
  "updatedAt": "2019-02-27T21:10:54.625Z",
  "devdoc": {
    "methods": {
      "acceptProposal(bytes32)": {
        "details": "Accept proposal by respondent.     Dispute must exist and proposal must be active.",
        "params": {
          "_idHash": "A `bytes32` hash of id."
        }
      },
      "getDisputeInitiator(bytes32)": {
        "return": "Dispute's initiator."
      },
      "getDisputeInitiatorShare(bytes32)": {
        "return": "Dispute initiator's share."
      },
      "getDisputeProposalShare(bytes32)": {
        "return": "Dispute respondent's share."
      },
      "getDisputeRespondent(bytes32)": {
        "return": "Dispute's respondent."
      },
      "getDisputeSettledStatus(bytes32)": {
        "return": "`True` if dispute is settled."
      },
      "getDisputeSettlementTime(bytes32)": {
        "return": "Dispute's settlement time."
      },
      "getDisputeStartTime(bytes32)": {
        "return": "Dispute's start time."
      },
      "getDisputeStartedStatus(bytes32)": {
        "return": "`True` if dispute is started."
      },
      "getFixedAndShareFees()": {
        "return": "Preconfigured arbitration fees for the current contract."
      },
      "getTimeLimitForReplyOnProposal()": {
        "return": "Preconfigured time limit for respondent to accept/reject proposal."
      },
      "getWithdrawalAddress()": {
        "return": "Withdrawal address of the current arbitration contract."
      },
      "isOwner()": {
        "return": "true if `msg.sender` is the owner of the contract."
      },
      "owner()": {
        "return": "the address of the owner."
      },
      "rejectProposal(bytes32)": {
        "details": "Reject proposal by respondent.     Dispute must exist and proposal must be active.",
        "params": {
          "_idHash": "A `bytes32` hash of id."
        }
      },
      "renounceOwnership()": {
        "details": "Allows the current owner to relinquish control of the contract."
      },
      "setFees(uint256,uint256)": {
        "details": "Update fees.",
        "params": {
          "_fixedFee": "An `uint` fixed fee in Wei.",
          "_shareFee": "An `uint8` share fee."
        }
      },
      "setRelayContractAddress(address)": {
        "details": "Update relay contract address."
      },
      "setTimeLimitForReplyOnProposal(uint256)": {
        "details": "Update time limit for respondent to accept or reject proposal."
      },
      "setWithdrawalAddress(address)": {
        "details": "Update withdrawal address."
      },
      "settleDispute(bytes32,uint256,uint256)": {
        "details": "Settle dispute without active proposal or with the best deal for respondent.     Settlement can be initiated from the contract methods or from the contract owner address.     A dispute should be started but not ended yet.",
        "params": {
          "_idHash": "A `bytes32` hash of id.",
          "_initiatorShare": "An `uint8` share for a dispute initiator.",
          "_respondentShare": "An `uint8` share for a dispute respondent."
        }
      },
      "startDispute(bytes32,address,int256)": {
        "details": "Start dispute for the given project.",
        "params": {
          "_idHash": "A `bytes32` hash of a project id.",
          "_respondent": "An `address` of the second paty involved in the dispute.",
          "_respondentShareProposal": "An `int` value indicating percentage of disputed funds proposed to the respondent. Valid values range is 0-100, different values are considered as 'No Proposal'. When provided percentage is 100 then this dispute is processed automatically, and all funds are distributed in favor of the respondent."
        }
      },
      "transferAnyERC20Token(address,uint256)": {
        "details": "Allows to trasnfer any ERC20 tokens from the contract balance to owner's address.",
        "params": {
          "_tokenAddress": "An `address` of an ERC20 token.",
          "_tokens": "An `uint` tokens amount."
        },
        "return": "A `bool` operation result state."
      },
      "transferOwnership(address)": {
        "details": "Allows the current owner to transfer control of the contract to a newOwner.",
        "params": {
          "newOwner": "The address to transfer ownership to."
        }
      }
    },
    "title": "Contract for Arbitration role and hanlding its events and actions."
  },
  "userdoc": {
    "methods": {
      "renounceOwnership()": {
        "notice": "Renouncing to ownership will leave the contract without an owner. It will not be possible to call the functions with the `onlyOwner` modifier anymore."
      }
    }
  }
}