{
  "contractName": "DecoProjects",
  "abi": [
    {
      "constant": false,
      "inputs": [
        {
          "name": "_newAddress",
          "type": "address"
        }
      ],
      "name": "setRelayContractAddress",
      "outputs": [],
      "payable": false,
      "stateMutability": "nonpayable",
      "type": "function",
      "signature": "0x2d2bcd37"
    },
    {
      "constant": true,
      "inputs": [
        {
          "name": "",
          "type": "address"
        },
        {
          "name": "",
          "type": "uint256"
        }
      ],
      "name": "clientProjects",
      "outputs": [
        {
          "name": "",
          "type": "bytes32"
        }
      ],
      "payable": false,
      "stateMutability": "view",
      "type": "function",
      "signature": "0x427583a2"
    },
    {
      "constant": true,
      "inputs": [
        {
          "name": "",
          "type": "address"
        },
        {
          "name": "",
          "type": "uint256"
        }
      ],
      "name": "makerProjects",
      "outputs": [
        {
          "name": "",
          "type": "bytes32"
        }
      ],
      "payable": false,
      "stateMutability": "view",
      "type": "function",
      "signature": "0x6967e9ee"
    },
    {
      "constant": false,
      "inputs": [],
      "name": "renounceOwnership",
      "outputs": [],
      "payable": false,
      "stateMutability": "nonpayable",
      "type": "function",
      "signature": "0x715018a6"
    },
    {
      "constant": true,
      "inputs": [],
      "name": "owner",
      "outputs": [
        {
          "name": "",
          "type": "address"
        }
      ],
      "payable": false,
      "stateMutability": "view",
      "type": "function",
      "signature": "0x8da5cb5b"
    },
    {
      "constant": true,
      "inputs": [],
      "name": "isOwner",
      "outputs": [
        {
          "name": "",
          "type": "bool"
        }
      ],
      "payable": false,
      "stateMutability": "view",
      "type": "function",
      "signature": "0x8f32d59b"
    },
    {
      "constant": true,
      "inputs": [
        {
          "name": "",
          "type": "bytes32"
        }
      ],
      "name": "projects",
      "outputs": [
        {
          "name": "agreementId",
          "type": "string"
        },
        {
          "name": "client",
          "type": "address"
        },
        {
          "name": "maker",
          "type": "address"
        },
        {
          "name": "arbiter",
          "type": "address"
        },
        {
          "name": "escrowContractAddress",
          "type": "address"
        },
        {
          "name": "startDate",
          "type": "uint256"
        },
        {
          "name": "endDate",
          "type": "uint256"
        },
        {
          "name": "milestoneStartWindow",
          "type": "uint8"
        },
        {
          "name": "feedbackWindow",
          "type": "uint8"
        },
        {
          "name": "milestonesCount",
          "type": "uint8"
        },
        {
          "name": "customerSatisfaction",
          "type": "uint8"
        },
        {
          "name": "makerSatisfaction",
          "type": "uint8"
        },
        {
          "name": "agreementsEncrypted",
          "type": "bool"
        }
      ],
      "payable": false,
      "stateMutability": "view",
      "type": "function",
      "signature": "0xb96ea12d"
    },
    {
      "constant": true,
      "inputs": [
        {
          "name": "",
          "type": "bytes32"
        }
      ],
      "name": "projectArbiterShareFee",
      "outputs": [
        {
          "name": "",
          "type": "uint8"
        }
      ],
      "payable": false,
      "stateMutability": "view",
      "type": "function",
      "signature": "0xc45b1b4d"
    },
    {
      "constant": true,
      "inputs": [
        {
          "name": "",
          "type": "bytes32"
        }
      ],
      "name": "projectArbiterFixedFee",
      "outputs": [
        {
          "name": "",
          "type": "uint256"
        }
      ],
      "payable": false,
      "stateMutability": "view",
      "type": "function",
      "signature": "0xc8706db4"
    },
    {
      "constant": false,
      "inputs": [
        {
          "name": "_tokenAddress",
          "type": "address"
        },
        {
          "name": "_tokens",
          "type": "uint256"
        }
      ],
      "name": "transferAnyERC20Token",
      "outputs": [
        {
          "name": "success",
          "type": "bool"
        }
      ],
      "payable": false,
      "stateMutability": "nonpayable",
      "type": "function",
      "signature": "0xdc39d06d"
    },
    {
      "constant": true,
      "inputs": [],
      "name": "relayContractAddress",
      "outputs": [
        {
          "name": "",
          "type": "address"
        }
      ],
      "payable": false,
      "stateMutability": "view",
      "type": "function",
      "signature": "0xdfa93d64"
    },
    {
      "constant": false,
      "inputs": [
        {
          "name": "newOwner",
          "type": "address"
        }
      ],
      "name": "transferOwnership",
      "outputs": [],
      "payable": false,
      "stateMutability": "nonpayable",
      "type": "function",
      "signature": "0xf2fde38b"
    },
    {
      "inputs": [
        {
          "name": "_chainId",
          "type": "uint256"
        }
      ],
      "payable": false,
      "stateMutability": "nonpayable",
      "type": "constructor",
      "signature": "constructor"
    },
    {
      "payable": true,
      "stateMutability": "payable",
      "type": "fallback"
    },
    {
      "anonymous": false,
      "inputs": [
        {
          "indexed": true,
          "name": "agreementHash",
          "type": "bytes32"
        },
        {
          "indexed": false,
          "name": "updatedBy",
          "type": "address"
        },
        {
          "indexed": false,
          "name": "timestamp",
          "type": "uint256"
        },
        {
          "indexed": false,
          "name": "state",
          "type": "uint8"
        }
      ],
      "name": "LogProjectStateUpdate",
      "type": "event",
      "signature": "0x08c67a54b70772e59b41b8b9828d23c13759d0763d9f78e5f79b7033afa29382"
    },
    {
      "anonymous": false,
      "inputs": [
        {
          "indexed": true,
          "name": "agreementHash",
          "type": "bytes32"
        },
        {
          "indexed": true,
          "name": "ratedBy",
          "type": "address"
        },
        {
          "indexed": true,
          "name": "ratingTarget",
          "type": "address"
        },
        {
          "indexed": false,
          "name": "rating",
          "type": "uint8"
        },
        {
          "indexed": false,
          "name": "timestamp",
          "type": "uint256"
        }
      ],
      "name": "LogProjectRated",
      "type": "event",
      "signature": "0x3d3dab442c501e3ad2cb35ea97ebb5513cccec8ddb02a0f31bec75af12d77895"
    },
    {
      "anonymous": false,
      "inputs": [
        {
          "indexed": true,
          "name": "previousOwner",
          "type": "address"
        },
        {
          "indexed": true,
          "name": "newOwner",
          "type": "address"
        }
      ],
      "name": "OwnershipTransferred",
      "type": "event",
      "signature": "0x8be0079c531659141344cd1fd0a4f28419497f9722a3daafe3b4186f6b6457e0"
    },
    {
      "constant": false,
      "inputs": [
        {
          "name": "_agreementId",
          "type": "string"
        },
        {
          "name": "_client",
          "type": "address"
        },
        {
          "name": "_arbiter",
          "type": "address"
        },
        {
          "name": "_maker",
          "type": "address"
        },
        {
          "name": "_makersSignature",
          "type": "bytes"
        },
        {
          "name": "_milestonesCount",
          "type": "uint8"
        },
        {
          "name": "_milestoneStartWindow",
          "type": "uint8"
        },
        {
          "name": "_feedbackWindow",
          "type": "uint8"
        },
        {
          "name": "_agreementEncrypted",
          "type": "bool"
        }
      ],
      "name": "startProject",
      "outputs": [],
      "payable": false,
      "stateMutability": "nonpayable",
      "type": "function",
      "signature": "0xed4c87ac"
    },
    {
      "constant": false,
      "inputs": [
        {
          "name": "_agreementHash",
          "type": "bytes32"
        }
      ],
      "name": "terminateProject",
      "outputs": [],
      "payable": false,
      "stateMutability": "nonpayable",
      "type": "function",
      "signature": "0x9827a996"
    },
    {
      "constant": false,
      "inputs": [
        {
          "name": "_agreementHash",
          "type": "bytes32"
        }
      ],
      "name": "completeProject",
      "outputs": [],
      "payable": false,
      "stateMutability": "nonpayable",
      "type": "function",
      "signature": "0xd90b4958"
    },
    {
      "constant": false,
      "inputs": [
        {
          "name": "_agreementHash",
          "type": "bytes32"
        },
        {
          "name": "_rating",
          "type": "uint8"
        }
      ],
      "name": "rateProjectSecondParty",
      "outputs": [],
      "payable": false,
      "stateMutability": "nonpayable",
      "type": "function",
      "signature": "0xd6fc2e62"
    },
    {
      "constant": true,
      "inputs": [
        {
          "name": "_agreementHash",
          "type": "bytes32"
        }
      ],
      "name": "getProjectEscrowAddress",
      "outputs": [
        {
          "name": "",
          "type": "address"
        }
      ],
      "payable": false,
      "stateMutability": "view",
      "type": "function",
      "signature": "0xb88467c2"
    },
    {
      "constant": true,
      "inputs": [
        {
          "name": "_agreementHash",
          "type": "bytes32"
        }
      ],
      "name": "getProjectClient",
      "outputs": [
        {
          "name": "",
          "type": "address"
        }
      ],
      "payable": false,
      "stateMutability": "view",
      "type": "function",
      "signature": "0xab065d6c"
    },
    {
      "constant": true,
      "inputs": [
        {
          "name": "_agreementHash",
          "type": "bytes32"
        }
      ],
      "name": "getProjectMaker",
      "outputs": [
        {
          "name": "",
          "type": "address"
        }
      ],
      "payable": false,
      "stateMutability": "view",
      "type": "function",
      "signature": "0x62074c31"
    },
    {
      "constant": true,
      "inputs": [
        {
          "name": "_agreementHash",
          "type": "bytes32"
        }
      ],
      "name": "getProjectArbiter",
      "outputs": [
        {
          "name": "",
          "type": "address"
        }
      ],
      "payable": false,
      "stateMutability": "view",
      "type": "function",
      "signature": "0xa3e2b1de"
    },
    {
      "constant": true,
      "inputs": [
        {
          "name": "_agreementHash",
          "type": "bytes32"
        }
      ],
      "name": "getProjectFeedbackWindow",
      "outputs": [
        {
          "name": "",
          "type": "uint8"
        }
      ],
      "payable": false,
      "stateMutability": "view",
      "type": "function",
      "signature": "0xe591fa26"
    },
    {
      "constant": true,
      "inputs": [
        {
          "name": "_agreementHash",
          "type": "bytes32"
        }
      ],
      "name": "getProjectMilestoneStartWindow",
      "outputs": [
        {
          "name": "",
          "type": "uint8"
        }
      ],
      "payable": false,
      "stateMutability": "view",
      "type": "function",
      "signature": "0xdd4bd4b7"
    },
    {
      "constant": true,
      "inputs": [
        {
          "name": "_agreementHash",
          "type": "bytes32"
        }
      ],
      "name": "getProjectStartDate",
      "outputs": [
        {
          "name": "",
          "type": "uint256"
        }
      ],
      "payable": false,
      "stateMutability": "view",
      "type": "function",
      "signature": "0xa5e20eaa"
    },
    {
      "constant": true,
      "inputs": [
        {
          "name": "_maker",
          "type": "address"
        }
      ],
      "name": "makersAverageRating",
      "outputs": [
        {
          "name": "",
          "type": "uint256"
        },
        {
          "name": "",
          "type": "uint256"
        }
      ],
      "payable": false,
      "stateMutability": "view",
      "type": "function",
      "signature": "0xc8ede712"
    },
    {
      "constant": true,
      "inputs": [
        {
          "name": "_client",
          "type": "address"
        }
      ],
      "name": "clientsAverageRating",
      "outputs": [
        {
          "name": "",
          "type": "uint256"
        },
        {
          "name": "",
          "type": "uint256"
        }
      ],
      "payable": false,
      "stateMutability": "view",
      "type": "function",
      "signature": "0xac76a499"
    },
    {
      "constant": true,
      "inputs": [
        {
          "name": "_client",
          "type": "address"
        }
      ],
      "name": "getClientProjects",
      "outputs": [
        {
          "name": "",
          "type": "bytes32[]"
        }
      ],
      "payable": false,
      "stateMutability": "view",
      "type": "function",
      "signature": "0x9a8b3d8f"
    },
    {
      "constant": true,
      "inputs": [
        {
          "name": "_maker",
          "type": "address"
        }
      ],
      "name": "getMakerProjects",
      "outputs": [
        {
          "name": "",
          "type": "bytes32[]"
        }
      ],
      "payable": false,
      "stateMutability": "view",
      "type": "function",
      "signature": "0x542fd556"
    },
    {
      "constant": true,
      "inputs": [
        {
          "name": "_agreementHash",
          "type": "bytes32"
        }
      ],
      "name": "checkIfProjectExists",
      "outputs": [
        {
          "name": "",
          "type": "bool"
        }
      ],
      "payable": false,
      "stateMutability": "view",
      "type": "function",
      "signature": "0x1604fa4d"
    },
    {
      "constant": true,
      "inputs": [
        {
          "name": "_agreementHash",
          "type": "bytes32"
        }
      ],
      "name": "getProjectEndDate",
      "outputs": [
        {
          "name": "",
          "type": "uint256"
        }
      ],
      "payable": false,
      "stateMutability": "view",
      "type": "function",
      "signature": "0x5f6dd297"
    },
    {
      "constant": true,
      "inputs": [
        {
          "name": "_agreementHash",
          "type": "bytes32"
        }
      ],
      "name": "getProjectMilestonesCount",
      "outputs": [
        {
          "name": "",
          "type": "uint8"
        }
      ],
      "payable": false,
      "stateMutability": "view",
      "type": "function",
      "signature": "0x4a80dcab"
    },
    {
      "constant": true,
      "inputs": [
        {
          "name": "_agreementHash",
          "type": "bytes32"
        }
      ],
      "name": "getProjectArbitrationFees",
      "outputs": [
        {
          "name": "",
          "type": "uint256"
        },
        {
          "name": "",
          "type": "uint8"
        }
      ],
      "payable": false,
      "stateMutability": "view",
      "type": "function",
      "signature": "0x570f65c4"
    },
    {
      "constant": true,
      "inputs": [
        {
          "name": "_agreementHash",
          "type": "bytes32"
        },
        {
          "name": "_respondent",
          "type": "address"
        },
        {
          "name": "_initiator",
          "type": "address"
        },
        {
          "name": "_arbiter",
          "type": "address"
        }
      ],
      "name": "getInfoForDisputeAndValidate",
      "outputs": [
        {
          "name": "",
          "type": "uint256"
        },
        {
          "name": "",
          "type": "uint8"
        },
        {
          "name": "",
          "type": "address"
        }
      ],
      "payable": false,
      "stateMutability": "view",
      "type": "function",
      "signature": "0x34aa982a"
    }
  ],
  "bytecode": "0x60806040523480156200001157600080fd5b506040516020806200562883398101806040528101908080519060200190929190505050336000806101000a81548173ffffffffffffffffffffffffffffffffffffffff021916908373ffffffffffffffffffffffffffffffffffffffff1602179055506000809054906101000a900473ffffffffffffffffffffffffffffffffffffffff1673ffffffffffffffffffffffffffffffffffffffff16600073ffffffffffffffffffffffffffffffffffffffff167f8be0079c531659141344cd1fd0a4f28419497f9722a3daafe3b4186f6b6457e060405160405180910390a36000811415151562000191576040517f08c379a00000000000000000000000000000000000000000000000000000000081526004018080602001828103825260228152602001807f596f75206d75737420737065636966792061206e6f6e7a65726f20636861696e81526020017f496400000000000000000000000000000000000000000000000000000000000081525060400191505060405180910390fd5b6200024c6080604051908101604052806040805190810160405280600c81526020017f4465636f2e4e6574776f726b000000000000000000000000000000000000000081525081526020016040805190810160405280600181526020017f310000000000000000000000000000000000000000000000000000000000000081525081526020018381526020013073ffffffffffffffffffffffffffffffffffffffff168152506200025d640100000000026401000000009004565b6002816000191690555050620004a7565b600060405180807f454950373132446f6d61696e28737472696e67206e616d652c737472696e672081526020017f76657273696f6e2c75696e7432353620636861696e49642c616464726573732081526020017f766572696679696e67436f6e74726163742900000000000000000000000000008152506052019050604051809103902082600001516040518082805190602001908083835b6020831015156200031d5780518252602082019150602081019050602083039250620002f6565b6001836020036101000a038019825116818451168082178552505050505050905001915050604051809103902083602001516040518082805190602001908083835b6020831015156200038657805182526020820191506020810190506020830392506200035f565b6001836020036101000a038019825116818451168082178552505050505050905001915050604051809103902084604001518560600151604051602001808660001916600019168152602001856000191660001916815260200184600019166000191681526020018381526020018273ffffffffffffffffffffffffffffffffffffffff1673ffffffffffffffffffffffffffffffffffffffff168152602001955050505050506040516020818303038152906040526040518082805190602001908083835b6020831015156200047357805182526020820191506020810190506020830392506200044c565b6001836020036101000a03801982511681845116808217855250505050505090500191505060405180910390209050919050565b61517180620004b76000396000f300608060405260043610610196576000357c0100000000000000000000000000000000000000000000000000000000900463ffffffff1680631604fa4d146102105780632d2bcd371461025957806334aa982a1461029c578063427583a2146103815780634a80dcab146103ea578063542fd55614610435578063570f65c4146104cd5780635f6dd2971461051f57806362074c31146105645780636967e9ee146105d5578063715018a61461063e5780638da5cb5b146106555780638f32d59b146106ac5780639827a996146106db5780639a8b3d8f1461070c578063a3e2b1de146107a4578063a5e20eaa14610815578063ab065d6c1461085a578063ac76a499146108cb578063b88467c214610929578063b96ea12d1461099a578063c45b1b4d14610b6a578063c8706db414610bb5578063c8ede71214610bfa578063d6fc2e6214610c58578063d90b495814610c96578063dc39d06d14610cc7578063dd4bd4b714610d2c578063dfa93d6414610d77578063e591fa2614610dce578063ed4c87ac14610e19578063f2fde38b14610eff575b60003414151561020e576040517f08c379a000000000000000000000000000000000000000000000000000000000815260040180806020018281038252601a8152602001807f426c6f636b696e6720616e7920696e636f6d696e67204554482e00000000000081525060200191505060405180910390fd5b005b34801561021c57600080fd5b5061023f6004803603810190808035600019169060200190929190505050610f42565b604051808215151515815260200191505060405180910390f35b34801561026557600080fd5b5061029a600480360381019080803573ffffffffffffffffffffffffffffffffffffffff169060200190929190505050610fb9565b005b3480156102a857600080fd5b5061032b6004803603810190808035600019169060200190929190803573ffffffffffffffffffffffffffffffffffffffff169060200190929190803573ffffffffffffffffffffffffffffffffffffffff169060200190929190803573ffffffffffffffffffffffffffffffffffffffff1690602001909291905050506110b5565b604051808481526020018360ff1660ff1681526020018273ffffffffffffffffffffffffffffffffffffffff1673ffffffffffffffffffffffffffffffffffffffff168152602001935050505060405180910390f35b34801561038d57600080fd5b506103cc600480360381019080803573ffffffffffffffffffffffffffffffffffffffff169060200190929190803590602001909291905050506116c0565b60405180826000191660001916815260200191505060405180910390f35b3480156103f657600080fd5b5061041960048036038101908080356000191690602001909291905050506116f0565b604051808260ff1660ff16815260200191505060405180910390f35b34801561044157600080fd5b50610476600480360381019080803573ffffffffffffffffffffffffffffffffffffffff169060200190929190505050611725565b6040518080602001828103825283818151815260200191508051906020019060200280838360005b838110156104b957808201518184015260208101905061049e565b505050509050019250505060405180910390f35b3480156104d957600080fd5b506104fc60048036038101908080356000191690602001909291905050506117c0565b604051808381526020018260ff1660ff1681526020019250505060405180910390f35b34801561052b57600080fd5b5061054e6004803603810190808035600019169060200190929190505050611811565b6040518082815260200191505060405180910390f35b34801561057057600080fd5b506105936004803603810190808035600019169060200190929190505050611839565b604051808273ffffffffffffffffffffffffffffffffffffffff1673ffffffffffffffffffffffffffffffffffffffff16815260200191505060405180910390f35b3480156105e157600080fd5b50610620600480360381019080803573ffffffffffffffffffffffffffffffffffffffff16906020019092919080359060200190929190505050611881565b60405180826000191660001916815260200191505060405180910390f35b34801561064a57600080fd5b506106536118b1565b005b34801561066157600080fd5b5061066a611983565b604051808273ffffffffffffffffffffffffffffffffffffffff1673ffffffffffffffffffffffffffffffffffffffff16815260200191505060405180910390f35b3480156106b857600080fd5b506106c16119ac565b604051808215151515815260200191505060405180910390f35b3480156106e757600080fd5b5061070a6004803603810190808035600019169060200190929190505050611a03565b005b34801561071857600080fd5b5061074d600480360381019080803573ffffffffffffffffffffffffffffffffffffffff1690602001909291905050506122fd565b6040518080602001828103825283818151815260200191508051906020019060200280838360005b83811015610790578082015181840152602081019050610775565b505050509050019250505060405180910390f35b3480156107b057600080fd5b506107d36004803603810190808035600019169060200190929190505050612398565b604051808273ffffffffffffffffffffffffffffffffffffffff1673ffffffffffffffffffffffffffffffffffffffff16815260200191505060405180910390f35b34801561082157600080fd5b5061084460048036038101908080356000191690602001909291905050506123e0565b6040518082815260200191505060405180910390f35b34801561086657600080fd5b506108896004803603810190808035600019169060200190929190505050612408565b604051808273ffffffffffffffffffffffffffffffffffffffff1673ffffffffffffffffffffffffffffffffffffffff16815260200191505060405180910390f35b3480156108d757600080fd5b5061090c600480360381019080803573ffffffffffffffffffffffffffffffffffffffff169060200190929190505050612450565b604051808381526020018281526020019250505060405180910390f35b34801561093557600080fd5b506109586004803603810190808035600019169060200190929190505050612467565b604051808273ffffffffffffffffffffffffffffffffffffffff1673ffffffffffffffffffffffffffffffffffffffff16815260200191505060405180910390f35b3480156109a657600080fd5b506109c960048036038101908080356000191690602001909291905050506124af565b60405180806020018e73ffffffffffffffffffffffffffffffffffffffff1673ffffffffffffffffffffffffffffffffffffffff1681526020018d73ffffffffffffffffffffffffffffffffffffffff1673ffffffffffffffffffffffffffffffffffffffff1681526020018c73ffffffffffffffffffffffffffffffffffffffff1673ffffffffffffffffffffffffffffffffffffffff1681526020018b73ffffffffffffffffffffffffffffffffffffffff1673ffffffffffffffffffffffffffffffffffffffff1681526020018a81526020018981526020018860ff1660ff1681526020018760ff1660ff1681526020018660ff1660ff1681526020018560ff1660ff1681526020018460ff1660ff1681526020018315151515815260200182810382528f818151815260200191508051906020019080838360005b83811015610b23578082015181840152602081019050610b08565b50505050905090810190601f168015610b505780820380516001836020036101000a031916815260200191505b509e50505050505050505050505050505060405180910390f35b348015610b7657600080fd5b50610b99600480360381019080803560001916906020019092919050505061267b565b604051808260ff1660ff16815260200191505060405180910390f35b348015610bc157600080fd5b50610be4600480360381019080803560001916906020019092919050505061269b565b6040518082815260200191505060405180910390f35b348015610c0657600080fd5b50610c3b600480360381019080803573ffffffffffffffffffffffffffffffffffffffff1690602001909291905050506126b3565b604051808381526020018281526020019250505060405180910390f35b348015610c6457600080fd5b50610c946004803603810190808035600019169060200190929190803560ff1690602001909291905050506126ca565b005b348015610ca257600080fd5b50610cc56004803603810190808035600019169060200190929190505050612efd565b005b348015610cd357600080fd5b50610d12600480360381019080803573ffffffffffffffffffffffffffffffffffffffff169060200190929190803590602001909291905050506138cf565b604051808215151515815260200191505060405180910390f35b348015610d3857600080fd5b50610d5b60048036038101908080356000191690602001909291905050506139d6565b604051808260ff1660ff16815260200191505060405180910390f35b348015610d8357600080fd5b50610d8c613a0b565b604051808273ffffffffffffffffffffffffffffffffffffffff1673ffffffffffffffffffffffffffffffffffffffff16815260200191505060405180910390f35b348015610dda57600080fd5b50610dfd6004803603810190808035600019169060200190929190505050613a31565b604051808260ff1660ff16815260200191505060405180910390f35b348015610e2557600080fd5b50610efd600480360381019080803590602001908201803590602001919091929391929390803573ffffffffffffffffffffffffffffffffffffffff169060200190929190803573ffffffffffffffffffffffffffffffffffffffff169060200190929190803573ffffffffffffffffffffffffffffffffffffffff169060200190929190803590602001908201803590602001919091929391929390803560ff169060200190929190803560ff169060200190929190803560ff169060200190929190803515159060200190929190505050613a66565b005b348015610f0b57600080fd5b50610f40600480360381019080803573ffffffffffffffffffffffffffffffffffffffff169060200190929190505050614470565b005b60008073ffffffffffffffffffffffffffffffffffffffff1660036000846000191660001916815260200190815260200160002060010160009054906101000a900473ffffffffffffffffffffffffffffffffffffffff1673ffffffffffffffffffffffffffffffffffffffff1614159050919050565b610fc16119ac565b1515610fcc57600080fd5b600073ffffffffffffffffffffffffffffffffffffffff168173ffffffffffffffffffffffffffffffffffffffff1614151515611071576040517f08c379a000000000000000000000000000000000000000000000000000000000815260040180806020018281038252601e8152602001807f52656c61792061646472657373206d757374206e6f74206265203078302e000081525060200191505060405180910390fd5b80600160006101000a81548173ffffffffffffffffffffffffffffffffffffffff021916908373ffffffffffffffffffffffffffffffffffffffff16021790555050565b60008060006110c2614fce565b6000806000806110d18c610f42565b1515611145576040517f08c379a00000000000000000000000000000000000000000000000000000000081526004018080602001828103825260138152602001807f50726f6a656374206d7573742065786973742e0000000000000000000000000081525060200191505060405180910390fd5b600360008d600019166000191681526020019081526020016000206101a06040519081016040529081600082018054600181600116156101000203166002900480601f0160208091040260200160405190810160405280929190818152602001828054600181600116156101000203166002900480156112065780601f106111db57610100808354040283529160200191611206565b820191906000526020600020905b8154815290600101906020018083116111e957829003601f168201915b505050505081526020016001820160009054906101000a900473ffffffffffffffffffffffffffffffffffffffff1673ffffffffffffffffffffffffffffffffffffffff1673ffffffffffffffffffffffffffffffffffffffff1681526020016002820160009054906101000a900473ffffffffffffffffffffffffffffffffffffffff1673ffffffffffffffffffffffffffffffffffffffff1673ffffffffffffffffffffffffffffffffffffffff1681526020016003820160009054906101000a900473ffffffffffffffffffffffffffffffffffffffff1673ffffffffffffffffffffffffffffffffffffffff1673ffffffffffffffffffffffffffffffffffffffff1681526020016004820160009054906101000a900473ffffffffffffffffffffffffffffffffffffffff1673ffffffffffffffffffffffffffffffffffffffff1673ffffffffffffffffffffffffffffffffffffffff16815260200160058201548152602001600682015481526020016007820160009054906101000a900460ff1660ff1660ff1681526020016007820160019054906101000a900460ff1660ff1660ff1681526020016007820160029054906101000a900460ff1660ff1660ff1681526020016007820160039054906101000a900460ff1660ff1660ff1681526020016007820160049054906101000a900460ff1660ff1660ff1681526020016007820160059054906101000a900460ff161515151581525050945084602001519350846040015192508873ffffffffffffffffffffffffffffffffffffffff16856060015173ffffffffffffffffffffffffffffffffffffffff16141515611504576040517f08c379a000000000000000000000000000000000000000000000000000000000815260040180806020018281038252602b8152602001807f417262697465722073686f756c642062652073616d652061732073617665642081526020017f696e2070726f6a6563742e00000000000000000000000000000000000000000081525060400191505060405180910390fd5b8373ffffffffffffffffffffffffffffffffffffffff168a73ffffffffffffffffffffffffffffffffffffffff1614801561156a57508273ffffffffffffffffffffffffffffffffffffffff168b73ffffffffffffffffffffffffffffffffffffffff16145b806115d757508273ffffffffffffffffffffffffffffffffffffffff168a73ffffffffffffffffffffffffffffffffffffffff161480156115d657508373ffffffffffffffffffffffffffffffffffffffff168b73ffffffffffffffffffffffffffffffffffffffff16145b5b1515611697576040517f08c379a000000000000000000000000000000000000000000000000000000000815260040180806020018281038252604f8152602001807f496e69746961746f7220616e6420726573706f6e64656e74206d75737420626581526020017f20646966666572656e7420616e6420657175616c20746f206d616b65722f636c81526020017f69656e74206164647265737365732e000000000000000000000000000000000081525060600191505060405180910390fd5b6116a08c6117c0565b915091508181866080015197509750975050505050509450945094915050565b6005602052816000526040600020818154811015156116db57fe5b90600052602060002001600091509150505481565b600060036000836000191660001916815260200190815260200160002060070160029054906101000a900460ff169050919050565b6060600460008373ffffffffffffffffffffffffffffffffffffffff1673ffffffffffffffffffffffffffffffffffffffff1681526020019081526020016000208054806020026020016040519081016040528092919081815260200182805480156117b457602002820191906000526020600020905b8154600019168152602001906001019080831161179c575b50505050509050919050565b6000806006600084600019166000191681526020019081526020016000205460076000856000191660001916815260200190815260200160002060009054906101000a900460ff1691509150915091565b6000600360008360001916600019168152602001908152602001600020600601549050919050565b600060036000836000191660001916815260200190815260200160002060020160009054906101000a900473ffffffffffffffffffffffffffffffffffffffff169050919050565b60046020528160005260406000208181548110151561189c57fe5b90600052602060002001600091509150505481565b6118b96119ac565b15156118c457600080fd5b600073ffffffffffffffffffffffffffffffffffffffff166000809054906101000a900473ffffffffffffffffffffffffffffffffffffffff1673ffffffffffffffffffffffffffffffffffffffff167f8be0079c531659141344cd1fd0a4f28419497f9722a3daafe3b4186f6b6457e060405160405180910390a360008060006101000a81548173ffffffffffffffffffffffffffffffffffffffff021916908373ffffffffffffffffffffffffffffffffffffffff160217905550565b60008060009054906101000a900473ffffffffffffffffffffffffffffffffffffffff16905090565b60008060009054906101000a900473ffffffffffffffffffffffffffffffffffffffff1673ffffffffffffffffffffffffffffffffffffffff163373ffffffffffffffffffffffffffffffffffffffff1614905090565b600080600083611a11614fce565b60006003600084600019166000191681526020019081526020016000206101a06040519081016040529081600082018054600181600116156101000203166002900480601f016020809104026020016040519081016040528092919081815260200182805460018160011615610100020316600290048015611ad45780601f10611aa957610100808354040283529160200191611ad4565b820191906000526020600020905b815481529060010190602001808311611ab757829003601f168201915b505050505081526020016001820160009054906101000a900473ffffffffffffffffffffffffffffffffffffffff1673ffffffffffffffffffffffffffffffffffffffff1673ffffffffffffffffffffffffffffffffffffffff1681526020016002820160009054906101000a900473ffffffffffffffffffffffffffffffffffffffff1673ffffffffffffffffffffffffffffffffffffffff1673ffffffffffffffffffffffffffffffffffffffff1681526020016003820160009054906101000a900473ffffffffffffffffffffffffffffffffffffffff1673ffffffffffffffffffffffffffffffffffffffff1673ffffffffffffffffffffffffffffffffffffffff1681526020016004820160009054906101000a900473ffffffffffffffffffffffffffffffffffffffff1673ffffffffffffffffffffffffffffffffffffffff1673ffffffffffffffffffffffffffffffffffffffff16815260200160058201548152602001600682015481526020016007820160009054906101000a900460ff1660ff1660ff1681526020016007820160019054906101000a900460ff1660ff1660ff1681526020016007820160029054906101000a900460ff1660ff1660ff1681526020016007820160039054906101000a900460ff1660ff1660ff1681526020016007820160049054906101000a900460ff1660ff1660ff1681526020016007820160059054906101000a900460ff1615151515815250509150600160009054906101000a900473ffffffffffffffffffffffffffffffffffffffff1690503373ffffffffffffffffffffffffffffffffffffffff16826020015173ffffffffffffffffffffffffffffffffffffffff161480611d8957503373ffffffffffffffffffffffffffffffffffffffff16826040015173ffffffffffffffffffffffffffffffffffffffff16145b80611e5d57503373ffffffffffffffffffffffffffffffffffffffff168173ffffffffffffffffffffffffffffffffffffffff16635359cf976040518163ffffffff167c0100000000000000000000000000000000000000000000000000000000028152600401602060405180830381600087803b158015611e0a57600080fd5b505af1158015611e1e573d6000803e3d6000fd5b505050506040513d6020811015611e3457600080fd5b810190808051906020019092919050505073ffffffffffffffffffffffffffffffffffffffff16145b1515611ef7576040517f08c379a00000000000000000000000000000000000000000000000000000000081526004018080602001828103825260378152602001807f4f6e6c792070726f6a656374206f776e6572206f72206d616b65722063616e2081526020017f706572666f726d2074686973206f7065726174696f6e2e00000000000000000081525060400191505060405180910390fd5b6003600088600019166000191681526020019081526020016000209550600073ffffffffffffffffffffffffffffffffffffffff168660010160009054906101000a900473ffffffffffffffffffffffffffffffffffffffff1673ffffffffffffffffffffffffffffffffffffffff1614151515612003576040517f08c379a00000000000000000000000000000000000000000000000000000000081526004018080602001828103825260238152602001807f4f6e6c7920616c6c6f77656420666f72206578697374696e672070726f6a656381526020017f74732e000000000000000000000000000000000000000000000000000000000081525060400191505060405180910390fd5b600086600601541415156120a5576040517f08c379a00000000000000000000000000000000000000000000000000000000081526004018080602001828103825260218152602001807f4f6e6c7920616c6c6f77656420666f72206163746976652070726f6a6563747381526020017f2e0000000000000000000000000000000000000000000000000000000000000081525060400191505060405180910390fd5b600160009054906101000a900473ffffffffffffffffffffffffffffffffffffffff1673ffffffffffffffffffffffffffffffffffffffff16635359cf976040518163ffffffff167c0100000000000000000000000000000000000000000000000000000000028152600401602060405180830381600087803b15801561212b57600080fd5b505af115801561213f573d6000803e3d6000fd5b505050506040513d602081101561215557600080fd5b810190808051906020019092919050505094508473ffffffffffffffffffffffffffffffffffffffff163373ffffffffffffffffffffffffffffffffffffffff16141515612264578493508373ffffffffffffffffffffffffffffffffffffffff16636d48931488336040518363ffffffff167c01000000000000000000000000000000000000000000000000000000000281526004018083600019166000191681526020018273ffffffffffffffffffffffffffffffffffffffff1673ffffffffffffffffffffffffffffffffffffffff16815260200192505050600060405180830381600087803b15801561224b57600080fd5b505af115801561225f573d6000803e3d6000fd5b505050505b42866006018190555086600019167f08c67a54b70772e59b41b8b9828d23c13759d0763d9f78e5f79b7033afa2938233426002604051808473ffffffffffffffffffffffffffffffffffffffff1673ffffffffffffffffffffffffffffffffffffffff1681526020018381526020018260028111156122df57fe5b60ff168152602001935050505060405180910390a250505050505050565b6060600560008373ffffffffffffffffffffffffffffffffffffffff1673ffffffffffffffffffffffffffffffffffffffff16815260200190815260200160002080548060200260200160405190810160405280929190818152602001828054801561238c57602002820191906000526020600020905b81546000191681526020019060010190808311612374575b50505050509050919050565b600060036000836000191660001916815260200190815260200160002060030160009054906101000a900473ffffffffffffffffffffffffffffffffffffffff169050919050565b6000600360008360001916600019168152602001908152602001600020600501549050919050565b600060036000836000191660001916815260200190815260200160002060010160009054906101000a900473ffffffffffffffffffffffffffffffffffffffff169050919050565b60008061245e83600161448f565b91509150915091565b600060036000836000191660001916815260200190815260200160002060040160009054906101000a900473ffffffffffffffffffffffffffffffffffffffff169050919050565b6003602052806000526040600020600091509050806000018054600181600116156101000203166002900480601f01602080910402602001604051908101604052809291908181526020018280546001816001161561010002031660029004801561255b5780601f106125305761010080835404028352916020019161255b565b820191906000526020600020905b81548152906001019060200180831161253e57829003601f168201915b5050505050908060010160009054906101000a900473ffffffffffffffffffffffffffffffffffffffff16908060020160009054906101000a900473ffffffffffffffffffffffffffffffffffffffff16908060030160009054906101000a900473ffffffffffffffffffffffffffffffffffffffff16908060040160009054906101000a900473ffffffffffffffffffffffffffffffffffffffff16908060050154908060060154908060070160009054906101000a900460ff16908060070160019054906101000a900460ff16908060070160029054906101000a900460ff16908060070160039054906101000a900460ff16908060070160049054906101000a900460ff16908060070160059054906101000a900460ff1690508d565b60076020528060005260406000206000915054906101000a900460ff1681565b60066020528060005260406000206000915090505481565b6000806126c183600061448f565b91509150915091565b600080836126d6614fce565b6003600083600019166000191681526020019081526020016000206101a06040519081016040529081600082018054600181600116156101000203166002900480601f0160208091040260200160405190810160405280929190818152602001828054600181600116156101000203166002900480156127975780601f1061276c57610100808354040283529160200191612797565b820191906000526020600020905b81548152906001019060200180831161277a57829003601f168201915b505050505081526020016001820160009054906101000a900473ffffffffffffffffffffffffffffffffffffffff1673ffffffffffffffffffffffffffffffffffffffff1673ffffffffffffffffffffffffffffffffffffffff1681526020016002820160009054906101000a900473ffffffffffffffffffffffffffffffffffffffff1673ffffffffffffffffffffffffffffffffffffffff1673ffffffffffffffffffffffffffffffffffffffff1681526020016003820160009054906101000a900473ffffffffffffffffffffffffffffffffffffffff1673ffffffffffffffffffffffffffffffffffffffff1673ffffffffffffffffffffffffffffffffffffffff1681526020016004820160009054906101000a900473ffffffffffffffffffffffffffffffffffffffff1673ffffffffffffffffffffffffffffffffffffffff1673ffffffffffffffffffffffffffffffffffffffff16815260200160058201548152602001600682015481526020016007820160009054906101000a900460ff1660ff1660ff1681526020016007820160019054906101000a900460ff1660ff1660ff1681526020016007820160029054906101000a900460ff1660ff1660ff1681526020016007820160039054906101000a900460ff1660ff1660ff1681526020016007820160049054906101000a900460ff1660ff1660ff1681526020016007820160059054906101000a900460ff16151515158152505090503373ffffffffffffffffffffffffffffffffffffffff16816020015173ffffffffffffffffffffffffffffffffffffffff161480612a2757503373ffffffffffffffffffffffffffffffffffffffff16816040015173ffffffffffffffffffffffffffffffffffffffff16145b1515612ac1576040517f08c379a00000000000000000000000000000000000000000000000000000000081526004018080602001828103825260378152602001807f4f6e6c792070726f6a656374206f776e6572206f72206d616b65722063616e2081526020017f706572666f726d2074686973206f7065726174696f6e2e00000000000000000081525060400191505060405180910390fd5b60018560ff1610158015612ad95750600a8560ff1611155b1515612b73576040517f08c379a000000000000000000000000000000000000000000000000000000000815260040180806020018281038252602b8152602001807f50726f6a65637420726174696e672073686f756c6420626520696e207468652081526020017f72616e676520312d31302e00000000000000000000000000000000000000000081525060400191505060405180910390fd5b60036000876000191660001916815260200190815260200160002093506000846006015414151515612c33576040517f08c379a00000000000000000000000000000000000000000000000000000000081526004018080602001828103825260218152602001807f4f6e6c7920616c6c6f77656420666f72206163746976652070726f6a6563747381526020017f2e0000000000000000000000000000000000000000000000000000000000000081525060400191505060405180910390fd5b8360010160009054906101000a900473ffffffffffffffffffffffffffffffffffffffff1673ffffffffffffffffffffffffffffffffffffffff163373ffffffffffffffffffffffffffffffffffffffff161415612d865760008460070160039054906101000a900460ff1660ff16141515612d3d576040517f08c379a00000000000000000000000000000000000000000000000000000000081526004018080602001828103825260258152602001807f4353415420697320616c6c6f77656420746f2070726f76696465206f6e6c792081526020017f6f6e63652e00000000000000000000000000000000000000000000000000000081525060400191505060405180910390fd5b848460070160036101000a81548160ff021916908360ff1602179055508360020160009054906101000a900473ffffffffffffffffffffffffffffffffffffffff169250612e7d565b60008460070160049054906101000a900460ff1660ff16141515612e38576040517f08c379a00000000000000000000000000000000000000000000000000000000081526004018080602001828103825260258152602001807f4d53415420697320616c6c6f77656420746f2070726f76696465206f6e6c792081526020017f6f6e63652e00000000000000000000000000000000000000000000000000000081525060400191505060405180910390fd5b848460070160046101000a81548160ff021916908360ff1602179055508360010160009054906101000a900473ffffffffffffffffffffffffffffffffffffffff1692505b8273ffffffffffffffffffffffffffffffffffffffff163373ffffffffffffffffffffffffffffffffffffffff1687600019167f3d3dab442c501e3ad2cb35ea97ebb5513cccec8ddb02a0f31bec75af12d778958842604051808360ff1660ff1681526020018281526020019250505060405180910390a4505050505050565b600080600080846000612f0e614fce565b600160009054906101000a900473ffffffffffffffffffffffffffffffffffffffff1691508173ffffffffffffffffffffffffffffffffffffffff16635359cf976040518163ffffffff167c0100000000000000000000000000000000000000000000000000000000028152600401602060405180830381600087803b158015612f9757600080fd5b505af1158015612fab573d6000803e3d6000fd5b505050506040513d6020811015612fc157600080fd5b810190808051906020019092919050505073ffffffffffffffffffffffffffffffffffffffff163373ffffffffffffffffffffffffffffffffffffffff1614151561309a576040517f08c379a00000000000000000000000000000000000000000000000000000000081526004018080602001828103825260348152602001807f4f6e6c79206d696c6573746f6e657320636f6e74726163742063616e2070657281526020017f666f726d2074686973206f7065726174696f6e2e00000000000000000000000081525060400191505060405180910390fd5b6003600084600019166000191681526020019081526020016000206101a06040519081016040529081600082018054600181600116156101000203166002900480601f01602080910402602001604051908101604052809291908181526020018280546001816001161561010002031660029004801561315b5780601f106131305761010080835404028352916020019161315b565b820191906000526020600020905b81548152906001019060200180831161313e57829003601f168201915b505050505081526020016001820160009054906101000a900473ffffffffffffffffffffffffffffffffffffffff1673ffffffffffffffffffffffffffffffffffffffff1673ffffffffffffffffffffffffffffffffffffffff1681526020016002820160009054906101000a900473ffffffffffffffffffffffffffffffffffffffff1673ffffffffffffffffffffffffffffffffffffffff1673ffffffffffffffffffffffffffffffffffffffff1681526020016003820160009054906101000a900473ffffffffffffffffffffffffffffffffffffffff1673ffffffffffffffffffffffffffffffffffffffff1673ffffffffffffffffffffffffffffffffffffffff1681526020016004820160009054906101000a900473ffffffffffffffffffffffffffffffffffffffff1673ffffffffffffffffffffffffffffffffffffffff1673ffffffffffffffffffffffffffffffffffffffff16815260200160058201548152602001600682015481526020016007820160009054906101000a900460ff1660ff1660ff1681526020016007820160019054906101000a900460ff1660ff1660ff1681526020016007820160029054906101000a900460ff1660ff1660ff1681526020016007820160039054906101000a900460ff1660ff1660ff1681526020016007820160049054906101000a900460ff1660ff1660ff1681526020016007820160059054906101000a900460ff16151515158152505090506003600089600019166000191681526020019081526020016000209650600073ffffffffffffffffffffffffffffffffffffffff168760010160009054906101000a900473ffffffffffffffffffffffffffffffffffffffff1673ffffffffffffffffffffffffffffffffffffffff161415151561348a576040517f08c379a00000000000000000000000000000000000000000000000000000000081526004018080602001828103825260238152602001807f4f6e6c7920616c6c6f77656420666f72206578697374696e672070726f6a656381526020017f74732e000000000000000000000000000000000000000000000000000000000081525060400191505060405180910390fd5b6000876006015414151561352c576040517f08c379a00000000000000000000000000000000000000000000000000000000081526004018080602001828103825260218152602001807f4f6e6c7920616c6c6f77656420666f72206163746976652070726f6a6563747381526020017f2e0000000000000000000000000000000000000000000000000000000000000081525060400191505060405180910390fd5b42600360008a6000191660001916815260200190815260200160002060060181905550600160009054906101000a900473ffffffffffffffffffffffffffffffffffffffff1673ffffffffffffffffffffffffffffffffffffffff16635359cf976040518163ffffffff167c0100000000000000000000000000000000000000000000000000000000028152600401602060405180830381600087803b1580156135d557600080fd5b505af11580156135e9573d6000803e3d6000fd5b505050506040513d60208110156135ff57600080fd5b810190808051906020019092919050505095508573ffffffffffffffffffffffffffffffffffffffff16639eaa4812896040518263ffffffff167c01000000000000000000000000000000000000000000000000000000000281526004018082600019166000191681526020019150506040805180830381600087803b15801561368857600080fd5b505af115801561369c573d6000803e3d6000fd5b505050506040513d60408110156136b257600080fd5b810190808051906020019092919080519060200190929190505050809550819650505060036000896000191660001916815260200190815260200160002060070160029054906101000a900460ff1660ff168460ff161415156137a3576040517f08c379a00000000000000000000000000000000000000000000000000000000081526004018080602001828103825260378152602001807f546865206c617374206d696c6573746f6e652073686f756c642062652074686581526020017f206c61737420666f7220746861742070726f6a6563742e00000000000000000081525060400191505060405180910390fd5b84151561383e576040517f08c379a000000000000000000000000000000000000000000000000000000000815260040180806020018281038252602f8152602001807f4f6e6c7920616c6c6f776564207768656e20616c6c206d696c6573746f6e657381526020017f2061726520636f6d706c657465642e000000000000000000000000000000000081525060400191505060405180910390fd5b87600019167f08c67a54b70772e59b41b8b9828d23c13759d0763d9f78e5f79b7033afa2938233426001604051808473ffffffffffffffffffffffffffffffffffffffff1673ffffffffffffffffffffffffffffffffffffffff1681526020018381526020018260028111156138b057fe5b60ff168152602001935050505060405180910390a25050505050505050565b6000806138da6119ac565b15156138e557600080fd5b8390508073ffffffffffffffffffffffffffffffffffffffff1663a9059cbb61390c611983565b856040518363ffffffff167c0100000000000000000000000000000000000000000000000000000000028152600401808373ffffffffffffffffffffffffffffffffffffffff1673ffffffffffffffffffffffffffffffffffffffff16815260200182815260200192505050602060405180830381600087803b15801561399257600080fd5b505af11580156139a6573d6000803e3d6000fd5b505050506040513d60208110156139bc57600080fd5b810190808051906020019092919050505091505092915050565b600060036000836000191660001916815260200190815260200160002060070160009054906101000a900460ff169050919050565b600160009054906101000a900473ffffffffffffffffffffffffffffffffffffffff1681565b600060036000836000191660001916815260200190815260200160002060070160019054906101000a900460ff169050919050565b6000808a73ffffffffffffffffffffffffffffffffffffffff163373ffffffffffffffffffffffffffffffffffffffff16141515613b32576040517f08c379a00000000000000000000000000000000000000000000000000000000081526004018080602001828103825260298152602001807f4f6e6c792074686520636c69656e742063616e206b69636b206f66662074686581526020017f2070726f6a6563742e000000000000000000000000000000000000000000000081525060400191505060405180910390fd5b8873ffffffffffffffffffffffffffffffffffffffff168b73ffffffffffffffffffffffffffffffffffffffff1614151515613bfc576040517f08c379a000000000000000000000000000000000000000000000000000000000815260040180806020018281038252602b8152602001807f436c69656e742063616e60742062652061206d616b6572206f6e20686572206f81526020017f776e2070726f6a6563742e00000000000000000000000000000000000000000081525060400191505060405180910390fd5b8873ffffffffffffffffffffffffffffffffffffffff168a73ffffffffffffffffffffffffffffffffffffffff1614158015613c6457508a73ffffffffffffffffffffffffffffffffffffffff168a73ffffffffffffffffffffffffffffffffffffffff1614155b1515613cfe576040517f08c379a00000000000000000000000000000000000000000000000000000000081526004018080602001828103825260298152602001807f41726269746572206d757374206e6f74206265206120636c69656e74206e6f7281526020017f2061206d616b65722e000000000000000000000000000000000000000000000081525060400191505060405180910390fd5b613d6e8989898080601f0160208091040260200160405190810160405280939291908181526020018383808284378201915050505050508f8f8080601f0160208091040260200160405190810160405280939291908181526020018383808284378201915050505050508d614562565b1515613e08576040517f08c379a00000000000000000000000000000000000000000000000000000000081526004018080602001828103825260368152602001807f4d616b65722073686f756c64207369676e207468652068617368206f6620696d81526020017f6d757461626c652061677265656d656e7420646f632e0000000000000000000081525060400191505060405180910390fd5b60018660ff1610158015613e20575060188660ff1611155b1515613eba576040517f08c379a00000000000000000000000000000000000000000000000000000000081526004018080602001828103825260328152602001807f4d696c6573746f6e657320636f756e74206973206e6f7420696e20746865206181526020017f6c6c6f77656420312d32342072616e67652e000000000000000000000000000081525060400191505060405180910390fd5b8c8c6040518083838082843782019150509250505060405180910390209150600073ffffffffffffffffffffffffffffffffffffffff1660036000846000191660001916815260200190815260200160002060010160009054906101000a900473ffffffffffffffffffffffffffffffffffffffff1673ffffffffffffffffffffffffffffffffffffffff16141515613fbb576040517f08c379a000000000000000000000000000000000000000000000000000000000815260040180806020018281038252601c8152602001807f50726f6a6563742073686f756c646e2774206578697374207965742e0000000081525060200191505060405180910390fd5b613fc58a836146b3565b613fce336147c6565b90506101a0604051908101604052808e8e8080601f01602080910402602001604051908101604052809392919081815260200183838082843782019150505050505081526020013373ffffffffffffffffffffffffffffffffffffffff1681526020018a73ffffffffffffffffffffffffffffffffffffffff1681526020018b73ffffffffffffffffffffffffffffffffffffffff1681526020018273ffffffffffffffffffffffffffffffffffffffff168152602001428152602001600081526020018660ff1681526020018560ff1681526020018760ff168152602001600060ff168152602001600060ff16815260200184151581525060036000846000191660001916815260200190815260200160002060008201518160000190805190602001906140fe9291906150a0565b5060208201518160010160006101000a81548173ffffffffffffffffffffffffffffffffffffffff021916908373ffffffffffffffffffffffffffffffffffffffff16021790555060408201518160020160006101000a81548173ffffffffffffffffffffffffffffffffffffffff021916908373ffffffffffffffffffffffffffffffffffffffff16021790555060608201518160030160006101000a81548173ffffffffffffffffffffffffffffffffffffffff021916908373ffffffffffffffffffffffffffffffffffffffff16021790555060808201518160040160006101000a81548173ffffffffffffffffffffffffffffffffffffffff021916908373ffffffffffffffffffffffffffffffffffffffff16021790555060a0820151816005015560c0820151816006015560e08201518160070160006101000a81548160ff021916908360ff1602179055506101008201518160070160016101000a81548160ff021916908360ff1602179055506101208201518160070160026101000a81548160ff021916908360ff1602179055506101408201518160070160036101000a81548160ff021916908360ff1602179055506101608201518160070160046101000a81548160ff021916908360ff1602179055506101808201518160070160056101000a81548160ff021916908315150217905550905050600460008a73ffffffffffffffffffffffffffffffffffffffff1673ffffffffffffffffffffffffffffffffffffffff168152602001908152602001600020829080600181540180825580915050906001820390600052602060002001600090919290919091509060001916905550600560008c73ffffffffffffffffffffffffffffffffffffffff1673ffffffffffffffffffffffffffffffffffffffff16815260200190815260200160002082908060018154018082558091505090600182039060005260206000200160009091929091909150906000191690555081600019167f08c67a54b70772e59b41b8b9828d23c13759d0763d9f78e5f79b7033afa2938233426000604051808473ffffffffffffffffffffffffffffffffffffffff1673ffffffffffffffffffffffffffffffffffffffff16815260200183815260200182600281111561444c57fe5b60ff168152602001935050505060405180910390a250505050505050505050505050565b6144786119ac565b151561448357600080fd5b61448c81614a42565b50565b600080606060008060008060006144a68a8a614b3c565b95506000945060009350600092505b855183101561454f5785838151811015156144cc57fe5b906020019060200201519150600060036000846000191660001916815260200190815260200160002060060154141561450457614542565b61450e828a614c91565b905060008160ff16141561452157614542565b838060010194505061453f8160ff1686614d1990919063ffffffff16565b94505b82806001019350506144b5565b8484975097505050505050509250929050565b600080600060025461459d60408051908101604052808881526020018773ffffffffffffffffffffffffffffffffffffffff16815250614d3a565b60405160200180807f190100000000000000000000000000000000000000000000000000000000000081525060020183600019166000191681526020018260001916600019168152602001925050506040516020818303038152906040526040518082805190602001908083835b602083101515614630578051825260208201915060208101905060208303925061460b565b6001836020036101000a03801982511681845116808217855250505050505090500191505060405180910390209150614676868360001916614ed690919063ffffffff16565b90508673ffffffffffffffffffffffffffffffffffffffff168173ffffffffffffffffffffffffffffffffffffffff161492505050949350505050565b60008060008492508273ffffffffffffffffffffffffffffffffffffffff16636117b80c6040518163ffffffff167c01000000000000000000000000000000000000000000000000000000000281526004016040805180830381600087803b15801561471e57600080fd5b505af1158015614732573d6000803e3d6000fd5b505050506040513d604081101561474857600080fd5b810190808051906020019092919080519060200190929190505050809250819350505081600660008660001916600019168152602001908152602001600020819055508060076000866000191660001916815260200190815260200160002060006101000a81548160ff021916908360ff1602179055505050505050565b6000806000600160009054906101000a900473ffffffffffffffffffffffffffffffffffffffff1691508173ffffffffffffffffffffffffffffffffffffffff16639e0a6bc96040518163ffffffff167c0100000000000000000000000000000000000000000000000000000000028152600401602060405180830381600087803b15801561485457600080fd5b505af1158015614868573d6000803e3d6000fd5b505050506040513d602081101561487e57600080fd5b810190808051906020019092919050505090508073ffffffffffffffffffffffffffffffffffffffff1663834cc6fc858473ffffffffffffffffffffffffffffffffffffffff16635359cf976040518163ffffffff167c0100000000000000000000000000000000000000000000000000000000028152600401602060405180830381600087803b15801561491257600080fd5b505af1158015614926573d6000803e3d6000fd5b505050506040513d602081101561493c57600080fd5b81019080805190602001909291905050506040518363ffffffff167c0100000000000000000000000000000000000000000000000000000000028152600401808373ffffffffffffffffffffffffffffffffffffffff1673ffffffffffffffffffffffffffffffffffffffff1681526020018273ffffffffffffffffffffffffffffffffffffffff1673ffffffffffffffffffffffffffffffffffffffff16815260200192505050602060405180830381600087803b1580156149fe57600080fd5b505af1158015614a12573d6000803e3d6000fd5b505050506040513d6020811015614a2857600080fd5b810190808051906020019092919050505092505050919050565b600073ffffffffffffffffffffffffffffffffffffffff168173ffffffffffffffffffffffffffffffffffffffff1614151515614a7e57600080fd5b8073ffffffffffffffffffffffffffffffffffffffff166000809054906101000a900473ffffffffffffffffffffffffffffffffffffffff1673ffffffffffffffffffffffffffffffffffffffff167f8be0079c531659141344cd1fd0a4f28419497f9722a3daafe3b4186f6b6457e060405160405180910390a3806000806101000a81548173ffffffffffffffffffffffffffffffffffffffff021916908373ffffffffffffffffffffffffffffffffffffffff16021790555050565b606060006001811115614b4b57fe5b826001811115614b5757fe5b1415614bf657600460008473ffffffffffffffffffffffffffffffffffffffff1673ffffffffffffffffffffffffffffffffffffffff168152602001908152602001600020805480602002602001604051908101604052809291908181526020018280548015614bea57602002820191906000526020600020905b81546000191681526020019060010190808311614bd2575b50505050509050614c8b565b600560008473ffffffffffffffffffffffffffffffffffffffff1673ffffffffffffffffffffffffffffffffffffffff168152602001908152602001600020805480602002602001604051908101604052809291908181526020018280548015614c8357602002820191906000526020600020905b81546000191681526020019060010190808311614c6b575b505050505090505b92915050565b6000806001811115614c9f57fe5b826001811115614cab57fe5b1415614ce45760036000846000191660001916815260200190815260200160002060070160039054906101000a900460ff169050614d13565b60036000846000191660001916815260200190815260200160002060070160049054906101000a900460ff1690505b92915050565b6000808284019050838110151515614d3057600080fd5b8091505092915050565b600060405180807f50726f706f73616c28737472696e672061677265656d656e7449642c6164647281526020017f6573732061726269746572290000000000000000000000000000000000000000815250602c019050604051809103902082600001516040518082805190602001908083835b602083101515614dd25780518252602082019150602081019050602083039250614dad565b6001836020036101000a0380198251168184511680821785525050505050509050019150506040518091039020836020015160405160200180846000191660001916815260200183600019166000191681526020018273ffffffffffffffffffffffffffffffffffffffff1673ffffffffffffffffffffffffffffffffffffffff16815260200193505050506040516020818303038152906040526040518082805190602001908083835b602083101515614ea25780518252602082019150602081019050602083039250614e7d565b6001836020036101000a03801982511681845116808217855250505050505090500191505060405180910390209050919050565b60008060008060418551141515614ef05760009350614fc5565b6020850151925060408501519150606085015160001a9050601b8160ff161015614f1b57601b810190505b601b8160ff1614158015614f335750601c8160ff1614155b15614f415760009350614fc5565b600186828585604051600081526020016040526040518085600019166000191681526020018460ff1660ff1681526020018360001916600019168152602001826000191660001916815260200194505050505060206040516020810390808403906000865af1158015614fb8573d6000803e3d6000fd5b5050506020604051035193505b50505092915050565b6101a06040519081016040528060608152602001600073ffffffffffffffffffffffffffffffffffffffff168152602001600073ffffffffffffffffffffffffffffffffffffffff168152602001600073ffffffffffffffffffffffffffffffffffffffff168152602001600073ffffffffffffffffffffffffffffffffffffffff1681526020016000815260200160008152602001600060ff168152602001600060ff168152602001600060ff168152602001600060ff168152602001600060ff1681526020016000151581525090565b828054600181600116156101000203166002900490600052602060002090601f016020900481019282601f106150e157805160ff191683800117855561510f565b8280016001018555821561510f579182015b8281111561510e5782518255916020019190600101906150f3565b5b50905061511c9190615120565b5090565b61514291905b8082111561513e576000816000905550600101615126565b5090565b905600a165627a7a723058203f5b98cb0ca06c8dff4d313a33518c51d24dd39baaf2820400579805f1b1c05e0029",
  "source": "pragma solidity 0.4.25;\n\n\nimport \"../node_modules/openzeppelin-solidity/contracts/math/SafeMath.sol\";\nimport \"../node_modules/openzeppelin-solidity/contracts/cryptography/ECDSA.sol\";\nimport \"./DecoBaseProjectsMarketplace.sol\";\nimport \"./DecoMilestones.sol\";\nimport \"./DecoEscrowFactory.sol\";\nimport \"./DecoRelay.sol\";\nimport \"./IDecoArbitration.sol\";\n\n\n/// @title Contract for Project events and actions handling.\ncontract DecoProjects is DecoBaseProjectsMarketplace {\n    using SafeMath for uint256;\n    using ECDSA for bytes32;\n\n    // struct for project details\n    struct Project {\n        string agreementId;\n        address client;\n        address maker;\n        address arbiter;\n        address escrowContractAddress;\n        uint startDate;\n        uint endDate;\n        uint8 milestoneStartWindow;\n        uint8 feedbackWindow;\n        uint8 milestonesCount;\n\n        uint8 customerSatisfaction;\n        uint8 makerSatisfaction;\n\n        bool agreementsEncrypted;\n    }\n\n    struct EIP712Domain {\n        string  name;\n        string  version;\n        uint256 chainId;\n        address verifyingContract;\n    }\n\n    struct Proposal {\n        string agreementId;\n        address arbiter;\n    }\n\n    bytes32 constant private EIP712DOMAIN_TYPEHASH = keccak256(\n        \"EIP712Domain(string name,string version,uint256 chainId,address verifyingContract)\"\n    );\n\n    bytes32 constant private PROPOSAL_TYPEHASH = keccak256(\n        \"Proposal(string agreementId,address arbiter)\"\n    );\n\n    bytes32 private DOMAIN_SEPARATOR;\n\n    // enumeration to describe possible project states for easier state changes reporting.\n    enum ProjectState { Active, Completed, Terminated }\n\n    // enumeration to describe possible satisfaction score types.\n    enum ScoreType { CustomerSatisfaction, MakerSatisfaction }\n\n    // Logged when a project state changes.\n    event LogProjectStateUpdate (\n        bytes32 indexed agreementHash,\n        address updatedBy,\n        uint timestamp,\n        ProjectState state\n    );\n\n    // Logged when either party sets satisfaction score after the completion of a project.\n    event LogProjectRated (\n        bytes32 indexed agreementHash,\n        address indexed ratedBy,\n        address indexed ratingTarget,\n        uint8 rating,\n        uint timestamp\n    );\n\n    // maps the agreement`s unique hash to the project details.\n    mapping (bytes32 => Project) public projects;\n\n    // maps hashes of all maker's projects to the maker's address.\n    mapping (address => bytes32[]) public makerProjects;\n\n    // maps hashes of all client's projects to the client's address.\n    mapping (address => bytes32[]) public clientProjects;\n\n    // maps arbiter's fixed fee to a project.\n    mapping (bytes32 => uint) public projectArbiterFixedFee;\n\n    // maps arbiter's share fee to a project.\n    mapping (bytes32 => uint8) public projectArbiterShareFee;\n\n    // Modifier to restrict method to be called either by project`s owner or maker\n    modifier eitherClientOrMaker(bytes32 _agreementHash) {\n        Project memory project = projects[_agreementHash];\n        require(\n            project.client == msg.sender || project.maker == msg.sender,\n            \"Only project owner or maker can perform this operation.\"\n        );\n        _;\n    }\n\n    // Modifier to restrict method to be called either by project`s owner or maker\n    modifier eitherClientOrMakerOrMilestoneContract(bytes32 _agreementHash) {\n        Project memory project = projects[_agreementHash];\n        DecoRelay relay = DecoRelay(relayContractAddress);\n        require(\n            project.client == msg.sender ||\n            project.maker == msg.sender ||\n            relay.milestonesContractAddress() == msg.sender,\n            \"Only project owner or maker can perform this operation.\"\n        );\n        _;\n    }\n\n    // Modifier to restrict method to be called by the milestones contract.\n    modifier onlyMilestonesContract(bytes32 _agreementHash) {\n        DecoRelay relay = DecoRelay(relayContractAddress);\n        require(\n            msg.sender == relay.milestonesContractAddress(),\n            \"Only milestones contract can perform this operation.\"\n        );\n        Project memory project = projects[_agreementHash];\n        _;\n    }\n\n    constructor (uint256 _chainId) public {\n        require(_chainId != 0, \"You must specify a nonzero chainId\");\n\n        DOMAIN_SEPARATOR = hash(EIP712Domain({\n            name: \"Deco.Network\",\n            version: \"1\",\n            chainId: _chainId,\n            verifyingContract: address(this)\n        }));\n    }\n\n    /**\n     * @dev Creates a new milestone-based project with pre-selected maker and owner. All parameters are required.\n     * @param _agreementId A `string` unique id of the agreement document for that project.\n     * @param _client An `address` of the project owner.\n     * @param _arbiter An `address` of the referee to settle all escalated disputes between parties.\n     * @param _maker An `address` of the project`s maker.\n     * @param _makersSignature A `bytes` digital signature of the maker to proof the agreement acceptance.\n     * @param _milestonesCount An `uint8` count of planned milestones for the project.\n     * @param _milestoneStartWindow An `uint8` count of days project`s owner has to start the next milestone.\n     *        If this time is exceeded then the maker can terminate the project.\n     * @param _feedbackWindow An `uint8` time in days project`s owner has to provide feedback for the last milestone.\n     *                        If that time is exceeded then maker can terminate the project and get paid for awaited\n     *                        milestone.\n     * @param _agreementEncrypted A `bool` flag indicating whether or not the agreement is encrypted.\n     */\n    function startProject(\n        string _agreementId,\n        address _client,\n        address _arbiter,\n        address _maker,\n        bytes _makersSignature,\n        uint8 _milestonesCount,\n        uint8 _milestoneStartWindow,\n        uint8 _feedbackWindow,\n        bool _agreementEncrypted\n    )\n        external\n    {\n        require(msg.sender == _client, \"Only the client can kick off the project.\");\n        require(_client != _maker, \"Client can`t be a maker on her own project.\");\n        require(_arbiter != _maker && _arbiter != _client, \"Arbiter must not be a client nor a maker.\");\n\n        require(\n            isMakersSignatureValid(_maker, _makersSignature, _agreementId, _arbiter),\n            \"Maker should sign the hash of immutable agreement doc.\"\n        );\n        require(_milestonesCount >= 1 && _milestonesCount <= 24, \"Milestones count is not in the allowed 1-24 range.\");\n        bytes32 hash = keccak256(_agreementId);\n        require(projects[hash].client == address(0x0), \"Project shouldn't exist yet.\");\n\n        saveCurrentArbitrationFees(_arbiter, hash);\n\n        address newEscrowCloneAddress = deployEscrowClone(msg.sender);\n        projects[hash] = Project(\n            _agreementId,\n            msg.sender,\n            _maker,\n            _arbiter,\n            newEscrowCloneAddress,\n            now,\n            0, // end date is unknown yet\n            _milestoneStartWindow,\n            _feedbackWindow,\n            _milestonesCount,\n            0, // CSAT is 0 to indicate that it isn't set by maker yet\n            0, // MSAT is 0 to indicate that it isn't set by client yet\n            _agreementEncrypted\n        );\n        makerProjects[_maker].push(hash);\n        clientProjects[_client].push(hash);\n        emit LogProjectStateUpdate(hash, msg.sender, now, ProjectState.Active);\n    }\n\n    /**\n     * @dev Terminate the project.\n     * @param _agreementHash A `bytes32` hash of the project`s agreement id.\n     */\n    function terminateProject(bytes32 _agreementHash)\n        external\n        eitherClientOrMakerOrMilestoneContract(_agreementHash)\n    {\n        Project storage project = projects[_agreementHash];\n        require(project.client != address(0x0), \"Only allowed for existing projects.\");\n        require(project.endDate == 0, \"Only allowed for active projects.\");\n        address milestoneContractAddress = DecoRelay(relayContractAddress).milestonesContractAddress();\n        if (msg.sender != milestoneContractAddress) {\n            DecoMilestones milestonesContract = DecoMilestones(milestoneContractAddress);\n            milestonesContract.terminateLastMilestone(_agreementHash, msg.sender);\n        }\n\n        project.endDate = now;\n        emit LogProjectStateUpdate(_agreementHash, msg.sender, now, ProjectState.Terminated);\n    }\n\n    /**\n     * @dev Complete the project.\n     * @param _agreementHash A `bytes32` hash of the project`s agreement id.\n     */\n    function completeProject(\n        bytes32 _agreementHash\n    )\n        external\n        onlyMilestonesContract(_agreementHash)\n    {\n        Project storage project = projects[_agreementHash];\n        require(project.client != address(0x0), \"Only allowed for existing projects.\");\n        require(project.endDate == 0, \"Only allowed for active projects.\");\n        projects[_agreementHash].endDate = now;\n        DecoMilestones milestonesContract = DecoMilestones(\n            DecoRelay(relayContractAddress).milestonesContractAddress()\n        );\n        bool isLastMilestoneAccepted;\n        uint8 milestoneNumber;\n        (isLastMilestoneAccepted, milestoneNumber) = milestonesContract.isLastMilestoneAccepted(\n            _agreementHash\n        );\n        require(\n            milestoneNumber == projects[_agreementHash].milestonesCount,\n            \"The last milestone should be the last for that project.\"\n        );\n        require(isLastMilestoneAccepted, \"Only allowed when all milestones are completed.\");\n        emit LogProjectStateUpdate(_agreementHash, msg.sender, now, ProjectState.Completed);\n    }\n\n    /**\n     * @dev Rate the second party on the project.\n     * @param _agreementHash A `bytes32` hash of the project`s agreement id.\n     * @param _rating An `uint8` satisfaction score of either client or maker.\n              Min value is 1, max is 10.\n     */\n    function rateProjectSecondParty(\n        bytes32 _agreementHash,\n        uint8 _rating\n    )\n        external\n        eitherClientOrMaker(_agreementHash)\n    {\n        require(_rating >= 1 && _rating <= 10, \"Project rating should be in the range 1-10.\");\n        Project storage project = projects[_agreementHash];\n        require(project.endDate != 0, \"Only allowed for active projects.\");\n        address ratingTarget;\n        if (msg.sender == project.client) {\n            require(project.customerSatisfaction == 0, \"CSAT is allowed to provide only once.\");\n            project.customerSatisfaction = _rating;\n            ratingTarget = project.maker;\n        } else {\n            require(project.makerSatisfaction == 0, \"MSAT is allowed to provide only once.\");\n            project.makerSatisfaction = _rating;\n            ratingTarget = project.client;\n        }\n        emit LogProjectRated(_agreementHash, msg.sender, ratingTarget, _rating, now);\n    }\n\n    /**\n     * @dev Query for getting the address of Escrow contract clone deployed for the given project.\n     * @param _agreementHash A `bytes32` hash of the project`s agreement id.\n     * @return An `address` of a clone.\n     */\n    function getProjectEscrowAddress(bytes32 _agreementHash) public view returns(address) {\n        return projects[_agreementHash].escrowContractAddress;\n    }\n\n    /**\n     * @dev Query for getting the address of a client for the given project.\n     * @param _agreementHash A `bytes32` hash of the project`s agreement id.\n     * @return An `address` of a client.\n     */\n    function getProjectClient(bytes32 _agreementHash) public view returns(address) {\n        return projects[_agreementHash].client;\n    }\n\n    /**\n     * @dev Query for getting the address of a maker for the given project.\n     * @param _agreementHash A `bytes32` hash of the project`s agreement id.\n     * @return An `address` of a maker.\n     */\n    function getProjectMaker(bytes32 _agreementHash) public view returns(address) {\n        return projects[_agreementHash].maker;\n    }\n\n    /**\n     * @dev Query for getting the address of an arbiter for the given project.\n     * @param _agreementHash A `bytes32` hash of the project`s agreement id.\n     * @return An `address` of an arbiter.\n     */\n    function getProjectArbiter(bytes32 _agreementHash) public view returns(address) {\n        return projects[_agreementHash].arbiter;\n    }\n\n    /**\n     * @dev Query for getting the feedback window for a client for the given project.\n     * @param _agreementHash A `bytes32` hash of the project`s agreement id.\n     * @return An `uint8` feedback window in days.\n     */\n    function getProjectFeedbackWindow(bytes32 _agreementHash) public view returns(uint8) {\n        return projects[_agreementHash].feedbackWindow;\n    }\n\n    /**\n     * @dev Query for getting the milestone start window for a client for the given project.\n     * @param _agreementHash A `bytes32` hash of the project`s agreement id.\n     * @return An `uint8` milestone start window in days.\n     */\n    function getProjectMilestoneStartWindow(bytes32 _agreementHash) public view returns(uint8) {\n        return projects[_agreementHash].milestoneStartWindow;\n    }\n\n    /**\n     * @dev Query for getting the start date for the given project.\n     * @param _agreementHash A `bytes32` hash of the project`s agreement id.\n     * @return An `uint` start date.\n     */\n    function getProjectStartDate(bytes32 _agreementHash) public view returns(uint) {\n        return projects[_agreementHash].startDate;\n    }\n\n    /**\n     * @dev Calculates sum and number of CSAT scores of ended & rated projects for the given maker`s address.\n     * @param _maker An `address` of the maker to look up.\n     * @return An `uint` sum of all scores and an `uint` number of projects counted in sum.\n     */\n    function makersAverageRating(address _maker) public view returns(uint, uint) {\n        return calculateScore(_maker, ScoreType.CustomerSatisfaction);\n    }\n\n    /**\n     * @dev Calculates sum and number of MSAT scores of ended & rated projects for the given client`s address.\n     * @param _client An `address` of the client to look up.\n     * @return An `uint` sum of all scores and an `uint` number of projects counted in sum.\n     */\n    function clientsAverageRating(address _client) public view returns(uint, uint) {\n        return calculateScore(_client, ScoreType.MakerSatisfaction);\n    }\n\n    /**\n     * @dev Returns hashes of all client`s projects\n     * @param _client An `address` to look up.\n     * @return `bytes32[]` of projects hashes.\n     */\n    function getClientProjects(address _client) public view returns(bytes32[]) {\n        return clientProjects[_client];\n    }\n\n    /**\n      @dev Returns hashes of all maker`s projects\n     * @param _maker An `address` to look up.\n     * @return `bytes32[]` of projects hashes.\n     */\n    function getMakerProjects(address _maker) public view returns(bytes32[]) {\n        return makerProjects[_maker];\n    }\n\n    /**\n     * @dev Checks if a project with the given hash exists.\n     * @param _agreementHash A `bytes32` hash of the project`s agreement id.\n     * @return A `bool` stating for the project`s existence.\n    */\n    function checkIfProjectExists(bytes32 _agreementHash) public view returns(bool) {\n        return projects[_agreementHash].client != address(0x0);\n    }\n\n    /**\n     * @dev Query for getting end date of the given project.\n     * @param _agreementHash A `bytes32` hash of the project`s agreement id.\n     * @return An `uint` end time of the project\n     */\n    function getProjectEndDate(bytes32 _agreementHash) public view returns(uint) {\n        return projects[_agreementHash].endDate;\n    }\n\n    /**\n     * @dev Returns preconfigured count of milestones for a project with the given hash.\n     * @param _agreementHash A `bytes32` hash of the project`s agreement id.\n     * @return An `uint8` count of milestones set upon the project creation.\n    */\n    function getProjectMilestonesCount(bytes32 _agreementHash) public view returns(uint8) {\n        return projects[_agreementHash].milestonesCount;\n    }\n\n    /**\n     * @dev Returns configured for the given project arbiter fees.\n     * @param _agreementHash A `bytes32` hash of the project`s agreement id.\n     * @return An `uint` fixed fee and an `uint8` share fee of the project's arbiter.\n     */\n    function getProjectArbitrationFees(bytes32 _agreementHash) public view returns(uint, uint8) {\n        return (\n            projectArbiterFixedFee[_agreementHash],\n            projectArbiterShareFee[_agreementHash]\n        );\n    }\n\n    function getInfoForDisputeAndValidate(\n        bytes32 _agreementHash,\n        address _respondent,\n        address _initiator,\n        address _arbiter\n    )\n        public\n        view\n        returns(uint, uint8, address)\n    {\n        require(checkIfProjectExists(_agreementHash), \"Project must exist.\");\n        Project memory project = projects[_agreementHash];\n        address client = project.client;\n        address maker = project.maker;\n        require(project.arbiter == _arbiter, \"Arbiter should be same as saved in project.\");\n        require(\n            (_initiator == client && _respondent == maker) ||\n            (_initiator == maker && _respondent == client),\n            \"Initiator and respondent must be different and equal to maker/client addresses.\"\n        );\n        (uint fixedFee, uint8 shareFee) = getProjectArbitrationFees(_agreementHash);\n        return (fixedFee, shareFee, project.escrowContractAddress);\n    }\n\n    /**\n     * @dev Pulls the current arbitration contract fixed & share fees and save them for a project.\n     * @param _arbiter An `address` of arbitration contract.\n     * @param _agreementHash A `bytes32` hash of agreement id.\n     */\n    function saveCurrentArbitrationFees(address _arbiter, bytes32 _agreementHash) internal {\n        IDecoArbitration arbitration = IDecoArbitration(_arbiter);\n        uint fixedFee;\n        uint8 shareFee;\n        (fixedFee, shareFee) = arbitration.getFixedAndShareFees();\n        projectArbiterFixedFee[_agreementHash] = fixedFee;\n        projectArbiterShareFee[_agreementHash] = shareFee;\n    }\n\n    /**\n     * @dev Calculates the sum of scores and the number of ended and rated projects for the given client`s or\n     *      maker`s address.\n     * @param _address An `address` to look up.\n     * @param _scoreType A `ScoreType` indicating what score should be calculated.\n     *        `CustomerSatisfaction` type means that CSAT score for the given address as a maker should be calculated.\n     *        `MakerSatisfaction` type means that MSAT score for the given address as a client should be calculated.\n     * @return An `uint` sum of all scores and an `uint` number of projects counted in sum.\n     */\n    function calculateScore(\n        address _address,\n        ScoreType _scoreType\n    )\n        internal\n        view\n        returns(uint, uint)\n    {\n        bytes32[] memory allProjectsHashes = getProjectsByScoreType(_address, _scoreType);\n        uint rating = 0;\n        uint endedProjectsCount = 0;\n        for (uint index = 0; index < allProjectsHashes.length; index++) {\n            bytes32 agreementHash = allProjectsHashes[index];\n            if (projects[agreementHash].endDate == 0) {\n                continue;\n            }\n            uint8 score = getProjectScoreByType(agreementHash, _scoreType);\n            if (score == 0) {\n                continue;\n            }\n            endedProjectsCount++;\n            rating = rating.add(score);\n        }\n        return (rating, endedProjectsCount);\n    }\n\n    /**\n     * @dev Returns all projects for the given address depending on the provided score type.\n     * @param _address An `address` to look up.\n     * @param _scoreType A `ScoreType` to identify projects source.\n     * @return `bytes32[]` of projects hashes either from `clientProjects` or `makerProjects` storage arrays.\n     */\n    function getProjectsByScoreType(address _address, ScoreType _scoreType) internal view returns(bytes32[]) {\n        if (_scoreType == ScoreType.CustomerSatisfaction) {\n            return makerProjects[_address];\n        } else {\n            return clientProjects[_address];\n        }\n    }\n\n    /**\n     * @dev Returns project score by the given type.\n     * @param _agreementHash A `bytes32` hash of a project`s agreement id.\n     * @param _scoreType A `ScoreType` to identify what score is requested.\n     * @return An `uint8` score of the given project and of the given type.\n     */\n    function getProjectScoreByType(bytes32 _agreementHash, ScoreType _scoreType) internal view returns(uint8) {\n        if (_scoreType == ScoreType.CustomerSatisfaction) {\n            return projects[_agreementHash].customerSatisfaction;\n        } else {\n            return projects[_agreementHash].makerSatisfaction;\n        }\n    }\n\n    /**\n     * @dev Deploy DecoEscrow contract clone for the newly created project.\n     * @param _newContractOwner An `address` of a new contract owner.\n     * @return An `address` of a new deployed escrow contract.\n     */\n    function deployEscrowClone(address _newContractOwner) internal returns(address) {\n        DecoRelay relay = DecoRelay(relayContractAddress);\n        DecoEscrowFactory factory = DecoEscrowFactory(relay.escrowFactoryContractAddress());\n        return factory.createEscrow(_newContractOwner, relay.milestonesContractAddress());\n    }\n\n    /**\n     * @dev Check validness of maker's signature on project creation.\n     * @param _maker An `address` of a maker.\n     * @param _signature A `bytes` digital signature generated by a maker.\n     * @param _agreementId A unique id of the agreement document for a project\n     * @param _arbiter An `address` of a referee to settle all escalated disputes between parties.\n     * @return A `bool` indicating validity of the signature.\n     */\n    function isMakersSignatureValid(address _maker, bytes _signature, string _agreementId, address _arbiter) internal view returns (bool) {\n        bytes32 digest = keccak256(abi.encodePacked(\n            \"\\x19\\x01\",\n            DOMAIN_SEPARATOR,\n            hash(Proposal(_agreementId, _arbiter))\n        ));\n        address signatureAddress = digest.recover(_signature);\n        return signatureAddress == _maker;\n    }\n\n    function hash(EIP712Domain eip712Domain) internal view returns (bytes32) {\n        return keccak256(abi.encode(\n            EIP712DOMAIN_TYPEHASH,\n            keccak256(bytes(eip712Domain.name)),\n            keccak256(bytes(eip712Domain.version)),\n            eip712Domain.chainId,\n            eip712Domain.verifyingContract\n        ));\n    }\n\n    function hash(Proposal proposal) internal view returns (bytes32) {\n        return keccak256(abi.encode(\n            PROPOSAL_TYPEHASH,\n            keccak256(bytes(proposal.agreementId)),\n            proposal.arbiter\n        ));\n    }\n}\n",
  "sourcePath": "/Users/chris/Documents/WorkStuff/Deconet/Blockchain/DeconetProjectsMarketContracts/contracts/DecoProjects.sol",
  "compiler": {
    "name": "solc",
    "version": "0.4.25+commit.59dbf8f1.Emscripten.clang"
  },
  "schemaVersion": "3.0.0",
  "updatedAt": "2019-02-27T22:50:44.043Z",
  "devdoc": {
    "methods": {
      "checkIfProjectExists(bytes32)": {
        "details": "Checks if a project with the given hash exists.",
        "params": {
          "_agreementHash": "A `bytes32` hash of the project`s agreement id."
        },
        "return": "A `bool` stating for the project`s existence."
      },
      "clientsAverageRating(address)": {
        "details": "Calculates sum and number of MSAT scores of ended & rated projects for the given client`s address.",
        "params": {
          "_client": "An `address` of the client to look up."
        },
        "return": "An `uint` sum of all scores and an `uint` number of projects counted in sum."
      },
      "completeProject(bytes32)": {
        "details": "Complete the project.",
        "params": {
          "_agreementHash": "A `bytes32` hash of the project`s agreement id."
        }
      },
      "getClientProjects(address)": {
        "details": "Returns hashes of all client`s projects",
        "params": {
          "_client": "An `address` to look up."
        },
        "return": "`bytes32[]` of projects hashes."
      },
      "getMakerProjects(address)": {
        "details": "Returns hashes of all maker`s projects",
        "params": {
          "_maker": "An `address` to look up."
        },
        "return": "`bytes32[]` of projects hashes."
      },
      "getProjectArbiter(bytes32)": {
        "details": "Query for getting the address of an arbiter for the given project.",
        "params": {
          "_agreementHash": "A `bytes32` hash of the project`s agreement id."
        },
        "return": "An `address` of an arbiter."
      },
      "getProjectArbitrationFees(bytes32)": {
        "details": "Returns configured for the given project arbiter fees.",
        "params": {
          "_agreementHash": "A `bytes32` hash of the project`s agreement id."
        },
        "return": "An `uint` fixed fee and an `uint8` share fee of the project's arbiter."
      },
      "getProjectClient(bytes32)": {
        "details": "Query for getting the address of a client for the given project.",
        "params": {
          "_agreementHash": "A `bytes32` hash of the project`s agreement id."
        },
        "return": "An `address` of a client."
      },
      "getProjectEndDate(bytes32)": {
        "details": "Query for getting end date of the given project.",
        "params": {
          "_agreementHash": "A `bytes32` hash of the project`s agreement id."
        },
        "return": "An `uint` end time of the project"
      },
      "getProjectEscrowAddress(bytes32)": {
        "details": "Query for getting the address of Escrow contract clone deployed for the given project.",
        "params": {
          "_agreementHash": "A `bytes32` hash of the project`s agreement id."
        },
        "return": "An `address` of a clone."
      },
      "getProjectFeedbackWindow(bytes32)": {
        "details": "Query for getting the feedback window for a client for the given project.",
        "params": {
          "_agreementHash": "A `bytes32` hash of the project`s agreement id."
        },
        "return": "An `uint8` feedback window in days."
      },
      "getProjectMaker(bytes32)": {
        "details": "Query for getting the address of a maker for the given project.",
        "params": {
          "_agreementHash": "A `bytes32` hash of the project`s agreement id."
        },
        "return": "An `address` of a maker."
      },
      "getProjectMilestoneStartWindow(bytes32)": {
        "details": "Query for getting the milestone start window for a client for the given project.",
        "params": {
          "_agreementHash": "A `bytes32` hash of the project`s agreement id."
        },
        "return": "An `uint8` milestone start window in days."
      },
      "getProjectMilestonesCount(bytes32)": {
        "details": "Returns preconfigured count of milestones for a project with the given hash.",
        "params": {
          "_agreementHash": "A `bytes32` hash of the project`s agreement id."
        },
        "return": "An `uint8` count of milestones set upon the project creation."
      },
      "getProjectStartDate(bytes32)": {
        "details": "Query for getting the start date for the given project.",
        "params": {
          "_agreementHash": "A `bytes32` hash of the project`s agreement id."
        },
        "return": "An `uint` start date."
      },
      "isOwner()": {
        "return": "true if `msg.sender` is the owner of the contract."
      },
      "makersAverageRating(address)": {
        "details": "Calculates sum and number of CSAT scores of ended & rated projects for the given maker`s address.",
        "params": {
          "_maker": "An `address` of the maker to look up."
        },
        "return": "An `uint` sum of all scores and an `uint` number of projects counted in sum."
      },
      "owner()": {
        "return": "the address of the owner."
      },
      "rateProjectSecondParty(bytes32,uint8)": {
        "details": "Rate the second party on the project.",
        "params": {
          "_agreementHash": "A `bytes32` hash of the project`s agreement id.",
          "_rating": "An `uint8` satisfaction score of either client or maker. Min value is 1, max is 10."
        }
      },
      "renounceOwnership()": {
        "details": "Allows the current owner to relinquish control of the contract."
      },
      "setRelayContractAddress(address)": {
        "details": "Set the new address of the `DecoRelay` contract.",
        "params": {
          "_newAddress": "An address of the new contract."
        }
      },
      "startProject(string,address,address,address,bytes,uint8,uint8,uint8,bool)": {
        "details": "Creates a new milestone-based project with pre-selected maker and owner. All parameters are required.",
        "params": {
          "_agreementEncrypted": "A `bool` flag indicating whether or not the agreement is encrypted.",
          "_agreementId": "A `string` unique id of the agreement document for that project.",
          "_arbiter": "An `address` of the referee to settle all escalated disputes between parties.",
          "_client": "An `address` of the project owner.",
          "_feedbackWindow": "An `uint8` time in days project`s owner has to provide feedback for the last milestone.                       If that time is exceeded then maker can terminate the project and get paid for awaited                       milestone.",
          "_maker": "An `address` of the project`s maker.",
          "_makersSignature": "A `bytes` digital signature of the maker to proof the agreement acceptance.",
          "_milestoneStartWindow": "An `uint8` count of days project`s owner has to start the next milestone.       If this time is exceeded then the maker can terminate the project.",
          "_milestonesCount": "An `uint8` count of planned milestones for the project."
        }
      },
      "terminateProject(bytes32)": {
        "details": "Terminate the project.",
        "params": {
          "_agreementHash": "A `bytes32` hash of the project`s agreement id."
        }
      },
      "transferAnyERC20Token(address,uint256)": {
        "details": "Allows to trasnfer any ERC20 tokens from the contract balance to owner's address.",
        "params": {
          "_tokenAddress": "An `address` of an ERC20 token.",
          "_tokens": "An `uint` tokens amount."
        },
        "return": "A `bool` operation result state."
      },
      "transferOwnership(address)": {
        "details": "Allows the current owner to transfer control of the contract to a newOwner.",
        "params": {
          "newOwner": "The address to transfer ownership to."
        }
      }
    },
    "title": "Contract for Project events and actions handling."
  },
  "userdoc": {
    "methods": {
      "renounceOwnership()": {
        "notice": "Renouncing to ownership will leave the contract without an owner. It will not be possible to call the functions with the `onlyOwner` modifier anymore."
      }
    }
  }
}