{
  "contractName": "DecoTest",
  "abi": [
    {
      "constant": false,
      "inputs": [
        {
          "name": "_agreementHash",
          "type": "bytes32"
        },
        {
          "name": "_respondent",
          "type": "address"
        },
        {
          "name": "_initiator",
          "type": "address"
        },
        {
          "name": "_arbiter",
          "type": "address"
        },
        {
          "name": "_fixedFee",
          "type": "uint256"
        },
        {
          "name": "_shareFee",
          "type": "uint8"
        },
        {
          "name": "_escrowAddress",
          "type": "address"
        },
        {
          "name": "targetContract",
          "type": "address"
        }
      ],
      "name": "testGetInfoAndValidateForDispute",
      "outputs": [],
      "payable": false,
      "stateMutability": "nonpayable",
      "type": "function"
    }
  ],
  "bytecode": "0x608060405234801561001057600080fd5b50610335806100206000396000f300608060405260043610610041576000357c0100000000000000000000000000000000000000000000000000000000900463ffffffff168063ee16811c14610046575b600080fd5b34801561005257600080fd5b5061012c6004803603810190808035600019169060200190929190803573ffffffffffffffffffffffffffffffffffffffff169060200190929190803573ffffffffffffffffffffffffffffffffffffffff169060200190929190803573ffffffffffffffffffffffffffffffffffffffff16906020019092919080359060200190929190803560ff169060200190929190803573ffffffffffffffffffffffffffffffffffffffff169060200190929190803573ffffffffffffffffffffffffffffffffffffffff16906020019092919050505061012e565b005b6000806000808493508373ffffffffffffffffffffffffffffffffffffffff166334aa982a8d8d8d8d6040518563ffffffff167c01000000000000000000000000000000000000000000000000000000000281526004018085600019166000191681526020018473ffffffffffffffffffffffffffffffffffffffff1673ffffffffffffffffffffffffffffffffffffffff1681526020018373ffffffffffffffffffffffffffffffffffffffff1673ffffffffffffffffffffffffffffffffffffffff1681526020018273ffffffffffffffffffffffffffffffffffffffff1673ffffffffffffffffffffffffffffffffffffffff168152602001945050505050606060405180830381600087803b15801561024a57600080fd5b505af115801561025e573d6000803e3d6000fd5b505050506040513d606081101561027457600080fd5b8101908080519060200190929190805190602001909291908051906020019092919050505092509250925082881415156102ad57600080fd5b8160ff168760ff161415156102c157600080fd5b8073ffffffffffffffffffffffffffffffffffffffff168673ffffffffffffffffffffffffffffffffffffffff161415156102fb57600080fd5b5050505050505050505050505600a165627a7a72305820342b8c708892d020130e06c021c9558e99ff8dc24b3a75bca5da10db41c81b810029",
  "source": "pragma solidity ^0.4.25;\n\nimport \"../DecoProjects.sol\";\n\n\ncontract DecoTest {\n    function testGetInfoAndValidateForDispute(\n        bytes32 _agreementHash,\n        address _respondent, \n        address _initiator,\n        address _arbiter,\n        uint _fixedFee,\n        uint8 _shareFee,\n        address _escrowAddress,\n        address targetContract\n    )\n        public\n    {\n        DecoProjects decoProjects = DecoProjects(targetContract);\n        (uint fixedFee, uint8 shareFee, address escrow) = decoProjects.getInfoForDisputeAndValidate(\n                _agreementHash,\n                _respondent,\n                _initiator,\n                _arbiter\n        );\n        require(_fixedFee == fixedFee);\n        require(_shareFee == shareFee);\n        require(_escrowAddress == escrow);\n    }\n}\n",
  "sourcePath": "/Users/chris/Documents/WorkStuff/Deconet/Blockchain/DeconetProjectsMarketContracts/contracts/mocks/DecoTest.sol",
  "compiler": {
    "name": "solc",
    "version": "0.4.25+commit.59dbf8f1.Emscripten.clang"
  },
  "schemaVersion": "3.0.0-beta.2",
  "updatedAt": "2019-02-13T02:21:50.497Z",
  "devdoc": {
    "methods": {}
  },
  "userdoc": {
    "methods": {}
  }
}