{
  "contractName": "DecoArbitrationStub",
  "abi": [
    {
      "constant": false,
      "inputs": [
        {
          "name": "_fixedFee",
          "type": "uint256"
        },
        {
          "name": "_shareFee",
          "type": "uint256"
        }
      ],
      "name": "setFees",
      "outputs": [],
      "payable": false,
      "stateMutability": "nonpayable",
      "type": "function"
    },
    {
      "constant": false,
      "inputs": [
        {
          "name": "_idHash",
          "type": "bytes32"
        }
      ],
      "name": "rejectProposal",
      "outputs": [],
      "payable": false,
      "stateMutability": "nonpayable",
      "type": "function"
    },
    {
      "constant": true,
      "inputs": [
        {
          "name": "",
          "type": "bytes32"
        }
      ],
      "name": "disputes",
      "outputs": [
        {
          "name": "initiator",
          "type": "address"
        },
        {
          "name": "respondent",
          "type": "address"
        },
        {
          "name": "startedTime",
          "type": "uint256"
        },
        {
          "name": "settledTime",
          "type": "uint256"
        },
        {
          "name": "respondentShare",
          "type": "uint8"
        },
        {
          "name": "initiatorShare",
          "type": "uint8"
        }
      ],
      "payable": false,
      "stateMutability": "view",
      "type": "function"
    },
    {
      "constant": false,
      "inputs": [
        {
          "name": "_newAddress",
          "type": "address"
        }
      ],
      "name": "setWithdrawalAddress",
      "outputs": [],
      "payable": false,
      "stateMutability": "nonpayable",
      "type": "function"
    },
    {
      "constant": true,
      "inputs": [],
      "name": "stubFixedFee",
      "outputs": [
        {
          "name": "",
          "type": "uint256"
        }
      ],
      "payable": false,
      "stateMutability": "view",
      "type": "function"
    },
    {
      "constant": false,
      "inputs": [
        {
          "name": "_newAddress",
          "type": "address"
        }
      ],
      "name": "setRelayContractAddress",
      "outputs": [],
      "payable": false,
      "stateMutability": "nonpayable",
      "type": "function"
    },
    {
      "constant": true,
      "inputs": [
        {
          "name": "_idHash",
          "type": "bytes32"
        }
      ],
      "name": "getDisputeStartTime",
      "outputs": [
        {
          "name": "",
          "type": "uint256"
        }
      ],
      "payable": false,
      "stateMutability": "view",
      "type": "function"
    },
    {
      "constant": true,
      "inputs": [
        {
          "name": "_idHash",
          "type": "bytes32"
        }
      ],
      "name": "getDisputeSettledStatus",
      "outputs": [
        {
          "name": "",
          "type": "bool"
        }
      ],
      "payable": false,
      "stateMutability": "view",
      "type": "function"
    },
    {
      "constant": true,
      "inputs": [
        {
          "name": "_idHash",
          "type": "bytes32"
        }
      ],
      "name": "getDisputeStartedStatus",
      "outputs": [
        {
          "name": "",
          "type": "bool"
        }
      ],
      "payable": false,
      "stateMutability": "view",
      "type": "function"
    },
    {
      "constant": false,
      "inputs": [
        {
          "name": "_idHash",
          "type": "bytes32"
        },
        {
          "name": "_respondentShare",
          "type": "uint256"
        },
        {
          "name": "_initiatorShare",
          "type": "uint256"
        }
      ],
      "name": "settleDispute",
      "outputs": [],
      "payable": false,
      "stateMutability": "nonpayable",
      "type": "function"
    },
    {
      "constant": true,
      "inputs": [
        {
          "name": "_idHash",
          "type": "bytes32"
        }
      ],
      "name": "getDisputeInitiatorShare",
      "outputs": [
        {
          "name": "",
          "type": "uint8"
        }
      ],
      "payable": false,
      "stateMutability": "view",
      "type": "function"
    },
    {
      "constant": true,
      "inputs": [
        {
          "name": "_idHash",
          "type": "bytes32"
        }
      ],
      "name": "getDisputeInitiator",
      "outputs": [
        {
          "name": "",
          "type": "address"
        }
      ],
      "payable": false,
      "stateMutability": "view",
      "type": "function"
    },
    {
      "constant": true,
      "inputs": [],
      "name": "stubShareFee",
      "outputs": [
        {
          "name": "",
          "type": "uint8"
        }
      ],
      "payable": false,
      "stateMutability": "view",
      "type": "function"
    },
    {
      "constant": false,
      "inputs": [],
      "name": "renounceOwnership",
      "outputs": [],
      "payable": false,
      "stateMutability": "nonpayable",
      "type": "function"
    },
    {
      "constant": false,
      "inputs": [
        {
          "name": "_newLimit",
          "type": "uint256"
        }
      ],
      "name": "setTimeLimitForReplyOnProposal",
      "outputs": [],
      "payable": false,
      "stateMutability": "nonpayable",
      "type": "function"
    },
    {
      "constant": true,
      "inputs": [
        {
          "name": "_idHash",
          "type": "bytes32"
        }
      ],
      "name": "getDisputeSettlementTime",
      "outputs": [
        {
          "name": "",
          "type": "uint256"
        }
      ],
      "payable": false,
      "stateMutability": "view",
      "type": "function"
    },
    {
      "constant": true,
      "inputs": [],
      "name": "owner",
      "outputs": [
        {
          "name": "",
          "type": "address"
        }
      ],
      "payable": false,
      "stateMutability": "view",
      "type": "function"
    },
    {
      "constant": true,
      "inputs": [],
      "name": "isOwner",
      "outputs": [
        {
          "name": "",
          "type": "bool"
        }
      ],
      "payable": false,
      "stateMutability": "view",
      "type": "function"
    },
    {
      "constant": true,
      "inputs": [],
      "name": "fixedFee",
      "outputs": [
        {
          "name": "",
          "type": "uint256"
        }
      ],
      "payable": false,
      "stateMutability": "view",
      "type": "function"
    },
    {
      "constant": false,
      "inputs": [
        {
          "name": "_idHash",
          "type": "bytes32"
        }
      ],
      "name": "acceptProposal",
      "outputs": [],
      "payable": false,
      "stateMutability": "nonpayable",
      "type": "function"
    },
    {
      "constant": false,
      "inputs": [
        {
          "name": "_idHash",
          "type": "bytes32"
        },
        {
          "name": "_respondent",
          "type": "address"
        },
        {
          "name": "_respondentShareProposal",
          "type": "int256"
        }
      ],
      "name": "startDispute",
      "outputs": [],
      "payable": false,
      "stateMutability": "nonpayable",
      "type": "function"
    },
    {
      "constant": true,
      "inputs": [
        {
          "name": "_idHash",
          "type": "bytes32"
        }
      ],
      "name": "getDisputeRespondent",
      "outputs": [
        {
          "name": "",
          "type": "address"
        }
      ],
      "payable": false,
      "stateMutability": "view",
      "type": "function"
    },
    {
      "constant": true,
      "inputs": [],
      "name": "shareFee",
      "outputs": [
        {
          "name": "",
          "type": "uint8"
        }
      ],
      "payable": false,
      "stateMutability": "view",
      "type": "function"
    },
    {
      "constant": true,
      "inputs": [
        {
          "name": "_idHash",
          "type": "bytes32"
        }
      ],
      "name": "getDisputeProposalShare",
      "outputs": [
        {
          "name": "",
          "type": "uint8"
        }
      ],
      "payable": false,
      "stateMutability": "view",
      "type": "function"
    },
    {
      "constant": true,
      "inputs": [],
      "name": "timeLimitForReplyOnProposal",
      "outputs": [
        {
          "name": "",
          "type": "uint256"
        }
      ],
      "payable": false,
      "stateMutability": "view",
      "type": "function"
    },
    {
      "constant": false,
      "inputs": [
        {
          "name": "_tokenAddress",
          "type": "address"
        },
        {
          "name": "_tokens",
          "type": "uint256"
        }
      ],
      "name": "transferAnyERC20Token",
      "outputs": [
        {
          "name": "success",
          "type": "bool"
        }
      ],
      "payable": false,
      "stateMutability": "nonpayable",
      "type": "function"
    },
    {
      "constant": true,
      "inputs": [],
      "name": "relayContractAddress",
      "outputs": [
        {
          "name": "",
          "type": "address"
        }
      ],
      "payable": false,
      "stateMutability": "view",
      "type": "function"
    },
    {
      "constant": true,
      "inputs": [],
      "name": "getTimeLimitForReplyOnProposal",
      "outputs": [
        {
          "name": "",
          "type": "uint256"
        }
      ],
      "payable": false,
      "stateMutability": "view",
      "type": "function"
    },
    {
      "constant": true,
      "inputs": [],
      "name": "getWithdrawalAddress",
      "outputs": [
        {
          "name": "",
          "type": "address"
        }
      ],
      "payable": false,
      "stateMutability": "view",
      "type": "function"
    },
    {
      "constant": true,
      "inputs": [],
      "name": "withdrawalAddress",
      "outputs": [
        {
          "name": "",
          "type": "address"
        }
      ],
      "payable": false,
      "stateMutability": "view",
      "type": "function"
    },
    {
      "constant": false,
      "inputs": [
        {
          "name": "newOwner",
          "type": "address"
        }
      ],
      "name": "transferOwnership",
      "outputs": [],
      "payable": false,
      "stateMutability": "nonpayable",
      "type": "function"
    },
    {
      "payable": true,
      "stateMutability": "payable",
      "type": "fallback"
    },
    {
      "anonymous": false,
      "inputs": [
        {
          "indexed": true,
          "name": "previousOwner",
          "type": "address"
        },
        {
          "indexed": true,
          "name": "newOwner",
          "type": "address"
        }
      ],
      "name": "OwnershipTransferred",
      "type": "event"
    },
    {
      "anonymous": false,
      "inputs": [
        {
          "indexed": true,
          "name": "sender",
          "type": "address"
        },
        {
          "indexed": true,
          "name": "idHash",
          "type": "bytes32"
        },
        {
          "indexed": false,
          "name": "timestamp",
          "type": "uint256"
        },
        {
          "indexed": false,
          "name": "respondentShareProposal",
          "type": "int256"
        }
      ],
      "name": "LogStartedDispute",
      "type": "event"
    },
    {
      "anonymous": false,
      "inputs": [
        {
          "indexed": true,
          "name": "sender",
          "type": "address"
        },
        {
          "indexed": true,
          "name": "idHash",
          "type": "bytes32"
        },
        {
          "indexed": false,
          "name": "timestamp",
          "type": "uint256"
        },
        {
          "indexed": false,
          "name": "rejectedProposal",
          "type": "uint8"
        }
      ],
      "name": "LogRejectedProposal",
      "type": "event"
    },
    {
      "anonymous": false,
      "inputs": [
        {
          "indexed": true,
          "name": "sender",
          "type": "address"
        },
        {
          "indexed": true,
          "name": "idHash",
          "type": "bytes32"
        },
        {
          "indexed": false,
          "name": "timestamp",
          "type": "uint256"
        },
        {
          "indexed": false,
          "name": "respondentShare",
          "type": "uint8"
        },
        {
          "indexed": false,
          "name": "initiatorShare",
          "type": "uint8"
        }
      ],
      "name": "LogSettledDispute",
      "type": "event"
    },
    {
      "anonymous": false,
      "inputs": [
        {
          "indexed": false,
          "name": "timestamp",
          "type": "uint256"
        },
        {
          "indexed": false,
          "name": "fixedFee",
          "type": "uint256"
        },
        {
          "indexed": false,
          "name": "shareFee",
          "type": "uint8"
        }
      ],
      "name": "LogFeesUpdated",
      "type": "event"
    },
    {
      "anonymous": false,
      "inputs": [
        {
          "indexed": false,
          "name": "timestamp",
          "type": "uint256"
        },
        {
          "indexed": false,
          "name": "proposalActionTimeLimit",
          "type": "uint256"
        }
      ],
      "name": "LogProposalTimeLimitUpdated",
      "type": "event"
    },
    {
      "anonymous": false,
      "inputs": [
        {
          "indexed": false,
          "name": "timestamp",
          "type": "uint256"
        },
        {
          "indexed": false,
          "name": "newWithdrawalAddress",
          "type": "address"
        }
      ],
      "name": "LogWithdrawalAddressChanged",
      "type": "event"
    },
    {
      "constant": false,
      "inputs": [
        {
          "name": "fixedFee",
          "type": "uint256"
        },
        {
          "name": "shareFee",
          "type": "uint8"
        }
      ],
      "name": "setStubFees",
      "outputs": [],
      "payable": false,
      "stateMutability": "nonpayable",
      "type": "function"
    },
    {
      "constant": false,
      "inputs": [
        {
          "name": "idHash",
          "type": "bytes32"
        },
        {
          "name": "respondentShare",
          "type": "uint8"
        },
        {
          "name": "initiatorShare",
          "type": "uint8"
        }
      ],
      "name": "simulateInternalSettleDisputeCall",
      "outputs": [],
      "payable": false,
      "stateMutability": "nonpayable",
      "type": "function"
    },
    {
      "constant": true,
      "inputs": [],
      "name": "getFixedAndShareFees",
      "outputs": [
        {
          "name": "",
          "type": "uint256"
        },
        {
          "name": "",
          "type": "uint8"
        }
      ],
      "payable": false,
      "stateMutability": "view",
      "type": "function"
    }
  ],
  "bytecode": "0x6080604052336000806101000a81548173ffffffffffffffffffffffffffffffffffffffff021916908373ffffffffffffffffffffffffffffffffffffffff1602179055506000809054906101000a900473ffffffffffffffffffffffffffffffffffffffff1673ffffffffffffffffffffffffffffffffffffffff16600073ffffffffffffffffffffffffffffffffffffffff167f8be0079c531659141344cd1fd0a4f28419497f9722a3daafe3b4186f6b6457e060405160405180910390a3613089806100cf6000396000f3006080604052600436106101ac576000357c0100000000000000000000000000000000000000000000000000000000900463ffffffff1680630b78f9c01461022657806311ab31ed1461025d57806311be19971461028e57806321b8092e1461035a5780632bed29601461039d5780632d2bcd37146103c85780633abbc6471461040b5780633ad4e1fa146104505780633feeabfc14610499578063410366c1146104e257806355ba1216146105275780635c4397bd146105725780636117b80c146105e357806371226f421461061b578063715018a61461064c57806383c007f114610663578063865ad0491461069057806389af0d8d146106ca5780638da5cb5b1461070f5780638f32d59b1461076657806391792d5b146107955780639d079b18146107c0578063a87ced35146107f1578063afa2209c1461084c578063b069bbbb146108bd578063b2fa01d4146108ee578063bce5bd3114610939578063cb610ee214610964578063dc39d06d146109af578063dfa93d6414610a14578063e86ba26214610a6b578063ec8f3fa514610a96578063f2bcd02214610aed578063f2fde38b14610b44575b600034141515610224576040517f08c379a000000000000000000000000000000000000000000000000000000000815260040180806020018281038252601a8152602001807f426c6f636b696e6720616e7920696e636f6d696e67204554482e00000000000081525060200191505060405180910390fd5b005b34801561023257600080fd5b5061025b6004803603810190808035906020019092919080359060200190929190505050610b87565b005b34801561026957600080fd5b5061028c6004803603810190808035600019169060200190929190505050610cbd565b005b34801561029a57600080fd5b506102bd6004803603810190808035600019169060200190929190505050610f61565b604051808773ffffffffffffffffffffffffffffffffffffffff1673ffffffffffffffffffffffffffffffffffffffff1681526020018673ffffffffffffffffffffffffffffffffffffffff1673ffffffffffffffffffffffffffffffffffffffff1681526020018581526020018481526020018360ff1660ff1681526020018260ff1660ff168152602001965050505050505060405180910390f35b34801561036657600080fd5b5061039b600480360381019080803573ffffffffffffffffffffffffffffffffffffffff169060200190929190505050610ff7565b005b3480156103a957600080fd5b506103b261115e565b6040518082815260200191505060405180910390f35b3480156103d457600080fd5b50610409600480360381019080803573ffffffffffffffffffffffffffffffffffffffff169060200190929190505050611164565b005b34801561041757600080fd5b5061043a6004803603810190808035600019169060200190929190505050611260565b6040518082815260200191505060405180910390f35b34801561045c57600080fd5b5061047f6004803603810190808035600019169060200190929190505050611288565b604051808215151515815260200191505060405180910390f35b3480156104a557600080fd5b506104c860048036038101908080356000191690602001909291905050506112b3565b604051808215151515815260200191505060405180910390f35b3480156104ee57600080fd5b50610525600480360381019080803560001916906020019092919080359060200190929190803590602001909291905050506112de565b005b34801561053357600080fd5b5061055660048036038101908080356000191690602001909291905050506119f4565b604051808260ff1660ff16815260200191505060405180910390f35b34801561057e57600080fd5b506105a16004803603810190808035600019169060200190929190505050611a29565b604051808273ffffffffffffffffffffffffffffffffffffffff1673ffffffffffffffffffffffffffffffffffffffff16815260200191505060405180910390f35b3480156105ef57600080fd5b506105f8611a71565b604051808381526020018260ff1660ff1681526020019250505060405180910390f35b34801561062757600080fd5b50610630611a8f565b604051808260ff1660ff16815260200191505060405180910390f35b34801561065857600080fd5b50610661611aa2565b005b34801561066f57600080fd5b5061068e60048036038101908080359060200190929190505050611b74565b005b34801561069c57600080fd5b506106c860048036038101908080359060200190929190803560ff169060200190929190505050611bd2565b005b3480156106d657600080fd5b506106f96004803603810190808035600019169060200190929190505050611bf8565b6040518082815260200191505060405180910390f35b34801561071b57600080fd5b50610724611c20565b604051808273ffffffffffffffffffffffffffffffffffffffff1673ffffffffffffffffffffffffffffffffffffffff16815260200191505060405180910390f35b34801561077257600080fd5b5061077b611c49565b604051808215151515815260200191505060405180910390f35b3480156107a157600080fd5b506107aa611ca0565b6040518082815260200191505060405180910390f35b3480156107cc57600080fd5b506107ef6004803603810190808035600019169060200190929190505050611ca6565b005b3480156107fd57600080fd5b5061084a6004803603810190808035600019169060200190929190803573ffffffffffffffffffffffffffffffffffffffff16906020019092919080359060200190929190505050611f9d565b005b34801561085857600080fd5b5061087b60048036038101908080356000191690602001909291905050506127f0565b604051808273ffffffffffffffffffffffffffffffffffffffff1673ffffffffffffffffffffffffffffffffffffffff16815260200191505060405180910390f35b3480156108c957600080fd5b506108d2612838565b604051808260ff1660ff16815260200191505060405180910390f35b3480156108fa57600080fd5b5061091d600480360381019080803560001916906020019092919050505061284b565b604051808260ff1660ff16815260200191505060405180910390f35b34801561094557600080fd5b5061094e612880565b6040518082815260200191505060405180910390f35b34801561097057600080fd5b506109ad6004803603810190808035600019169060200190929190803560ff169060200190929190803560ff169060200190929190505050612886565b005b3480156109bb57600080fd5b506109fa600480360381019080803573ffffffffffffffffffffffffffffffffffffffff16906020019092919080359060200190929190505050612930565b604051808215151515815260200191505060405180910390f35b348015610a2057600080fd5b50610a29612a37565b604051808273ffffffffffffffffffffffffffffffffffffffff1673ffffffffffffffffffffffffffffffffffffffff16815260200191505060405180910390f35b348015610a7757600080fd5b50610a80612a5d565b6040518082815260200191505060405180910390f35b348015610aa257600080fd5b50610aab612a67565b604051808273ffffffffffffffffffffffffffffffffffffffff1673ffffffffffffffffffffffffffffffffffffffff16815260200191505060405180910390f35b348015610af957600080fd5b50610b02612a91565b604051808273ffffffffffffffffffffffffffffffffffffffff1673ffffffffffffffffffffffffffffffffffffffff16815260200191505060405180910390f35b348015610b5057600080fd5b50610b85600480360381019080803573ffffffffffffffffffffffffffffffffffffffff169060200190929190505050612ab7565b005b610b8f611c49565b1515610b9a57600080fd5b8160038190555060648111151515610c40576040517f08c379a00000000000000000000000000000000000000000000000000000000081526004018080602001828103825260248152602001807f5368617265206665652073686f756c6420626520696e20302d3130302520726181526020017f6e67652e0000000000000000000000000000000000000000000000000000000081525060400191505060405180910390fd5b80600460006101000a81548160ff021916908360ff1602179055507fdea29517eb8324feecfa3c890176a2b7f9f8223292f80244b108fa6a26e63f5e42600354600460009054906101000a900460ff16604051808481526020018381526020018260ff1660ff168152602001935050505060405180910390a15050565b600080600060066000856000191660001916815260200190815260200160002092508260010160009054906101000a900473ffffffffffffffffffffffffffffffffffffffff1673ffffffffffffffffffffffffffffffffffffffff163373ffffffffffffffffffffffffffffffffffffffff16141515610dcc576040517f08c379a000000000000000000000000000000000000000000000000000000000815260040180806020018281038252602e8152602001807f50726f706f73616c2063616e2062652072656a6563746564206f6e6c7920627981526020017f206120726573706f6e64656e742e00000000000000000000000000000000000081525060400191505060405180910390fd5b42915081610de96005548560020154612ad690919063ffffffff16565b111515610eaa576040517f08c379a000000000000000000000000000000000000000000000000000000000815260040180806020018281038252605c8152602001807f526573706f6e64656e742073686f756c642072656a6563742077697468696e2081526020017f61206c696d697465642074696d656672616d652061667465722074686520646981526020017f737075746520776974682070726f706f73616c20737461727465642e0000000081525060600191505060405180910390fd5b8260040160009054906101000a900460ff16905060008360040160006101000a81548160ff021916908360ff16021790555060008360040160016101000a81548160ff021916908360ff16021790555083600019163373ffffffffffffffffffffffffffffffffffffffff167f3301342223d33a41ec1d4a09e1c044c9bd4941c9aa5de525154e998bec7dce498484604051808381526020018260ff1660ff1681526020019250505060405180910390a350505050565b60066020528060005260406000206000915090508060000160009054906101000a900473ffffffffffffffffffffffffffffffffffffffff16908060010160009054906101000a900473ffffffffffffffffffffffffffffffffffffffff16908060020154908060030154908060040160009054906101000a900460ff16908060040160019054906101000a900460ff16905086565b610fff611c49565b151561100a57600080fd5b600073ffffffffffffffffffffffffffffffffffffffff168173ffffffffffffffffffffffffffffffffffffffff16141515156110af576040517f08c379a00000000000000000000000000000000000000000000000000000000081526004018080602001828103825260188152602001807f53686f756c64206265206e6f74203020616464726573732e000000000000000081525060200191505060405180910390fd5b80600260006101000a81548173ffffffffffffffffffffffffffffffffffffffff021916908373ffffffffffffffffffffffffffffffffffffffff1602179055507f4e8178117134ed7664c57b04a96175b1314dfc38ecc05dddbd8dc8ec130af5aa4282604051808381526020018273ffffffffffffffffffffffffffffffffffffffff1673ffffffffffffffffffffffffffffffffffffffff1681526020019250505060405180910390a150565b60075481565b61116c611c49565b151561117757600080fd5b600073ffffffffffffffffffffffffffffffffffffffff168173ffffffffffffffffffffffffffffffffffffffff161415151561121c576040517f08c379a00000000000000000000000000000000000000000000000000000000081526004018080602001828103825260188152602001807f53686f756c64206265206e6f74203020616464726573732e000000000000000081525060200191505060405180910390fd5b80600160006101000a81548173ffffffffffffffffffffffffffffffffffffffff021916908373ffffffffffffffffffffffffffffffffffffffff16021790555050565b6000600660008360001916600019168152602001908152602001600020600201549050919050565b6000806006600084600019166000191681526020019081526020016000206003015414159050919050565b6000806006600084600019166000191681526020019081526020016000206002015414159050919050565b60008060003073ffffffffffffffffffffffffffffffffffffffff163373ffffffffffffffffffffffffffffffffffffffff1614806113215750611320611c49565b5b15156113e1576040517f08c379a000000000000000000000000000000000000000000000000000000000815260040180806020018281038252604c8152602001807f536574746c652064697370757465206d75737420626520706572666f6d65642081526020017f6279207468697320636f6e7472616374206f72206172626974657228636f6e7481526020017f72616374206f776e6572292e000000000000000000000000000000000000000081525060600191505060405180910390fd5b6006600087600019166000191681526020019081526020016000209250600083600201541415151561147b576040517f08c379a00000000000000000000000000000000000000000000000000000000081526004018080602001828103825260138152602001807f44697370757465206d7573742065786973742e0000000000000000000000000081525060200191505060405180910390fd5b600083600301541415156114f7576040517f08c379a00000000000000000000000000000000000000000000000000000000081526004018080602001828103825260178152602001807f44697370757465206d757374206265206163746976652e00000000000000000081525060200191505060405180910390fd5b42915061150386612af7565b806115155750611514868686612c84565b5b15156115fb576040517f08c379a00000000000000000000000000000000000000000000000000000000081526004018080602001828103825260618152602001807f53686f756c642062652063616c6c6564206279207468697320636f6e7472616381526020017f7428616b612061636365707465642070726f706f73616c29206f6e2074696d6581526020017f2c206f722061726269746572206f7574736964652074696d65206c696d69747381526020017f2e0000000000000000000000000000000000000000000000000000000000000081525060800191505060405180910390fd5b60646116108587612ad690919063ffffffff16565b141515611685576040517f08c379a00000000000000000000000000000000000000000000000000000000081526004018080602001828103825260108152602001807f53756d206d75737420626520313030250000000000000000000000000000000081525060200191505060405180910390fd5b848360040160006101000a81548160ff021916908360ff160217905550838360040160016101000a81548160ff021916908360ff1602179055508183600301819055506116d0612e32565b90508073ffffffffffffffffffffffffffffffffffffffff1663d727d64b878560010160009054906101000a900473ffffffffffffffffffffffffffffffffffffffff168660040160009054906101000a900460ff168760000160009054906101000a900473ffffffffffffffffffffffffffffffffffffffff168860040160019054906101000a900460ff163073ffffffffffffffffffffffffffffffffffffffff163373ffffffffffffffffffffffffffffffffffffffff16143073ffffffffffffffffffffffffffffffffffffffff1663ec8f3fa56040518163ffffffff167c0100000000000000000000000000000000000000000000000000000000028152600401602060405180830381600087803b1580156117f057600080fd5b505af1158015611804573d6000803e3d6000fd5b505050506040513d602081101561181a57600080fd5b81019080805190602001909291905050506040518863ffffffff167c01000000000000000000000000000000000000000000000000000000000281526004018088600019166000191681526020018773ffffffffffffffffffffffffffffffffffffffff1673ffffffffffffffffffffffffffffffffffffffff1681526020018660ff1660ff1681526020018573ffffffffffffffffffffffffffffffffffffffff1673ffffffffffffffffffffffffffffffffffffffff1681526020018460ff1660ff168152602001831515151581526020018273ffffffffffffffffffffffffffffffffffffffff1673ffffffffffffffffffffffffffffffffffffffff168152602001975050505050505050600060405180830381600087803b15801561194357600080fd5b505af1158015611957573d6000803e3d6000fd5b5050505085600019163373ffffffffffffffffffffffffffffffffffffffff167f7b186abf9c0d103f01aacda12c1f7a22e5b5199a8013934ff3eeb9b845591ce6848660040160009054906101000a900460ff168760040160019054906101000a900460ff16604051808481526020018360ff1660ff1681526020018260ff1660ff168152602001935050505060405180910390a3505050505050565b600060066000836000191660001916815260200190815260200160002060040160019054906101000a900460ff169050919050565b600060066000836000191660001916815260200190815260200160002060000160009054906101000a900473ffffffffffffffffffffffffffffffffffffffff169050919050565b600080600754600860009054906101000a900460ff16915091509091565b600860009054906101000a900460ff1681565b611aaa611c49565b1515611ab557600080fd5b600073ffffffffffffffffffffffffffffffffffffffff166000809054906101000a900473ffffffffffffffffffffffffffffffffffffffff1673ffffffffffffffffffffffffffffffffffffffff167f8be0079c531659141344cd1fd0a4f28419497f9722a3daafe3b4186f6b6457e060405160405180910390a360008060006101000a81548173ffffffffffffffffffffffffffffffffffffffff021916908373ffffffffffffffffffffffffffffffffffffffff160217905550565b611b7c611c49565b1515611b8757600080fd5b806005819055507f028ab5fadc0d7e3d6e7966e362c8660f613045f6f593717763e67a3ec6f7f88842600554604051808381526020018281526020019250505060405180910390a150565b8160078190555080600860006101000a81548160ff021916908360ff1602179055505050565b6000600660008360001916600019168152602001908152602001600020600301549050919050565b60008060009054906101000a900473ffffffffffffffffffffffffffffffffffffffff16905090565b60008060009054906101000a900473ffffffffffffffffffffffffffffffffffffffff1673ffffffffffffffffffffffffffffffffffffffff163373ffffffffffffffffffffffffffffffffffffffff1614905090565b60035481565b611cae612ff4565b60066000836000191660001916815260200190815260200160002060c060405190810160405290816000820160009054906101000a900473ffffffffffffffffffffffffffffffffffffffff1673ffffffffffffffffffffffffffffffffffffffff1673ffffffffffffffffffffffffffffffffffffffff1681526020016001820160009054906101000a900473ffffffffffffffffffffffffffffffffffffffff1673ffffffffffffffffffffffffffffffffffffffff1673ffffffffffffffffffffffffffffffffffffffff16815260200160028201548152602001600382015481526020016004820160009054906101000a900460ff1660ff1660ff1681526020016004820160019054906101000a900460ff1660ff1660ff16815250509050806020015173ffffffffffffffffffffffffffffffffffffffff163373ffffffffffffffffffffffffffffffffffffffff16141515611e9e576040517f08c379a000000000000000000000000000000000000000000000000000000000815260040180806020018281038252602e8152602001807f50726f706f73616c2063616e206265206163636570746564206f6e6c7920627981526020017f206120726573706f6e64656e742e00000000000000000000000000000000000081525060400191505060405180910390fd5b3073ffffffffffffffffffffffffffffffffffffffff1663410366c18360066000866000191660001916815260200190815260200160002060040160009054906101000a900460ff1660066000876000191660001916815260200190815260200160002060040160019054906101000a900460ff166040518463ffffffff167c01000000000000000000000000000000000000000000000000000000000281526004018084600019166000191681526020018360ff1681526020018260ff1681526020019350505050600060405180830381600087803b158015611f8157600080fd5b505af1158015611f95573d6000803e3d6000fd5b505050505050565b60008060008060006006600089600019166000191681526020019081526020016000206002015414151561205f576040517f08c379a00000000000000000000000000000000000000000000000000000000081526004018080602001828103825260218152602001807f446973707574652073686f756c646e277420626520737461727465642079657481526020017f2e0000000000000000000000000000000000000000000000000000000000000081525060400191505060405180910390fd5b612067612e32565b93508373ffffffffffffffffffffffffffffffffffffffff166318469dfe886040518263ffffffff167c0100000000000000000000000000000000000000000000000000000000028152600401808260001916600019168152602001915050602060405180830381600087803b1580156120e057600080fd5b505af11580156120f4573d6000803e3d6000fd5b505050506040513d602081101561210a57600080fd5b810190808051906020019092919050505015156121b5576040517f08c379a00000000000000000000000000000000000000000000000000000000081526004018080602001828103825260388152602001807f5461726765742073686f756c6420636f6e6669726d206974732073746174652081526020017f746f20626520726561647920666f7220646973707574652e000000000000000081525060400191505060405180910390fd5b8373ffffffffffffffffffffffffffffffffffffffff16638e22e64388336040518363ffffffff167c01000000000000000000000000000000000000000000000000000000000281526004018083600019166000191681526020018273ffffffffffffffffffffffffffffffffffffffff1673ffffffffffffffffffffffffffffffffffffffff16815260200192505050602060405180830381600087803b15801561226057600080fd5b505af1158015612274573d6000803e3d6000fd5b505050506040513d602081101561228a57600080fd5b81019080805190602001909291905050501515612335576040517f08c379a000000000000000000000000000000000000000000000000000000000815260040180806020018281038252602f8152602001807f436865636b2069662073656e64657220697320656c696769626c6520746f207081526020017f6572666f726d20616374696f6e732e000000000000000000000000000000000081525060400191505060405180910390fd5b8373ffffffffffffffffffffffffffffffffffffffff16638e22e64388886040518363ffffffff167c01000000000000000000000000000000000000000000000000000000000281526004018083600019166000191681526020018273ffffffffffffffffffffffffffffffffffffffff1673ffffffffffffffffffffffffffffffffffffffff16815260200192505050602060405180830381600087803b1580156123e057600080fd5b505af11580156123f4573d6000803e3d6000fd5b505050506040513d602081101561240a57600080fd5b810190808051906020019092919050505015156124b5576040517f08c379a00000000000000000000000000000000000000000000000000000000081526004018080602001828103825260338152602001807f436865636b20696620726573706f6e64656e7420697320656c696769626c652081526020017f746f20706572666f726d20616374696f6e732e0000000000000000000000000081525060400191505060405180910390fd5b60008512806124c45750606485135b156124d65760009250600091506124e0565b8492508260640391505b42905060c0604051908101604052803373ffffffffffffffffffffffffffffffffffffffff1681526020018773ffffffffffffffffffffffffffffffffffffffff168152602001828152602001600081526020018460ff1681526020018360ff1681525060066000896000191660001916815260200190815260200160002060008201518160000160006101000a81548173ffffffffffffffffffffffffffffffffffffffff021916908373ffffffffffffffffffffffffffffffffffffffff16021790555060208201518160010160006101000a81548173ffffffffffffffffffffffffffffffffffffffff021916908373ffffffffffffffffffffffffffffffffffffffff160217905550604082015181600201556060820151816003015560808201518160040160006101000a81548160ff021916908360ff16021790555060a08201518160040160016101000a81548160ff021916908360ff16021790555090505086600019163373ffffffffffffffffffffffffffffffffffffffff167fd3c1f1dc18ed48a5c83b7027346b8ee18963869a020f9f80158b65e8b0f30e668388604051808381526020018281526020019250505060405180910390a360648360ff161415612757573073ffffffffffffffffffffffffffffffffffffffff1663410366c18885856040518463ffffffff167c01000000000000000000000000000000000000000000000000000000000281526004018084600019166000191681526020018360ff1681526020018260ff1681526020019350505050600060405180830381600087803b15801561273a57600080fd5b505af115801561274e573d6000803e3d6000fd5b505050506127e7565b8373ffffffffffffffffffffffffffffffffffffffff1663b4cbff23886040518263ffffffff167c0100000000000000000000000000000000000000000000000000000000028152600401808260001916600019168152602001915050600060405180830381600087803b1580156127ce57600080fd5b505af11580156127e2573d6000803e3d6000fd5b505050505b50505050505050565b600060066000836000191660001916815260200190815260200160002060010160009054906101000a900473ffffffffffffffffffffffffffffffffffffffff169050919050565b600460009054906101000a900460ff1681565b600060066000836000191660001916815260200190815260200160002060040160009054906101000a900460ff169050919050565b60055481565b3073ffffffffffffffffffffffffffffffffffffffff1663410366c18484846040518463ffffffff167c01000000000000000000000000000000000000000000000000000000000281526004018084600019166000191681526020018360ff1681526020018260ff1681526020019350505050600060405180830381600087803b15801561291357600080fd5b505af1158015612927573d6000803e3d6000fd5b50505050505050565b60008061293b611c49565b151561294657600080fd5b8390508073ffffffffffffffffffffffffffffffffffffffff1663a9059cbb61296d611c20565b856040518363ffffffff167c0100000000000000000000000000000000000000000000000000000000028152600401808373ffffffffffffffffffffffffffffffffffffffff1673ffffffffffffffffffffffffffffffffffffffff16815260200182815260200192505050602060405180830381600087803b1580156129f357600080fd5b505af1158015612a07573d6000803e3d6000fd5b505050506040513d6020811015612a1d57600080fd5b810190808051906020019092919050505091505092915050565b600160009054906101000a900473ffffffffffffffffffffffffffffffffffffffff1681565b6000600554905090565b6000600260009054906101000a900473ffffffffffffffffffffffffffffffffffffffff16905090565b600260009054906101000a900473ffffffffffffffffffffffffffffffffffffffff1681565b612abf611c49565b1515612aca57600080fd5b612ad381612efa565b50565b6000808284019050838110151515612aed57600080fd5b8091505092915050565b6000612b01612ff4565b600060066000856000191660001916815260200190815260200160002060c060405190810160405290816000820160009054906101000a900473ffffffffffffffffffffffffffffffffffffffff1673ffffffffffffffffffffffffffffffffffffffff1673ffffffffffffffffffffffffffffffffffffffff1681526020016001820160009054906101000a900473ffffffffffffffffffffffffffffffffffffffff1673ffffffffffffffffffffffffffffffffffffffff1673ffffffffffffffffffffffffffffffffffffffff16815260200160028201548152602001600382015481526020016004820160009054906101000a900460ff1660ff1660ff1681526020016004820160019054906101000a900460ff1660ff1660ff168152505091508160a001518260800151019050612c3b611c49565b8015612c7b575060008160ff161480612c7a575060648160ff16148015612c79575042612c776005548460400151612ad690919063ffffffff16565b105b5b5b92505050919050565b6000612c8e612ff4565b60066000866000191660001916815260200190815260200160002060c060405190810160405290816000820160009054906101000a900473ffffffffffffffffffffffffffffffffffffffff1673ffffffffffffffffffffffffffffffffffffffff1673ffffffffffffffffffffffffffffffffffffffff1681526020016001820160009054906101000a900473ffffffffffffffffffffffffffffffffffffffff1673ffffffffffffffffffffffffffffffffffffffff1673ffffffffffffffffffffffffffffffffffffffff16815260200160028201548152602001600382015481526020016004820160009054906101000a900460ff1660ff1660ff1681526020016004820160019054906101000a900460ff1660ff1660ff168152505090503073ffffffffffffffffffffffffffffffffffffffff163373ffffffffffffffffffffffffffffffffffffffff16148015612e04575042612e016005548360400151612ad690919063ffffffff16565b10155b8015612e16575083816080015160ff16145b8015612e285750828160a0015160ff16145b9150509392505050565b6000600160009054906101000a900473ffffffffffffffffffffffffffffffffffffffff1673ffffffffffffffffffffffffffffffffffffffff16635359cf976040518163ffffffff167c0100000000000000000000000000000000000000000000000000000000028152600401602060405180830381600087803b158015612eba57600080fd5b505af1158015612ece573d6000803e3d6000fd5b505050506040513d6020811015612ee457600080fd5b8101908080519060200190929190505050905090565b600073ffffffffffffffffffffffffffffffffffffffff168173ffffffffffffffffffffffffffffffffffffffff1614151515612f3657600080fd5b8073ffffffffffffffffffffffffffffffffffffffff166000809054906101000a900473ffffffffffffffffffffffffffffffffffffffff1673ffffffffffffffffffffffffffffffffffffffff167f8be0079c531659141344cd1fd0a4f28419497f9722a3daafe3b4186f6b6457e060405160405180910390a3806000806101000a81548173ffffffffffffffffffffffffffffffffffffffff021916908373ffffffffffffffffffffffffffffffffffffffff16021790555050565b60c060405190810160405280600073ffffffffffffffffffffffffffffffffffffffff168152602001600073ffffffffffffffffffffffffffffffffffffffff1681526020016000815260200160008152602001600060ff168152602001600060ff16815250905600a165627a7a72305820fb6b07dd735a4a50dcc1c28aae84d7b1a4037b7f0239b07d0ecdcf3564dc26dd0029",
  "source": "pragma solidity 0.4.25;\n\nimport \"../DecoArbitration.sol\";\n\n\ncontract DecoArbitrationStub is DecoArbitration {\n\n    uint public stubFixedFee;\n    uint8 public stubShareFee;\n\n    function setStubFees(uint fixedFee, uint8 shareFee) external {\n        stubFixedFee = fixedFee;\n        stubShareFee = shareFee;\n    }\n\n    function simulateInternalSettleDisputeCall(bytes32 idHash, uint8 respondentShare, uint8 initiatorShare) external {\n        this.settleDispute(idHash, respondentShare, initiatorShare);\n    }\n\n    function getFixedAndShareFees() external view returns(uint, uint8) {\n        return (stubFixedFee, stubShareFee);\n    }\n\n}\n",
  "sourcePath": "/Users/chris/Documents/WorkStuff/Deconet/Blockchain/DeconetProjectsMarketContracts/contracts/mocks/DecoArbitrationStub.sol",
  "compiler": {
    "name": "solc",
    "version": "0.4.25+commit.59dbf8f1.Emscripten.clang"
  },
  "schemaVersion": "3.0.0-beta.2",
  "updatedAt": "2019-02-13T02:21:50.509Z",
  "devdoc": {
    "methods": {
      "acceptProposal(bytes32)": {
        "details": "Accept proposal by respondent.     Dispute must exist and proposal must be active.",
        "params": {
          "_idHash": "A `bytes32` hash of id."
        }
      },
      "getDisputeInitiator(bytes32)": {
        "return": "Dispute's initiator."
      },
      "getDisputeInitiatorShare(bytes32)": {
        "return": "Dispute initiator's share."
      },
      "getDisputeProposalShare(bytes32)": {
        "return": "Dispute respondent's share."
      },
      "getDisputeRespondent(bytes32)": {
        "return": "Dispute's respondent."
      },
      "getDisputeSettledStatus(bytes32)": {
        "return": "`True` if dispute is settled."
      },
      "getDisputeSettlementTime(bytes32)": {
        "return": "Dispute's settlement time."
      },
      "getDisputeStartTime(bytes32)": {
        "return": "Dispute's start time."
      },
      "getDisputeStartedStatus(bytes32)": {
        "return": "`True` if dispute is started."
      },
      "getTimeLimitForReplyOnProposal()": {
        "return": "Preconfigured time limit for respondent to accept/reject proposal."
      },
      "getWithdrawalAddress()": {
        "return": "Withdrawal address of the current arbitration contract."
      },
      "isOwner()": {
        "return": "true if `msg.sender` is the owner of the contract."
      },
      "owner()": {
        "return": "the address of the owner."
      },
      "rejectProposal(bytes32)": {
        "details": "Reject proposal by respondent.     Dispute must exist and proposal must be active.",
        "params": {
          "_idHash": "A `bytes32` hash of id."
        }
      },
      "renounceOwnership()": {
        "details": "Allows the current owner to relinquish control of the contract."
      },
      "setFees(uint256,uint256)": {
        "details": "Update fees.",
        "params": {
          "_fixedFee": "An `uint` fixed fee in Wei.",
          "_shareFee": "An `uint8` share fee."
        }
      },
      "setRelayContractAddress(address)": {
        "details": "Update relay contract address."
      },
      "setTimeLimitForReplyOnProposal(uint256)": {
        "details": "Update time limit for respondent to accept or reject proposal."
      },
      "setWithdrawalAddress(address)": {
        "details": "Update withdrawal address."
      },
      "settleDispute(bytes32,uint256,uint256)": {
        "details": "Settle dispute without active proposal or with the best deal for respondent.     Settlement can be initiated from the contract methods or from the contract owner address.     A dispute should be started but not ended yet.",
        "params": {
          "_idHash": "A `bytes32` hash of id.",
          "_initiatorShare": "An `uint8` share for a dispute initiator.",
          "_respondentShare": "An `uint8` share for a dispute respondent."
        }
      },
      "startDispute(bytes32,address,int256)": {
        "details": "Start dispute for the given project.",
        "params": {
          "_idHash": "A `bytes32` hash of a project id.",
          "_respondent": "An `address` of the second paty involved in the dispute.",
          "_respondentShareProposal": "An `int` value indicating percentage of disputed funds proposed to the respondent. Valid values range is 0-100, different values are considered as 'No Proposal'. When provided percentage is 100 then this dispute is processed automatically, and all funds are distributed in favor of the respondent."
        }
      },
      "transferAnyERC20Token(address,uint256)": {
        "details": "Allows to trasnfer any ERC20 tokens from the contract balance to owner's address.",
        "params": {
          "_tokenAddress": "An `address` of an ERC20 token.",
          "_tokens": "An `uint` tokens amount."
        },
        "return": "A `bool` operation result state."
      },
      "transferOwnership(address)": {
        "details": "Allows the current owner to transfer control of the contract to a newOwner.",
        "params": {
          "newOwner": "The address to transfer ownership to."
        }
      }
    }
  },
  "userdoc": {
    "methods": {
      "renounceOwnership()": {
        "notice": "Renouncing to ownership will leave the contract without an owner. It will not be possible to call the functions with the `onlyOwner` modifier anymore."
      }
    }
  }
}