{
  "contractName": "DecoMilestonesStub",
  "abi": [
    {
      "constant": true,
      "inputs": [
        {
          "name": "_idHash",
          "type": "bytes32"
        }
      ],
      "name": "canStartDispute",
      "outputs": [
        {
          "name": "",
          "type": "bool"
        }
      ],
      "payable": false,
      "stateMutability": "view",
      "type": "function"
    },
    {
      "constant": true,
      "inputs": [],
      "name": "ETH_TOKEN_ADDRESS",
      "outputs": [
        {
          "name": "",
          "type": "address"
        }
      ],
      "payable": false,
      "stateMutability": "view",
      "type": "function"
    },
    {
      "constant": false,
      "inputs": [],
      "name": "renounceOwnership",
      "outputs": [],
      "payable": false,
      "stateMutability": "nonpayable",
      "type": "function"
    },
    {
      "constant": true,
      "inputs": [],
      "name": "owner",
      "outputs": [
        {
          "name": "",
          "type": "address"
        }
      ],
      "payable": false,
      "stateMutability": "view",
      "type": "function"
    },
    {
      "constant": true,
      "inputs": [
        {
          "name": "_idHash",
          "type": "bytes32"
        },
        {
          "name": "_addressToCheck",
          "type": "address"
        }
      ],
      "name": "checkEligibility",
      "outputs": [
        {
          "name": "",
          "type": "bool"
        }
      ],
      "payable": false,
      "stateMutability": "view",
      "type": "function"
    },
    {
      "constant": true,
      "inputs": [],
      "name": "isOwner",
      "outputs": [
        {
          "name": "",
          "type": "bool"
        }
      ],
      "payable": false,
      "stateMutability": "view",
      "type": "function"
    },
    {
      "constant": true,
      "inputs": [
        {
          "name": "",
          "type": "bytes32"
        },
        {
          "name": "",
          "type": "uint256"
        }
      ],
      "name": "projectMilestones",
      "outputs": [
        {
          "name": "milestoneNumber",
          "type": "uint8"
        },
        {
          "name": "duration",
          "type": "uint32"
        },
        {
          "name": "adjustedDuration",
          "type": "uint32"
        },
        {
          "name": "depositAmount",
          "type": "uint256"
        },
        {
          "name": "tokenAddress",
          "type": "address"
        },
        {
          "name": "startedTime",
          "type": "uint256"
        },
        {
          "name": "deliveredTime",
          "type": "uint256"
        },
        {
          "name": "acceptedTime",
          "type": "uint256"
        },
        {
          "name": "isOnHold",
          "type": "bool"
        }
      ],
      "payable": false,
      "stateMutability": "view",
      "type": "function"
    },
    {
      "constant": false,
      "inputs": [
        {
          "name": "_idHash",
          "type": "bytes32"
        }
      ],
      "name": "disputeStartedFreeze",
      "outputs": [],
      "payable": false,
      "stateMutability": "nonpayable",
      "type": "function"
    },
    {
      "constant": false,
      "inputs": [
        {
          "name": "_idHash",
          "type": "bytes32"
        },
        {
          "name": "_respondent",
          "type": "address"
        },
        {
          "name": "_respondentShare",
          "type": "uint8"
        },
        {
          "name": "_initiator",
          "type": "address"
        },
        {
          "name": "_initiatorShare",
          "type": "uint8"
        },
        {
          "name": "_isInternal",
          "type": "bool"
        },
        {
          "name": "_arbiterWithdrawalAddress",
          "type": "address"
        }
      ],
      "name": "disputeSettledTerminate",
      "outputs": [],
      "payable": false,
      "stateMutability": "nonpayable",
      "type": "function"
    },
    {
      "constant": false,
      "inputs": [
        {
          "name": "_tokenAddress",
          "type": "address"
        },
        {
          "name": "_tokens",
          "type": "uint256"
        }
      ],
      "name": "transferAnyERC20Token",
      "outputs": [
        {
          "name": "success",
          "type": "bool"
        }
      ],
      "payable": false,
      "stateMutability": "nonpayable",
      "type": "function"
    },
    {
      "constant": true,
      "inputs": [],
      "name": "relayContractAddress",
      "outputs": [
        {
          "name": "",
          "type": "address"
        }
      ],
      "payable": false,
      "stateMutability": "view",
      "type": "function"
    },
    {
      "constant": false,
      "inputs": [
        {
          "name": "newOwner",
          "type": "address"
        }
      ],
      "name": "transferOwnership",
      "outputs": [],
      "payable": false,
      "stateMutability": "nonpayable",
      "type": "function"
    },
    {
      "payable": true,
      "stateMutability": "payable",
      "type": "fallback"
    },
    {
      "anonymous": false,
      "inputs": [
        {
          "indexed": true,
          "name": "agreementHash",
          "type": "bytes32"
        },
        {
          "indexed": true,
          "name": "sender",
          "type": "address"
        },
        {
          "indexed": false,
          "name": "timestamp",
          "type": "uint256"
        },
        {
          "indexed": false,
          "name": "milestoneNumber",
          "type": "uint8"
        },
        {
          "indexed": true,
          "name": "state",
          "type": "uint8"
        }
      ],
      "name": "LogMilestoneStateUpdated",
      "type": "event"
    },
    {
      "anonymous": false,
      "inputs": [
        {
          "indexed": true,
          "name": "agreementHash",
          "type": "bytes32"
        },
        {
          "indexed": true,
          "name": "sender",
          "type": "address"
        },
        {
          "indexed": false,
          "name": "amountAdded",
          "type": "uint32"
        },
        {
          "indexed": false,
          "name": "milestoneNumber",
          "type": "uint8"
        }
      ],
      "name": "LogMilestoneDurationAdjusted",
      "type": "event"
    },
    {
      "anonymous": false,
      "inputs": [
        {
          "indexed": true,
          "name": "previousOwner",
          "type": "address"
        },
        {
          "indexed": true,
          "name": "newOwner",
          "type": "address"
        }
      ],
      "name": "OwnershipTransferred",
      "type": "event"
    },
    {
      "constant": false,
      "inputs": [
        {
          "name": "",
          "type": "bytes32"
        },
        {
          "name": "",
          "type": "uint256"
        },
        {
          "name": "",
          "type": "uint32"
        }
      ],
      "name": "startMilestone",
      "outputs": [],
      "payable": false,
      "stateMutability": "nonpayable",
      "type": "function"
    },
    {
      "constant": false,
      "inputs": [
        {
          "name": "_agreementHash",
          "type": "bytes32"
        },
        {
          "name": "_depositAmount",
          "type": "uint256"
        },
        {
          "name": "_tokenAddress",
          "type": "address"
        },
        {
          "name": "_duration",
          "type": "uint32"
        }
      ],
      "name": "startMilestone",
      "outputs": [],
      "payable": false,
      "stateMutability": "nonpayable",
      "type": "function"
    },
    {
      "constant": false,
      "inputs": [
        {
          "name": "",
          "type": "bytes32"
        }
      ],
      "name": "deliverLastMilestone",
      "outputs": [],
      "payable": false,
      "stateMutability": "nonpayable",
      "type": "function"
    },
    {
      "constant": false,
      "inputs": [
        {
          "name": "_agreementHash",
          "type": "bytes32"
        }
      ],
      "name": "acceptLastMilestone",
      "outputs": [],
      "payable": false,
      "stateMutability": "nonpayable",
      "type": "function"
    },
    {
      "constant": false,
      "inputs": [
        {
          "name": "",
          "type": "bytes32"
        }
      ],
      "name": "rejectLastDeliverable",
      "outputs": [],
      "payable": false,
      "stateMutability": "nonpayable",
      "type": "function"
    },
    {
      "constant": false,
      "inputs": [
        {
          "name": "_newAddress",
          "type": "address"
        }
      ],
      "name": "setRelayContractAddress",
      "outputs": [],
      "payable": false,
      "stateMutability": "nonpayable",
      "type": "function"
    },
    {
      "constant": false,
      "inputs": [
        {
          "name": "_agreementHash",
          "type": "bytes32"
        },
        {
          "name": "_initiator",
          "type": "address"
        }
      ],
      "name": "terminateLastMilestone",
      "outputs": [],
      "payable": false,
      "stateMutability": "nonpayable",
      "type": "function"
    },
    {
      "constant": false,
      "inputs": [
        {
          "name": "config",
          "type": "bool"
        }
      ],
      "name": "setIfClientCanTerminate",
      "outputs": [],
      "payable": false,
      "stateMutability": "nonpayable",
      "type": "function"
    },
    {
      "constant": false,
      "inputs": [
        {
          "name": "config",
          "type": "bool"
        }
      ],
      "name": "setIfMakerCanTerminate",
      "outputs": [],
      "payable": false,
      "stateMutability": "nonpayable",
      "type": "function"
    },
    {
      "constant": false,
      "inputs": [
        {
          "name": "config",
          "type": "bool"
        }
      ],
      "name": "setIsLastMilestoneAccepted",
      "outputs": [],
      "payable": false,
      "stateMutability": "nonpayable",
      "type": "function"
    },
    {
      "constant": false,
      "inputs": [
        {
          "name": "config",
          "type": "uint8"
        }
      ],
      "name": "setLastMilestoneNumber",
      "outputs": [],
      "payable": false,
      "stateMutability": "nonpayable",
      "type": "function"
    },
    {
      "constant": false,
      "inputs": [
        {
          "name": "_newAddress",
          "type": "address"
        }
      ],
      "name": "setProjectOwnerAddress",
      "outputs": [],
      "payable": false,
      "stateMutability": "nonpayable",
      "type": "function"
    },
    {
      "constant": true,
      "inputs": [
        {
          "name": "",
          "type": "bytes32"
        }
      ],
      "name": "canClientTerminate",
      "outputs": [
        {
          "name": "",
          "type": "bool"
        }
      ],
      "payable": false,
      "stateMutability": "view",
      "type": "function"
    },
    {
      "constant": true,
      "inputs": [
        {
          "name": "",
          "type": "bytes32"
        }
      ],
      "name": "canMakerTerminate",
      "outputs": [
        {
          "name": "",
          "type": "bool"
        }
      ],
      "payable": false,
      "stateMutability": "view",
      "type": "function"
    },
    {
      "constant": true,
      "inputs": [
        {
          "name": "",
          "type": "bytes32"
        }
      ],
      "name": "isLastMilestoneAccepted",
      "outputs": [
        {
          "name": "isAccepted",
          "type": "bool"
        },
        {
          "name": "milestoneNumber",
          "type": "uint8"
        }
      ],
      "payable": false,
      "stateMutability": "view",
      "type": "function"
    },
    {
      "constant": false,
      "inputs": [
        {
          "name": "hash",
          "type": "bytes32"
        }
      ],
      "name": "terminateProjectAsDisputeResult",
      "outputs": [],
      "payable": false,
      "stateMutability": "nonpayable",
      "type": "function"
    }
  ],
  "bytecode": "0x60806040526001600360006101000a81548160ff0219169083151502179055506001600360016101000a81548160ff0219169083151502179055506001600360026101000a81548160ff021916908315150217905550600a6003806101000a81548160ff021916908360ff1602179055506000600360046101000a81548173ffffffffffffffffffffffffffffffffffffffff021916908373ffffffffffffffffffffffffffffffffffffffff160217905550336000806101000a81548173ffffffffffffffffffffffffffffffffffffffff021916908373ffffffffffffffffffffffffffffffffffffffff1602179055506000809054906101000a900473ffffffffffffffffffffffffffffffffffffffff1673ffffffffffffffffffffffffffffffffffffffff16600073ffffffffffffffffffffffffffffffffffffffff167f8be0079c531659141344cd1fd0a4f28419497f9722a3daafe3b4186f6b6457e060405160405180910390a36137f88061017d6000396000f30060806040526004361061016a576000357c0100000000000000000000000000000000000000000000000000000000900463ffffffff1680630354f9b0146101e45780630c46fc921461021357806318469dfe146102445780631878d1f11461028d57806328c1d405146102e45780632d2bcd37146103135780632df206171461035657806345cbdca3146103855780636d489314146103b6578063715018a6146104075780638da5cb5b1461041e5780638e22e643146104755780638f32d59b146104de5780639eaa48121461050d578063a704f00114610563578063adc23f0314610638578063b20671ba14610681578063b4cbff23146106c4578063ccfcbdbe146106f5578063d727d64b1461073e578063dc39d06d146107f5578063dfa93d641461085a578063e10bcc2a146108b1578063e32aa56a1461091c578063e374488f1461094d578063f2fde38b14610998578063f62eec09146109db578063fcf6b7e514610a0c575b6000341415156101e2576040517f08c379a000000000000000000000000000000000000000000000000000000000815260040180806020018281038252601a8152602001807f426c6f636b696e6720616e7920696e636f6d696e67204554482e00000000000081525060200191505060405180910390fd5b005b3480156101f057600080fd5b50610211600480360381019080803515159060200190929190505050610a3c565b005b34801561021f57600080fd5b506102426004803603810190808035600019169060200190929190505050610a59565b005b34801561025057600080fd5b506102736004803603810190808035600019169060200190929190505050610a5c565b604051808215151515815260200191505060405180910390f35b34801561029957600080fd5b506102a2610e2e565b604051808273ffffffffffffffffffffffffffffffffffffffff1673ffffffffffffffffffffffffffffffffffffffff16815260200191505060405180910390f35b3480156102f057600080fd5b50610311600480360381019080803515159060200190929190505050610e33565b005b34801561031f57600080fd5b50610354600480360381019080803573ffffffffffffffffffffffffffffffffffffffff169060200190929190505050610e50565b005b34801561036257600080fd5b50610383600480360381019080803515159060200190929190505050610e94565b005b34801561039157600080fd5b506103b46004803603810190808035600019169060200190929190505050610eb1565b005b3480156103c257600080fd5b506104056004803603810190808035600019169060200190929190803573ffffffffffffffffffffffffffffffffffffffff169060200190929190505050611009565b005b34801561041357600080fd5b5061041c6112d7565b005b34801561042a57600080fd5b506104336113a9565b604051808273ffffffffffffffffffffffffffffffffffffffff1673ffffffffffffffffffffffffffffffffffffffff16815260200191505060405180910390f35b34801561048157600080fd5b506104c46004803603810190808035600019169060200190929190803573ffffffffffffffffffffffffffffffffffffffff1690602001909291905050506113d2565b604051808215151515815260200191505060405180910390f35b3480156104ea57600080fd5b506104f361166e565b604051808215151515815260200191505060405180910390f35b34801561051957600080fd5b5061053c60048036038101908080356000191690602001909291905050506116c5565b60405180831515151581526020018260ff1660ff1681526020019250505060405180910390f35b34801561056f57600080fd5b5061059c6004803603810190808035600019169060200190929190803590602001909291905050506116f0565b604051808a60ff1660ff1681526020018963ffffffff1663ffffffff1681526020018863ffffffff1663ffffffff1681526020018781526020018673ffffffffffffffffffffffffffffffffffffffff1673ffffffffffffffffffffffffffffffffffffffff16815260200185815260200184815260200183815260200182151515158152602001995050505050505050505060405180910390f35b34801561064457600080fd5b5061066760048036038101908080356000191690602001909291905050506117b4565b604051808215151515815260200191505060405180910390f35b34801561068d57600080fd5b506106c2600480360381019080803573ffffffffffffffffffffffffffffffffffffffff1690602001909291905050506117cd565b005b3480156106d057600080fd5b506106f36004803603810190808035600019169060200190929190505050611811565b005b34801561070157600080fd5b506107246004803603810190808035600019169060200190929190505050611bbc565b604051808215151515815260200191505060405180910390f35b34801561074a57600080fd5b506107f36004803603810190808035600019169060200190929190803573ffffffffffffffffffffffffffffffffffffffff169060200190929190803560ff169060200190929190803573ffffffffffffffffffffffffffffffffffffffff169060200190929190803560ff169060200190929190803515159060200190929190803573ffffffffffffffffffffffffffffffffffffffff169060200190929190505050611bd5565b005b34801561080157600080fd5b50610840600480360381019080803573ffffffffffffffffffffffffffffffffffffffff16906020019092919080359060200190929190505050612249565b604051808215151515815260200191505060405180910390f35b34801561086657600080fd5b5061086f612350565b604051808273ffffffffffffffffffffffffffffffffffffffff1673ffffffffffffffffffffffffffffffffffffffff16815260200191505060405180910390f35b3480156108bd57600080fd5b5061091a600480360381019080803560001916906020019092919080359060200190929190803573ffffffffffffffffffffffffffffffffffffffff169060200190929190803563ffffffff169060200190929190505050612376565b005b34801561092857600080fd5b5061094b6004803603810190808035600019169060200190929190505050612e96565b005b34801561095957600080fd5b50610996600480360381019080803560001916906020019092919080359060200190929190803563ffffffff169060200190929190505050613072565b005b3480156109a457600080fd5b506109d9600480360381019080803573ffffffffffffffffffffffffffffffffffffffff169060200190929190505050613077565b005b3480156109e757600080fd5b50610a0a6004803603810190808035600019169060200190929190505050613096565b005b348015610a1857600080fd5b50610a3a600480360381019080803560ff169060200190929190505050613099565b005b80600360006101000a81548160ff02191690831515021790555050565b50565b600080610a67613758565b6000806000806000600260008a600019166000191681526020019081526020016000208054905096506000871415610aa25760009750610e22565b600260008a6000191660001916815260200190815260200160002060018803815481101515610acd57fe5b906000526020600020906007020161012060405190810160405290816000820160009054906101000a900460ff1660ff1660ff1681526020016000820160019054906101000a900463ffffffff1663ffffffff1663ffffffff1681526020016000820160059054906101000a900463ffffffff1663ffffffff1663ffffffff168152602001600182015481526020016002820160009054906101000a900473ffffffffffffffffffffffffffffffffffffffff1673ffffffffffffffffffffffffffffffffffffffff1673ffffffffffffffffffffffffffffffffffffffff1681526020016003820154815260200160048201548152602001600582015481526020016006820160009054906101000a900460ff161515151581525050955085610100015180610c01575060008660e00151115b15610c0f5760009750610e22565b600160009054906101000a900473ffffffffffffffffffffffffffffffffffffffff1673ffffffffffffffffffffffffffffffffffffffff16636f23d8da6040518163ffffffff167c0100000000000000000000000000000000000000000000000000000000028152600401602060405180830381600087803b158015610c9557600080fd5b505af1158015610ca9573d6000803e3d6000fd5b505050506040513d6020811015610cbf57600080fd5b81019080805190602001909291905050509450849350610d9f620151808573ffffffffffffffffffffffffffffffffffffffff1663e591fa268c6040518263ffffffff167c0100000000000000000000000000000000000000000000000000000000028152600401808260001916600019168152602001915050602060405180830381600087803b158015610d5357600080fd5b505af1158015610d67573d6000803e3d6000fd5b505050506040513d6020811015610d7d57600080fd5b810190808051906020019092919050505060ff166130b690919063ffffffff16565b9250429150610dc5866040015163ffffffff168760a001516130f490919063ffffffff16565b90508560c00151811080610dd857508181105b15610de65760009750610e22565b60008660c00151118015610e0f575081610e0d848860c001516130f490919063ffffffff16565b105b15610e1d5760009750610e22565b600197505b50505050505050919050565b600081565b80600360026101000a81548160ff02191690831515021790555050565b80600160006101000a81548173ffffffffffffffffffffffffffffffffffffffff021916908373ffffffffffffffffffffffffffffffffffffffff16021790555050565b80600360016101000a81548160ff02191690831515021790555050565b6000600160009054906101000a900473ffffffffffffffffffffffffffffffffffffffff1673ffffffffffffffffffffffffffffffffffffffff16636f23d8da6040518163ffffffff167c0100000000000000000000000000000000000000000000000000000000028152600401602060405180830381600087803b158015610f3957600080fd5b505af1158015610f4d573d6000803e3d6000fd5b505050506040513d6020811015610f6357600080fd5b810190808051906020019092919050505090508073ffffffffffffffffffffffffffffffffffffffff16639827a996836040518263ffffffff167c0100000000000000000000000000000000000000000000000000000000028152600401808260001916600019168152602001915050600060405180830381600087803b158015610fed57600080fd5b505af1158015611001573d6000803e3d6000fd5b505050505050565b6000806000600160009054906101000a900473ffffffffffffffffffffffffffffffffffffffff1673ffffffffffffffffffffffffffffffffffffffff16636f23d8da6040518163ffffffff167c0100000000000000000000000000000000000000000000000000000000028152600401602060405180830381600087803b15801561109457600080fd5b505af11580156110a8573d6000803e3d6000fd5b505050506040513d60208110156110be57600080fd5b810190808051906020019092919050505092508273ffffffffffffffffffffffffffffffffffffffff1663ab065d6c866040518263ffffffff167c0100000000000000000000000000000000000000000000000000000000028152600401808260001916600019168152602001915050602060405180830381600087803b15801561114857600080fd5b505af115801561115c573d6000803e3d6000fd5b505050506040513d602081101561117257600080fd5b810190808051906020019092919050505091508273ffffffffffffffffffffffffffffffffffffffff166362074c31866040518263ffffffff167c0100000000000000000000000000000000000000000000000000000000028152600401808260001916600019168152602001915050602060405180830381600087803b1580156111fc57600080fd5b505af1158015611210573d6000803e3d6000fd5b505050506040513d602081101561122657600080fd5b810190808051906020019092919050505090508373ffffffffffffffffffffffffffffffffffffffff168273ffffffffffffffffffffffffffffffffffffffff16141561128657611276856117b4565b151561128157600080fd5b6112d0565b8373ffffffffffffffffffffffffffffffffffffffff168173ffffffffffffffffffffffffffffffffffffffff1614156112cf576112c385611bbc565b15156112ce57600080fd5b5b5b5050505050565b6112df61166e565b15156112ea57600080fd5b600073ffffffffffffffffffffffffffffffffffffffff166000809054906101000a900473ffffffffffffffffffffffffffffffffffffffff1673ffffffffffffffffffffffffffffffffffffffff167f8be0079c531659141344cd1fd0a4f28419497f9722a3daafe3b4186f6b6457e060405160405180910390a360008060006101000a81548173ffffffffffffffffffffffffffffffffffffffff021916908373ffffffffffffffffffffffffffffffffffffffff160217905550565b60008060009054906101000a900473ffffffffffffffffffffffffffffffffffffffff16905090565b6000806000600160009054906101000a900473ffffffffffffffffffffffffffffffffffffffff1673ffffffffffffffffffffffffffffffffffffffff16636f23d8da6040518163ffffffff167c0100000000000000000000000000000000000000000000000000000000028152600401602060405180830381600087803b15801561145d57600080fd5b505af1158015611471573d6000803e3d6000fd5b505050506040513d602081101561148757600080fd5b810190808051906020019092919050505091508190508073ffffffffffffffffffffffffffffffffffffffff1663ab065d6c866040518263ffffffff167c0100000000000000000000000000000000000000000000000000000000028152600401808260001916600019168152602001915050602060405180830381600087803b15801561151457600080fd5b505af1158015611528573d6000803e3d6000fd5b505050506040513d602081101561153e57600080fd5b810190808051906020019092919050505073ffffffffffffffffffffffffffffffffffffffff168473ffffffffffffffffffffffffffffffffffffffff16148061166457508073ffffffffffffffffffffffffffffffffffffffff166362074c31866040518263ffffffff167c0100000000000000000000000000000000000000000000000000000000028152600401808260001916600019168152602001915050602060405180830381600087803b1580156115fa57600080fd5b505af115801561160e573d6000803e3d6000fd5b505050506040513d602081101561162457600080fd5b810190808051906020019092919050505073ffffffffffffffffffffffffffffffffffffffff168473ffffffffffffffffffffffffffffffffffffffff16145b9250505092915050565b60008060009054906101000a900473ffffffffffffffffffffffffffffffffffffffff1673ffffffffffffffffffffffffffffffffffffffff163373ffffffffffffffffffffffffffffffffffffffff1614905090565b600080600360029054906101000a900460ff166003809054906101000a900460ff1691509150915091565b60026020528160005260406000208181548110151561170b57fe5b9060005260206000209060070201600091509150508060000160009054906101000a900460ff16908060000160019054906101000a900463ffffffff16908060000160059054906101000a900463ffffffff16908060010154908060020160009054906101000a900473ffffffffffffffffffffffffffffffffffffffff16908060030154908060040154908060050154908060060160009054906101000a900460ff16905089565b6000600360009054906101000a900460ff169050919050565b80600360046101000a81548173ffffffffffffffffffffffffffffffffffffffff021916908373ffffffffffffffffffffffffffffffffffffffff16021790555050565b600080600080600160009054906101000a900473ffffffffffffffffffffffffffffffffffffffff1673ffffffffffffffffffffffffffffffffffffffff16636f23d8da6040518163ffffffff167c0100000000000000000000000000000000000000000000000000000000028152600401602060405180830381600087803b15801561189d57600080fd5b505af11580156118b1573d6000803e3d6000fd5b505050506040513d60208110156118c757600080fd5b810190808051906020019092919050505093508392503373ffffffffffffffffffffffffffffffffffffffff168373ffffffffffffffffffffffffffffffffffffffff1663a3e2b1de876040518263ffffffff167c0100000000000000000000000000000000000000000000000000000000028152600401808260001916600019168152602001915050602060405180830381600087803b15801561196b57600080fd5b505af115801561197f573d6000803e3d6000fd5b505050506040513d602081101561199557600080fd5b810190808051906020019092919050505073ffffffffffffffffffffffffffffffffffffffff16141515611a57576040517f08c379a00000000000000000000000000000000000000000000000000000000081526004018080602001828103825260388152602001807f467265657a696e672075706f6e20646973707574652073746172742063616e2081526020017f62652073656e74206f6e6c7920627920617262697465722e000000000000000081525060400191505060405180910390fd5b600260008660001916600019168152602001908152602001600020805490509150600082111515611af0576040517f08c379a000000000000000000000000000000000000000000000000000000000815260040180806020018281038252601f8152602001807f5468657265206d75737420626520616374697665206d696c6573746f6e652e0081525060200191505060405180910390fd5b60026000866000191660001916815260200190815260200160002060018303815481101515611b1b57fe5b9060005260206000209060070201905060018160060160006101000a81548160ff021916908315150217905550600580811115611b5457fe5b3373ffffffffffffffffffffffffffffffffffffffff1686600019167f939f959dd457cf9b72f63161a86a222a89995ac1846647d3f3c174518a8ba0964286604051808381526020018260ff1660ff1681526020019250505060405180910390a45050505050565b6000600360019054906101000a900460ff169050919050565b6000611bdf613758565b600080600080600260008e60001916600019168152602001908152602001600020805490509550600086111515611ca4576040517f08c379a00000000000000000000000000000000000000000000000000000000081526004018080602001828103825260258152602001807f5468657265206d757374206265206174206c65617374206f6e65206d696c657381526020017f746f6e652e00000000000000000000000000000000000000000000000000000081525060400191505060405180910390fd5b600260008e6000191660001916815260200190815260200160002060018703815481101515611ccf57fe5b906000526020600020906007020161012060405190810160405290816000820160009054906101000a900460ff1660ff1660ff1681526020016000820160019054906101000a900463ffffffff1663ffffffff1663ffffffff1681526020016000820160059054906101000a900463ffffffff1663ffffffff1663ffffffff168152602001600182015481526020016002820160009054906101000a900473ffffffffffffffffffffffffffffffffffffffff1673ffffffffffffffffffffffffffffffffffffffff1673ffffffffffffffffffffffffffffffffffffffff1681526020016003820154815260200160048201548152602001600582015481526020016006820160009054906101000a900460ff16151515158152505094508461010001511515611e68576040517f08c379a000000000000000000000000000000000000000000000000000000000815260040180806020018281038252601f8152602001807f4c617374206d696c6573746f6e65206d757374206265206f6e20686f6c642e0081525060200191505060405180910390fd5b6064611e838a60ff168d60ff166130f490919063ffffffff16565b141515611ef8576040517f08c379a000000000000000000000000000000000000000000000000000000000815260040180806020018281038252601b8152602001807f536861726573206d757374206265203130302520696e2073756d2e000000000081525060200191505060405180910390fd5b600160009054906101000a900473ffffffffffffffffffffffffffffffffffffffff1673ffffffffffffffffffffffffffffffffffffffff16636f23d8da6040518163ffffffff167c0100000000000000000000000000000000000000000000000000000000028152600401602060405180830381600087803b158015611f7e57600080fd5b505af1158015611f92573d6000803e3d6000fd5b505050506040513d6020811015611fa857600080fd5b810190808051906020019092919050505093508373ffffffffffffffffffffffffffffffffffffffff166334aa982a8e8e8d336040518563ffffffff167c01000000000000000000000000000000000000000000000000000000000281526004018085600019166000191681526020018473ffffffffffffffffffffffffffffffffffffffff1673ffffffffffffffffffffffffffffffffffffffff1681526020018373ffffffffffffffffffffffffffffffffffffffff1673ffffffffffffffffffffffffffffffffffffffff1681526020018273ffffffffffffffffffffffffffffffffffffffff1673ffffffffffffffffffffffffffffffffffffffff168152602001945050505050606060405180830381600087803b1580156120ce57600080fd5b505af11580156120e2573d6000803e3d6000fd5b505050506040513d60608110156120f857600080fd5b8101908080519060200190929190805190602001909291908051906020019092919050505092509250925061213d8186608001518e8d8d8d8d8c606001518b8b613115565b8373ffffffffffffffffffffffffffffffffffffffff16639827a9968e6040518263ffffffff167c0100000000000000000000000000000000000000000000000000000000028152600401808260001916600019168152602001915050600060405180830381600087803b1580156121b457600080fd5b505af11580156121c8573d6000803e3d6000fd5b50505050600460058111156121d957fe5b3373ffffffffffffffffffffffffffffffffffffffff168e600019167f939f959dd457cf9b72f63161a86a222a89995ac1846647d3f3c174518a8ba096428a604051808381526020018260ff1660ff1681526020019250505060405180910390a450505050505050505050505050565b60008061225461166e565b151561225f57600080fd5b8390508073ffffffffffffffffffffffffffffffffffffffff1663a9059cbb6122866113a9565b856040518363ffffffff167c0100000000000000000000000000000000000000000000000000000000028152600401808373ffffffffffffffffffffffffffffffffffffffff1673ffffffffffffffffffffffffffffffffffffffff16815260200182815260200192505050602060405180830381600087803b15801561230c57600080fd5b505af1158015612320573d6000803e3d6000fd5b505050506040513d602081101561233657600080fd5b810190808051906020019092919050505091505092915050565b600160009054906101000a900473ffffffffffffffffffffffffffffffffffffffff1681565b6000612380613758565b60008060026000896000191660001916815260200190815260200160002080549050935060008460ff1611156125a0576002600089600019166000191681526020019081526020016000206001850360ff168154811015156123de57fe5b906000526020600020906007020161012060405190810160405290816000820160009054906101000a900460ff1660ff1660ff1681526020016000820160019054906101000a900463ffffffff1663ffffffff1663ffffffff1681526020016000820160059054906101000a900463ffffffff1663ffffffff1663ffffffff168152602001600182015481526020016002820160009054906101000a900473ffffffffffffffffffffffffffffffffffffffff1673ffffffffffffffffffffffffffffffffffffffff1673ffffffffffffffffffffffffffffffffffffffff1681526020016003820154815260200160048201548152602001600582015481526020016006820160009054906101000a900460ff161515151581525050925060008360e0015111151561259f576040517f08c379a00000000000000000000000000000000000000000000000000000000081526004018080602001828103825260398152602001807f416c6c206d696c6573746f6e6573206d7573742062652061636365707465642081526020017f7072696f72207374617274696e672061206e6577206f6e652e0000000000000081525060400191505060405180910390fd5b5b600160009054906101000a900473ffffffffffffffffffffffffffffffffffffffff1673ffffffffffffffffffffffffffffffffffffffff16636f23d8da6040518163ffffffff167c0100000000000000000000000000000000000000000000000000000000028152600401602060405180830381600087803b15801561262657600080fd5b505af115801561263a573d6000803e3d6000fd5b505050506040513d602081101561265057600080fd5b810190808051906020019092919050505091508173ffffffffffffffffffffffffffffffffffffffff16631604fa4d896040518263ffffffff167c0100000000000000000000000000000000000000000000000000000000028152600401808260001916600019168152602001915050602060405180830381600087803b1580156126da57600080fd5b505af11580156126ee573d6000803e3d6000fd5b505050506040513d602081101561270457600080fd5b81019080805190602001909291905050501515612789576040517f08c379a00000000000000000000000000000000000000000000000000000000081526004018080602001828103825260138152602001807f50726f6a656374206d7573742065786973742e0000000000000000000000000081525060200191505060405180910390fd5b3373ffffffffffffffffffffffffffffffffffffffff168273ffffffffffffffffffffffffffffffffffffffff1663ab065d6c8a6040518263ffffffff167c0100000000000000000000000000000000000000000000000000000000028152600401808260001916600019168152602001915050602060405180830381600087803b15801561281757600080fd5b505af115801561282b573d6000803e3d6000fd5b505050506040513d602081101561284157600080fd5b810190808051906020019092919050505073ffffffffffffffffffffffffffffffffffffffff16141515612903576040517f08c379a00000000000000000000000000000000000000000000000000000000081526004018080602001828103825260278152602001807f4f6e6c792070726f6a656374277320636c69656e74207374617274732061206d81526020017f696573746f6e650000000000000000000000000000000000000000000000000081525060400191505060405180910390fd5b8360ff168273ffffffffffffffffffffffffffffffffffffffff16634a80dcab8a6040518263ffffffff167c0100000000000000000000000000000000000000000000000000000000028152600401808260001916600019168152602001915050602060405180830381600087803b15801561297e57600080fd5b505af1158015612992573d6000803e3d6000fd5b505050506040513d60208110156129a857600080fd5b810190808051906020019092919050505060ff16111515612a7d576040517f08c379a00000000000000000000000000000000000000000000000000000000081526004018080602001828103825260488152602001807f4d696c6573746f6e657320636f756e742073686f756c64206e6f74206578636581526020017f656420746865206e756d62657220636f6e6669677572656420696e207468652081526020017f70726f6a6563742e00000000000000000000000000000000000000000000000081525060600191505060405180910390fd5b60008273ffffffffffffffffffffffffffffffffffffffff16635f6dd2978a6040518263ffffffff167c0100000000000000000000000000000000000000000000000000000000028152600401808260001916600019168152602001915050602060405180830381600087803b158015612af657600080fd5b505af1158015612b0a573d6000803e3d6000fd5b505050506040513d6020811015612b2057600080fd5b8101908080519060200190929190505050141515612ba6576040517f08c379a00000000000000000000000000000000000000000000000000000000081526004018080602001828103825260198152602001807f50726f6a6563742073686f756c64206265206163746976652e0000000000000081525060200191505060405180910390fd5b612c628273ffffffffffffffffffffffffffffffffffffffff1663b88467c28a6040518263ffffffff167c0100000000000000000000000000000000000000000000000000000000028152600401808260001916600019168152602001915050602060405180830381600087803b158015612c2057600080fd5b505af1158015612c34573d6000803e3d6000fd5b505050506040513d6020811015612c4a57600080fd5b810190808051906020019092919050505088886131eb565b429050600260008960001916600019168152602001908152602001600020610120604051908101604052806001870160ff1681526020018763ffffffff1681526020018763ffffffff1681526020018981526020018873ffffffffffffffffffffffffffffffffffffffff1681526020018381526020016000815260200160008152602001600015158152509080600181540180825580915050906001820390600052602060002090600702016000909192909190915060008201518160000160006101000a81548160ff021916908360ff16021790555060208201518160000160016101000a81548163ffffffff021916908363ffffffff16021790555060408201518160000160056101000a81548163ffffffff021916908363ffffffff1602179055506060820151816001015560808201518160020160006101000a81548173ffffffffffffffffffffffffffffffffffffffff021916908373ffffffffffffffffffffffffffffffffffffffff16021790555060a0820151816003015560c0820151816004015560e082015181600501556101008201518160060160006101000a81548160ff02191690831515021790555050505060006005811115612e2857fe5b3373ffffffffffffffffffffffffffffffffffffffff1689600019167f939f959dd457cf9b72f63161a86a222a89995ac1846647d3f3c174518a8ba0968460018901604051808381526020018260ff1660ff1681526020019250505060405180910390a45050505050505050565b6000600360049054906101000a900473ffffffffffffffffffffffffffffffffffffffff1673ffffffffffffffffffffffffffffffffffffffff163373ffffffffffffffffffffffffffffffffffffffff16141515612ef457600080fd5b600060026000846000191660001916815260200190815260200160002080549050141561306e57600160009054906101000a900473ffffffffffffffffffffffffffffffffffffffff1673ffffffffffffffffffffffffffffffffffffffff16636f23d8da6040518163ffffffff167c0100000000000000000000000000000000000000000000000000000000028152600401602060405180830381600087803b158015612fa157600080fd5b505af1158015612fb5573d6000803e3d6000fd5b505050506040513d6020811015612fcb57600080fd5b810190808051906020019092919050505090508073ffffffffffffffffffffffffffffffffffffffff1663d90b4958836040518263ffffffff167c0100000000000000000000000000000000000000000000000000000000028152600401808260001916600019168152602001915050600060405180830381600087803b15801561305557600080fd5b505af1158015613069573d6000803e3d6000fd5b505050505b5050565b505050565b61307f61166e565b151561308a57600080fd5b61309381613381565b50565b50565b806003806101000a81548160ff021916908360ff16021790555050565b60008060008414156130cb57600091506130ed565b82840290508284828115156130dc57fe5b041415156130e957600080fd5b8091505b5092915050565b600080828401905083811015151561310b57600080fd5b8091505092915050565b600080861580156131535750600073ffffffffffffffffffffffffffffffffffffffff168673ffffffffffffffffffffffffffffffffffffffff1614155b15613188576131648484878e61347b565b91506131728c87848e61350e565b613185828661370d90919063ffffffff16565b94505b6131b160646131a38a60ff16886130b690919063ffffffff16565b61372e90919063ffffffff16565b90506131bf8c8a838e61350e565b6131dd8c8b6131d7848961370d90919063ffffffff16565b8e61350e565b505050505050505050505050565b6000808314156131fa5761337b565b839050600073ffffffffffffffffffffffffffffffffffffffff168273ffffffffffffffffffffffffffffffffffffffff1614156132be578073ffffffffffffffffffffffffffffffffffffffff166362c24067846040518263ffffffff167c010000000000000000000000000000000000000000000000000000000002815260040180828152602001915050600060405180830381600087803b1580156132a157600080fd5b505af11580156132b5573d6000803e3d6000fd5b5050505061337a565b8073ffffffffffffffffffffffffffffffffffffffff166322122cb383856040518363ffffffff167c0100000000000000000000000000000000000000000000000000000000028152600401808373ffffffffffffffffffffffffffffffffffffffff1673ffffffffffffffffffffffffffffffffffffffff16815260200182815260200192505050600060405180830381600087803b15801561336157600080fd5b505af1158015613375573d6000803e3d6000fd5b505050505b5b50505050565b600073ffffffffffffffffffffffffffffffffffffffff168173ffffffffffffffffffffffffffffffffffffffff16141515156133bd57600080fd5b8073ffffffffffffffffffffffffffffffffffffffff166000809054906101000a900473ffffffffffffffffffffffffffffffffffffffff1673ffffffffffffffffffffffffffffffffffffffff167f8be0079c531659141344cd1fd0a4f28419497f9722a3daafe3b4186f6b6457e060405160405180910390a3806000806101000a81548173ffffffffffffffffffffffffffffffffffffffff021916908373ffffffffffffffffffffffffffffffffffffffff16021790555050565b60008073ffffffffffffffffffffffffffffffffffffffff168273ffffffffffffffffffffffffffffffffffffffff161415156134b757600094505b613504856134f660646134e88860ff166134da8b8a61370d90919063ffffffff16565b6130b690919063ffffffff16565b61372e90919063ffffffff16565b6130f490919063ffffffff16565b9050949350505050565b60008083141561351d57613706565b849050600073ffffffffffffffffffffffffffffffffffffffff168273ffffffffffffffffffffffffffffffffffffffff161415613615578073ffffffffffffffffffffffffffffffffffffffff1663071e9a7685856040518363ffffffff167c0100000000000000000000000000000000000000000000000000000000028152600401808373ffffffffffffffffffffffffffffffffffffffff1673ffffffffffffffffffffffffffffffffffffffff16815260200182815260200192505050600060405180830381600087803b1580156135f857600080fd5b505af115801561360c573d6000803e3d6000fd5b50505050613705565b8073ffffffffffffffffffffffffffffffffffffffff1663f58126878584866040518463ffffffff167c0100000000000000000000000000000000000000000000000000000000028152600401808473ffffffffffffffffffffffffffffffffffffffff1673ffffffffffffffffffffffffffffffffffffffff1681526020018373ffffffffffffffffffffffffffffffffffffffff1673ffffffffffffffffffffffffffffffffffffffff1681526020018281526020019350505050600060405180830381600087803b1580156136ec57600080fd5b505af1158015613700573d6000803e3d6000fd5b505050505b5b5050505050565b60008083831115151561371f57600080fd5b82840390508091505092915050565b60008060008311151561374057600080fd5b828481151561374b57fe5b0490508091505092915050565b61012060405190810160405280600060ff168152602001600063ffffffff168152602001600063ffffffff16815260200160008152602001600073ffffffffffffffffffffffffffffffffffffffff16815260200160008152602001600081526020016000815260200160001515815250905600a165627a7a72305820ebc51dc4a71b3fdbef0b4a93af1d943cd0ae58d60d3fad4a559c3cfd65302b0d0029",
  "source": "pragma solidity 0.4.25;\n\nimport \"../DecoMilestones.sol\";\nimport \"../DecoProjects.sol\";\n\n\ncontract DecoMilestonesStub is DecoMilestones {\n\n    bool internal canClientTerminateConfig = true;\n    bool internal canMakerTerminateConfig = true;\n    bool internal isLastMilestoneAcceptedConfig = true;\n    uint8 internal lastMilestoneNumberConfig = 10;\n    address internal projectOwnerAddress = address(0x0);\n\n    function startMilestone(\n        bytes32,\n        uint,\n        uint32\n    )\n        external\n    {\n    }\n\n    function deliverLastMilestone(bytes32) external {\n    }\n\n    function acceptLastMilestone(bytes32 _agreementHash) external {\n        require(msg.sender == projectOwnerAddress);\n        if (projectMilestones[_agreementHash].length == 0) {\n            DecoProjects projectsContract = DecoProjects(\n                DecoRelay(relayContractAddress).projectsContractAddress()\n            );\n            projectsContract.completeProject(_agreementHash);\n        }\n    }\n\n    function rejectLastDeliverable(bytes32) external {\n    }\n\n    function setRelayContractAddress(address _newAddress) external {\n        relayContractAddress = _newAddress;\n    }\n\n    function terminateLastMilestone(bytes32 _agreementHash, address _initiator) public {\n        DecoProjects projectsContract = DecoProjects(\n            DecoRelay(relayContractAddress).projectsContractAddress()\n        );\n        address client = projectsContract.getProjectClient(_agreementHash);\n        address maker = projectsContract.getProjectMaker(_agreementHash);\n        if (client == _initiator) {\n            require(canClientTerminate(_agreementHash));\n        } else if (maker == _initiator) {\n            require(canMakerTerminate(_agreementHash));\n        }\n    }\n\n    function setIfClientCanTerminate(bool config) public {\n        canClientTerminateConfig = config;\n    }\n\n    function setIfMakerCanTerminate(bool config) public {\n        canMakerTerminateConfig = config;\n    }\n\n    function setIsLastMilestoneAccepted(bool config) public {\n        isLastMilestoneAcceptedConfig = config;\n    }\n\n    function setLastMilestoneNumber(uint8 config) public {\n        lastMilestoneNumberConfig = config;\n    }\n\n    function setProjectOwnerAddress(address _newAddress) public {\n        projectOwnerAddress = _newAddress;\n    }\n\n    function canClientTerminate(bytes32) public view returns(bool) {\n        return canClientTerminateConfig;\n    }\n\n    function canMakerTerminate(bytes32) public view returns(bool) {\n        return canMakerTerminateConfig;\n    }\n\n    function isLastMilestoneAccepted(\n        bytes32\n    )\n        public\n        view\n        returns(bool isAccepted, uint8 milestoneNumber)\n    {\n        return (isLastMilestoneAcceptedConfig, lastMilestoneNumberConfig);\n    }\n\n    function terminateProjectAsDisputeResult(bytes32 hash) public {\n        DecoProjects projectsContract = DecoProjects(\n            DecoRelay(relayContractAddress).projectsContractAddress()\n        );\n        projectsContract.terminateProject(hash);\n    }\n}\n",
  "sourcePath": "/Users/pavel/Developer/Deco/marketplace_smart_contracts/contracts/mocks/DecoMilestonesStub.sol",
  "compiler": {
    "name": "solc",
    "version": "0.4.25+commit.59dbf8f1.Emscripten.clang"
  },
  "schemaVersion": "3.0.0",
  "updatedAt": "2019-02-20T01:59:27.098Z",
  "devdoc": {
    "methods": {
      "canStartDispute(bytes32)": {
        "details": "Check if target is ready for a dispute.",
        "params": {
          "_idHash": "A `bytes32` hash of id."
        },
        "return": "A `bool` check status."
      },
      "checkEligibility(bytes32,address)": {
        "details": "Check eligibility of a given address to perform operations,     basically the address should be either client or maker.",
        "params": {
          "_addressToCheck": "An `address` to check.",
          "_idHash": "A `bytes32` hash of id."
        },
        "return": "A `bool` check status."
      },
      "disputeSettledTerminate(bytes32,address,uint8,address,uint8,bool,address)": {
        "details": "React to an active dispute settlement with given parameters.",
        "params": {
          "_arbiterWithdrawalAddress": "An `address` for sending out arbiter compensation.",
          "_idHash": "A `bytes32` hash of id.",
          "_initiator": "An `address` of a dispute initiator.",
          "_initiatorShare": "An `uint8` share for the initiator.",
          "_isInternal": "A `bool` indicating if dispute was settled by participants without an arbiter.",
          "_respondent": "An `address` of a respondent.",
          "_respondentShare": "An `uint8` share for the respondent."
        }
      },
      "disputeStartedFreeze(bytes32)": {
        "details": "Prepare arbitration target for a started dispute.",
        "params": {
          "_idHash": "A `bytes32` hash of id."
        }
      },
      "isOwner()": {
        "return": "true if `msg.sender` is the owner of the contract."
      },
      "owner()": {
        "return": "the address of the owner."
      },
      "renounceOwnership()": {
        "details": "Allows the current owner to relinquish control of the contract."
      },
      "startMilestone(bytes32,uint256,address,uint32)": {
        "details": "Starts a new milestone for the project and deposit ETH in smart contract`s escrow.",
        "params": {
          "_agreementHash": "A `bytes32` hash of the agreement id.",
          "_depositAmount": "An `uint` of wei that are going to be deposited for a new milestone.",
          "_duration": "An `uint` seconds of a milestone duration."
        }
      },
      "transferAnyERC20Token(address,uint256)": {
        "details": "Allows to trasnfer any ERC20 tokens from the contract balance to owner's address.",
        "params": {
          "_tokenAddress": "An `address` of an ERC20 token.",
          "_tokens": "An `uint` tokens amount."
        },
        "return": "A `bool` operation result state."
      },
      "transferOwnership(address)": {
        "details": "Allows the current owner to transfer control of the contract to a newOwner.",
        "params": {
          "newOwner": "The address to transfer ownership to."
        }
      }
    }
  },
  "userdoc": {
    "methods": {
      "renounceOwnership()": {
        "notice": "Renouncing to ownership will leave the contract without an owner. It will not be possible to call the functions with the `onlyOwner` modifier anymore."
      }
    }
  }
}