{
  "contractName": "DecoMilestonesMock",
  "abi": [
    {
      "constant": false,
      "inputs": [
        {
          "name": "_agreementHash",
          "type": "bytes32"
        }
      ],
      "name": "deliverLastMilestone",
      "outputs": [],
      "payable": false,
      "stateMutability": "nonpayable",
      "type": "function"
    },
    {
      "constant": true,
      "inputs": [
        {
          "name": "_idHash",
          "type": "bytes32"
        }
      ],
      "name": "canStartDispute",
      "outputs": [
        {
          "name": "",
          "type": "bool"
        }
      ],
      "payable": false,
      "stateMutability": "view",
      "type": "function"
    },
    {
      "constant": true,
      "inputs": [],
      "name": "ETH_TOKEN_ADDRESS",
      "outputs": [
        {
          "name": "",
          "type": "address"
        }
      ],
      "payable": false,
      "stateMutability": "view",
      "type": "function"
    },
    {
      "constant": true,
      "inputs": [],
      "name": "shouldSkipContractCanTerminateCall",
      "outputs": [
        {
          "name": "",
          "type": "bool"
        }
      ],
      "payable": false,
      "stateMutability": "view",
      "type": "function"
    },
    {
      "constant": false,
      "inputs": [
        {
          "name": "_newAddress",
          "type": "address"
        }
      ],
      "name": "setRelayContractAddress",
      "outputs": [],
      "payable": false,
      "stateMutability": "nonpayable",
      "type": "function"
    },
    {
      "constant": true,
      "inputs": [],
      "name": "canClientTerminateConfig",
      "outputs": [
        {
          "name": "",
          "type": "bool"
        }
      ],
      "payable": false,
      "stateMutability": "view",
      "type": "function"
    },
    {
      "constant": false,
      "inputs": [
        {
          "name": "_agreementHash",
          "type": "bytes32"
        },
        {
          "name": "_initiator",
          "type": "address"
        }
      ],
      "name": "terminateLastMilestone",
      "outputs": [],
      "payable": false,
      "stateMutability": "nonpayable",
      "type": "function"
    },
    {
      "constant": false,
      "inputs": [],
      "name": "renounceOwnership",
      "outputs": [],
      "payable": false,
      "stateMutability": "nonpayable",
      "type": "function"
    },
    {
      "constant": true,
      "inputs": [],
      "name": "owner",
      "outputs": [
        {
          "name": "",
          "type": "address"
        }
      ],
      "payable": false,
      "stateMutability": "view",
      "type": "function"
    },
    {
      "constant": true,
      "inputs": [
        {
          "name": "_idHash",
          "type": "bytes32"
        },
        {
          "name": "_addressToCheck",
          "type": "address"
        }
      ],
      "name": "checkEligibility",
      "outputs": [
        {
          "name": "",
          "type": "bool"
        }
      ],
      "payable": false,
      "stateMutability": "view",
      "type": "function"
    },
    {
      "constant": true,
      "inputs": [],
      "name": "isOwner",
      "outputs": [
        {
          "name": "",
          "type": "bool"
        }
      ],
      "payable": false,
      "stateMutability": "view",
      "type": "function"
    },
    {
      "constant": true,
      "inputs": [
        {
          "name": "_agreementHash",
          "type": "bytes32"
        }
      ],
      "name": "isLastMilestoneAccepted",
      "outputs": [
        {
          "name": "isAccepted",
          "type": "bool"
        },
        {
          "name": "milestoneNumber",
          "type": "uint8"
        }
      ],
      "payable": false,
      "stateMutability": "view",
      "type": "function"
    },
    {
      "constant": true,
      "inputs": [
        {
          "name": "",
          "type": "bytes32"
        },
        {
          "name": "",
          "type": "uint256"
        }
      ],
      "name": "projectMilestones",
      "outputs": [
        {
          "name": "milestoneNumber",
          "type": "uint8"
        },
        {
          "name": "duration",
          "type": "uint32"
        },
        {
          "name": "adjustedDuration",
          "type": "uint32"
        },
        {
          "name": "depositAmount",
          "type": "uint256"
        },
        {
          "name": "tokenAddress",
          "type": "address"
        },
        {
          "name": "startedTime",
          "type": "uint256"
        },
        {
          "name": "deliveredTime",
          "type": "uint256"
        },
        {
          "name": "acceptedTime",
          "type": "uint256"
        },
        {
          "name": "isOnHold",
          "type": "bool"
        }
      ],
      "payable": false,
      "stateMutability": "view",
      "type": "function"
    },
    {
      "constant": true,
      "inputs": [],
      "name": "canMakerTerminateConfig",
      "outputs": [
        {
          "name": "",
          "type": "bool"
        }
      ],
      "payable": false,
      "stateMutability": "view",
      "type": "function"
    },
    {
      "constant": false,
      "inputs": [
        {
          "name": "_idHash",
          "type": "bytes32"
        }
      ],
      "name": "disputeStartedFreeze",
      "outputs": [],
      "payable": false,
      "stateMutability": "nonpayable",
      "type": "function"
    },
    {
      "constant": false,
      "inputs": [
        {
          "name": "_idHash",
          "type": "bytes32"
        },
        {
          "name": "_respondent",
          "type": "address"
        },
        {
          "name": "_respondentShare",
          "type": "uint8"
        },
        {
          "name": "_initiator",
          "type": "address"
        },
        {
          "name": "_initiatorShare",
          "type": "uint8"
        },
        {
          "name": "_isInternal",
          "type": "bool"
        },
        {
          "name": "_arbiterWithdrawalAddress",
          "type": "address"
        }
      ],
      "name": "disputeSettledTerminate",
      "outputs": [],
      "payable": false,
      "stateMutability": "nonpayable",
      "type": "function"
    },
    {
      "constant": false,
      "inputs": [
        {
          "name": "_tokenAddress",
          "type": "address"
        },
        {
          "name": "_tokens",
          "type": "uint256"
        }
      ],
      "name": "transferAnyERC20Token",
      "outputs": [
        {
          "name": "success",
          "type": "bool"
        }
      ],
      "payable": false,
      "stateMutability": "nonpayable",
      "type": "function"
    },
    {
      "constant": true,
      "inputs": [],
      "name": "relayContractAddress",
      "outputs": [
        {
          "name": "",
          "type": "address"
        }
      ],
      "payable": false,
      "stateMutability": "view",
      "type": "function"
    },
    {
      "constant": false,
      "inputs": [
        {
          "name": "_agreementHash",
          "type": "bytes32"
        },
        {
          "name": "_depositAmount",
          "type": "uint256"
        },
        {
          "name": "_tokenAddress",
          "type": "address"
        },
        {
          "name": "_duration",
          "type": "uint32"
        }
      ],
      "name": "startMilestone",
      "outputs": [],
      "payable": false,
      "stateMutability": "nonpayable",
      "type": "function"
    },
    {
      "constant": false,
      "inputs": [
        {
          "name": "_agreementHash",
          "type": "bytes32"
        }
      ],
      "name": "acceptLastMilestone",
      "outputs": [],
      "payable": false,
      "stateMutability": "nonpayable",
      "type": "function"
    },
    {
      "constant": false,
      "inputs": [
        {
          "name": "newOwner",
          "type": "address"
        }
      ],
      "name": "transferOwnership",
      "outputs": [],
      "payable": false,
      "stateMutability": "nonpayable",
      "type": "function"
    },
    {
      "constant": false,
      "inputs": [
        {
          "name": "_agreementHash",
          "type": "bytes32"
        }
      ],
      "name": "rejectLastDeliverable",
      "outputs": [],
      "payable": false,
      "stateMutability": "nonpayable",
      "type": "function"
    },
    {
      "payable": true,
      "stateMutability": "payable",
      "type": "fallback"
    },
    {
      "anonymous": false,
      "inputs": [
        {
          "indexed": true,
          "name": "agreementHash",
          "type": "bytes32"
        },
        {
          "indexed": true,
          "name": "sender",
          "type": "address"
        },
        {
          "indexed": false,
          "name": "timestamp",
          "type": "uint256"
        },
        {
          "indexed": false,
          "name": "milestoneNumber",
          "type": "uint8"
        },
        {
          "indexed": true,
          "name": "state",
          "type": "uint8"
        }
      ],
      "name": "LogMilestoneStateUpdated",
      "type": "event"
    },
    {
      "anonymous": false,
      "inputs": [
        {
          "indexed": true,
          "name": "agreementHash",
          "type": "bytes32"
        },
        {
          "indexed": true,
          "name": "sender",
          "type": "address"
        },
        {
          "indexed": false,
          "name": "amountAdded",
          "type": "uint32"
        },
        {
          "indexed": false,
          "name": "milestoneNumber",
          "type": "uint8"
        }
      ],
      "name": "LogMilestoneDurationAdjusted",
      "type": "event"
    },
    {
      "anonymous": false,
      "inputs": [
        {
          "indexed": true,
          "name": "previousOwner",
          "type": "address"
        },
        {
          "indexed": true,
          "name": "newOwner",
          "type": "address"
        }
      ],
      "name": "OwnershipTransferred",
      "type": "event"
    },
    {
      "constant": false,
      "inputs": [
        {
          "name": "shouldSkip",
          "type": "bool"
        }
      ],
      "name": "setSkipCanTerminateLogic",
      "outputs": [],
      "payable": false,
      "stateMutability": "nonpayable",
      "type": "function"
    },
    {
      "constant": false,
      "inputs": [
        {
          "name": "canTerminate",
          "type": "bool"
        }
      ],
      "name": "setMockClientCanTerminate",
      "outputs": [],
      "payable": false,
      "stateMutability": "nonpayable",
      "type": "function"
    },
    {
      "constant": false,
      "inputs": [
        {
          "name": "canTerminate",
          "type": "bool"
        }
      ],
      "name": "setMockMakerCanTerminate",
      "outputs": [],
      "payable": false,
      "stateMutability": "nonpayable",
      "type": "function"
    },
    {
      "constant": false,
      "inputs": [
        {
          "name": "_agreementHash",
          "type": "bytes32"
        }
      ],
      "name": "markMilestoneAsCompletedAndAccepted",
      "outputs": [],
      "payable": false,
      "stateMutability": "nonpayable",
      "type": "function"
    },
    {
      "constant": false,
      "inputs": [
        {
          "name": "_agreementHash",
          "type": "bytes32"
        }
      ],
      "name": "markMilestoneAsDelivered",
      "outputs": [],
      "payable": false,
      "stateMutability": "nonpayable",
      "type": "function"
    },
    {
      "constant": false,
      "inputs": [
        {
          "name": "_agreementHash",
          "type": "bytes32"
        },
        {
          "name": "isOnHold",
          "type": "bool"
        }
      ],
      "name": "markMilestoneAsOnHold",
      "outputs": [],
      "payable": false,
      "stateMutability": "nonpayable",
      "type": "function"
    },
    {
      "constant": true,
      "inputs": [
        {
          "name": "_agreementHash",
          "type": "bytes32"
        }
      ],
      "name": "canClientTerminate",
      "outputs": [
        {
          "name": "",
          "type": "bool"
        }
      ],
      "payable": false,
      "stateMutability": "view",
      "type": "function"
    },
    {
      "constant": true,
      "inputs": [
        {
          "name": "_agreementHash",
          "type": "bytes32"
        }
      ],
      "name": "canMakerTerminate",
      "outputs": [
        {
          "name": "",
          "type": "bool"
        }
      ],
      "payable": false,
      "stateMutability": "view",
      "type": "function"
    },
    {
      "constant": true,
      "inputs": [
        {
          "name": "_agreementHash",
          "type": "bytes32"
        }
      ],
      "name": "countOfMilestones",
      "outputs": [
        {
          "name": "",
          "type": "uint256"
        }
      ],
      "payable": false,
      "stateMutability": "view",
      "type": "function"
    }
  ],
  "bytecode": "0x60806040526001600360006101000a81548160ff0219169083151502179055506001600360016101000a81548160ff0219169083151502179055506001600360026101000a81548160ff021916908315150217905550336000806101000a81548173ffffffffffffffffffffffffffffffffffffffff021916908373ffffffffffffffffffffffffffffffffffffffff1602179055506000809054906101000a900473ffffffffffffffffffffffffffffffffffffffff1673ffffffffffffffffffffffffffffffffffffffff16600073ffffffffffffffffffffffffffffffffffffffff167f8be0079c531659141344cd1fd0a4f28419497f9722a3daafe3b4186f6b6457e060405160405180910390a3615fcc806101206000396000f30060806040526004361061018b576000357c0100000000000000000000000000000000000000000000000000000000900463ffffffff16806302a661c1146102055780630c46fc921461024257806318469dfe146102735780631878d1f1146102bc57806327bec739146103135780632d2bcd37146103425780632fee1b741461038557806330cb60f1146103b657806336b45e43146103fb5780636d4893141461042a578063715018a61461047b5780638da5cb5b146104925780638e22e643146104e95780638f32d59b146105525780639eaa481214610581578063a704f001146105d7578063ad51e35f146106ac578063adc23f03146106db578063b36c805d14610724578063b4cbff2314610753578063ccfcbdbe14610784578063d727d64b146107cd578063dc39d06d14610884578063dfa93d64146108e9578063e10bcc2a14610940578063e2a23b11146109ab578063e32aa56a146109da578063f2fde38b14610a0b578063f62eec0914610a4e578063f93b89f214610a7f578063f967a19a14610ab0575b600034141515610203576040517f08c379a000000000000000000000000000000000000000000000000000000000815260040180806020018281038252601a8152602001807f426c6f636b696e6720616e7920696e636f6d696e67204554482e00000000000081525060200191505060405180910390fd5b005b34801561021157600080fd5b506102406004803603810190808035600019169060200190929190803515159060200190929190505050610adf565b005b34801561024e57600080fd5b506102716004803603810190808035600019169060200190929190505050610b59565b005b34801561027f57600080fd5b506102a2600480360381019080803560001916906020019092919050505061128f565b604051808215151515815260200191505060405180910390f35b3480156102c857600080fd5b506102d1611661565b604051808273ffffffffffffffffffffffffffffffffffffffff1673ffffffffffffffffffffffffffffffffffffffff16815260200191505060405180910390f35b34801561031f57600080fd5b50610328611666565b604051808215151515815260200191505060405180910390f35b34801561034e57600080fd5b50610383600480360381019080803573ffffffffffffffffffffffffffffffffffffffff169060200190929190505050611679565b005b34801561039157600080fd5b506103b46004803603810190808035600019169060200190929190505050611775565b005b3480156103c257600080fd5b506103e560048036038101908080356000191690602001909291905050506117ed565b6040518082815260200191505060405180910390f35b34801561040757600080fd5b50610410611815565b604051808215151515815260200191505060405180910390f35b34801561043657600080fd5b506104796004803603810190808035600019169060200190929190803573ffffffffffffffffffffffffffffffffffffffff169060200190929190505050611828565b005b34801561048757600080fd5b506104906120d2565b005b34801561049e57600080fd5b506104a76121a4565b604051808273ffffffffffffffffffffffffffffffffffffffff1673ffffffffffffffffffffffffffffffffffffffff16815260200191505060405180910390f35b3480156104f557600080fd5b506105386004803603810190808035600019169060200190929190803573ffffffffffffffffffffffffffffffffffffffff1690602001909291905050506121cd565b604051808215151515815260200191505060405180910390f35b34801561055e57600080fd5b50610567612469565b604051808215151515815260200191505060405180910390f35b34801561058d57600080fd5b506105b060048036038101908080356000191690602001909291905050506124c0565b60405180831515151581526020018260ff1660ff1681526020019250505060405180910390f35b3480156105e357600080fd5b50610610600480360381019080803560001916906020019092919080359060200190929190505050612544565b604051808a60ff1660ff1681526020018963ffffffff1663ffffffff1681526020018863ffffffff1663ffffffff1681526020018781526020018673ffffffffffffffffffffffffffffffffffffffff1673ffffffffffffffffffffffffffffffffffffffff16815260200185815260200184815260200183815260200182151515158152602001995050505050505050505060405180910390f35b3480156106b857600080fd5b506106d9600480360381019080803515159060200190929190505050612608565b005b3480156106e757600080fd5b5061070a6004803603810190808035600019169060200190929190505050612625565b604051808215151515815260200191505060405180910390f35b34801561073057600080fd5b50610739612664565b604051808215151515815260200191505060405180910390f35b34801561075f57600080fd5b506107826004803603810190808035600019169060200190929190505050612677565b005b34801561079057600080fd5b506107b36004803603810190808035600019169060200190929190505050612a22565b604051808215151515815260200191505060405180910390f35b3480156107d957600080fd5b506108826004803603810190808035600019169060200190929190803573ffffffffffffffffffffffffffffffffffffffff169060200190929190803560ff169060200190929190803573ffffffffffffffffffffffffffffffffffffffff169060200190929190803560ff169060200190929190803515159060200190929190803573ffffffffffffffffffffffffffffffffffffffff169060200190929190505050612a78565b005b34801561089057600080fd5b506108cf600480360381019080803573ffffffffffffffffffffffffffffffffffffffff169060200190929190803590602001909291905050506130ec565b604051808215151515815260200191505060405180910390f35b3480156108f557600080fd5b506108fe6131f3565b604051808273ffffffffffffffffffffffffffffffffffffffff1673ffffffffffffffffffffffffffffffffffffffff16815260200191505060405180910390f35b34801561094c57600080fd5b506109a9600480360381019080803560001916906020019092919080359060200190929190803573ffffffffffffffffffffffffffffffffffffffff169060200190929190803563ffffffff169060200190929190505050613219565b005b3480156109b757600080fd5b506109d8600480360381019080803515159060200190929190505050613d39565b005b3480156109e657600080fd5b50610a096004803603810190808035600019169060200190929190505050613d56565b005b348015610a1757600080fd5b50610a4c600480360381019080803573ffffffffffffffffffffffffffffffffffffffff169060200190929190505050614731565b005b348015610a5a57600080fd5b50610a7d6004803603810190808035600019169060200190929190505050614750565b005b348015610a8b57600080fd5b50610aae6004803603810190808035600019169060200190929190505050614f45565b005b348015610abc57600080fd5b50610add600480360381019080803515159060200190929190505050614fab565b005b600080600260008560001916600019168152602001908152602001600020915060008280549050111515610b1257600080fd5b816001838054905003815481101515610b2757fe5b90600052602060002090600702019050828160060160006101000a81548160ff02191690831515021790555050505050565b600080600080600160009054906101000a900473ffffffffffffffffffffffffffffffffffffffff1673ffffffffffffffffffffffffffffffffffffffff16636f23d8da6040518163ffffffff167c0100000000000000000000000000000000000000000000000000000000028152600401602060405180830381600087803b158015610be557600080fd5b505af1158015610bf9573d6000803e3d6000fd5b505050506040513d6020811015610c0f57600080fd5b810190808051906020019092919050505093508373ffffffffffffffffffffffffffffffffffffffff16631604fa4d866040518263ffffffff167c0100000000000000000000000000000000000000000000000000000000028152600401808260001916600019168152602001915050602060405180830381600087803b158015610c9957600080fd5b505af1158015610cad573d6000803e3d6000fd5b505050506040513d6020811015610cc357600080fd5b81019080805190602001909291905050501515610d48576040517f08c379a00000000000000000000000000000000000000000000000000000000081526004018080602001828103825260138152602001807f50726f6a656374206d7573742065786973742e0000000000000000000000000081525060200191505060405180910390fd5b60008473ffffffffffffffffffffffffffffffffffffffff16635f6dd297876040518263ffffffff167c0100000000000000000000000000000000000000000000000000000000028152600401808260001916600019168152602001915050602060405180830381600087803b158015610dc157600080fd5b505af1158015610dd5573d6000803e3d6000fd5b505050506040513d6020811015610deb57600080fd5b8101908080519060200190929190505050141515610e71576040517f08c379a00000000000000000000000000000000000000000000000000000000081526004018080602001828103825260198152602001807f50726f6a6563742073686f756c64206265206163746976652e0000000000000081525060200191505060405180910390fd5b3373ffffffffffffffffffffffffffffffffffffffff168473ffffffffffffffffffffffffffffffffffffffff166362074c31876040518263ffffffff167c0100000000000000000000000000000000000000000000000000000000028152600401808260001916600019168152602001915050602060405180830381600087803b158015610eff57600080fd5b505af1158015610f13573d6000803e3d6000fd5b505050506040513d6020811015610f2957600080fd5b810190808051906020019092919050505073ffffffffffffffffffffffffffffffffffffffff16141515610fc5576040517f08c379a00000000000000000000000000000000000000000000000000000000081526004018080602001828103825260178152602001807f53656e646572206d7573742062652061206d616b65722e00000000000000000081525060200191505060405180910390fd5b42925060026000866000191660001916815260200190815260200160002080549050915060008260ff1611151561108a576040517f08c379a000000000000000000000000000000000000000000000000000000000815260040180806020018281038252602c8152602001807f5468657265206d757374206265206d696c6573746f6e657320746f206d616b6581526020017f20612064656c69766572792e000000000000000000000000000000000000000081525060400191505060405180910390fd5b6002600086600019166000191681526020019081526020016000206001830360ff168154811015156110b857fe5b90600052602060002090600702019050600081600301541180156110e0575060008160040154145b80156110f0575060008160050154145b151561118a576040517f08c379a00000000000000000000000000000000000000000000000000000000081526004018080602001828103825260398152602001807f4d696c6573746f6e65206d757374206265206163746976652c206e6f7420646581526020017f6c69766572656420616e64206e6f742061636365707465642e0000000000000081525060400191505060405180910390fd5b8060060160009054906101000a900460ff16151515611211576040517f08c379a000000000000000000000000000000000000000000000000000000000815260040180806020018281038252601d8152602001807f4d696c6573746f6e65206d757374206e6f74206265207061757365642e00000081525060200191505060405180910390fd5b8281600401819055506001600581111561122757fe5b3373ffffffffffffffffffffffffffffffffffffffff1686600019167f939f959dd457cf9b72f63161a86a222a89995ac1846647d3f3c174518a8ba0968686604051808381526020018260ff1660ff1681526020019250505060405180910390a45050505050565b60008061129a615f2c565b6000806000806000600260008a6000191660001916815260200190815260200160002080549050965060008714156112d55760009750611655565b600260008a600019166000191681526020019081526020016000206001880381548110151561130057fe5b906000526020600020906007020161012060405190810160405290816000820160009054906101000a900460ff1660ff1660ff1681526020016000820160019054906101000a900463ffffffff1663ffffffff1663ffffffff1681526020016000820160059054906101000a900463ffffffff1663ffffffff1663ffffffff168152602001600182015481526020016002820160009054906101000a900473ffffffffffffffffffffffffffffffffffffffff1673ffffffffffffffffffffffffffffffffffffffff1673ffffffffffffffffffffffffffffffffffffffff1681526020016003820154815260200160048201548152602001600582015481526020016006820160009054906101000a900460ff161515151581525050955085610100015180611434575060008660e00151115b156114425760009750611655565b600160009054906101000a900473ffffffffffffffffffffffffffffffffffffffff1673ffffffffffffffffffffffffffffffffffffffff16636f23d8da6040518163ffffffff167c0100000000000000000000000000000000000000000000000000000000028152600401602060405180830381600087803b1580156114c857600080fd5b505af11580156114dc573d6000803e3d6000fd5b505050506040513d60208110156114f257600080fd5b810190808051906020019092919050505094508493506115d2620151808573ffffffffffffffffffffffffffffffffffffffff1663e591fa268c6040518263ffffffff167c0100000000000000000000000000000000000000000000000000000000028152600401808260001916600019168152602001915050602060405180830381600087803b15801561158657600080fd5b505af115801561159a573d6000803e3d6000fd5b505050506040513d60208110156115b057600080fd5b810190808051906020019092919050505060ff16614fc890919063ffffffff16565b92504291506115f8866040015163ffffffff168760a0015161500690919063ffffffff16565b90508560c0015181108061160b57508181105b156116195760009750611655565b60008660c00151118015611642575081611640848860c0015161500690919063ffffffff16565b105b156116505760009750611655565b600197505b50505050505050919050565b600081565b600360029054906101000a900460ff1681565b611681612469565b151561168c57600080fd5b600073ffffffffffffffffffffffffffffffffffffffff168173ffffffffffffffffffffffffffffffffffffffff1614151515611731576040517f08c379a000000000000000000000000000000000000000000000000000000000815260040180806020018281038252601e8152602001807f52656c61792061646472657373206d757374206e6f74206265203078302e000081525060200191505060405180910390fd5b80600160006101000a81548173ffffffffffffffffffffffffffffffffffffffff021916908373ffffffffffffffffffffffffffffffffffffffff16021790555050565b60008060006002600085600019166000191681526020019081526020016000209250600083805490501115156117aa57600080fd5b8260018480549050038154811015156117bf57fe5b9060005260206000209060070201915042905080826004018190555060018101826005018190555050505050565b6000600260008360001916600019168152602001908152602001600020805490509050919050565b600360009054906101000a900460ff1681565b6000806000806000611838615f2c565b6000600160009054906101000a900473ffffffffffffffffffffffffffffffffffffffff1673ffffffffffffffffffffffffffffffffffffffff16636f23d8da6040518163ffffffff167c0100000000000000000000000000000000000000000000000000000000028152600401602060405180830381600087803b1580156118c057600080fd5b505af11580156118d4573d6000803e3d6000fd5b505050506040513d60208110156118ea57600080fd5b810190808051906020019092919050505096508673ffffffffffffffffffffffffffffffffffffffff163373ffffffffffffffffffffffffffffffffffffffff161415156119c6576040517f08c379a000000000000000000000000000000000000000000000000000000000815260040180806020018281038252602c8152602001807f4d6574686f642073686f756c642062652063616c6c65642062792050726f6a6581526020017f637420636f6e74726163742e000000000000000000000000000000000000000081525060400191505060405180910390fd5b8695508573ffffffffffffffffffffffffffffffffffffffff16631604fa4d8a6040518263ffffffff167c0100000000000000000000000000000000000000000000000000000000028152600401808260001916600019168152602001915050602060405180830381600087803b158015611a4057600080fd5b505af1158015611a54573d6000803e3d6000fd5b505050506040513d6020811015611a6a57600080fd5b81019080805190602001909291905050501515611aef576040517f08c379a00000000000000000000000000000000000000000000000000000000081526004018080602001828103825260138152602001807f50726f6a656374206d7573742065786973742e0000000000000000000000000081525060200191505060405180910390fd5b8573ffffffffffffffffffffffffffffffffffffffff1663ab065d6c8a6040518263ffffffff167c0100000000000000000000000000000000000000000000000000000000028152600401808260001916600019168152602001915050602060405180830381600087803b158015611b6657600080fd5b505af1158015611b7a573d6000803e3d6000fd5b505050506040513d6020811015611b9057600080fd5b810190808051906020019092919050505094508573ffffffffffffffffffffffffffffffffffffffff166362074c318a6040518263ffffffff167c0100000000000000000000000000000000000000000000000000000000028152600401808260001916600019168152602001915050602060405180830381600087803b158015611c1a57600080fd5b505af1158015611c2e573d6000803e3d6000fd5b505050506040513d6020811015611c4457600080fd5b810190808051906020019092919050505093508473ffffffffffffffffffffffffffffffffffffffff168873ffffffffffffffffffffffffffffffffffffffff161480611cbc57508373ffffffffffffffffffffffffffffffffffffffff168873ffffffffffffffffffffffffffffffffffffffff16145b1515611d56576040517f08c379a00000000000000000000000000000000000000000000000000000000081526004018080602001828103825260338152602001807f496e69746961746f722073686f756c6420626520656974686572206d616b657281526020017f206f7220636c69656e7420616464726573732e0000000000000000000000000081525060400191505060405180910390fd5b8473ffffffffffffffffffffffffffffffffffffffff168873ffffffffffffffffffffffffffffffffffffffff161415611da357611d9389612625565b1515611d9e57600080fd5b611db8565b611dac89612a22565b1515611db757600080fd5b5b600260008a600019166000191681526020019081526020016000208054905092506000831415611de7576120c7565b600260008a6000191660001916815260200190815260200160002060018403815481101515611e1257fe5b906000526020600020906007020161012060405190810160405290816000820160009054906101000a900460ff1660ff1660ff1681526020016000820160019054906101000a900463ffffffff1663ffffffff1663ffffffff1681526020016000820160059054906101000a900463ffffffff1663ffffffff1663ffffffff168152602001600182015481526020016002820160009054906101000a900473ffffffffffffffffffffffffffffffffffffffff1673ffffffffffffffffffffffffffffffffffffffff1673ffffffffffffffffffffffffffffffffffffffff1681526020016003820154815260200160048201548152602001600582015481526020016006820160009054906101000a900460ff161515151581525050915060008260e001511115611f43576120c7565b8573ffffffffffffffffffffffffffffffffffffffff1663b88467c28a6040518263ffffffff167c0100000000000000000000000000000000000000000000000000000000028152600401808260001916600019168152602001915050602060405180830381600087803b158015611fba57600080fd5b505af1158015611fce573d6000803e3d6000fd5b505050506040513d6020811015611fe457600080fd5b810190808051906020019092919050505090508473ffffffffffffffffffffffffffffffffffffffff168873ffffffffffffffffffffffffffffffffffffffff1614156120435761203e8183606001518460800151615027565b612058565b6120578189846060015185608001516151bd565b5b6004600581111561206557fe5b3373ffffffffffffffffffffffffffffffffffffffff168a600019167f939f959dd457cf9b72f63161a86a222a89995ac1846647d3f3c174518a8ba0964287604051808381526020018260ff1660ff1681526020019250505060405180910390a45b505050505050505050565b6120da612469565b15156120e557600080fd5b600073ffffffffffffffffffffffffffffffffffffffff166000809054906101000a900473ffffffffffffffffffffffffffffffffffffffff1673ffffffffffffffffffffffffffffffffffffffff167f8be0079c531659141344cd1fd0a4f28419497f9722a3daafe3b4186f6b6457e060405160405180910390a360008060006101000a81548173ffffffffffffffffffffffffffffffffffffffff021916908373ffffffffffffffffffffffffffffffffffffffff160217905550565b60008060009054906101000a900473ffffffffffffffffffffffffffffffffffffffff16905090565b6000806000600160009054906101000a900473ffffffffffffffffffffffffffffffffffffffff1673ffffffffffffffffffffffffffffffffffffffff16636f23d8da6040518163ffffffff167c0100000000000000000000000000000000000000000000000000000000028152600401602060405180830381600087803b15801561225857600080fd5b505af115801561226c573d6000803e3d6000fd5b505050506040513d602081101561228257600080fd5b810190808051906020019092919050505091508190508073ffffffffffffffffffffffffffffffffffffffff1663ab065d6c866040518263ffffffff167c0100000000000000000000000000000000000000000000000000000000028152600401808260001916600019168152602001915050602060405180830381600087803b15801561230f57600080fd5b505af1158015612323573d6000803e3d6000fd5b505050506040513d602081101561233957600080fd5b810190808051906020019092919050505073ffffffffffffffffffffffffffffffffffffffff168473ffffffffffffffffffffffffffffffffffffffff16148061245f57508073ffffffffffffffffffffffffffffffffffffffff166362074c31866040518263ffffffff167c0100000000000000000000000000000000000000000000000000000000028152600401808260001916600019168152602001915050602060405180830381600087803b1580156123f557600080fd5b505af1158015612409573d6000803e3d6000fd5b505050506040513d602081101561241f57600080fd5b810190808051906020019092919050505073ffffffffffffffffffffffffffffffffffffffff168473ffffffffffffffffffffffffffffffffffffffff16145b9250505092915050565b60008060009054906101000a900473ffffffffffffffffffffffffffffffffffffffff1673ffffffffffffffffffffffffffffffffffffffff163373ffffffffffffffffffffffffffffffffffffffff1614905090565b60008060026000846000191660001916815260200190815260200160002080549050905060008160ff16111561253a5760006002600085600019166000191681526020019081526020016000206001830360ff1681548110151561252057fe5b90600052602060002090600702016005015411915061253f565b600091505b915091565b60026020528160005260406000208181548110151561255f57fe5b9060005260206000209060070201600091509150508060000160009054906101000a900460ff16908060000160019054906101000a900463ffffffff16908060000160059054906101000a900463ffffffff16908060010154908060020160009054906101000a900473ffffffffffffffffffffffffffffffffffffffff16908060030154908060040154908060050154908060060160009054906101000a900460ff16905089565b80600360026101000a81548160ff02191690831515021790555050565b6000600360029054906101000a900460ff161561265357600360009054906101000a900460ff16905061265f565b61265c826153bc565b90505b919050565b600360019054906101000a900460ff1681565b600080600080600160009054906101000a900473ffffffffffffffffffffffffffffffffffffffff1673ffffffffffffffffffffffffffffffffffffffff16636f23d8da6040518163ffffffff167c0100000000000000000000000000000000000000000000000000000000028152600401602060405180830381600087803b15801561270357600080fd5b505af1158015612717573d6000803e3d6000fd5b505050506040513d602081101561272d57600080fd5b810190808051906020019092919050505093508392503373ffffffffffffffffffffffffffffffffffffffff168373ffffffffffffffffffffffffffffffffffffffff1663a3e2b1de876040518263ffffffff167c0100000000000000000000000000000000000000000000000000000000028152600401808260001916600019168152602001915050602060405180830381600087803b1580156127d157600080fd5b505af11580156127e5573d6000803e3d6000fd5b505050506040513d60208110156127fb57600080fd5b810190808051906020019092919050505073ffffffffffffffffffffffffffffffffffffffff161415156128bd576040517f08c379a00000000000000000000000000000000000000000000000000000000081526004018080602001828103825260388152602001807f467265657a696e672075706f6e20646973707574652073746172742063616e2081526020017f62652073656e74206f6e6c7920627920617262697465722e000000000000000081525060400191505060405180910390fd5b600260008660001916600019168152602001908152602001600020805490509150600082111515612956576040517f08c379a000000000000000000000000000000000000000000000000000000000815260040180806020018281038252601f8152602001807f5468657265206d75737420626520616374697665206d696c6573746f6e652e0081525060200191505060405180910390fd5b6002600086600019166000191681526020019081526020016000206001830381548110151561298157fe5b9060005260206000209060070201905060018160060160006101000a81548160ff0219169083151502179055506005808111156129ba57fe5b3373ffffffffffffffffffffffffffffffffffffffff1686600019167f939f959dd457cf9b72f63161a86a222a89995ac1846647d3f3c174518a8ba0964286604051808381526020018260ff1660ff1681526020019250505060405180910390a45050505050565b6000600360029054906101000a900460ff1615612a5057600360019054906101000a900460ff169050612a73565b60001515612a5d83615590565b15151415612a6e5760009050612a73565b600190505b919050565b6000612a82615f2c565b600080600080600260008e60001916600019168152602001908152602001600020805490509550600086111515612b47576040517f08c379a00000000000000000000000000000000000000000000000000000000081526004018080602001828103825260258152602001807f5468657265206d757374206265206174206c65617374206f6e65206d696c657381526020017f746f6e652e00000000000000000000000000000000000000000000000000000081525060400191505060405180910390fd5b600260008e6000191660001916815260200190815260200160002060018703815481101515612b7257fe5b906000526020600020906007020161012060405190810160405290816000820160009054906101000a900460ff1660ff1660ff1681526020016000820160019054906101000a900463ffffffff1663ffffffff1663ffffffff1681526020016000820160059054906101000a900463ffffffff1663ffffffff1663ffffffff168152602001600182015481526020016002820160009054906101000a900473ffffffffffffffffffffffffffffffffffffffff1673ffffffffffffffffffffffffffffffffffffffff1673ffffffffffffffffffffffffffffffffffffffff1681526020016003820154815260200160048201548152602001600582015481526020016006820160009054906101000a900460ff16151515158152505094508461010001511515612d0b576040517f08c379a000000000000000000000000000000000000000000000000000000000815260040180806020018281038252601f8152602001807f4c617374206d696c6573746f6e65206d757374206265206f6e20686f6c642e0081525060200191505060405180910390fd5b6064612d268a60ff168d60ff1661500690919063ffffffff16565b141515612d9b576040517f08c379a000000000000000000000000000000000000000000000000000000000815260040180806020018281038252601b8152602001807f536861726573206d757374206265203130302520696e2073756d2e000000000081525060200191505060405180910390fd5b600160009054906101000a900473ffffffffffffffffffffffffffffffffffffffff1673ffffffffffffffffffffffffffffffffffffffff16636f23d8da6040518163ffffffff167c0100000000000000000000000000000000000000000000000000000000028152600401602060405180830381600087803b158015612e2157600080fd5b505af1158015612e35573d6000803e3d6000fd5b505050506040513d6020811015612e4b57600080fd5b810190808051906020019092919050505093508373ffffffffffffffffffffffffffffffffffffffff166334aa982a8e8e8d336040518563ffffffff167c01000000000000000000000000000000000000000000000000000000000281526004018085600019166000191681526020018473ffffffffffffffffffffffffffffffffffffffff1673ffffffffffffffffffffffffffffffffffffffff1681526020018373ffffffffffffffffffffffffffffffffffffffff1673ffffffffffffffffffffffffffffffffffffffff1681526020018273ffffffffffffffffffffffffffffffffffffffff1673ffffffffffffffffffffffffffffffffffffffff168152602001945050505050606060405180830381600087803b158015612f7157600080fd5b505af1158015612f85573d6000803e3d6000fd5b505050506040513d6060811015612f9b57600080fd5b81019080805190602001909291908051906020019092919080519060200190929190505050925092509250612fe08186608001518e8d8d8d8d8c606001518b8b615ae8565b8373ffffffffffffffffffffffffffffffffffffffff16639827a9968e6040518263ffffffff167c0100000000000000000000000000000000000000000000000000000000028152600401808260001916600019168152602001915050600060405180830381600087803b15801561305757600080fd5b505af115801561306b573d6000803e3d6000fd5b505050506004600581111561307c57fe5b3373ffffffffffffffffffffffffffffffffffffffff168e600019167f939f959dd457cf9b72f63161a86a222a89995ac1846647d3f3c174518a8ba096428a604051808381526020018260ff1660ff1681526020019250505060405180910390a450505050505050505050505050565b6000806130f7612469565b151561310257600080fd5b8390508073ffffffffffffffffffffffffffffffffffffffff1663a9059cbb6131296121a4565b856040518363ffffffff167c0100000000000000000000000000000000000000000000000000000000028152600401808373ffffffffffffffffffffffffffffffffffffffff1673ffffffffffffffffffffffffffffffffffffffff16815260200182815260200192505050602060405180830381600087803b1580156131af57600080fd5b505af11580156131c3573d6000803e3d6000fd5b505050506040513d60208110156131d957600080fd5b810190808051906020019092919050505091505092915050565b600160009054906101000a900473ffffffffffffffffffffffffffffffffffffffff1681565b6000613223615f2c565b60008060026000896000191660001916815260200190815260200160002080549050935060008460ff161115613443576002600089600019166000191681526020019081526020016000206001850360ff1681548110151561328157fe5b906000526020600020906007020161012060405190810160405290816000820160009054906101000a900460ff1660ff1660ff1681526020016000820160019054906101000a900463ffffffff1663ffffffff1663ffffffff1681526020016000820160059054906101000a900463ffffffff1663ffffffff1663ffffffff168152602001600182015481526020016002820160009054906101000a900473ffffffffffffffffffffffffffffffffffffffff1673ffffffffffffffffffffffffffffffffffffffff1673ffffffffffffffffffffffffffffffffffffffff1681526020016003820154815260200160048201548152602001600582015481526020016006820160009054906101000a900460ff161515151581525050925060008360e00151111515613442576040517f08c379a00000000000000000000000000000000000000000000000000000000081526004018080602001828103825260398152602001807f416c6c206d696c6573746f6e6573206d7573742062652061636365707465642081526020017f7072696f72207374617274696e672061206e6577206f6e652e0000000000000081525060400191505060405180910390fd5b5b600160009054906101000a900473ffffffffffffffffffffffffffffffffffffffff1673ffffffffffffffffffffffffffffffffffffffff16636f23d8da6040518163ffffffff167c0100000000000000000000000000000000000000000000000000000000028152600401602060405180830381600087803b1580156134c957600080fd5b505af11580156134dd573d6000803e3d6000fd5b505050506040513d60208110156134f357600080fd5b810190808051906020019092919050505091508173ffffffffffffffffffffffffffffffffffffffff16631604fa4d896040518263ffffffff167c0100000000000000000000000000000000000000000000000000000000028152600401808260001916600019168152602001915050602060405180830381600087803b15801561357d57600080fd5b505af1158015613591573d6000803e3d6000fd5b505050506040513d60208110156135a757600080fd5b8101908080519060200190929190505050151561362c576040517f08c379a00000000000000000000000000000000000000000000000000000000081526004018080602001828103825260138152602001807f50726f6a656374206d7573742065786973742e0000000000000000000000000081525060200191505060405180910390fd5b3373ffffffffffffffffffffffffffffffffffffffff168273ffffffffffffffffffffffffffffffffffffffff1663ab065d6c8a6040518263ffffffff167c0100000000000000000000000000000000000000000000000000000000028152600401808260001916600019168152602001915050602060405180830381600087803b1580156136ba57600080fd5b505af11580156136ce573d6000803e3d6000fd5b505050506040513d60208110156136e457600080fd5b810190808051906020019092919050505073ffffffffffffffffffffffffffffffffffffffff161415156137a6576040517f08c379a00000000000000000000000000000000000000000000000000000000081526004018080602001828103825260278152602001807f4f6e6c792070726f6a656374277320636c69656e74207374617274732061206d81526020017f696573746f6e650000000000000000000000000000000000000000000000000081525060400191505060405180910390fd5b8360ff168273ffffffffffffffffffffffffffffffffffffffff16634a80dcab8a6040518263ffffffff167c0100000000000000000000000000000000000000000000000000000000028152600401808260001916600019168152602001915050602060405180830381600087803b15801561382157600080fd5b505af1158015613835573d6000803e3d6000fd5b505050506040513d602081101561384b57600080fd5b810190808051906020019092919050505060ff16111515613920576040517f08c379a00000000000000000000000000000000000000000000000000000000081526004018080602001828103825260488152602001807f4d696c6573746f6e657320636f756e742073686f756c64206e6f74206578636581526020017f656420746865206e756d62657220636f6e6669677572656420696e207468652081526020017f70726f6a6563742e00000000000000000000000000000000000000000000000081525060600191505060405180910390fd5b60008273ffffffffffffffffffffffffffffffffffffffff16635f6dd2978a6040518263ffffffff167c0100000000000000000000000000000000000000000000000000000000028152600401808260001916600019168152602001915050602060405180830381600087803b15801561399957600080fd5b505af11580156139ad573d6000803e3d6000fd5b505050506040513d60208110156139c357600080fd5b8101908080519060200190929190505050141515613a49576040517f08c379a00000000000000000000000000000000000000000000000000000000081526004018080602001828103825260198152602001807f50726f6a6563742073686f756c64206265206163746976652e0000000000000081525060200191505060405180910390fd5b613b058273ffffffffffffffffffffffffffffffffffffffff1663b88467c28a6040518263ffffffff167c0100000000000000000000000000000000000000000000000000000000028152600401808260001916600019168152602001915050602060405180830381600087803b158015613ac357600080fd5b505af1158015613ad7573d6000803e3d6000fd5b505050506040513d6020811015613aed57600080fd5b81019080805190602001909291905050508888615bbe565b429050600260008960001916600019168152602001908152602001600020610120604051908101604052806001870160ff1681526020018763ffffffff1681526020018763ffffffff1681526020018981526020018873ffffffffffffffffffffffffffffffffffffffff1681526020018381526020016000815260200160008152602001600015158152509080600181540180825580915050906001820390600052602060002090600702016000909192909190915060008201518160000160006101000a81548160ff021916908360ff16021790555060208201518160000160016101000a81548163ffffffff021916908363ffffffff16021790555060408201518160000160056101000a81548163ffffffff021916908363ffffffff1602179055506060820151816001015560808201518160020160006101000a81548173ffffffffffffffffffffffffffffffffffffffff021916908373ffffffffffffffffffffffffffffffffffffffff16021790555060a0820151816003015560c0820151816004015560e082015181600501556101008201518160060160006101000a81548160ff02191690831515021790555050505060006005811115613ccb57fe5b3373ffffffffffffffffffffffffffffffffffffffff1689600019167f939f959dd457cf9b72f63161a86a222a89995ac1846647d3f3c174518a8ba0968460018901604051808381526020018260ff1660ff1681526020019250505060405180910390a45050505050505050565b80600360006101000a81548160ff02191690831515021790555050565b600080600080600160009054906101000a900473ffffffffffffffffffffffffffffffffffffffff1673ffffffffffffffffffffffffffffffffffffffff16636f23d8da6040518163ffffffff167c0100000000000000000000000000000000000000000000000000000000028152600401602060405180830381600087803b158015613de257600080fd5b505af1158015613df6573d6000803e3d6000fd5b505050506040513d6020811015613e0c57600080fd5b810190808051906020019092919050505093508373ffffffffffffffffffffffffffffffffffffffff16631604fa4d866040518263ffffffff167c0100000000000000000000000000000000000000000000000000000000028152600401808260001916600019168152602001915050602060405180830381600087803b158015613e9657600080fd5b505af1158015613eaa573d6000803e3d6000fd5b505050506040513d6020811015613ec057600080fd5b81019080805190602001909291905050501515613f45576040517f08c379a00000000000000000000000000000000000000000000000000000000081526004018080602001828103825260138152602001807f50726f6a656374206d7573742065786973742e0000000000000000000000000081525060200191505060405180910390fd5b60008473ffffffffffffffffffffffffffffffffffffffff16635f6dd297876040518263ffffffff167c0100000000000000000000000000000000000000000000000000000000028152600401808260001916600019168152602001915050602060405180830381600087803b158015613fbe57600080fd5b505af1158015613fd2573d6000803e3d6000fd5b505050506040513d6020811015613fe857600080fd5b810190808051906020019092919050505014151561406e576040517f08c379a00000000000000000000000000000000000000000000000000000000081526004018080602001828103825260198152602001807f50726f6a6563742073686f756c64206265206163746976652e0000000000000081525060200191505060405180910390fd5b3373ffffffffffffffffffffffffffffffffffffffff168473ffffffffffffffffffffffffffffffffffffffff1663ab065d6c876040518263ffffffff167c0100000000000000000000000000000000000000000000000000000000028152600401808260001916600019168152602001915050602060405180830381600087803b1580156140fc57600080fd5b505af1158015614110573d6000803e3d6000fd5b505050506040513d602081101561412657600080fd5b810190808051906020019092919050505073ffffffffffffffffffffffffffffffffffffffff161415156141c2576040517f08c379a00000000000000000000000000000000000000000000000000000000081526004018080602001828103825260188152602001807f53656e646572206d757374206265206120636c69656e742e000000000000000081525060200191505060405180910390fd5b60026000866000191660001916815260200190815260200160002080549050925060008360ff16111515614284576040517f08c379a000000000000000000000000000000000000000000000000000000000815260040180806020018281038252602e8152602001807f5468657265206d757374206265206d696c6573746f6e657320746f206163636581526020017f707420612064656c69766572792e00000000000000000000000000000000000081525060400191505060405180910390fd5b6002600086600019166000191681526020019081526020016000206001840360ff168154811015156142b257fe5b90600052602060002090600702019150600082600301541180156142da575060008260050154145b80156142ea575060008260040154115b801561430b5750600015158260060160009054906101000a900460ff161515145b15156143cb576040517f08c379a00000000000000000000000000000000000000000000000000000000081526004018080602001828103825260608152602001807f4d696c6573746f6e652073686f756c642062652061637469766520616e64206481526020017f656c6976657265642c20627574206e6f742072656a65637465642c206f72206181526020017f6c72656164792061636365707465642c206f7220707574206f6e20686f6c642e81525060600191505060405180910390fd5b4290508082600501819055508260ff168473ffffffffffffffffffffffffffffffffffffffff16634a80dcab876040518263ffffffff167c0100000000000000000000000000000000000000000000000000000000028152600401808260001916600019168152602001915050602060405180830381600087803b15801561445257600080fd5b505af1158015614466573d6000803e3d6000fd5b505050506040513d602081101561447c57600080fd5b810190808051906020019092919050505060ff161415614526578373ffffffffffffffffffffffffffffffffffffffff1663d90b4958866040518263ffffffff167c0100000000000000000000000000000000000000000000000000000000028152600401808260001916600019168152602001915050600060405180830381600087803b15801561450d57600080fd5b505af1158015614521573d6000803e3d6000fd5b505050505b6146bc8473ffffffffffffffffffffffffffffffffffffffff1663b88467c2876040518263ffffffff167c0100000000000000000000000000000000000000000000000000000000028152600401808260001916600019168152602001915050602060405180830381600087803b1580156145a057600080fd5b505af11580156145b4573d6000803e3d6000fd5b505050506040513d60208110156145ca57600080fd5b81019080805190602001909291905050508573ffffffffffffffffffffffffffffffffffffffff166362074c31886040518263ffffffff167c0100000000000000000000000000000000000000000000000000000000028152600401808260001916600019168152602001915050602060405180830381600087803b15801561465257600080fd5b505af1158015614666573d6000803e3d6000fd5b505050506040513d602081101561467c57600080fd5b810190808051906020019092919050505084600101548560020160009054906101000a900473ffffffffffffffffffffffffffffffffffffffff166151bd565b600260058111156146c957fe5b3373ffffffffffffffffffffffffffffffffffffffff1686600019167f939f959dd457cf9b72f63161a86a222a89995ac1846647d3f3c174518a8ba0968487604051808381526020018260ff1660ff1681526020019250505060405180910390a45050505050565b614739612469565b151561474457600080fd5b61474d81615d54565b50565b6000806000806000600160009054906101000a900473ffffffffffffffffffffffffffffffffffffffff1673ffffffffffffffffffffffffffffffffffffffff16636f23d8da6040518163ffffffff167c0100000000000000000000000000000000000000000000000000000000028152600401602060405180830381600087803b1580156147de57600080fd5b505af11580156147f2573d6000803e3d6000fd5b505050506040513d602081101561480857600080fd5b810190808051906020019092919050505094508473ffffffffffffffffffffffffffffffffffffffff16631604fa4d876040518263ffffffff167c0100000000000000000000000000000000000000000000000000000000028152600401808260001916600019168152602001915050602060405180830381600087803b15801561489257600080fd5b505af11580156148a6573d6000803e3d6000fd5b505050506040513d60208110156148bc57600080fd5b81019080805190602001909291905050501515614941576040517f08c379a00000000000000000000000000000000000000000000000000000000081526004018080602001828103825260138152602001807f50726f6a656374206d7573742065786973742e0000000000000000000000000081525060200191505060405180910390fd5b60008573ffffffffffffffffffffffffffffffffffffffff16635f6dd297886040518263ffffffff167c0100000000000000000000000000000000000000000000000000000000028152600401808260001916600019168152602001915050602060405180830381600087803b1580156149ba57600080fd5b505af11580156149ce573d6000803e3d6000fd5b505050506040513d60208110156149e457600080fd5b8101908080519060200190929190505050141515614a6a576040517f08c379a00000000000000000000000000000000000000000000000000000000081526004018080602001828103825260198152602001807f50726f6a6563742073686f756c64206265206163746976652e0000000000000081525060200191505060405180910390fd5b3373ffffffffffffffffffffffffffffffffffffffff168573ffffffffffffffffffffffffffffffffffffffff1663ab065d6c886040518263ffffffff167c0100000000000000000000000000000000000000000000000000000000028152600401808260001916600019168152602001915050602060405180830381600087803b158015614af857600080fd5b505af1158015614b0c573d6000803e3d6000fd5b505050506040513d6020811015614b2257600080fd5b810190808051906020019092919050505073ffffffffffffffffffffffffffffffffffffffff16141515614bbe576040517f08c379a00000000000000000000000000000000000000000000000000000000081526004018080602001828103825260188152602001807f53656e646572206d757374206265206120636c69656e742e000000000000000081525060200191505060405180910390fd5b60026000876000191660001916815260200190815260200160002080549050935060008460ff16111515614c80576040517f08c379a000000000000000000000000000000000000000000000000000000000815260040180806020018281038252602e8152602001807f5468657265206d757374206265206d696c6573746f6e657320746f2072656a6581526020017f637420612064656c69766572792e00000000000000000000000000000000000081525060400191505060405180910390fd5b6002600087600019166000191681526020019081526020016000206001850360ff16815481101515614cae57fe5b9060005260206000209060070201925060008360030154118015614cd6575060008360050154145b8015614ce6575060008360040154115b8015614d075750600015158360060160009054906101000a900460ff161515145b1515614dc7576040517f08c379a000000000000000000000000000000000000000000000000000000000815260040180806020018281038252605c8152602001807f4d696c6573746f6e652073686f756c642062652061637469766520616e64206481526020017f656c6976657265642c20627574206e6f742072656a65637465642c206f72206181526020017f6c72656164792061636365707465642c206f72206f6e20686f6c642e0000000081525060600191505060405180910390fd5b4291508260040154614e008460000160059054906101000a900463ffffffff1663ffffffff16856003015461500690919063ffffffff16565b1115614ec557614e1d836004015483615e4e90919063ffffffff16565b9050808360000160058282829054906101000a900463ffffffff160192506101000a81548163ffffffff021916908363ffffffff1602179055503373ffffffffffffffffffffffffffffffffffffffff1686600019167f1af4f84a46e218a1bb22d388f3f0addf855840b41794dbbb8a5b5f1f594c4e858387604051808363ffffffff1663ffffffff1681526020018260ff1660ff1681526020019250505060405180910390a35b6000836004018190555060036005811115614edc57fe5b3373ffffffffffffffffffffffffffffffffffffffff1687600019167f939f959dd457cf9b72f63161a86a222a89995ac1846647d3f3c174518a8ba0968588604051808381526020018260ff1660ff1681526020019250505060405180910390a4505050505050565b600080600260008460001916600019168152602001908152602001600020915060008280549050111515614f7857600080fd5b816001838054905003815481101515614f8d57fe5b90600052602060002090600702019050428160040181905550505050565b80600360016101000a81548160ff02191690831515021790555050565b6000806000841415614fdd5760009150614fff565b8284029050828482811515614fee57fe5b04141515614ffb57600080fd5b8091505b5092915050565b600080828401905083811015151561501d57600080fd5b8091505092915050565b600080831415615036576151b7565b839050600073ffffffffffffffffffffffffffffffffffffffff168273ffffffffffffffffffffffffffffffffffffffff1614156150fa578073ffffffffffffffffffffffffffffffffffffffff166369b71e06846040518263ffffffff167c010000000000000000000000000000000000000000000000000000000002815260040180828152602001915050600060405180830381600087803b1580156150dd57600080fd5b505af11580156150f1573d6000803e3d6000fd5b505050506151b6565b8073ffffffffffffffffffffffffffffffffffffffff16631a05371383856040518363ffffffff167c0100000000000000000000000000000000000000000000000000000000028152600401808373ffffffffffffffffffffffffffffffffffffffff1673ffffffffffffffffffffffffffffffffffffffff16815260200182815260200192505050600060405180830381600087803b15801561519d57600080fd5b505af11580156151b1573d6000803e3d6000fd5b505050505b5b50505050565b6000808314156151cc576153b5565b849050600073ffffffffffffffffffffffffffffffffffffffff168273ffffffffffffffffffffffffffffffffffffffff1614156152c4578073ffffffffffffffffffffffffffffffffffffffff1663071e9a7685856040518363ffffffff167c0100000000000000000000000000000000000000000000000000000000028152600401808373ffffffffffffffffffffffffffffffffffffffff1673ffffffffffffffffffffffffffffffffffffffff16815260200182815260200192505050600060405180830381600087803b1580156152a757600080fd5b505af11580156152bb573d6000803e3d6000fd5b505050506153b4565b8073ffffffffffffffffffffffffffffffffffffffff1663f58126878584866040518463ffffffff167c0100000000000000000000000000000000000000000000000000000000028152600401808473ffffffffffffffffffffffffffffffffffffffff1673ffffffffffffffffffffffffffffffffffffffff1681526020018373ffffffffffffffffffffffffffffffffffffffff1673ffffffffffffffffffffffffffffffffffffffff1681526020018281526020019350505050600060405180830381600087803b15801561539b57600080fd5b505af11580156153af573d6000803e3d6000fd5b505050505b5b5050505050565b6000806153c7615f2c565b60026000856000191660001916815260200190815260200160002080549050915060008214156153fa5760009250615589565b6002600085600019166000191681526020019081526020016000206001830381548110151561542557fe5b906000526020600020906007020161012060405190810160405290816000820160009054906101000a900460ff1660ff1660ff1681526020016000820160019054906101000a900463ffffffff1663ffffffff1663ffffffff1681526020016000820160059054906101000a900463ffffffff1663ffffffff1663ffffffff168152602001600182015481526020016002820160009054906101000a900473ffffffffffffffffffffffffffffffffffffffff1673ffffffffffffffffffffffffffffffffffffffff1673ffffffffffffffffffffffffffffffffffffffff1681526020016003820154815260200160048201548152602001600582015481526020016006820160009054906101000a900460ff161515151581525050905060008160e0015114801561555b5750806101000151155b8015615586575042615584826040015163ffffffff168360a0015161500690919063ffffffff16565b105b92505b5050919050565b60008060008060008060006155a3615f2c565b6000600160009054906101000a900473ffffffffffffffffffffffffffffffffffffffff1673ffffffffffffffffffffffffffffffffffffffff16636f23d8da6040518163ffffffff167c0100000000000000000000000000000000000000000000000000000000028152600401602060405180830381600087803b15801561562b57600080fd5b505af115801561563f573d6000803e3d6000fd5b505050506040513d602081101561565557600080fd5b81019080805190602001909291905050509750879650615735620151808873ffffffffffffffffffffffffffffffffffffffff1663e591fa268d6040518263ffffffff167c0100000000000000000000000000000000000000000000000000000000028152600401808260001916600019168152602001915050602060405180830381600087803b1580156156e957600080fd5b505af11580156156fd573d6000803e3d6000fd5b505050506040513d602081101561571357600080fd5b810190808051906020019092919050505060ff16614fc890919063ffffffff16565b9550615801620151808873ffffffffffffffffffffffffffffffffffffffff1663dd4bd4b78d6040518263ffffffff167c0100000000000000000000000000000000000000000000000000000000028152600401808260001916600019168152602001915050602060405180830381600087803b1580156157b557600080fd5b505af11580156157c9573d6000803e3d6000fd5b505050506040513d60208110156157df57600080fd5b810190808051906020019092919050505060ff16614fc890919063ffffffff16565b94508673ffffffffffffffffffffffffffffffffffffffff1663a5e20eaa8b6040518263ffffffff167c0100000000000000000000000000000000000000000000000000000000028152600401808260001916600019168152602001915050602060405180830381600087803b15801561587a57600080fd5b505af115801561588e573d6000803e3d6000fd5b505050506040513d60208110156158a457600080fd5b81019080805190602001909291905050509350600260008b6000191660001916815260200190815260200160002080549050925060008314156158fd57846158f58542615e4e90919063ffffffff16565b119850615adb565b600260008b600019166000191681526020019081526020016000206001840381548110151561592857fe5b906000526020600020906007020161012060405190810160405290816000820160009054906101000a900460ff1660ff1660ff1681526020016000820160019054906101000a900463ffffffff1663ffffffff1663ffffffff1681526020016000820160059054906101000a900463ffffffff1663ffffffff1663ffffffff168152602001600182015481526020016002820160009054906101000a900473ffffffffffffffffffffffffffffffffffffffff1673ffffffffffffffffffffffffffffffffffffffff1673ffffffffffffffffffffffffffffffffffffffff1681526020016003820154815260200160048201548152602001600582015481526020016006820160009054906101000a900460ff1615151515815250509150429050816101000151158015615a61575060008260e00151115b8015615a82575084615a808360e0015183615e4e90919063ffffffff16565b115b15615a905760019850615adb565b816101000151158015615aa7575060008260e00151145b8015615ab7575060008260c00151115b8015615ad857508160c00151615ad68783615e4e90919063ffffffff16565b115b98505b5050505050505050919050565b60008086158015615b265750600073ffffffffffffffffffffffffffffffffffffffff168673ffffffffffffffffffffffffffffffffffffffff1614155b15615b5b57615b378484878e615e6f565b9150615b458c87848e6151bd565b615b588286615e4e90919063ffffffff16565b94505b615b846064615b768a60ff1688614fc890919063ffffffff16565b615f0290919063ffffffff16565b9050615b928c8a838e6151bd565b615bb08c8b615baa8489615e4e90919063ffffffff16565b8e6151bd565b505050505050505050505050565b600080831415615bcd57615d4e565b839050600073ffffffffffffffffffffffffffffffffffffffff168273ffffffffffffffffffffffffffffffffffffffff161415615c91578073ffffffffffffffffffffffffffffffffffffffff166362c24067846040518263ffffffff167c010000000000000000000000000000000000000000000000000000000002815260040180828152602001915050600060405180830381600087803b158015615c7457600080fd5b505af1158015615c88573d6000803e3d6000fd5b50505050615d4d565b8073ffffffffffffffffffffffffffffffffffffffff166322122cb383856040518363ffffffff167c0100000000000000000000000000000000000000000000000000000000028152600401808373ffffffffffffffffffffffffffffffffffffffff1673ffffffffffffffffffffffffffffffffffffffff16815260200182815260200192505050600060405180830381600087803b158015615d3457600080fd5b505af1158015615d48573d6000803e3d6000fd5b505050505b5b50505050565b600073ffffffffffffffffffffffffffffffffffffffff168173ffffffffffffffffffffffffffffffffffffffff1614151515615d9057600080fd5b8073ffffffffffffffffffffffffffffffffffffffff166000809054906101000a900473ffffffffffffffffffffffffffffffffffffffff1673ffffffffffffffffffffffffffffffffffffffff167f8be0079c531659141344cd1fd0a4f28419497f9722a3daafe3b4186f6b6457e060405160405180910390a3806000806101000a81548173ffffffffffffffffffffffffffffffffffffffff021916908373ffffffffffffffffffffffffffffffffffffffff16021790555050565b600080838311151515615e6057600080fd5b82840390508091505092915050565b60008073ffffffffffffffffffffffffffffffffffffffff168273ffffffffffffffffffffffffffffffffffffffff16141515615eab57600094505b615ef885615eea6064615edc8860ff16615ece8b8a615e4e90919063ffffffff16565b614fc890919063ffffffff16565b615f0290919063ffffffff16565b61500690919063ffffffff16565b9050949350505050565b600080600083111515615f1457600080fd5b8284811515615f1f57fe5b0490508091505092915050565b61012060405190810160405280600060ff168152602001600063ffffffff168152602001600063ffffffff16815260200160008152602001600073ffffffffffffffffffffffffffffffffffffffff16815260200160008152602001600081526020016000815260200160001515815250905600a165627a7a72305820454a420ac317a6a013fc301cd969485b5345ca76e7879aada96202570c9c6b140029",
  "source": "pragma solidity 0.4.25;\n\nimport \"../DecoMilestones.sol\";\n\n\ncontract DecoMilestonesMock is DecoMilestones {\n    bool public canClientTerminateConfig = true;\n    bool public canMakerTerminateConfig = true;\n\n    bool public shouldSkipContractCanTerminateCall = true;\n\n    function setSkipCanTerminateLogic(bool shouldSkip) public {\n        shouldSkipContractCanTerminateCall = shouldSkip;\n    }\n\n    function setMockClientCanTerminate(bool canTerminate) public {\n        canClientTerminateConfig = canTerminate;\n    }\n\n    function setMockMakerCanTerminate(bool canTerminate) public {\n        canMakerTerminateConfig = canTerminate;\n    }\n\n    function markMilestoneAsCompletedAndAccepted(bytes32 _agreementHash) public {\n        Milestone[] storage milestones = projectMilestones[_agreementHash];\n        require(milestones.length > 0);\n        Milestone storage milestone = milestones[milestones.length - 1];\n        uint nowTimestamp = now;\n        milestone.deliveredTime = nowTimestamp;\n        milestone.acceptedTime = nowTimestamp + 1;\n    }\n\n    function markMilestoneAsDelivered(bytes32 _agreementHash) public {\n        Milestone[] storage milestones = projectMilestones[_agreementHash];\n        require(milestones.length > 0);\n        Milestone storage milestone = milestones[milestones.length - 1];\n        milestone.deliveredTime = now;\n    }\n\n    function markMilestoneAsOnHold(bytes32 _agreementHash, bool isOnHold) public {\n        Milestone[] storage milestones = projectMilestones[_agreementHash];\n        require(milestones.length > 0);\n        Milestone storage milestone = milestones[milestones.length - 1];\n        milestone.isOnHold = isOnHold;\n    }\n\n    // Overriding the implementation to account some mock-related logic.\n    function canClientTerminate(bytes32 _agreementHash) public view returns(bool) {\n        if (shouldSkipContractCanTerminateCall) {\n            return canClientTerminateConfig;\n        } else {\n            return super.canClientTerminate(_agreementHash);\n        }\n    }\n\n    function canMakerTerminate(bytes32 _agreementHash) public view returns(bool) {\n        if (shouldSkipContractCanTerminateCall) {\n            return canMakerTerminateConfig;\n        } else {\n            if (super.canMakerTerminate(_agreementHash) == false) {\n                return false;\n            } else {\n                return true;\n            }\n        }\n    }\n\n    function countOfMilestones(bytes32 _agreementHash) public view returns(uint) {\n        return projectMilestones[_agreementHash].length;\n    }\n}\n",
  "sourcePath": "/Users/chris/Documents/WorkStuff/Deconet/Blockchain/DeconetProjectsMarketContracts/contracts/mocks/DecoMilestonesMock.sol",
  "compiler": {
    "name": "solc",
    "version": "0.4.25+commit.59dbf8f1.Emscripten.clang"
  },
  "schemaVersion": "3.0.0-beta.2",
  "updatedAt": "2019-02-13T02:21:50.549Z",
  "devdoc": {
    "methods": {
      "acceptLastMilestone(bytes32)": {
        "details": "Project owner accepts the current delivered milestone.",
        "params": {
          "_agreementHash": "Project`s unique hash."
        }
      },
      "canStartDispute(bytes32)": {
        "details": "Check if target is ready for a dispute.",
        "params": {
          "_idHash": "A `bytes32` hash of id."
        },
        "return": "A `bool` check status."
      },
      "checkEligibility(bytes32,address)": {
        "details": "Check eligibility of a given address to perform operations,     basically the address should be either client or maker.",
        "params": {
          "_addressToCheck": "An `address` to check.",
          "_idHash": "A `bytes32` hash of id."
        },
        "return": "A `bool` check status."
      },
      "deliverLastMilestone(bytes32)": {
        "details": "Maker delivers the current active milestone.",
        "params": {
          "_agreementHash": "Project`s unique hash."
        }
      },
      "disputeSettledTerminate(bytes32,address,uint8,address,uint8,bool,address)": {
        "details": "React to an active dispute settlement with given parameters.",
        "params": {
          "_arbiterWithdrawalAddress": "An `address` for sending out arbiter compensation.",
          "_idHash": "A `bytes32` hash of id.",
          "_initiator": "An `address` of a dispute initiator.",
          "_initiatorShare": "An `uint8` share for the initiator.",
          "_isInternal": "A `bool` indicating if dispute was settled by participants without an arbiter.",
          "_respondent": "An `address` of a respondent.",
          "_respondentShare": "An `uint8` share for the respondent."
        }
      },
      "disputeStartedFreeze(bytes32)": {
        "details": "Prepare arbitration target for a started dispute.",
        "params": {
          "_idHash": "A `bytes32` hash of id."
        }
      },
      "isLastMilestoneAccepted(bytes32)": {
        "details": "Returns the last project milestone completion status and number.",
        "params": {
          "_agreementHash": "Project's unique hash."
        },
        "return": "isAccepted A boolean flag for acceptance state, and milestoneNumber for the last milestone."
      },
      "isOwner()": {
        "return": "true if `msg.sender` is the owner of the contract."
      },
      "owner()": {
        "return": "the address of the owner."
      },
      "rejectLastDeliverable(bytes32)": {
        "details": "Project owner rejects the current active milestone.",
        "params": {
          "_agreementHash": "Project`s unique hash."
        }
      },
      "renounceOwnership()": {
        "details": "Allows the current owner to relinquish control of the contract."
      },
      "setRelayContractAddress(address)": {
        "details": "Set the new address of the `DecoRelay` contract.",
        "params": {
          "_newAddress": "An address of the new contract."
        }
      },
      "startMilestone(bytes32,uint256,address,uint32)": {
        "details": "Starts a new milestone for the project and deposit ETH in smart contract`s escrow.",
        "params": {
          "_agreementHash": "A `bytes32` hash of the agreement id.",
          "_depositAmount": "An `uint` of wei that are going to be deposited for a new milestone.",
          "_duration": "An `uint` seconds of a milestone duration."
        }
      },
      "terminateLastMilestone(bytes32,address)": {
        "details": "Either project owner or maker can terminate the project in certain cases      and the current active milestone must be marked as terminated for records-keeping.     All blocked funds should be distributed in favor of eligible project party.     The termination with this method initiated only by project contract.",
        "params": {
          "_agreementHash": "Project`s unique hash.",
          "_initiator": "An `address` of the termination initiator."
        }
      },
      "transferAnyERC20Token(address,uint256)": {
        "details": "Allows to trasnfer any ERC20 tokens from the contract balance to owner's address.",
        "params": {
          "_tokenAddress": "An `address` of an ERC20 token.",
          "_tokens": "An `uint` tokens amount."
        },
        "return": "A `bool` operation result state."
      },
      "transferOwnership(address)": {
        "details": "Allows the current owner to transfer control of the contract to a newOwner.",
        "params": {
          "newOwner": "The address to transfer ownership to."
        }
      }
    }
  },
  "userdoc": {
    "methods": {
      "renounceOwnership()": {
        "notice": "Renouncing to ownership will leave the contract without an owner. It will not be possible to call the functions with the `onlyOwner` modifier anymore."
      }
    }
  }
}