{
  "contractName": "DecoEscrow",
  "abi": [
    {
      "constant": false,
      "inputs": [
        {
          "name": "_newAddress",
          "type": "address"
        }
      ],
      "name": "setRelayContractAddress",
      "outputs": [],
      "payable": false,
      "stateMutability": "nonpayable",
      "type": "function",
      "signature": "0x2d2bcd37"
    },
    {
      "constant": true,
      "inputs": [
        {
          "name": "",
          "type": "address"
        }
      ],
      "name": "blockedTokensBalance",
      "outputs": [
        {
          "name": "",
          "type": "uint256"
        }
      ],
      "payable": false,
      "stateMutability": "view",
      "type": "function",
      "signature": "0x3d830f36"
    },
    {
      "constant": true,
      "inputs": [],
      "name": "authorizedAddress",
      "outputs": [
        {
          "name": "",
          "type": "address"
        }
      ],
      "payable": false,
      "stateMutability": "view",
      "type": "function",
      "signature": "0x5539d400"
    },
    {
      "constant": true,
      "inputs": [
        {
          "name": "",
          "type": "address"
        }
      ],
      "name": "tokensBalance",
      "outputs": [
        {
          "name": "",
          "type": "uint256"
        }
      ],
      "payable": false,
      "stateMutability": "view",
      "type": "function",
      "signature": "0x57141fe6"
    },
    {
      "constant": false,
      "inputs": [],
      "name": "renounceOwnership",
      "outputs": [],
      "payable": false,
      "stateMutability": "nonpayable",
      "type": "function",
      "signature": "0x715018a6"
    },
    {
      "constant": true,
      "inputs": [],
      "name": "blockedBalance",
      "outputs": [
        {
          "name": "",
          "type": "uint256"
        }
      ],
      "payable": false,
      "stateMutability": "view",
      "type": "function",
      "signature": "0x8a6a6748"
    },
    {
      "constant": true,
      "inputs": [
        {
          "name": "",
          "type": "address"
        },
        {
          "name": "",
          "type": "address"
        }
      ],
      "name": "tokensWithdrawalAllowanceForAddress",
      "outputs": [
        {
          "name": "",
          "type": "uint256"
        }
      ],
      "payable": false,
      "stateMutability": "view",
      "type": "function",
      "signature": "0x8a995c1d"
    },
    {
      "constant": true,
      "inputs": [],
      "name": "owner",
      "outputs": [
        {
          "name": "",
          "type": "address"
        }
      ],
      "payable": false,
      "stateMutability": "view",
      "type": "function",
      "signature": "0x8da5cb5b"
    },
    {
      "constant": true,
      "inputs": [
        {
          "name": "",
          "type": "address"
        }
      ],
      "name": "contractTokensBalance",
      "outputs": [
        {
          "name": "",
          "type": "uint256"
        }
      ],
      "payable": false,
      "stateMutability": "view",
      "type": "function",
      "signature": "0x8df9005a"
    },
    {
      "constant": true,
      "inputs": [],
      "name": "isOwner",
      "outputs": [
        {
          "name": "",
          "type": "bool"
        }
      ],
      "payable": false,
      "stateMutability": "view",
      "type": "function",
      "signature": "0x8f32d59b"
    },
    {
      "constant": true,
      "inputs": [],
      "name": "shareFee",
      "outputs": [
        {
          "name": "",
          "type": "uint8"
        }
      ],
      "payable": false,
      "stateMutability": "view",
      "type": "function",
      "signature": "0xb069bbbb"
    },
    {
      "constant": true,
      "inputs": [],
      "name": "balance",
      "outputs": [
        {
          "name": "",
          "type": "uint256"
        }
      ],
      "payable": false,
      "stateMutability": "view",
      "type": "function",
      "signature": "0xb69ef8a8"
    },
    {
      "constant": true,
      "inputs": [
        {
          "name": "",
          "type": "address"
        }
      ],
      "name": "withdrawalAllowanceForAddress",
      "outputs": [
        {
          "name": "",
          "type": "uint256"
        }
      ],
      "payable": false,
      "stateMutability": "view",
      "type": "function",
      "signature": "0xc6e4c283"
    },
    {
      "constant": true,
      "inputs": [],
      "name": "relayContractAddress",
      "outputs": [
        {
          "name": "",
          "type": "address"
        }
      ],
      "payable": false,
      "stateMutability": "view",
      "type": "function",
      "signature": "0xdfa93d64"
    },
    {
      "constant": false,
      "inputs": [
        {
          "name": "newOwner",
          "type": "address"
        }
      ],
      "name": "transferOwnership",
      "outputs": [],
      "payable": false,
      "stateMutability": "nonpayable",
      "type": "function",
      "signature": "0xf2fde38b"
    },
    {
      "payable": true,
      "stateMutability": "payable",
      "type": "fallback"
    },
    {
      "anonymous": false,
      "inputs": [
        {
          "indexed": true,
          "name": "sender",
          "type": "address"
        },
        {
          "indexed": true,
          "name": "target",
          "type": "address"
        },
        {
          "indexed": false,
          "name": "tokenAddress",
          "type": "address"
        },
        {
          "indexed": false,
          "name": "amount",
          "type": "uint256"
        },
        {
          "indexed": false,
          "name": "paymentType",
          "type": "uint8"
        },
        {
          "indexed": true,
          "name": "operationType",
          "type": "uint8"
        }
      ],
      "name": "FundsOperation",
      "type": "event",
      "signature": "0x653b92b032b40abc7aca9380d0f9d429d875dd5348845d3d16eb97961038f7c5"
    },
    {
      "anonymous": false,
      "inputs": [
        {
          "indexed": false,
          "name": "targetAddress",
          "type": "address"
        },
        {
          "indexed": false,
          "name": "isAuthorized",
          "type": "bool"
        }
      ],
      "name": "FundsDistributionAuthorization",
      "type": "event",
      "signature": "0xde5956cb7c56d500c01cb9212b22d5716fcc95ec5ad4b4aab77d39a4bc20f806"
    },
    {
      "anonymous": false,
      "inputs": [
        {
          "indexed": true,
          "name": "previousOwner",
          "type": "address"
        },
        {
          "indexed": true,
          "name": "newOwner",
          "type": "address"
        }
      ],
      "name": "OwnershipTransferred",
      "type": "event",
      "signature": "0x8be0079c531659141344cd1fd0a4f28419497f9722a3daafe3b4186f6b6457e0"
    },
    {
      "constant": false,
      "inputs": [
        {
          "name": "_newOwner",
          "type": "address"
        },
        {
          "name": "_authorizedAddress",
          "type": "address"
        },
        {
          "name": "_shareFee",
          "type": "uint8"
        },
        {
          "name": "_relayContractAddress",
          "type": "address"
        }
      ],
      "name": "initialize",
      "outputs": [],
      "payable": false,
      "stateMutability": "nonpayable",
      "type": "function",
      "signature": "0xffea632b"
    },
    {
      "constant": false,
      "inputs": [
        {
          "name": "_tokenAddress",
          "type": "address"
        },
        {
          "name": "_amount",
          "type": "uint256"
        }
      ],
      "name": "depositErc20",
      "outputs": [],
      "payable": false,
      "stateMutability": "nonpayable",
      "type": "function",
      "signature": "0x6548b40d"
    },
    {
      "constant": false,
      "inputs": [
        {
          "name": "_amount",
          "type": "uint256"
        }
      ],
      "name": "withdraw",
      "outputs": [],
      "payable": false,
      "stateMutability": "nonpayable",
      "type": "function",
      "signature": "0x2e1a7d4d"
    },
    {
      "constant": false,
      "inputs": [
        {
          "name": "_tokenAddress",
          "type": "address"
        },
        {
          "name": "_amount",
          "type": "uint256"
        }
      ],
      "name": "withdrawErc20",
      "outputs": [],
      "payable": false,
      "stateMutability": "nonpayable",
      "type": "function",
      "signature": "0xbd1f4b52"
    },
    {
      "constant": false,
      "inputs": [
        {
          "name": "_amount",
          "type": "uint256"
        }
      ],
      "name": "blockFunds",
      "outputs": [],
      "payable": false,
      "stateMutability": "nonpayable",
      "type": "function",
      "signature": "0x62c24067"
    },
    {
      "constant": false,
      "inputs": [
        {
          "name": "_tokenAddress",
          "type": "address"
        },
        {
          "name": "_amount",
          "type": "uint256"
        }
      ],
      "name": "blockTokenFunds",
      "outputs": [],
      "payable": false,
      "stateMutability": "nonpayable",
      "type": "function",
      "signature": "0x22122cb3"
    },
    {
      "constant": false,
      "inputs": [
        {
          "name": "_destination",
          "type": "address"
        },
        {
          "name": "_amount",
          "type": "uint256"
        }
      ],
      "name": "distributeFunds",
      "outputs": [],
      "payable": false,
      "stateMutability": "nonpayable",
      "type": "function",
      "signature": "0x071e9a76"
    },
    {
      "constant": false,
      "inputs": [
        {
          "name": "_destination",
          "type": "address"
        },
        {
          "name": "_tokenAddress",
          "type": "address"
        },
        {
          "name": "_amount",
          "type": "uint256"
        }
      ],
      "name": "distributeTokenFunds",
      "outputs": [],
      "payable": false,
      "stateMutability": "nonpayable",
      "type": "function",
      "signature": "0xf5812687"
    },
    {
      "constant": false,
      "inputs": [
        {
          "name": "_targetAddress",
          "type": "address"
        },
        {
          "name": "_amount",
          "type": "uint256"
        }
      ],
      "name": "withdrawForAddress",
      "outputs": [],
      "payable": false,
      "stateMutability": "nonpayable",
      "type": "function",
      "signature": "0x5effd20d"
    },
    {
      "constant": false,
      "inputs": [
        {
          "name": "_targetAddress",
          "type": "address"
        },
        {
          "name": "_tokenAddress",
          "type": "address"
        },
        {
          "name": "_amount",
          "type": "uint256"
        }
      ],
      "name": "withdrawErc20ForAddress",
      "outputs": [],
      "payable": false,
      "stateMutability": "nonpayable",
      "type": "function",
      "signature": "0xb8f47481"
    },
    {
      "constant": true,
      "inputs": [
        {
          "name": "_account",
          "type": "address"
        },
        {
          "name": "_tokenAddress",
          "type": "address"
        }
      ],
      "name": "getTokenWithdrawalAllowance",
      "outputs": [
        {
          "name": "",
          "type": "uint256"
        }
      ],
      "payable": false,
      "stateMutability": "view",
      "type": "function",
      "signature": "0x97567579"
    },
    {
      "constant": false,
      "inputs": [],
      "name": "deposit",
      "outputs": [],
      "payable": true,
      "stateMutability": "payable",
      "type": "function",
      "signature": "0xd0e30db0"
    },
    {
      "constant": false,
      "inputs": [
        {
          "name": "_amount",
          "type": "uint256"
        }
      ],
      "name": "unblockFunds",
      "outputs": [],
      "payable": false,
      "stateMutability": "nonpayable",
      "type": "function",
      "signature": "0x69b71e06"
    },
    {
      "constant": false,
      "inputs": [
        {
          "name": "_tokenAddress",
          "type": "address"
        },
        {
          "name": "_amount",
          "type": "uint256"
        }
      ],
      "name": "unblockTokenFunds",
      "outputs": [],
      "payable": false,
      "stateMutability": "nonpayable",
      "type": "function",
      "signature": "0x1a053713"
    },
    {
      "constant": false,
      "inputs": [
        {
          "name": "_token",
          "type": "address"
        }
      ],
      "name": "syncTokenBalance",
      "outputs": [],
      "payable": false,
      "stateMutability": "nonpayable",
      "type": "function",
      "signature": "0xeb40133f"
    },
    {
      "constant": true,
      "inputs": [
        {
          "name": "_token",
          "type": "address"
        }
      ],
      "name": "isSyncNeededForToken",
      "outputs": [
        {
          "name": "",
          "type": "bool"
        }
      ],
      "payable": false,
      "stateMutability": "view",
      "type": "function",
      "signature": "0x03517952"
    },
    {
      "constant": false,
      "inputs": [
        {
          "name": "_tokenAddress",
          "type": "address"
        },
        {
          "name": "_tokens",
          "type": "uint256"
        }
      ],
      "name": "transferAnyERC20Token",
      "outputs": [
        {
          "name": "success",
          "type": "bool"
        }
      ],
      "payable": false,
      "stateMutability": "nonpayable",
      "type": "function",
      "signature": "0xdc39d06d"
    }
  ],
  "bytecode": "0x6080604052336000806101000a81548173ffffffffffffffffffffffffffffffffffffffff021916908373ffffffffffffffffffffffffffffffffffffffff1602179055506000809054906101000a900473ffffffffffffffffffffffffffffffffffffffff1673ffffffffffffffffffffffffffffffffffffffff16600073ffffffffffffffffffffffffffffffffffffffff167f8be0079c531659141344cd1fd0a4f28419497f9722a3daafe3b4186f6b6457e060405160405180910390a3613f70806100cf6000396000f300608060405260043610610196576000357c0100000000000000000000000000000000000000000000000000000000900463ffffffff16806303517952146101a0578063071e9a76146101fb5780631a0537131461024857806322122cb3146102955780632d2bcd37146102e25780632e1a7d4d146103255780633d830f36146103525780635539d400146103a957806357141fe6146104005780635effd20d1461045757806362c24067146104a45780636548b40d146104d157806369b71e061461051e578063715018a61461054b5780638a6a6748146105625780638a995c1d1461058d5780638da5cb5b146106045780638df9005a1461065b5780638f32d59b146106b257806397567579146106e1578063b069bbbb14610758578063b69ef8a814610789578063b8f47481146107b4578063bd1f4b5214610821578063c6e4c2831461086e578063d0e30db0146108c5578063dc39d06d146108cf578063dfa93d6414610934578063eb40133f1461098b578063f2fde38b146109ce578063f581268714610a11578063ffea632b14610a7e575b61019e610b0e565b005b3480156101ac57600080fd5b506101e1600480360381019080803573ffffffffffffffffffffffffffffffffffffffff169060200190929190505050610c87565b604051808215151515815260200191505060405180910390f35b34801561020757600080fd5b50610246600480360381019080803573ffffffffffffffffffffffffffffffffffffffff16906020019092919080359060200190929190505050610da7565b005b34801561025457600080fd5b50610293600480360381019080803573ffffffffffffffffffffffffffffffffffffffff16906020019092919080359060200190929190505050611419565b005b3480156102a157600080fd5b506102e0600480360381019080803573ffffffffffffffffffffffffffffffffffffffff16906020019092919080359060200190929190505050611793565b005b3480156102ee57600080fd5b50610323600480360381019080803573ffffffffffffffffffffffffffffffffffffffff169060200190929190505050611b0d565b005b34801561033157600080fd5b5061035060048036038101908080359060200190929190505050611c09565b005b34801561035e57600080fd5b50610393600480360381019080803573ffffffffffffffffffffffffffffffffffffffff169060200190929190505050611c16565b6040518082815260200191505060405180910390f35b3480156103b557600080fd5b506103be611c2e565b604051808273ffffffffffffffffffffffffffffffffffffffff1673ffffffffffffffffffffffffffffffffffffffff16815260200191505060405180910390f35b34801561040c57600080fd5b50610441600480360381019080803573ffffffffffffffffffffffffffffffffffffffff169060200190929190505050611c54565b6040518082815260200191505060405180910390f35b34801561046357600080fd5b506104a2600480360381019080803573ffffffffffffffffffffffffffffffffffffffff16906020019092919080359060200190929190505050611c6c565b005b3480156104b057600080fd5b506104cf60048036038101908080359060200190929190505050611f21565b005b3480156104dd57600080fd5b5061051c600480360381019080803573ffffffffffffffffffffffffffffffffffffffff169060200190929190803590602001909291905050506121a3565b005b34801561052a57600080fd5b50610549600480360381019080803590602001909291905050506125e4565b005b34801561055757600080fd5b50610560612866565b005b34801561056e57600080fd5b50610577612938565b6040518082815260200191505060405180910390f35b34801561059957600080fd5b506105ee600480360381019080803573ffffffffffffffffffffffffffffffffffffffff169060200190929190803573ffffffffffffffffffffffffffffffffffffffff16906020019092919050505061293e565b6040518082815260200191505060405180910390f35b34801561061057600080fd5b50610619612963565b604051808273ffffffffffffffffffffffffffffffffffffffff1673ffffffffffffffffffffffffffffffffffffffff16815260200191505060405180910390f35b34801561066757600080fd5b5061069c600480360381019080803573ffffffffffffffffffffffffffffffffffffffff16906020019092919050505061298c565b6040518082815260200191505060405180910390f35b3480156106be57600080fd5b506106c76129a4565b604051808215151515815260200191505060405180910390f35b3480156106ed57600080fd5b50610742600480360381019080803573ffffffffffffffffffffffffffffffffffffffff169060200190929190803573ffffffffffffffffffffffffffffffffffffffff1690602001909291905050506129fb565b6040518082815260200191505060405180910390f35b34801561076457600080fd5b5061076d612a82565b604051808260ff1660ff16815260200191505060405180910390f35b34801561079557600080fd5b5061079e612a95565b6040518082815260200191505060405180910390f35b3480156107c057600080fd5b5061081f600480360381019080803573ffffffffffffffffffffffffffffffffffffffff169060200190929190803573ffffffffffffffffffffffffffffffffffffffff16906020019092919080359060200190929190505050612a9b565b005b34801561082d57600080fd5b5061086c600480360381019080803573ffffffffffffffffffffffffffffffffffffffff16906020019092919080359060200190929190505050612fc1565b005b34801561087a57600080fd5b506108af600480360381019080803573ffffffffffffffffffffffffffffffffffffffff169060200190929190505050612fd0565b6040518082815260200191505060405180910390f35b6108cd610b0e565b005b3480156108db57600080fd5b5061091a600480360381019080803573ffffffffffffffffffffffffffffffffffffffff16906020019092919080359060200190929190505050612fe8565b604051808215151515815260200191505060405180910390f35b34801561094057600080fd5b50610949613007565b604051808273ffffffffffffffffffffffffffffffffffffffff1673ffffffffffffffffffffffffffffffffffffffff16815260200191505060405180910390f35b34801561099757600080fd5b506109cc600480360381019080803573ffffffffffffffffffffffffffffffffffffffff16906020019092919050505061302d565b005b3480156109da57600080fd5b50610a0f600480360381019080803573ffffffffffffffffffffffffffffffffffffffff1690602001909291905050506132fe565b005b348015610a1d57600080fd5b50610a7c600480360381019080803573ffffffffffffffffffffffffffffffffffffffff169060200190929190803573ffffffffffffffffffffffffffffffffffffffff1690602001909291908035906020019092919050505061331d565b005b348015610a8a57600080fd5b50610b0c600480360381019080803573ffffffffffffffffffffffffffffffffffffffff169060200190929190803573ffffffffffffffffffffffffffffffffffffffff169060200190929190803560ff169060200190929190803573ffffffffffffffffffffffffffffffffffffffff169060200190929190505050613bbf565b005b600034111515610bac576040517f08c379a000000000000000000000000000000000000000000000000000000000815260040180806020018281038252602a8152602001807f4465706f736974656420616d6f756e742073686f756c6420626520677265617481526020017f6572207468616e20302e0000000000000000000000000000000000000000000081525060400191505060405180910390fd5b610bc134600354613da090919063ffffffff16565b60038190555060006004811115610bd457fe5b3073ffffffffffffffffffffffffffffffffffffffff163373ffffffffffffffffffffffffffffffffffffffff167f653b92b032b40abc7aca9380d0f9d429d875dd5348845d3d16eb97961038f7c56000346000604051808473ffffffffffffffffffffffffffffffffffffffff1673ffffffffffffffffffffffffffffffffffffffff168152602001838152602001826001811115610c7057fe5b60ff168152602001935050505060405180910390a4565b6000600660008373ffffffffffffffffffffffffffffffffffffffff1673ffffffffffffffffffffffffffffffffffffffff168152602001908152602001600020548273ffffffffffffffffffffffffffffffffffffffff166370a08231306040518263ffffffff167c0100000000000000000000000000000000000000000000000000000000028152600401808273ffffffffffffffffffffffffffffffffffffffff1673ffffffffffffffffffffffffffffffffffffffff168152602001915050602060405180830381600087803b158015610d6457600080fd5b505af1158015610d78573d6000803e3d6000fd5b505050506040513d6020811015610d8e57600080fd5b8101908080519060200190929190505050119050919050565b6000806000803373ffffffffffffffffffffffffffffffffffffffff16600260009054906101000a900473ffffffffffffffffffffffffffffffffffffffff1673ffffffffffffffffffffffffffffffffffffffff16141515610e98576040517f08c379a00000000000000000000000000000000000000000000000000000000081526004018080602001828103825260228152602001807f4f6e6c7920617574686f72697a65642061646472657373657320616c6c6f776581526020017f642e00000000000000000000000000000000000000000000000000000000000081525060400191505060405180910390fd5b6008548511151515610f5e576040517f08c379a00000000000000000000000000000000000000000000000000000000081526004018080602001828103825260428152602001807f416d6f756e7420746f20646973747269627574652073686f756c64206265206c81526020017f657373206f7220657175616c207468616e20626c6f636b65642062616c616e6381526020017f652e00000000000000000000000000000000000000000000000000000000000081525060600191505060405180910390fd5b8493506000600160159054906101000a900460ff1660ff16118015610fd25750600073ffffffffffffffffffffffffffffffffffffffff16600160009054906101000a900473ffffffffffffffffffffffffffffffffffffffff1673ffffffffffffffffffffffffffffffffffffffff1614155b1561125a57600160009054906101000a900473ffffffffffffffffffffffffffffffffffffffff1692508273ffffffffffffffffffffffffffffffffffffffff1663437415376040518163ffffffff167c0100000000000000000000000000000000000000000000000000000000028152600401602060405180830381600087803b15801561106057600080fd5b505af1158015611074573d6000803e3d6000fd5b505050506040513d602081101561108a57600080fd5b810190808051906020019092919050505091506110d560646110c7600160159054906101000a900460ff1660ff1687613dc190919063ffffffff16565b613dff90919063ffffffff16565b90506110ea8185613e2990919063ffffffff16565b935061110181600854613e2990919063ffffffff16565b60088190555061115981600460008573ffffffffffffffffffffffffffffffffffffffff1673ffffffffffffffffffffffffffffffffffffffff16815260200190815260200160002054613da090919063ffffffff16565b600460008473ffffffffffffffffffffffffffffffffffffffff1673ffffffffffffffffffffffffffffffffffffffff168152602001908152602001600020819055506004808111156111a857fe5b8273ffffffffffffffffffffffffffffffffffffffff163373ffffffffffffffffffffffffffffffffffffffff167f653b92b032b40abc7aca9380d0f9d429d875dd5348845d3d16eb97961038f7c56000856000604051808473ffffffffffffffffffffffffffffffffffffffff1673ffffffffffffffffffffffffffffffffffffffff16815260200183815260200182600181111561124457fe5b60ff168152602001935050505060405180910390a45b611262612963565b73ffffffffffffffffffffffffffffffffffffffff168673ffffffffffffffffffffffffffffffffffffffff1614156112a35761129e846125e4565b611411565b6112b884600854613e2990919063ffffffff16565b60088190555061131084600460008973ffffffffffffffffffffffffffffffffffffffff1673ffffffffffffffffffffffffffffffffffffffff16815260200190815260200160002054613da090919063ffffffff16565b600460008873ffffffffffffffffffffffffffffffffffffffff1673ffffffffffffffffffffffffffffffffffffffff1681526020019081526020016000208190555060048081111561135f57fe5b8673ffffffffffffffffffffffffffffffffffffffff163373ffffffffffffffffffffffffffffffffffffffff167f653b92b032b40abc7aca9380d0f9d429d875dd5348845d3d16eb97961038f7c56000886000604051808473ffffffffffffffffffffffffffffffffffffffff1673ffffffffffffffffffffffffffffffffffffffff1681526020018381526020018260018111156113fb57fe5b60ff168152602001935050505060405180910390a45b505050505050565b60003373ffffffffffffffffffffffffffffffffffffffff16600260009054906101000a900473ffffffffffffffffffffffffffffffffffffffff1673ffffffffffffffffffffffffffffffffffffffff16141515611506576040517f08c379a00000000000000000000000000000000000000000000000000000000081526004018080602001828103825260228152602001807f4f6e6c7920617574686f72697a65642061646472657373657320616c6c6f776581526020017f642e00000000000000000000000000000000000000000000000000000000000081525060400191505060405180910390fd5b600960008473ffffffffffffffffffffffffffffffffffffffff1673ffffffffffffffffffffffffffffffffffffffff1681526020019081526020016000205490508082111515156115e6576040517f08c379a000000000000000000000000000000000000000000000000000000000815260040180806020018281038252603d8152602001807f546f6b656e7320616d6f756e7420746f20756e626c6f636b2073686f756c642081526020017f6265206c657373206f7220657175616c207468616e2062616c616e636500000081525060400191505060405180910390fd5b6115f98282613e2990919063ffffffff16565b600960008573ffffffffffffffffffffffffffffffffffffffff1673ffffffffffffffffffffffffffffffffffffffff1681526020019081526020016000208190555061168e82600560008673ffffffffffffffffffffffffffffffffffffffff1673ffffffffffffffffffffffffffffffffffffffff16815260200190815260200160002054613da090919063ffffffff16565b600560008573ffffffffffffffffffffffffffffffffffffffff1673ffffffffffffffffffffffffffffffffffffffff16815260200190815260200160002081905550600360048111156116de57fe5b3073ffffffffffffffffffffffffffffffffffffffff163373ffffffffffffffffffffffffffffffffffffffff167f653b92b032b40abc7aca9380d0f9d429d875dd5348845d3d16eb97961038f7c586866001604051808473ffffffffffffffffffffffffffffffffffffffff1673ffffffffffffffffffffffffffffffffffffffff16815260200183815260200182600181111561177957fe5b60ff168152602001935050505060405180910390a4505050565b60003373ffffffffffffffffffffffffffffffffffffffff16600260009054906101000a900473ffffffffffffffffffffffffffffffffffffffff1673ffffffffffffffffffffffffffffffffffffffff16141515611880576040517f08c379a00000000000000000000000000000000000000000000000000000000081526004018080602001828103825260228152602001807f4f6e6c7920617574686f72697a65642061646472657373657320616c6c6f776581526020017f642e00000000000000000000000000000000000000000000000000000000000081525060400191505060405180910390fd5b600560008473ffffffffffffffffffffffffffffffffffffffff1673ffffffffffffffffffffffffffffffffffffffff168152602001908152602001600020549050808211151515611960576040517f08c379a000000000000000000000000000000000000000000000000000000000815260040180806020018281038252603b8152602001807f546f6b656e73206d6f756e7420746f20626c6f636b2073686f756c642062652081526020017f6c657373206f7220657175616c207468616e2062616c616e63652e000000000081525060400191505060405180910390fd5b6119738282613e2990919063ffffffff16565b600560008573ffffffffffffffffffffffffffffffffffffffff1673ffffffffffffffffffffffffffffffffffffffff16815260200190815260200160002081905550611a0882600960008673ffffffffffffffffffffffffffffffffffffffff1673ffffffffffffffffffffffffffffffffffffffff16815260200190815260200160002054613da090919063ffffffff16565b600960008573ffffffffffffffffffffffffffffffffffffffff1673ffffffffffffffffffffffffffffffffffffffff1681526020019081526020016000208190555060026004811115611a5857fe5b3373ffffffffffffffffffffffffffffffffffffffff163073ffffffffffffffffffffffffffffffffffffffff167f653b92b032b40abc7aca9380d0f9d429d875dd5348845d3d16eb97961038f7c586866001604051808473ffffffffffffffffffffffffffffffffffffffff1673ffffffffffffffffffffffffffffffffffffffff168152602001838152602001826001811115611af357fe5b60ff168152602001935050505060405180910390a4505050565b611b156129a4565b1515611b2057600080fd5b600073ffffffffffffffffffffffffffffffffffffffff168173ffffffffffffffffffffffffffffffffffffffff1614151515611bc5576040517f08c379a000000000000000000000000000000000000000000000000000000000815260040180806020018281038252601e8152602001807f52656c61792061646472657373206d757374206e6f74206265203078302e000081525060200191505060405180910390fd5b80600160006101000a81548173ffffffffffffffffffffffffffffffffffffffff021916908373ffffffffffffffffffffffffffffffffffffffff16021790555050565b611c133382611c6c565b50565b60096020528060005260406000206000915090505481565b600260009054906101000a900473ffffffffffffffffffffffffffffffffffffffff1681565b60056020528060005260406000206000915090505481565b60003073ffffffffffffffffffffffffffffffffffffffff16318211151515611d23576040517f08c379a00000000000000000000000000000000000000000000000000000000081526004018080602001828103825260388152602001807f416d6f756e7420746f2077697468647261772073686f756c64206265206c657381526020017f73206f7220657175616c207468616e2062616c616e63652e000000000000000081525060400191505060405180910390fd5b611d2b612963565b73ffffffffffffffffffffffffffffffffffffffff168373ffffffffffffffffffffffffffffffffffffffff161415611d7e57611d7382600354613e2990919063ffffffff16565b600381905550611e17565b600460008473ffffffffffffffffffffffffffffffffffffffff1673ffffffffffffffffffffffffffffffffffffffff168152602001908152602001600020549050611dd38282613e2990919063ffffffff16565b600460008573ffffffffffffffffffffffffffffffffffffffff1673ffffffffffffffffffffffffffffffffffffffff168152602001908152602001600020819055505b8273ffffffffffffffffffffffffffffffffffffffff166108fc839081150290604051600060405180830381858888f19350505050158015611e5d573d6000803e3d6000fd5b5060016004811115611e6b57fe5b8373ffffffffffffffffffffffffffffffffffffffff163073ffffffffffffffffffffffffffffffffffffffff167f653b92b032b40abc7aca9380d0f9d429d875dd5348845d3d16eb97961038f7c56000866000604051808473ffffffffffffffffffffffffffffffffffffffff1673ffffffffffffffffffffffffffffffffffffffff168152602001838152602001826001811115611f0757fe5b60ff168152602001935050505060405180910390a4505050565b3373ffffffffffffffffffffffffffffffffffffffff16600260009054906101000a900473ffffffffffffffffffffffffffffffffffffffff1673ffffffffffffffffffffffffffffffffffffffff1614151561200c576040517f08c379a00000000000000000000000000000000000000000000000000000000081526004018080602001828103825260228152602001807f4f6e6c7920617574686f72697a65642061646472657373657320616c6c6f776581526020017f642e00000000000000000000000000000000000000000000000000000000000081525060400191505060405180910390fd5b60035481111515156120ac576040517f08c379a00000000000000000000000000000000000000000000000000000000081526004018080602001828103825260358152602001807f416d6f756e7420746f20626c6f636b2073686f756c64206265206c657373206f81526020017f7220657175616c207468616e2062616c616e63652e000000000000000000000081525060400191505060405180910390fd5b6120c181600354613e2990919063ffffffff16565b6003819055506120dc81600854613da090919063ffffffff16565b600881905550600260048111156120ef57fe5b3373ffffffffffffffffffffffffffffffffffffffff163073ffffffffffffffffffffffffffffffffffffffff167f653b92b032b40abc7aca9380d0f9d429d875dd5348845d3d16eb97961038f7c56000856000604051808473ffffffffffffffffffffffffffffffffffffffff1673ffffffffffffffffffffffffffffffffffffffff16815260200183815260200182600181111561218b57fe5b60ff168152602001935050505060405180910390a450565b60008073ffffffffffffffffffffffffffffffffffffffff168373ffffffffffffffffffffffffffffffffffffffff1614151515612249576040517f08c379a000000000000000000000000000000000000000000000000000000000815260040180806020018281038252601f8152602001807f546f6b656e20416464726573732073686f756c646e2774206265203078302e0081525060200191505060405180910390fd5b8290508073ffffffffffffffffffffffffffffffffffffffff166323b872dd3330856040518463ffffffff167c0100000000000000000000000000000000000000000000000000000000028152600401808473ffffffffffffffffffffffffffffffffffffffff1673ffffffffffffffffffffffffffffffffffffffff1681526020018373ffffffffffffffffffffffffffffffffffffffff1673ffffffffffffffffffffffffffffffffffffffff1681526020018281526020019350505050602060405180830381600087803b15801561232357600080fd5b505af1158015612337573d6000803e3d6000fd5b505050506040513d602081101561234d57600080fd5b810190808051906020019092919050505015156123f8576040517f08c379a00000000000000000000000000000000000000000000000000000000081526004018080602001828103825260288152602001807f5472616e73666572206f7065726174696f6e2073686f756c642062652073756381526020017f6365737366756c2e00000000000000000000000000000000000000000000000081525060400191505060405180910390fd5b61244a82600560008673ffffffffffffffffffffffffffffffffffffffff1673ffffffffffffffffffffffffffffffffffffffff16815260200190815260200160002054613da090919063ffffffff16565b600560008573ffffffffffffffffffffffffffffffffffffffff1673ffffffffffffffffffffffffffffffffffffffff168152602001908152602001600020819055506124df82600660008673ffffffffffffffffffffffffffffffffffffffff1673ffffffffffffffffffffffffffffffffffffffff16815260200190815260200160002054613da090919063ffffffff16565b600660008573ffffffffffffffffffffffffffffffffffffffff1673ffffffffffffffffffffffffffffffffffffffff168152602001908152602001600020819055506000600481111561252f57fe5b3073ffffffffffffffffffffffffffffffffffffffff163373ffffffffffffffffffffffffffffffffffffffff167f653b92b032b40abc7aca9380d0f9d429d875dd5348845d3d16eb97961038f7c586866001604051808473ffffffffffffffffffffffffffffffffffffffff1673ffffffffffffffffffffffffffffffffffffffff1681526020018381526020018260018111156125ca57fe5b60ff168152602001935050505060405180910390a4505050565b3373ffffffffffffffffffffffffffffffffffffffff16600260009054906101000a900473ffffffffffffffffffffffffffffffffffffffff1673ffffffffffffffffffffffffffffffffffffffff161415156126cf576040517f08c379a00000000000000000000000000000000000000000000000000000000081526004018080602001828103825260228152602001807f4f6e6c7920617574686f72697a65642061646472657373657320616c6c6f776581526020017f642e00000000000000000000000000000000000000000000000000000000000081525060400191505060405180910390fd5b600854811115151561276f576040517f08c379a00000000000000000000000000000000000000000000000000000000081526004018080602001828103825260368152602001807f416d6f756e7420746f20756e626c6f636b2073686f756c64206265206c65737381526020017f206f7220657175616c207468616e2062616c616e63650000000000000000000081525060400191505060405180910390fd5b61278481600854613e2990919063ffffffff16565b60088190555061279f81600354613da090919063ffffffff16565b600381905550600360048111156127b257fe5b3073ffffffffffffffffffffffffffffffffffffffff163373ffffffffffffffffffffffffffffffffffffffff167f653b92b032b40abc7aca9380d0f9d429d875dd5348845d3d16eb97961038f7c56000856000604051808473ffffffffffffffffffffffffffffffffffffffff1673ffffffffffffffffffffffffffffffffffffffff16815260200183815260200182600181111561284e57fe5b60ff168152602001935050505060405180910390a450565b61286e6129a4565b151561287957600080fd5b600073ffffffffffffffffffffffffffffffffffffffff166000809054906101000a900473ffffffffffffffffffffffffffffffffffffffff1673ffffffffffffffffffffffffffffffffffffffff167f8be0079c531659141344cd1fd0a4f28419497f9722a3daafe3b4186f6b6457e060405160405180910390a360008060006101000a81548173ffffffffffffffffffffffffffffffffffffffff021916908373ffffffffffffffffffffffffffffffffffffffff160217905550565b60085481565b6007602052816000526040600020602052806000526040600020600091509150505481565b60008060009054906101000a900473ffffffffffffffffffffffffffffffffffffffff16905090565b60066020528060005260406000206000915090505481565b60008060009054906101000a900473ffffffffffffffffffffffffffffffffffffffff1673ffffffffffffffffffffffffffffffffffffffff163373ffffffffffffffffffffffffffffffffffffffff1614905090565b6000600760008473ffffffffffffffffffffffffffffffffffffffff1673ffffffffffffffffffffffffffffffffffffffff16815260200190815260200160002060008373ffffffffffffffffffffffffffffffffffffffff1673ffffffffffffffffffffffffffffffffffffffff16815260200190815260200160002054905092915050565b600160159054906101000a900460ff1681565b60035481565b6000808391508173ffffffffffffffffffffffffffffffffffffffff166370a08231306040518263ffffffff167c0100000000000000000000000000000000000000000000000000000000028152600401808273ffffffffffffffffffffffffffffffffffffffff1673ffffffffffffffffffffffffffffffffffffffff168152602001915050602060405180830381600087803b158015612b3c57600080fd5b505af1158015612b50573d6000803e3d6000fd5b505050506040513d6020811015612b6657600080fd5b81019080805190602001909291905050508311151515612c14576040517f08c379a000000000000000000000000000000000000000000000000000000000815260040180806020018281038252603e8152602001807f546f6b656e20616d6f756e7420746f2077697468647261772073686f756c642081526020017f6265206c657373206f7220657175616c207468616e2062616c616e63652e000081525060400191505060405180910390fd5b612c1c612963565b73ffffffffffffffffffffffffffffffffffffffff168573ffffffffffffffffffffffffffffffffffffffff161415612ce957612ca183600560008773ffffffffffffffffffffffffffffffffffffffff1673ffffffffffffffffffffffffffffffffffffffff16815260200190815260200160002054613e2990919063ffffffff16565b600560008673ffffffffffffffffffffffffffffffffffffffff1673ffffffffffffffffffffffffffffffffffffffff16815260200190815260200160002081905550612d89565b612cf385856129fb565b9050612d088382613e2990919063ffffffff16565b600760008773ffffffffffffffffffffffffffffffffffffffff1673ffffffffffffffffffffffffffffffffffffffff16815260200190815260200160002060008673ffffffffffffffffffffffffffffffffffffffff1673ffffffffffffffffffffffffffffffffffffffff168152602001908152602001600020819055505b612ddb83600660008773ffffffffffffffffffffffffffffffffffffffff1673ffffffffffffffffffffffffffffffffffffffff16815260200190815260200160002054613e2990919063ffffffff16565b600660008673ffffffffffffffffffffffffffffffffffffffff1673ffffffffffffffffffffffffffffffffffffffff168152602001908152602001600020819055508173ffffffffffffffffffffffffffffffffffffffff1663a9059cbb86856040518363ffffffff167c0100000000000000000000000000000000000000000000000000000000028152600401808373ffffffffffffffffffffffffffffffffffffffff1673ffffffffffffffffffffffffffffffffffffffff16815260200182815260200192505050602060405180830381600087803b158015612ec157600080fd5b505af1158015612ed5573d6000803e3d6000fd5b505050506040513d6020811015612eeb57600080fd5b81019080805190602001909291905050505060016004811115612f0a57fe5b8573ffffffffffffffffffffffffffffffffffffffff163073ffffffffffffffffffffffffffffffffffffffff167f653b92b032b40abc7aca9380d0f9d429d875dd5348845d3d16eb97961038f7c587876001604051808473ffffffffffffffffffffffffffffffffffffffff1673ffffffffffffffffffffffffffffffffffffffff168152602001838152602001826001811115612fa557fe5b60ff168152602001935050505060405180910390a45050505050565b612fcc338383612a9b565b5050565b60046020528060005260406000206000915090505481565b6000612ff26129a4565b1515612ffd57600080fd5b6000905092915050565b600160009054906101000a900473ffffffffffffffffffffffffffffffffffffffff1681565b60008173ffffffffffffffffffffffffffffffffffffffff166370a08231306040518263ffffffff167c0100000000000000000000000000000000000000000000000000000000028152600401808273ffffffffffffffffffffffffffffffffffffffff1673ffffffffffffffffffffffffffffffffffffffff168152602001915050602060405180830381600087803b1580156130ca57600080fd5b505af11580156130de573d6000803e3d6000fd5b505050506040513d60208110156130f457600080fd5b8101908080519060200190929190505050905061311082610c87565b15156131d0576040517f08c379a000000000000000000000000000000000000000000000000000000000815260040180806020018281038252604a8152602001807f53746f72656420636f6e747261637420746f6b656e2062616c616e636520736881526020017f6f756c64206265206c657373206f7220657175616c207468616e20746865206181526020017f637475616c206f6e652e0000000000000000000000000000000000000000000081525060600191505060405180910390fd5b613273600560008473ffffffffffffffffffffffffffffffffffffffff1673ffffffffffffffffffffffffffffffffffffffff16815260200190815260200160002054613265600660008673ffffffffffffffffffffffffffffffffffffffff1673ffffffffffffffffffffffffffffffffffffffff1681526020019081526020016000205484613e2990919063ffffffff16565b613da090919063ffffffff16565b600560008473ffffffffffffffffffffffffffffffffffffffff1673ffffffffffffffffffffffffffffffffffffffff1681526020019081526020016000208190555080600660008473ffffffffffffffffffffffffffffffffffffffff1673ffffffffffffffffffffffffffffffffffffffff168152602001908152602001600020819055505050565b6133066129a4565b151561331157600080fd5b61331a81613e4a565b50565b6000806000806000803373ffffffffffffffffffffffffffffffffffffffff16600260009054906101000a900473ffffffffffffffffffffffffffffffffffffffff1673ffffffffffffffffffffffffffffffffffffffff16141515613411576040517f08c379a00000000000000000000000000000000000000000000000000000000081526004018080602001828103825260228152602001807f4f6e6c7920617574686f72697a65642061646472657373657320616c6c6f776581526020017f642e00000000000000000000000000000000000000000000000000000000000081525060400191505060405180910390fd5b600960008973ffffffffffffffffffffffffffffffffffffffff1673ffffffffffffffffffffffffffffffffffffffff168152602001908152602001600020548711151515613514576040517f08c379a00000000000000000000000000000000000000000000000000000000081526004018080602001828103825260428152602001807f416d6f756e7420746f20646973747269627574652073686f756c64206265206c81526020017f657373206f7220657175616c207468616e20626c6f636b65642062616c616e6381526020017f652e00000000000000000000000000000000000000000000000000000000000081525060600191505060405180910390fd5b8695506000600160159054906101000a900460ff1660ff161180156135885750600073ffffffffffffffffffffffffffffffffffffffff16600160009054906101000a900473ffffffffffffffffffffffffffffffffffffffff1673ffffffffffffffffffffffffffffffffffffffff1614155b1561390657600160009054906101000a900473ffffffffffffffffffffffffffffffffffffffff1694508473ffffffffffffffffffffffffffffffffffffffff1663437415376040518163ffffffff167c0100000000000000000000000000000000000000000000000000000000028152600401602060405180830381600087803b15801561361657600080fd5b505af115801561362a573d6000803e3d6000fd5b505050506040513d602081101561364057600080fd5b8101908080519060200190929190505050935061368b606461367d600160159054906101000a900460ff1660ff1689613dc190919063ffffffff16565b613dff90919063ffffffff16565b92506136a08387613e2990919063ffffffff16565b95506136f483600960008b73ffffffffffffffffffffffffffffffffffffffff1673ffffffffffffffffffffffffffffffffffffffff16815260200190815260200160002054613e2990919063ffffffff16565b600960008a73ffffffffffffffffffffffffffffffffffffffff1673ffffffffffffffffffffffffffffffffffffffff16815260200190815260200160002081905550600760008573ffffffffffffffffffffffffffffffffffffffff1673ffffffffffffffffffffffffffffffffffffffff16815260200190815260200160002060008973ffffffffffffffffffffffffffffffffffffffff1673ffffffffffffffffffffffffffffffffffffffff1681526020019081526020016000205491506137c98383613da090919063ffffffff16565b600760008673ffffffffffffffffffffffffffffffffffffffff1673ffffffffffffffffffffffffffffffffffffffff16815260200190815260200160002060008a73ffffffffffffffffffffffffffffffffffffffff1673ffffffffffffffffffffffffffffffffffffffff1681526020019081526020016000208190555060048081111561385557fe5b8473ffffffffffffffffffffffffffffffffffffffff163373ffffffffffffffffffffffffffffffffffffffff167f653b92b032b40abc7aca9380d0f9d429d875dd5348845d3d16eb97961038f7c58b876001604051808473ffffffffffffffffffffffffffffffffffffffff1673ffffffffffffffffffffffffffffffffffffffff1681526020018381526020018260018111156138f057fe5b60ff168152602001935050505060405180910390a45b61390e612963565b73ffffffffffffffffffffffffffffffffffffffff168973ffffffffffffffffffffffffffffffffffffffff1614156139505761394b8887611419565b613bb4565b6139a286600960008b73ffffffffffffffffffffffffffffffffffffffff1673ffffffffffffffffffffffffffffffffffffffff16815260200190815260200160002054613e2990919063ffffffff16565b600960008a73ffffffffffffffffffffffffffffffffffffffff1673ffffffffffffffffffffffffffffffffffffffff16815260200190815260200160002081905550600760008a73ffffffffffffffffffffffffffffffffffffffff1673ffffffffffffffffffffffffffffffffffffffff16815260200190815260200160002060008973ffffffffffffffffffffffffffffffffffffffff1673ffffffffffffffffffffffffffffffffffffffff168152602001908152602001600020549050613a778682613da090919063ffffffff16565b600760008b73ffffffffffffffffffffffffffffffffffffffff1673ffffffffffffffffffffffffffffffffffffffff16815260200190815260200160002060008a73ffffffffffffffffffffffffffffffffffffffff1673ffffffffffffffffffffffffffffffffffffffff16815260200190815260200160002081905550600480811115613b0357fe5b8973ffffffffffffffffffffffffffffffffffffffff163373ffffffffffffffffffffffffffffffffffffffff167f653b92b032b40abc7aca9380d0f9d429d875dd5348845d3d16eb97961038f7c58b8a6001604051808473ffffffffffffffffffffffffffffffffffffffff1673ffffffffffffffffffffffffffffffffffffffff168152602001838152602001826001811115613b9e57fe5b60ff168152602001935050505060405180910390a45b505050505050505050565b600160149054906101000a900460ff16151515613c6a576040517f08c379a00000000000000000000000000000000000000000000000000000000081526004018080602001828103825260258152602001807f4f6e6c7920756e696e697469616c697a656420636f6e74726163747320616c6c81526020017f6f7765642e00000000000000000000000000000000000000000000000000000081525060400191505060405180910390fd5b60018060146101000a81548160ff02191690831515021790555082600260006101000a81548173ffffffffffffffffffffffffffffffffffffffff021916908373ffffffffffffffffffffffffffffffffffffffff1602179055507fde5956cb7c56d500c01cb9212b22d5716fcc95ec5ad4b4aab77d39a4bc20f806836001604051808373ffffffffffffffffffffffffffffffffffffffff1673ffffffffffffffffffffffffffffffffffffffff168152602001821515151581526020019250505060405180910390a1613d3e84613e4a565b81600160156101000a81548160ff021916908360ff16021790555080600160006101000a81548173ffffffffffffffffffffffffffffffffffffffff021916908373ffffffffffffffffffffffffffffffffffffffff16021790555050505050565b6000808284019050838110151515613db757600080fd5b8091505092915050565b6000806000841415613dd65760009150613df8565b8284029050828482811515613de757fe5b04141515613df457600080fd5b8091505b5092915050565b600080600083111515613e1157600080fd5b8284811515613e1c57fe5b0490508091505092915050565b600080838311151515613e3b57600080fd5b82840390508091505092915050565b600073ffffffffffffffffffffffffffffffffffffffff168173ffffffffffffffffffffffffffffffffffffffff1614151515613e8657600080fd5b8073ffffffffffffffffffffffffffffffffffffffff166000809054906101000a900473ffffffffffffffffffffffffffffffffffffffff1673ffffffffffffffffffffffffffffffffffffffff167f8be0079c531659141344cd1fd0a4f28419497f9722a3daafe3b4186f6b6457e060405160405180910390a3806000806101000a81548173ffffffffffffffffffffffffffffffffffffffff021916908373ffffffffffffffffffffffffffffffffffffffff160217905550505600a165627a7a723058206391a8e8ef3afef71cf7a682976c5bde9629c7e32fb6de5cfca7a0401f4a53870029",
  "source": "pragma solidity 0.4.25;\n\nimport \"./DecoMilestones.sol\";\nimport \"./DecoRelay.sol\";\nimport \"./DecoBaseProjectsMarketplace.sol\";\nimport \"../node_modules/openzeppelin-solidity/contracts/ownership/Ownable.sol\";\nimport \"../node_modules/openzeppelin-solidity/contracts/math/SafeMath.sol\";\nimport \"../node_modules/openzeppelin-solidity/contracts/token/ERC20/IERC20.sol\";\n\n\n/**\n * @title Escrow contract, every project deploys a clone and transfer ownership to the project client, so all\n *        funds not reserved to pay for a milestone can be safely moved in/out.\n */\ncontract DecoEscrow is DecoBaseProjectsMarketplace {\n    using SafeMath for uint256;\n\n    // Indicates if the current clone has been initialized.\n    bool internal isInitialized;\n\n    // Stores share fee that should apply on any successful distribution.\n    uint8 public shareFee;\n\n    // Authorized party for executing funds distribution operations.\n    address public authorizedAddress;\n\n    // State variable to track available ETH Escrow owner balance.\n    // Anything that is not blocked or distributed in favor of any party can be withdrawn by the owner.\n    uint public balance;\n\n    // Mapping of available for withdrawal funds by the address.\n    // Accounted amounts are excluded from the `balance`.\n    mapping (address => uint) public withdrawalAllowanceForAddress;\n\n    // Maps information about the amount of deposited and not blocked ERC20 token to the token address.\n    mapping(address => uint) public tokensBalance;\n\n    // Map information about the amount of tokens that is deposited into the contract address.\n    // This mapping may have less amount stored than actual contract tokens balance, to sync and update values\n    // use the function `syncTokenBalance(address _tokenAddress)` below.\n    mapping(address => uint) public contractTokensBalance;\n\n    /**\n     * Mapping of ERC20 tokens amounts to token addresses that are available for withdrawal for a given address.\n     * Accounted here amounts are excluded from the `tokensBalance`.\n     */\n    mapping(address => mapping(address => uint)) public tokensWithdrawalAllowanceForAddress;\n\n    // ETH amount blocked in Escrow.\n    // `balance` excludes this amount.\n    uint public blockedBalance;\n\n    // Mapping of the amount of ERC20 tokens to the the token address that are blocked in Escrow.\n    // A token value in `tokensBalance` excludes stored here amount.\n    mapping(address => uint) public blockedTokensBalance;\n\n    // Logged when an operation with funds occurred.\n    event FundsOperation (\n        address indexed sender,\n        address indexed target,\n        address tokenAddress,\n        uint amount,\n        PaymentType paymentType,\n        OperationType indexed operationType\n    );\n\n    // Logged when the given address authorization to distribute Escrow funds changed.\n    event FundsDistributionAuthorization (\n        address targetAddress,\n        bool isAuthorized\n    );\n\n    // Accepted types of payments.\n    enum PaymentType { Ether, Erc20 }\n\n    // Possible operations with funds.\n    enum OperationType { Receive, Send, Block, Unblock, Distribute }\n\n    // Restrict function call to be originated from an address that was authorized to distribute funds.\n    modifier onlyAuthorized() {\n        require(authorizedAddress == msg.sender, \"Only authorized addresses allowed.\");\n        _;\n    }\n\n    /**\n     * @dev Default `payable` fallback to accept incoming ETH from any address.\n     */\n    function () public payable {\n        deposit();\n    }\n\n    /**\n     * @dev Initialize the Escrow clone with default values.\n     * @param _newOwner An address of a new escrow owner.\n     * @param _authorizedAddress An address that will be stored as authorized.\n     */\n    function initialize(\n        address _newOwner,\n        address _authorizedAddress,\n        uint8 _shareFee,\n        address _relayContractAddress\n    )\n        external\n    {\n        require(!isInitialized, \"Only uninitialized contracts allowed.\");\n        isInitialized = true;\n        authorizedAddress = _authorizedAddress;\n        emit FundsDistributionAuthorization(_authorizedAddress, true);\n        _transferOwnership(_newOwner);\n        shareFee = _shareFee;\n        relayContractAddress = _relayContractAddress;\n    }\n\n    /**\n     * @dev Start transfering the given amount of the ERC20 tokens available by provided address.\n     * @param _tokenAddress ERC20 token contract address.\n     * @param _amount Amount to transfer from sender`s address.\n     */\n    function depositErc20(address _tokenAddress, uint _amount) external {\n        require(_tokenAddress != address(0x0), \"Token Address shouldn't be 0x0.\");\n        IERC20 token = IERC20(_tokenAddress);\n        require(\n            token.transferFrom(msg.sender, address(this), _amount),\n            \"Transfer operation should be successful.\"\n        );\n        tokensBalance[_tokenAddress] = tokensBalance[_tokenAddress].add(_amount);\n        contractTokensBalance[_tokenAddress] = contractTokensBalance[_tokenAddress].add(_amount);\n        emit FundsOperation (\n            msg.sender,\n            address(this),\n            _tokenAddress,\n            _amount,\n            PaymentType.Erc20,\n            OperationType.Receive\n        );\n    }\n\n    /**\n     * @dev Withdraw the given amount of ETH to sender`s address if allowance or contract balance is sufficient.\n     * @param _amount Amount to withdraw.\n     */\n    function withdraw(uint _amount) external {\n        withdrawForAddress(msg.sender, _amount);\n    }\n\n    /**\n     * @dev Withdraw the given amount of ERC20 token to sender`s address if allowance or contract balance is sufficient.\n     * @param _tokenAddress ERC20 token address.\n     * @param _amount Amount to withdraw.\n     */\n    function withdrawErc20(address _tokenAddress, uint _amount) external {\n        withdrawErc20ForAddress(msg.sender, _tokenAddress, _amount);\n    }\n\n    /**\n     * @dev Block funds for future use by authorized party stored in `authorizedAddress`.\n     * @param _amount An uint of Wei to be blocked.\n     */\n    function blockFunds(uint _amount) external onlyAuthorized {\n        require(_amount <= balance, \"Amount to block should be less or equal than balance.\");\n        balance = balance.sub(_amount);\n        blockedBalance = blockedBalance.add(_amount);\n        emit FundsOperation (\n            address(this),\n            msg.sender,\n            address(0x0),\n            _amount,\n            PaymentType.Ether,\n            OperationType.Block\n        );\n    }\n\n    /**\n     * @dev Blocks ERC20 tokens funds for future use by authorized party listed in `authorizedAddress`.\n     * @param _tokenAddress An address of ERC20 token.\n     * @param _amount An uint of tokens to be blocked.\n     */\n    function blockTokenFunds(address _tokenAddress, uint _amount) external onlyAuthorized {\n        uint accountedTokensBalance = tokensBalance[_tokenAddress];\n        require(\n            _amount <= accountedTokensBalance,\n            \"Tokens mount to block should be less or equal than balance.\"\n        );\n        tokensBalance[_tokenAddress] = accountedTokensBalance.sub(_amount);\n        blockedTokensBalance[_tokenAddress] = blockedTokensBalance[_tokenAddress].add(_amount);\n        emit FundsOperation (\n            address(this),\n            msg.sender,\n            _tokenAddress,\n            _amount,\n            PaymentType.Erc20,\n            OperationType.Block\n        );\n    }\n\n    /**\n     * @dev Distribute funds between contract`s balance and allowance for some address.\n     *  Deposit may be returned back to the contract address, i.e. to the escrow owner.\n     *  Or deposit may flow to the allowance for an address as a result of an evidence\n     *  given by an authorized party about fullfilled obligations.\n     *  **IMPORTANT** This operation includes fees deduction.\n     * @param _destination Destination address for funds distribution.\n     * @param _amount Amount to distribute in favor of a destination address.\n     */\n    function distributeFunds(\n        address _destination,\n        uint _amount\n    )\n        external\n        onlyAuthorized\n    {\n        require(\n            _amount <= blockedBalance,\n            \"Amount to distribute should be less or equal than blocked balance.\"\n        );\n        uint amount = _amount;\n        if (shareFee > 0 && relayContractAddress != address(0x0)) {\n            DecoRelay relayContract = DecoRelay(relayContractAddress);\n            address feeDestination = relayContract.feesWithdrawalAddress();\n            uint fee = amount.mul(shareFee).div(100);\n            amount = amount.sub(fee);\n            blockedBalance = blockedBalance.sub(fee);\n            withdrawalAllowanceForAddress[feeDestination] =\n                withdrawalAllowanceForAddress[feeDestination].add(fee);\n            emit FundsOperation(\n                msg.sender,\n                feeDestination,\n                address(0x0),\n                fee,\n                PaymentType.Ether,\n                OperationType.Distribute\n            );\n        }\n        if (_destination == owner()) {\n            unblockFunds(amount);\n            return;\n        }\n        blockedBalance = blockedBalance.sub(amount);\n        withdrawalAllowanceForAddress[_destination] = withdrawalAllowanceForAddress[_destination].add(amount);\n        emit FundsOperation(\n            msg.sender,\n            _destination,\n            address(0x0),\n            amount,\n            PaymentType.Ether,\n            OperationType.Distribute\n        );\n    }\n\n    /**\n     * @dev Distribute ERC20 token funds between contract`s balance and allowanc for some address.\n     *  Deposit may be returned back to the contract address, i.e. to the escrow owner.\n     *  Or deposit may flow to the allowance for an address as a result of an evidence\n     *  given by authorized party about fullfilled obligations.\n     *  **IMPORTANT** This operation includes fees deduction.\n     * @param _destination Destination address for funds distribution.\n     * @param _tokenAddress ERC20 Token address.\n     * @param _amount Amount to distribute in favor of a destination address.\n     */\n    function distributeTokenFunds(\n        address _destination,\n        address _tokenAddress,\n        uint _amount\n    )\n        external\n        onlyAuthorized\n    {\n        require(\n            _amount <= blockedTokensBalance[_tokenAddress],\n            \"Amount to distribute should be less or equal than blocked balance.\"\n        );\n        uint amount = _amount;\n        if (shareFee > 0 && relayContractAddress != address(0x0)) {\n            DecoRelay relayContract = DecoRelay(relayContractAddress);\n            address feeDestination = relayContract.feesWithdrawalAddress();\n            uint fee = amount.mul(shareFee).div(100);\n            amount = amount.sub(fee);\n            blockedTokensBalance[_tokenAddress] = blockedTokensBalance[_tokenAddress].sub(fee);\n            uint allowance = tokensWithdrawalAllowanceForAddress[feeDestination][_tokenAddress];\n            tokensWithdrawalAllowanceForAddress[feeDestination][_tokenAddress] = allowance.add(fee);\n            emit FundsOperation(\n                msg.sender,\n                feeDestination,\n                _tokenAddress,\n                fee,\n                PaymentType.Erc20,\n                OperationType.Distribute\n            );\n        }\n        if (_destination == owner()) {\n            unblockTokenFunds(_tokenAddress, amount);\n            return;\n        }\n        blockedTokensBalance[_tokenAddress] = blockedTokensBalance[_tokenAddress].sub(amount);\n        uint allowanceForSender = tokensWithdrawalAllowanceForAddress[_destination][_tokenAddress];\n        tokensWithdrawalAllowanceForAddress[_destination][_tokenAddress] = allowanceForSender.add(amount);\n        emit FundsOperation(\n            msg.sender,\n            _destination,\n            _tokenAddress,\n            amount,\n            PaymentType.Erc20,\n            OperationType.Distribute\n        );\n    }\n\n    /**\n     * @dev Withdraws ETH amount from the contract's balance to the provided address.\n     * @param _targetAddress An `address` for transfer ETH to.\n     * @param _amount An `uint` amount to be transfered.\n     */\n    function withdrawForAddress(address _targetAddress, uint _amount) public {\n        require(\n            _amount <= address(this).balance,\n            \"Amount to withdraw should be less or equal than balance.\"\n        );\n        if (_targetAddress == owner()) {\n            balance = balance.sub(_amount);\n        } else {\n            uint withdrawalAllowance = withdrawalAllowanceForAddress[_targetAddress];\n            withdrawalAllowanceForAddress[_targetAddress] = withdrawalAllowance.sub(_amount);\n        }\n        _targetAddress.transfer(_amount);\n        emit FundsOperation (\n            address(this),\n            _targetAddress,\n            address(0x0),\n            _amount,\n            PaymentType.Ether,\n            OperationType.Send\n        );\n    }\n\n    /**\n     * @dev Withdraws ERC20 token amount from the contract's balance to the provided address.\n     * @param _targetAddress An `address` for transfer tokens to.\n     * @param _tokenAddress An `address` of ERC20 token.\n     * @param _amount An `uint` amount of ERC20 tokens to be transfered.\n     */\n    function withdrawErc20ForAddress(address _targetAddress, address _tokenAddress, uint _amount) public {\n        IERC20 token = IERC20(_tokenAddress);\n        require(\n            _amount <= token.balanceOf(this),\n            \"Token amount to withdraw should be less or equal than balance.\"\n        );\n        if (_targetAddress == owner()) {\n            tokensBalance[_tokenAddress] = tokensBalance[_tokenAddress].sub(_amount);\n        } else {\n            uint tokenWithdrawalAllowance = getTokenWithdrawalAllowance(_targetAddress, _tokenAddress);\n            tokensWithdrawalAllowanceForAddress[_targetAddress][_tokenAddress] = tokenWithdrawalAllowance.sub(\n                _amount\n            );\n        }\n        contractTokensBalance[_tokenAddress] = contractTokensBalance[_tokenAddress].sub(_amount);\n        token.transfer(_targetAddress, _amount);\n        emit FundsOperation (\n            address(this),\n            _targetAddress,\n            _tokenAddress,\n            _amount,\n            PaymentType.Erc20,\n            OperationType.Send\n        );\n    }\n\n    /**\n     * @dev Returns allowance for withdrawing the given token for sender address.\n     * @param _tokenAddress An address of ERC20 token.\n     * @return An uint value of allowance.\n     */\n    function getTokenWithdrawalAllowance(address _account, address _tokenAddress) public view returns(uint) {\n        return tokensWithdrawalAllowanceForAddress[_account][_tokenAddress];\n    }\n\n    /**\n     * @dev Accept and account incoming deposit in contract state.\n     */\n    function deposit() public payable {\n        require(msg.value > 0, \"Deposited amount should be greater than 0.\");\n        balance = balance.add(msg.value);\n        emit FundsOperation (\n            msg.sender,\n            address(this),\n            address(0x0),\n            msg.value,\n            PaymentType.Ether,\n            OperationType.Receive\n        );\n    }\n\n    /**\n     * @dev Unblock blocked funds and make them available to the contract owner.\n     * @param _amount An uint of Wei to be unblocked.\n     */\n    function unblockFunds(uint _amount) public onlyAuthorized {\n        require(\n            _amount <= blockedBalance,\n            \"Amount to unblock should be less or equal than balance\"\n        );\n        blockedBalance = blockedBalance.sub(_amount);\n        balance = balance.add(_amount);\n        emit FundsOperation (\n            msg.sender,\n            address(this),\n            address(0x0),\n            _amount,\n            PaymentType.Ether,\n            OperationType.Unblock\n        );\n    }\n\n    /**\n     * @dev Unblock blocked token funds and make them available to the contract owner.\n     * @param _amount An uint of Wei to be unblocked.\n     */\n    function unblockTokenFunds(address _tokenAddress, uint _amount) public onlyAuthorized {\n        uint accountedBlockedTokensAmount = blockedTokensBalance[_tokenAddress];\n        require(\n            _amount <= accountedBlockedTokensAmount,\n            \"Tokens amount to unblock should be less or equal than balance\"\n        );\n        blockedTokensBalance[_tokenAddress] = accountedBlockedTokensAmount.sub(_amount);\n        tokensBalance[_tokenAddress] = tokensBalance[_tokenAddress].add(_amount);\n        emit FundsOperation (\n            msg.sender,\n            address(this),\n            _tokenAddress,\n            _amount,\n            PaymentType.Erc20,\n            OperationType.Unblock\n        );\n    }\n\n    /**\n     * @dev Sync actual token balance, save to the storage, and reflect changes in `tokensBalance` mapping.\n     *      ERC20 tokens may be deployed directly to this contract address from anywhere and to make funds\n     *      available for distibution/blocking/withdrawing this method should be called to align stored\n     *      contact balance with the actual one.\n     * @param _token An `IERC20` token.\n     */\n    function syncTokenBalance(IERC20 _token) public {\n        uint contractTokenBalance = _token.balanceOf(address(this));\n        require(\n            isSyncNeededForToken(_token),\n            \"Stored contract token balance should be less or equal than the actual one.\"\n        );\n        tokensBalance[_token] =\n            contractTokenBalance.sub(contractTokensBalance[_token]).add(tokensBalance[_token]);\n        contractTokensBalance[_token] = contractTokenBalance;\n    }\n\n    /**\n     * @dev Helper to determine if sync of the balance for token is required.\n     * @param _token An `IERC20` token.\n     * @return `true` if the real token balance is greater than stored one, otherwise  `false`.\n     */\n    function isSyncNeededForToken(IERC20 _token) public view returns(bool) {\n        return _token.balanceOf(address(this)) > contractTokensBalance[_token];\n    }\n\n    /**\n     * @dev Override base contract logic to block this operation for Escrow contract.\n     * @param _tokenAddress An `address` of an ERC20 token.\n     * @param _tokens An `uint` tokens amount.\n     * @return A `bool` operation result state.\n     */\n    function transferAnyERC20Token(\n        address _tokenAddress,\n        uint _tokens\n    )\n        public\n        onlyOwner\n        returns (bool success)\n    {\n        return false;\n    }\n}\n",
  "sourcePath": "/Users/chris/Documents/WorkStuff/Deconet/Blockchain/DeconetProjectsMarketContracts/contracts/DecoEscrow.sol",
  "compiler": {
    "name": "solc",
    "version": "0.4.25+commit.59dbf8f1.Emscripten.clang"
  },
  "schemaVersion": "3.0.0-beta.2",
  "updatedAt": "2019-02-13T02:26:57.818Z",
  "devdoc": {
    "methods": {
      "blockFunds(uint256)": {
        "details": "Block funds for future use by authorized party stored in `authorizedAddress`.",
        "params": {
          "_amount": "An uint of Wei to be blocked."
        }
      },
      "blockTokenFunds(address,uint256)": {
        "details": "Blocks ERC20 tokens funds for future use by authorized party listed in `authorizedAddress`.",
        "params": {
          "_amount": "An uint of tokens to be blocked.",
          "_tokenAddress": "An address of ERC20 token."
        }
      },
      "deposit()": {
        "details": "Accept and account incoming deposit in contract state."
      },
      "depositErc20(address,uint256)": {
        "details": "Start transfering the given amount of the ERC20 tokens available by provided address.",
        "params": {
          "_amount": "Amount to transfer from sender`s address.",
          "_tokenAddress": "ERC20 token contract address."
        }
      },
      "distributeFunds(address,uint256)": {
        "details": "Distribute funds between contract`s balance and allowance for some address. Deposit may be returned back to the contract address, i.e. to the escrow owner. Or deposit may flow to the allowance for an address as a result of an evidence given by an authorized party about fullfilled obligations. **IMPORTANT** This operation includes fees deduction.",
        "params": {
          "_amount": "Amount to distribute in favor of a destination address.",
          "_destination": "Destination address for funds distribution."
        }
      },
      "distributeTokenFunds(address,address,uint256)": {
        "details": "Distribute ERC20 token funds between contract`s balance and allowanc for some address. Deposit may be returned back to the contract address, i.e. to the escrow owner. Or deposit may flow to the allowance for an address as a result of an evidence given by authorized party about fullfilled obligations. **IMPORTANT** This operation includes fees deduction.",
        "params": {
          "_amount": "Amount to distribute in favor of a destination address.",
          "_destination": "Destination address for funds distribution.",
          "_tokenAddress": "ERC20 Token address."
        }
      },
      "getTokenWithdrawalAllowance(address,address)": {
        "details": "Returns allowance for withdrawing the given token for sender address.",
        "params": {
          "_tokenAddress": "An address of ERC20 token."
        },
        "return": "An uint value of allowance."
      },
      "initialize(address,address,uint8,address)": {
        "details": "Initialize the Escrow clone with default values.",
        "params": {
          "_authorizedAddress": "An address that will be stored as authorized.",
          "_newOwner": "An address of a new escrow owner."
        }
      },
      "isOwner()": {
        "return": "true if `msg.sender` is the owner of the contract."
      },
      "isSyncNeededForToken(address)": {
        "details": "Helper to determine if sync of the balance for token is required.",
        "params": {
          "_token": "An `IERC20` token."
        },
        "return": "`true` if the real token balance is greater than stored one, otherwise  `false`."
      },
      "owner()": {
        "return": "the address of the owner."
      },
      "renounceOwnership()": {
        "details": "Allows the current owner to relinquish control of the contract."
      },
      "setRelayContractAddress(address)": {
        "details": "Set the new address of the `DecoRelay` contract.",
        "params": {
          "_newAddress": "An address of the new contract."
        }
      },
      "syncTokenBalance(address)": {
        "details": "Sync actual token balance, save to the storage, and reflect changes in `tokensBalance` mapping.     ERC20 tokens may be deployed directly to this contract address from anywhere and to make funds     available for distibution/blocking/withdrawing this method should be called to align stored     contact balance with the actual one.",
        "params": {
          "_token": "An `IERC20` token."
        }
      },
      "transferAnyERC20Token(address,uint256)": {
        "details": "Override base contract logic to block this operation for Escrow contract.",
        "params": {
          "_tokenAddress": "An `address` of an ERC20 token.",
          "_tokens": "An `uint` tokens amount."
        },
        "return": "A `bool` operation result state."
      },
      "transferOwnership(address)": {
        "details": "Allows the current owner to transfer control of the contract to a newOwner.",
        "params": {
          "newOwner": "The address to transfer ownership to."
        }
      },
      "unblockFunds(uint256)": {
        "details": "Unblock blocked funds and make them available to the contract owner.",
        "params": {
          "_amount": "An uint of Wei to be unblocked."
        }
      },
      "unblockTokenFunds(address,uint256)": {
        "details": "Unblock blocked token funds and make them available to the contract owner.",
        "params": {
          "_amount": "An uint of Wei to be unblocked."
        }
      },
      "withdraw(uint256)": {
        "details": "Withdraw the given amount of ETH to sender`s address if allowance or contract balance is sufficient.",
        "params": {
          "_amount": "Amount to withdraw."
        }
      },
      "withdrawErc20(address,uint256)": {
        "details": "Withdraw the given amount of ERC20 token to sender`s address if allowance or contract balance is sufficient.",
        "params": {
          "_amount": "Amount to withdraw.",
          "_tokenAddress": "ERC20 token address."
        }
      },
      "withdrawErc20ForAddress(address,address,uint256)": {
        "details": "Withdraws ERC20 token amount from the contract's balance to the provided address.",
        "params": {
          "_amount": "An `uint` amount of ERC20 tokens to be transfered.",
          "_targetAddress": "An `address` for transfer tokens to.",
          "_tokenAddress": "An `address` of ERC20 token."
        }
      },
      "withdrawForAddress(address,uint256)": {
        "details": "Withdraws ETH amount from the contract's balance to the provided address.",
        "params": {
          "_amount": "An `uint` amount to be transfered.",
          "_targetAddress": "An `address` for transfer ETH to."
        }
      }
    },
    "title": "Escrow contract, every project deploys a clone and transfer ownership to the project client, so all       funds not reserved to pay for a milestone can be safely moved in/out."
  },
  "userdoc": {
    "methods": {
      "renounceOwnership()": {
        "notice": "Renouncing to ownership will leave the contract without an owner. It will not be possible to call the functions with the `onlyOwner` modifier anymore."
      }
    }
  }
}